{"abi":[{"type":"constructor","inputs":[{"name":"initialOwner","type":"address","internalType":"address"}],"stateMutability":"nonpayable"},{"type":"function","name":"SEI_CHAIN_ID","inputs":[],"outputs":[{"name":"","type":"uint256","internalType":"uint256"}],"stateMutability":"view"},{"type":"function","name":"activeModels","inputs":[{"name":"","type":"uint256","internalType":"uint256"}],"outputs":[{"name":"","type":"string","internalType":"string"}],"stateMutability":"view"},{"type":"function","name":"aiModels","inputs":[{"name":"","type":"string","internalType":"string"}],"outputs":[{"name":"version","type":"string","internalType":"string"},{"name":"signer","type":"address","internalType":"address"},{"name":"isActive","type":"bool","internalType":"bool"},{"name":"successRate","type":"uint256","internalType":"uint256"},{"name":"totalRequests","type":"uint256","internalType":"uint256"}],"stateMutability":"view"},{"type":"function","name":"averageExecutionTime","inputs":[],"outputs":[{"name":"","type":"uint256","internalType":"uint256"}],"stateMutability":"view"},{"type":"function","name":"deactivateModel","inputs":[{"name":"model","type":"string","internalType":"string"}],"outputs":[],"stateMutability":"nonpayable"},{"type":"function","name":"executeRebalanceRequest","inputs":[{"name":"requestId","type":"bytes32","internalType":"bytes32"},{"name":"model","type":"string","internalType":"string"}],"outputs":[{"name":"success","type":"bool","internalType":"bool"}],"stateMutability":"nonpayable"},{"type":"function","name":"getModelPerformance","inputs":[{"name":"model","type":"string","internalType":"string"}],"outputs":[{"name":"successRate","type":"uint256","internalType":"uint256"},{"name":"modelTotalRequests","type":"uint256","internalType":"uint256"},{"name":"isActive","type":"bool","internalType":"bool"}],"stateMutability":"view"},{"type":"function","name":"owner","inputs":[],"outputs":[{"name":"","type":"address","internalType":"address"}],"stateMutability":"view"},{"type":"function","name":"primaryModel","inputs":[],"outputs":[{"name":"","type":"string","internalType":"string"}],"stateMutability":"view"},{"type":"function","name":"registerAIModel","inputs":[{"name":"model","type":"string","internalType":"string"},{"name":"signer","type":"address","internalType":"address"}],"outputs":[],"stateMutability":"nonpayable"},{"type":"function","name":"renounceOwnership","inputs":[],"outputs":[],"stateMutability":"nonpayable"},{"type":"function","name":"requests","inputs":[{"name":"","type":"bytes32","internalType":"bytes32"}],"outputs":[{"name":"vault","type":"address","internalType":"address"},{"name":"newTickLower","type":"int24","internalType":"int24"},{"name":"newTickUpper","type":"int24","internalType":"int24"},{"name":"confidence","type":"uint256","internalType":"uint256"},{"name":"timestamp","type":"uint256","internalType":"uint256"},{"name":"deadline","type":"uint256","internalType":"uint256"},{"name":"executed","type":"bool","internalType":"bool"}],"stateMutability":"view"},{"type":"function","name":"setPrimaryModel","inputs":[{"name":"model","type":"string","internalType":"string"}],"outputs":[],"stateMutability":"nonpayable"},{"type":"function","name":"submitRebalanceRequest","inputs":[{"name":"vault","type":"address","internalType":"address"},{"name":"newTickLower","type":"int24","internalType":"int24"},{"name":"newTickUpper","type":"int24","internalType":"int24"},{"name":"confidence","type":"uint256","internalType":"uint256"},{"name":"deadline","type":"uint256","internalType":"uint256"},{"name":"model","type":"string","internalType":"string"},{"name":"signature","type":"bytes","internalType":"bytes"}],"outputs":[{"name":"requestId","type":"bytes32","internalType":"bytes32"}],"stateMutability":"nonpayable"},{"type":"function","name":"successfulRequests","inputs":[],"outputs":[{"name":"","type":"uint256","internalType":"uint256"}],"stateMutability":"view"},{"type":"function","name":"totalRequests","inputs":[],"outputs":[{"name":"","type":"uint256","internalType":"uint256"}],"stateMutability":"view"},{"type":"function","name":"transferOwnership","inputs":[{"name":"newOwner","type":"address","internalType":"address"}],"outputs":[],"stateMutability":"nonpayable"},{"type":"function","name":"vaultRequestCount","inputs":[{"name":"","type":"address","internalType":"address"}],"outputs":[{"name":"","type":"uint256","internalType":"uint256"}],"stateMutability":"view"},{"type":"event","name":"AIRequestExecuted","inputs":[{"name":"requestId","type":"bytes32","indexed":true,"internalType":"bytes32"},{"name":"success","type":"bool","indexed":false,"internalType":"bool"},{"name":"gasUsed","type":"uint256","indexed":false,"internalType":"uint256"}],"anonymous":false},{"type":"event","name":"AIRequestSubmitted","inputs":[{"name":"requestId","type":"bytes32","indexed":true,"internalType":"bytes32"},{"name":"vault","type":"address","indexed":true,"internalType":"address"},{"name":"model","type":"string","indexed":false,"internalType":"string"}],"anonymous":false},{"type":"event","name":"ModelDeactivated","inputs":[{"name":"model","type":"string","indexed":false,"internalType":"string"}],"anonymous":false},{"type":"event","name":"ModelRegistered","inputs":[{"name":"model","type":"string","indexed":false,"internalType":"string"},{"name":"signer","type":"address","indexed":false,"internalType":"address"}],"anonymous":false},{"type":"event","name":"OwnershipTransferred","inputs":[{"name":"previousOwner","type":"address","indexed":true,"internalType":"address"},{"name":"newOwner","type":"address","indexed":true,"internalType":"address"}],"anonymous":false},{"type":"error","name":"ECDSAInvalidSignature","inputs":[]},{"type":"error","name":"ECDSAInvalidSignatureLength","inputs":[{"name":"length","type":"uint256","internalType":"uint256"}]},{"type":"error","name":"ECDSAInvalidSignatureS","inputs":[{"name":"s","type":"bytes32","internalType":"bytes32"}]},{"type":"error","name":"InvalidChain","inputs":[]},{"type":"error","name":"InvalidSigner","inputs":[]},{"type":"error","name":"OwnableInvalidOwner","inputs":[{"name":"owner","type":"address","internalType":"address"}]},{"type":"error","name":"OwnableUnauthorizedAccount","inputs":[{"name":"account","type":"address","internalType":"address"}]},{"type":"error","name":"ReentrancyGuardReentrantCall","inputs":[]},{"type":"error","name":"RequestAlreadyExecuted","inputs":[]},{"type":"error","name":"RequestExpired","inputs":[]},{"type":"error","name":"RequestNotFound","inputs":[]}],"bytecode":{"object":"0x608060405234801562000010575f80fd5b506040516200353838038062003538833981810160405281019062000036919062000238565b805f73ffffffffffffffffffffffffffffffffffffffff168173ffffffffffffffffffffffffffffffffffffffff1603620000aa575f6040517f1e4fbdf7000000000000000000000000000000000000000000000000000000008152600401620000a1919062000279565b60405180910390fd5b620000bb816200011260201b60201c565b5060018081905550620ae3f346146200010b576040517f08c379a00000000000000000000000000000000000000000000000000000000081526004016200010290620002f2565b60405180910390fd5b5062000312565b5f805f9054906101000a900473ffffffffffffffffffffffffffffffffffffffff169050815f806101000a81548173ffffffffffffffffffffffffffffffffffffffff021916908373ffffffffffffffffffffffffffffffffffffffff1602179055508173ffffffffffffffffffffffffffffffffffffffff168173ffffffffffffffffffffffffffffffffffffffff167f8be0079c531659141344cd1fd0a4f28419497f9722a3daafe3b4186f6b6457e060405160405180910390a35050565b5f80fd5b5f73ffffffffffffffffffffffffffffffffffffffff82169050919050565b5f6200020282620001d7565b9050919050565b6200021481620001f6565b81146200021f575f80fd5b50565b5f81519050620002328162000209565b92915050565b5f6020828403121562000250576200024f620001d3565b5b5f6200025f8482850162000222565b91505092915050565b6200027381620001f6565b82525050565b5f6020820190506200028e5f83018462000268565b92915050565b5f82825260208201905092915050565b7f496e76616c696420636861696e000000000000000000000000000000000000005f82015250565b5f620002da600d8362000294565b9150620002e782620002a4565b602082019050919050565b5f6020820190508181035f8301526200030b81620002cc565b9050919050565b61321880620003205f395ff3fe608060405234801561000f575f80fd5b5060043610610114575f3560e01c80638ec6901d116100a0578063d7beb4b91161006f578063d7beb4b9146102d4578063d8be708514610304578063f03e748a14610338578063f2fde38b14610354578063f6d929ff1461037057610114565b80638ec6901d146102205780639d86698514610250578063c7f0744714610286578063d3d0d168146102a457610114565b80636c36a1b1116100e75780636c36a1b11461018c578063715018a6146101aa5780638aea61dc146101b45780638da5cb5b146101d25780638e8690bf146101f057610114565b8063504e3c691461011857806352823042146101345780635fe9aef31461015057806367ba100a1461016e575b5f80fd5b610132600480360381019061012d9190611c44565b6103a2565b005b61014e60048036038101906101499190611ce9565b610430565b005b6101586106ee565b6040516101659190611dd0565b60405180910390f35b61017661077a565b6040516101839190611e08565b60405180910390f35b610194610780565b6040516101a19190611e08565b60405180910390f35b6101b2610786565b005b6101bc610799565b6040516101c99190611e08565b60405180910390f35b6101da61079f565b6040516101e79190611e30565b60405180910390f35b61020a60048036038101906102059190611e73565b6107c6565b6040516102179190611dd0565b60405180910390f35b61023a60048036038101906102359190611f29565b61086c565b604051610247919061201d565b60405180910390f35b61026a60048036038101906102659190612060565b610eac565b60405161027d97969594939291906120b4565b60405180910390f35b61028e610f2d565b60405161029b9190611e08565b60405180910390f35b6102be60048036038101906102b99190612121565b610f34565b6040516102cb919061217e565b60405180910390f35b6102ee60048036038101906102e99190612197565b611353565b6040516102fb9190611e08565b60405180910390f35b61031e600480360381019061031991906122ea565b611368565b60405161032f959493929190612331565b60405180910390f35b610352600480360381019061034d9190611c44565b611464565b005b61036e60048036038101906103699190612197565b611554565b005b61038a60048036038101906103859190611c44565b6115d8565b60405161039993929190612389565b60405180910390f35b6103aa611739565b600282826040516103bc9291906123ec565b908152602001604051809103902060010160149054906101000a900460ff1661041a576040517f08c379a00000000000000000000000000000000000000000000000000000000081526004016104119061244e565b60405180910390fd5b81816004918261042b929190612670565b505050565b610438611739565b5f73ffffffffffffffffffffffffffffffffffffffff168173ffffffffffffffffffffffffffffffffffffffff16036104a6576040517f08c379a000000000000000000000000000000000000000000000000000000000815260040161049d90612787565b60405180910390fd5b600283836040516104b89291906123ec565b908152602001604051809103902060010160149054906101000a900460ff1615610517576040517f08c379a000000000000000000000000000000000000000000000000000000000815260040161050e906127ef565b60405180910390fd5b6040518060a0016040528084848080601f0160208091040260200160405190810160405280939291908181526020018383808284375f81840152601f19601f8201169050808301925050505050505081526020018273ffffffffffffffffffffffffffffffffffffffff1681526020016001151581526020015f81526020015f815250600284846040516105ac9291906123ec565b90815260200160405180910390205f820151815f0190816105cd919061280d565b506020820151816001015f6101000a81548173ffffffffffffffffffffffffffffffffffffffff021916908373ffffffffffffffffffffffffffffffffffffffff16021790555060408201518160010160146101000a81548160ff02191690831515021790555060608201518160020155608082015181600301559050506003838390918060018154018082558091505060019003905f5260205f20015f909192909192909192909192509182610685929190612670565b505f60048054610694906124a3565b9050036106ae578282600491826106ac929190612670565b505b7ffb136e664a5a095e1220d33773fe2d825de4095dfb4fb5d0515927a1448745838383836040516106e193929190612908565b60405180910390a1505050565b600480546106fb906124a3565b80601f0160208091040260200160405190810160405280929190818152602001828054610727906124a3565b80156107725780601f1061074957610100808354040283529160200191610772565b820191905f5260205f20905b81548152906001019060200180831161075557829003601f168201915b505050505081565b60085481565b60095481565b61078e611739565b6107975f6117c0565b565b60075481565b5f805f9054906101000a900473ffffffffffffffffffffffffffffffffffffffff16905090565b600381815481106107d5575f80fd5b905f5260205f20015f9150905080546107ed906124a3565b80601f0160208091040260200160405190810160405280929190818152602001828054610819906124a3565b80156108645780601f1061083b57610100808354040283529160200191610864565b820191905f5260205f20905b81548152906001019060200180831161084757829003601f168201915b505050505081565b5f620ae3f346146108b2576040517f08c379a00000000000000000000000000000000000000000000000000000000081526004016108a990612982565b60405180910390fd5b8484600282826040516108c69291906123ec565b908152602001604051809103902060010160149054906101000a900460ff16610924576040517f08c379a000000000000000000000000000000000000000000000000000000000815260040161091b9061244e565b60405180910390fd5b5f73ffffffffffffffffffffffffffffffffffffffff168c73ffffffffffffffffffffffffffffffffffffffff1603610992576040517f08c379a0000000000000000000000000000000000000000000000000000000008152600401610989906129ea565b60405180910390fd5b4288116109d4576040517f08c379a00000000000000000000000000000000000000000000000000000000081526004016109cb90612a52565b60405180910390fd5b612710891115610a19576040517f08c379a0000000000000000000000000000000000000000000000000000000008152600401610a1090612aba565b60405180910390fd5b8b8b8b8b4233604051602001610a3496959493929190612b71565b6040516020818303038152906040528051906020012092505f73ffffffffffffffffffffffffffffffffffffffff1660055f8581526020019081526020015f205f015f9054906101000a900473ffffffffffffffffffffffffffffffffffffffff1673ffffffffffffffffffffffffffffffffffffffff1614610aec576040517f08c379a0000000000000000000000000000000000000000000000000000000008152600401610ae390612c2a565b60405180910390fd5b60418585905014610b32576040517f08c379a0000000000000000000000000000000000000000000000000000000008152600401610b2990612c92565b60405180910390fd5b5f610b6a8d8d8d8d8d604051602001610b4f959493929190612cb0565b60405160208183030381529060405280519060200120611881565b90505f610bc387878080601f0160208091040260200160405190810160405280939291908181526020018383808284375f81840152601f19601f82011690508083019250505050505050836118b490919063ffffffff16565b905060028989604051610bd79291906123ec565b90815260200160405180910390206001015f9054906101000a900473ffffffffffffffffffffffffffffffffffffffff1673ffffffffffffffffffffffffffffffffffffffff168173ffffffffffffffffffffffffffffffffffffffff1614610c75576040517f08c379a0000000000000000000000000000000000000000000000000000000008152600401610c6c90612c92565b60405180910390fd5b6040518060e001604052808f73ffffffffffffffffffffffffffffffffffffffff1681526020018e60020b81526020018d60020b81526020018c81526020014281526020018b81526020015f151581525060055f8781526020019081526020015f205f820151815f015f6101000a81548173ffffffffffffffffffffffffffffffffffffffff021916908373ffffffffffffffffffffffffffffffffffffffff1602179055506020820151815f0160146101000a81548162ffffff021916908360020b62ffffff1602179055506040820151815f0160176101000a81548162ffffff021916908360020b62ffffff160217905550606082015181600101556080820151816002015560a0820151816003015560c0820151816004015f6101000a81548160ff02191690831515021790555090505060065f8f73ffffffffffffffffffffffffffffffffffffffff1673ffffffffffffffffffffffffffffffffffffffff1681526020019081526020015f205f815480929190610df690612d3b565b919050555060075f815480929190610e0d90612d3b565b919050555060028989604051610e249291906123ec565b90815260200160405180910390206003015f815480929190610e4590612d3b565b91905055508d73ffffffffffffffffffffffffffffffffffffffff16857f44373028788bc5137f4aa7a5ff12a286919a85d17ca7c8be5422f9236278b23e8b8b604051610e93929190612d82565b60405180910390a3505050509998505050505050505050565b6005602052805f5260405f205f91509050805f015f9054906101000a900473ffffffffffffffffffffffffffffffffffffffff1690805f0160149054906101000a900460020b90805f0160179054906101000a900460020b90806001015490806002015490806003015490806004015f9054906101000a900460ff16905087565b620ae3f381565b5f620ae3f34614610f7a576040517f08c379a0000000000000000000000000000000000000000000000000000000008152600401610f7190612982565b60405180910390fd5b610f826118de565b5f60055f8681526020019081526020015f2090505f73ffffffffffffffffffffffffffffffffffffffff16815f015f9054906101000a900473ffffffffffffffffffffffffffffffffffffffff1673ffffffffffffffffffffffffffffffffffffffff1603611026576040517f08c379a000000000000000000000000000000000000000000000000000000000815260040161101d90612dee565b60405180910390fd5b806004015f9054906101000a900460ff1615611077576040517f08c379a000000000000000000000000000000000000000000000000000000000815260040161106e90612e56565b60405180910390fd5b80600301544211156110be576040517f08c379a00000000000000000000000000000000000000000000000000000000081526004016110b590612ebe565b60405180910390fd5b5f5a90506001826004015f6101000a81548160ff021916908315150217905550815f015f9054906101000a900473ffffffffffffffffffffffffffffffffffffffff1673ffffffffffffffffffffffffffffffffffffffff1663fa95e4da6040518060c00160405280855f0160149054906101000a900460020b60020b8152602001855f0160179054906101000a900460020b60020b81526020015f81526020015f815260200185600301548152602001896040516020016111809190612efc565b6040516020818303038152906040528152506040518263ffffffff1660e01b81526004016111ae919061300c565b5f604051808303815f87803b1580156111c5575f80fd5b505af19250505080156111d6575060015b6111e2575f92506112be565b6001925060085f8154809291906111f890612d3b565b91905055506002858560405161120f9291906123ec565b9081526020016040518091039020600301546127106001600288886040516112389291906123ec565b908152602001604051809103902060030154611254919061302c565b600288886040516112669291906123ec565b908152602001604051809103902060020154611282919061305f565b61128c91906130a0565b6112969190613100565b600286866040516112a89291906123ec565b9081526020016040518091039020600201819055505b5f5a826112cb919061302c565b90506007548160016007546112e0919061302c565b6009546112ed919061305f565b6112f791906130a0565b6113019190613100565b600981905550867f83f75c2051ff1fa3772836bb161fb2ebc9038d05c2261d03670bdd0653cd208d8583604051611339929190613130565b60405180910390a250505061134c611924565b9392505050565b6006602052805f5260405f205f915090505481565b6002818051602081018201805184825260208301602085012081835280955050505050505f91509050805f01805461139f906124a3565b80601f01602080910402602001604051908101604052809291908181526020018280546113cb906124a3565b80156114165780601f106113ed57610100808354040283529160200191611416565b820191905f5260205f20905b8154815290600101906020018083116113f957829003601f168201915b505050505090806001015f9054906101000a900473ffffffffffffffffffffffffffffffffffffffff16908060010160149054906101000a900460ff16908060020154908060030154905085565b61146c611739565b6002828260405161147e9291906123ec565b908152602001604051809103902060010160149054906101000a900460ff166114dc576040517f08c379a00000000000000000000000000000000000000000000000000000000081526004016114d39061244e565b60405180910390fd5b5f600283836040516114ef9291906123ec565b908152602001604051809103902060010160146101000a81548160ff0219169083151502179055507f6fbb2d84fb8edc4cf6136f5ba4120b761a531bcfa395f797ce1ea9941565a04f8282604051611548929190612d82565b60405180910390a15050565b61155c611739565b5f73ffffffffffffffffffffffffffffffffffffffff168173ffffffffffffffffffffffffffffffffffffffff16036115cc575f6040517f1e4fbdf70000000000000000000000000000000000000000000000000000000081526004016115c39190611e30565b60405180910390fd5b6115d5816117c0565b50565b5f805f80600286866040516115ee9291906123ec565b90815260200160405180910390206040518060a00160405290815f82018054611616906124a3565b80601f0160208091040260200160405190810160405280929190818152602001828054611642906124a3565b801561168d5780601f106116645761010080835404028352916020019161168d565b820191905f5260205f20905b81548152906001019060200180831161167057829003601f168201915b50505050508152602001600182015f9054906101000a900473ffffffffffffffffffffffffffffffffffffffff1673ffffffffffffffffffffffffffffffffffffffff1673ffffffffffffffffffffffffffffffffffffffff1681526020016001820160149054906101000a900460ff16151515158152602001600282015481526020016003820154815250509050806060015181608001518260400151935093509350509250925092565b61174161192d565b73ffffffffffffffffffffffffffffffffffffffff1661175f61079f565b73ffffffffffffffffffffffffffffffffffffffff16146117be5761178261192d565b6040517f118cdaa70000000000000000000000000000000000000000000000000000000081526004016117b59190611e30565b60405180910390fd5b565b5f805f9054906101000a900473ffffffffffffffffffffffffffffffffffffffff169050815f806101000a81548173ffffffffffffffffffffffffffffffffffffffff021916908373ffffffffffffffffffffffffffffffffffffffff1602179055508173ffffffffffffffffffffffffffffffffffffffff168173ffffffffffffffffffffffffffffffffffffffff167f8be0079c531659141344cd1fd0a4f28419497f9722a3daafe3b4186f6b6457e060405160405180910390a35050565b5f7f19457468657265756d205369676e6564204d6573736167653a0a3332000000005f5281601c52603c5f209050919050565b5f805f806118c28686611934565b9250925092506118d28282611989565b82935050505092915050565b60026001540361191a576040517f3ee5aeb500000000000000000000000000000000000000000000000000000000815260040160405180910390fd5b6002600181905550565b60018081905550565b5f33905090565b5f805f6041845103611974575f805f602087015192506040870151915060608701515f1a905061196688828585611aeb565b955095509550505050611982565b5f600285515f1b9250925092505b9250925092565b5f600381111561199c5761199b613157565b5b8260038111156119af576119ae613157565b5b0315611ae757600160038111156119c9576119c8613157565b5b8260038111156119dc576119db613157565b5b03611a13576040517ff645eedf00000000000000000000000000000000000000000000000000000000815260040160405180910390fd5b60026003811115611a2757611a26613157565b5b826003811115611a3a57611a39613157565b5b03611a7e57805f1c6040517ffce698f7000000000000000000000000000000000000000000000000000000008152600401611a759190611e08565b60405180910390fd5b600380811115611a9157611a90613157565b5b826003811115611aa457611aa3613157565b5b03611ae657806040517fd78bce0c000000000000000000000000000000000000000000000000000000008152600401611add919061201d565b60405180910390fd5b5b5050565b5f805f7f7fffffffffffffffffffffffffffffff5d576e7357a4501ddfe92f46681b20a0845f1c1115611b27575f600385925092509250611bc8565b5f6001888888886040515f8152602001604052604051611b4a949392919061319f565b6020604051602081039080840390855afa158015611b6a573d5f803e3d5ffd5b5050506020604051035190505f73ffffffffffffffffffffffffffffffffffffffff168173ffffffffffffffffffffffffffffffffffffffff1603611bbb575f60015f801b93509350935050611bc8565b805f805f1b935093509350505b9450945094915050565b5f604051905090565b5f80fd5b5f80fd5b5f80fd5b5f80fd5b5f80fd5b5f8083601f840112611c0457611c03611be3565b5b8235905067ffffffffffffffff811115611c2157611c20611be7565b5b602083019150836001820283011115611c3d57611c3c611beb565b5b9250929050565b5f8060208385031215611c5a57611c59611bdb565b5b5f83013567ffffffffffffffff811115611c7757611c76611bdf565b5b611c8385828601611bef565b92509250509250929050565b5f73ffffffffffffffffffffffffffffffffffffffff82169050919050565b5f611cb882611c8f565b9050919050565b611cc881611cae565b8114611cd2575f80fd5b50565b5f81359050611ce381611cbf565b92915050565b5f805f60408486031215611d0057611cff611bdb565b5b5f84013567ffffffffffffffff811115611d1d57611d1c611bdf565b5b611d2986828701611bef565b93509350506020611d3c86828701611cd5565b9150509250925092565b5f81519050919050565b5f82825260208201905092915050565b5f5b83811015611d7d578082015181840152602081019050611d62565b5f8484015250505050565b5f601f19601f8301169050919050565b5f611da282611d46565b611dac8185611d50565b9350611dbc818560208601611d60565b611dc581611d88565b840191505092915050565b5f6020820190508181035f830152611de88184611d98565b905092915050565b5f819050919050565b611e0281611df0565b82525050565b5f602082019050611e1b5f830184611df9565b92915050565b611e2a81611cae565b82525050565b5f602082019050611e435f830184611e21565b92915050565b611e5281611df0565b8114611e5c575f80fd5b50565b5f81359050611e6d81611e49565b92915050565b5f60208284031215611e8857611e87611bdb565b5b5f611e9584828501611e5f565b91505092915050565b5f8160020b9050919050565b611eb381611e9e565b8114611ebd575f80fd5b50565b5f81359050611ece81611eaa565b92915050565b5f8083601f840112611ee957611ee8611be3565b5b8235905067ffffffffffffffff811115611f0657611f05611be7565b5b602083019150836001820283011115611f2257611f21611beb565b5b9250929050565b5f805f805f805f805f60e08a8c031215611f4657611f45611bdb565b5b5f611f538c828d01611cd5565b9950506020611f648c828d01611ec0565b9850506040611f758c828d01611ec0565b9750506060611f868c828d01611e5f565b9650506080611f978c828d01611e5f565b95505060a08a013567ffffffffffffffff811115611fb857611fb7611bdf565b5b611fc48c828d01611bef565b945094505060c08a013567ffffffffffffffff811115611fe757611fe6611bdf565b5b611ff38c828d01611ed4565b92509250509295985092959850929598565b5f819050919050565b61201781612005565b82525050565b5f6020820190506120305f83018461200e565b92915050565b61203f81612005565b8114612049575f80fd5b50565b5f8135905061205a81612036565b92915050565b5f6020828403121561207557612074611bdb565b5b5f6120828482850161204c565b91505092915050565b61209481611e9e565b82525050565b5f8115159050919050565b6120ae8161209a565b82525050565b5f60e0820190506120c75f83018a611e21565b6120d4602083018961208b565b6120e1604083018861208b565b6120ee6060830187611df9565b6120fb6080830186611df9565b61210860a0830185611df9565b61211560c08301846120a5565b98975050505050505050565b5f805f6040848603121561213857612137611bdb565b5b5f6121458682870161204c565b935050602084013567ffffffffffffffff81111561216657612165611bdf565b5b61217286828701611bef565b92509250509250925092565b5f6020820190506121915f8301846120a5565b92915050565b5f602082840312156121ac576121ab611bdb565b5b5f6121b984828501611cd5565b91505092915050565b5f80fd5b7f4e487b71000000000000000000000000000000000000000000000000000000005f52604160045260245ffd5b6121fc82611d88565b810181811067ffffffffffffffff8211171561221b5761221a6121c6565b5b80604052505050565b5f61222d611bd2565b905061223982826121f3565b919050565b5f67ffffffffffffffff821115612258576122576121c6565b5b61226182611d88565b9050602081019050919050565b828183375f83830152505050565b5f61228e6122898461223e565b612224565b9050828152602081018484840111156122aa576122a96121c2565b5b6122b584828561226e565b509392505050565b5f82601f8301126122d1576122d0611be3565b5b81356122e184826020860161227c565b91505092915050565b5f602082840312156122ff576122fe611bdb565b5b5f82013567ffffffffffffffff81111561231c5761231b611bdf565b5b612328848285016122bd565b91505092915050565b5f60a0820190508181035f8301526123498188611d98565b90506123586020830187611e21565b61236560408301866120a5565b6123726060830185611df9565b61237f6080830184611df9565b9695505050505050565b5f60608201905061239c5f830186611df9565b6123a96020830185611df9565b6123b660408301846120a5565b949350505050565b5f81905092915050565b5f6123d383856123be565b93506123e083858461226e565b82840190509392505050565b5f6123f88284866123c8565b91508190509392505050565b7f4d6f64656c206e6f7420616374697665000000000000000000000000000000005f82015250565b5f612438601083611d50565b915061244382612404565b602082019050919050565b5f6020820190508181035f8301526124658161242c565b9050919050565b5f82905092915050565b7f4e487b71000000000000000000000000000000000000000000000000000000005f52602260045260245ffd5b5f60028204905060018216806124ba57607f821691505b6020821081036124cd576124cc612476565b5b50919050565b5f819050815f5260205f209050919050565b5f6020601f8301049050919050565b5f82821b905092915050565b5f6008830261252f7fffffffffffffffffffffffffffffffffffffffffffffffffffffffffffffffff826124f4565b61253986836124f4565b95508019841693508086168417925050509392505050565b5f819050919050565b5f61257461256f61256a84611df0565b612551565b611df0565b9050919050565b5f819050919050565b61258d8361255a565b6125a16125998261257b565b848454612500565b825550505050565b5f90565b6125b56125a9565b6125c0818484612584565b505050565b5b818110156125e3576125d85f826125ad565b6001810190506125c6565b5050565b601f821115612628576125f9816124d3565b612602846124e5565b81016020851015612611578190505b61262561261d856124e5565b8301826125c5565b50505b505050565b5f82821c905092915050565b5f6126485f198460080261262d565b1980831691505092915050565b5f6126608383612639565b9150826002028217905092915050565b61267a838361246c565b67ffffffffffffffff811115612693576126926121c6565b5b61269d82546124a3565b6126a88282856125e7565b5f601f8311600181146126d5575f84156126c3578287013590505b6126cd8582612655565b865550612734565b601f1984166126e3866124d3565b5f5b8281101561270a578489013582556001820191506020850194506020810190506126e5565b868310156127275784890135612723601f891682612639565b8355505b6001600288020188555050505b50505050505050565b7f496e76616c6964207369676e65720000000000000000000000000000000000005f82015250565b5f612771600e83611d50565b915061277c8261273d565b602082019050919050565b5f6020820190508181035f83015261279e81612765565b9050919050565b7f4d6f64656c20616c7265616479206163746976650000000000000000000000005f82015250565b5f6127d9601483611d50565b91506127e4826127a5565b602082019050919050565b5f6020820190508181035f830152612806816127cd565b9050919050565b61281682611d46565b67ffffffffffffffff81111561282f5761282e6121c6565b5b61283982546124a3565b6128448282856125e7565b5f60209050601f831160018114612875575f8415612863578287015190505b61286d8582612655565b8655506128d4565b601f198416612883866124d3565b5f5b828110156128aa57848901518255600182019150602085019450602081019050612885565b868310156128c757848901516128c3601f891682612639565b8355505b6001600288020188555050505b505050505050565b5f6128e78385611d50565b93506128f483858461226e565b6128fd83611d88565b840190509392505050565b5f6040820190508181035f8301526129218185876128dc565b90506129306020830184611e21565b949350505050565b7f496e76616c696420636861696e000000000000000000000000000000000000005f82015250565b5f61296c600d83611d50565b915061297782612938565b602082019050919050565b5f6020820190508181035f83015261299981612960565b9050919050565b7f496e76616c6964207661756c74000000000000000000000000000000000000005f82015250565b5f6129d4600d83611d50565b91506129df826129a0565b602082019050919050565b5f6020820190508181035f830152612a01816129c8565b9050919050565b7f496e76616c696420646561646c696e65000000000000000000000000000000005f82015250565b5f612a3c601083611d50565b9150612a4782612a08565b602082019050919050565b5f6020820190508181035f830152612a6981612a30565b9050919050565b7f496e76616c696420636f6e666964656e636500000000000000000000000000005f82015250565b5f612aa4601283611d50565b9150612aaf82612a70565b602082019050919050565b5f6020820190508181035f830152612ad181612a98565b9050919050565b5f8160601b9050919050565b5f612aee82612ad8565b9050919050565b5f612aff82612ae4565b9050919050565b612b17612b1282611cae565b612af5565b82525050565b5f8160e81b9050919050565b5f612b3382612b1d565b9050919050565b612b4b612b4682611e9e565b612b29565b82525050565b5f819050919050565b612b6b612b6682611df0565b612b51565b82525050565b5f612b7c8289612b06565b601482019150612b8c8288612b3a565b600382019150612b9c8287612b3a565b600382019150612bac8286612b5a565b602082019150612bbc8285612b5a565b602082019150612bcc8284612b06565b601482019150819050979650505050505050565b7f52657175657374206578697374730000000000000000000000000000000000005f82015250565b5f612c14600e83611d50565b9150612c1f82612be0565b602082019050919050565b5f6020820190508181035f830152612c4181612c08565b9050919050565b7f496e76616c6964204149207369676e61747572650000000000000000000000005f82015250565b5f612c7c601483611d50565b9150612c8782612c48565b602082019050919050565b5f6020820190508181035f830152612ca981612c70565b9050919050565b5f612cbb8288612b06565b601482019150612ccb8287612b3a565b600382019150612cdb8286612b3a565b600382019150612ceb8285612b5a565b602082019150612cfb8284612b5a565b6020820191508190509695505050505050565b7f4e487b71000000000000000000000000000000000000000000000000000000005f52601160045260245ffd5b5f612d4582611df0565b91507fffffffffffffffffffffffffffffffffffffffffffffffffffffffffffffffff8203612d7757612d76612d0e565b5b600182019050919050565b5f6020820190508181035f830152612d9b8184866128dc565b90509392505050565b7f52657175657374206e6f7420666f756e640000000000000000000000000000005f82015250565b5f612dd8601183611d50565b9150612de382612da4565b602082019050919050565b5f6020820190508181035f830152612e0581612dcc565b9050919050565b7f416c7265616479206578656375746564000000000000000000000000000000005f82015250565b5f612e40601083611d50565b9150612e4b82612e0c565b602082019050919050565b5f6020820190508181035f830152612e6d81612e34565b9050919050565b7f52657175657374206578706972656400000000000000000000000000000000005f82015250565b5f612ea8600f83611d50565b9150612eb382612e74565b602082019050919050565b5f6020820190508181035f830152612ed581612e9c565b9050919050565b5f819050919050565b612ef6612ef182612005565b612edc565b82525050565b5f612f078284612ee5565b60208201915081905092915050565b612f1f81611e9e565b82525050565b612f2e81611df0565b82525050565b5f81519050919050565b5f82825260208201905092915050565b5f612f5882612f34565b612f628185612f3e565b9350612f72818560208601611d60565b612f7b81611d88565b840191505092915050565b5f60c083015f830151612f9b5f860182612f16565b506020830151612fae6020860182612f16565b506040830151612fc16040860182612f25565b506060830151612fd46060860182612f25565b506080830151612fe76080860182612f25565b5060a083015184820360a0860152612fff8282612f4e565b9150508091505092915050565b5f6020820190508181035f8301526130248184612f86565b905092915050565b5f61303682611df0565b915061304183611df0565b925082820390508181111561305957613058612d0e565b5b92915050565b5f61306982611df0565b915061307483611df0565b925082820261308281611df0565b9150828204841483151761309957613098612d0e565b5b5092915050565b5f6130aa82611df0565b91506130b583611df0565b92508282019050808211156130cd576130cc612d0e565b5b92915050565b7f4e487b71000000000000000000000000000000000000000000000000000000005f52601260045260245ffd5b5f61310a82611df0565b915061311583611df0565b925082613125576131246130d3565b5b828204905092915050565b5f6040820190506131435f8301856120a5565b6131506020830184611df9565b9392505050565b7f4e487b71000000000000000000000000000000000000000000000000000000005f52602160045260245ffd5b5f60ff82169050919050565b61319981613184565b82525050565b5f6080820190506131b25f83018761200e565b6131bf6020830186613190565b6131cc604083018561200e565b6131d9606083018461200e565b9594505050505056fea264697066735822122014a40768eb398b2b2a42ab6baad954f671a74a26efa5483729385eec3618787e64736f6c63430008140033","linkReferences":{}},"methodIdentifiers":{"SEI_CHAIN_ID()":"c7f07447","activeModels(uint256)":"8e8690bf","aiModels(string)":"d8be7085","averageExecutionTime()":"6c36a1b1","deactivateModel(string)":"f03e748a","executeRebalanceRequest(bytes32,string)":"d3d0d168","getModelPerformance(string)":"f6d929ff","owner()":"8da5cb5b","primaryModel()":"5fe9aef3","registerAIModel(string,address)":"52823042","renounceOwnership()":"715018a6","requests(bytes32)":"9d866985","setPrimaryModel(string)":"504e3c69","submitRebalanceRequest(address,int24,int24,uint256,uint256,string,bytes)":"8ec6901d","successfulRequests()":"67ba100a","totalRequests()":"8aea61dc","transferOwnership(address)":"f2fde38b","vaultRequestCount(address)":"d7beb4b9"},"id":33}