{"abi":[{"type":"constructor","inputs":[{"name":"_asset","type":"address","internalType":"address"},{"name":"_name","type":"string","internalType":"string"},{"name":"_symbol","type":"string","internalType":"string"},{"name":"_owner","type":"address","internalType":"address"},{"name":"_aiModel","type":"address","internalType":"address"}],"stateMutability":"nonpayable"},{"type":"function","name":"FEE_PRECISION","inputs":[],"outputs":[{"name":"","type":"uint256","internalType":"uint256"}],"stateMutability":"view"},{"type":"function","name":"MANAGEMENT_FEE","inputs":[],"outputs":[{"name":"","type":"uint256","internalType":"uint256"}],"stateMutability":"view"},{"type":"function","name":"MIN_REBALANCE_INTERVAL","inputs":[],"outputs":[{"name":"","type":"uint256","internalType":"uint256"}],"stateMutability":"view"},{"type":"function","name":"PERFORMANCE_FEE","inputs":[],"outputs":[{"name":"","type":"uint256","internalType":"uint256"}],"stateMutability":"view"},{"type":"function","name":"aiModel","inputs":[],"outputs":[{"name":"","type":"address","internalType":"address"}],"stateMutability":"view"},{"type":"function","name":"aiOracle","inputs":[],"outputs":[{"name":"","type":"address","internalType":"address"}],"stateMutability":"view"},{"type":"function","name":"allowance","inputs":[{"name":"owner","type":"address","internalType":"address"},{"name":"spender","type":"address","internalType":"address"}],"outputs":[{"name":"","type":"uint256","internalType":"uint256"}],"stateMutability":"view"},{"type":"function","name":"approve","inputs":[{"name":"spender","type":"address","internalType":"address"},{"name":"value","type":"uint256","internalType":"uint256"}],"outputs":[{"name":"","type":"bool","internalType":"bool"}],"stateMutability":"nonpayable"},{"type":"function","name":"asset","inputs":[],"outputs":[{"name":"","type":"address","internalType":"address"}],"stateMutability":"view"},{"type":"function","name":"balanceOf","inputs":[{"name":"account","type":"address","internalType":"address"}],"outputs":[{"name":"","type":"uint256","internalType":"uint256"}],"stateMutability":"view"},{"type":"function","name":"currentPosition","inputs":[],"outputs":[{"name":"tickLower","type":"int24","internalType":"int24"},{"name":"tickUpper","type":"int24","internalType":"int24"},{"name":"liquidity","type":"uint128","internalType":"uint128"},{"name":"tokensOwed0","type":"uint256","internalType":"uint256"},{"name":"tokensOwed1","type":"uint256","internalType":"uint256"},{"name":"feeGrowthInside0LastX128","type":"uint256","internalType":"uint256"},{"name":"feeGrowthInside1LastX128","type":"uint256","internalType":"uint256"}],"stateMutability":"view"},{"type":"function","name":"decimals","inputs":[],"outputs":[{"name":"","type":"uint8","internalType":"uint8"}],"stateMutability":"view"},{"type":"function","name":"deposit","inputs":[{"name":"amount0","type":"uint256","internalType":"uint256"},{"name":"amount1","type":"uint256","internalType":"uint256"},{"name":"recipient","type":"address","internalType":"address"}],"outputs":[{"name":"shares","type":"uint256","internalType":"uint256"}],"stateMutability":"nonpayable"},{"type":"function","name":"executedAIRequests","inputs":[{"name":"","type":"bytes32","internalType":"bytes32"}],"outputs":[{"name":"","type":"bool","internalType":"bool"}],"stateMutability":"view"},{"type":"function","name":"getCurrentPosition","inputs":[],"outputs":[{"name":"","type":"tuple","internalType":"struct ISEIVault.Position","components":[{"name":"tickLower","type":"int24","internalType":"int24"},{"name":"tickUpper","type":"int24","internalType":"int24"},{"name":"liquidity","type":"uint128","internalType":"uint128"},{"name":"tokensOwed0","type":"uint256","internalType":"uint256"},{"name":"tokensOwed1","type":"uint256","internalType":"uint256"},{"name":"feeGrowthInside0LastX128","type":"uint256","internalType":"uint256"},{"name":"feeGrowthInside1LastX128","type":"uint256","internalType":"uint256"}]}],"stateMutability":"view"},{"type":"function","name":"getLastFinalityOptimization","inputs":[],"outputs":[{"name":"","type":"uint256","internalType":"uint256"}],"stateMutability":"view"},{"type":"function","name":"getSEIChainId","inputs":[],"outputs":[{"name":"","type":"uint256","internalType":"uint256"}],"stateMutability":"pure"},{"type":"function","name":"getVaultInfo","inputs":[],"outputs":[{"name":"","type":"tuple","internalType":"struct ISEIVault.VaultInfo","components":[{"name":"name","type":"string","internalType":"string"},{"name":"strategy","type":"string","internalType":"string"},{"name":"token0","type":"address","internalType":"address"},{"name":"token1","type":"address","internalType":"address"},{"name":"poolFee","type":"uint24","internalType":"uint24"},{"name":"totalSupply","type":"uint256","internalType":"uint256"},{"name":"totalValueLocked","type":"uint256","internalType":"uint256"},{"name":"isActive","type":"bool","internalType":"bool"}]}],"stateMutability":"view"},{"type":"function","name":"lastFinalityOptimization","inputs":[],"outputs":[{"name":"","type":"uint256","internalType":"uint256"}],"stateMutability":"view"},{"type":"function","name":"lastRebalance","inputs":[],"outputs":[{"name":"","type":"uint256","internalType":"uint256"}],"stateMutability":"view"},{"type":"function","name":"name","inputs":[],"outputs":[{"name":"","type":"string","internalType":"string"}],"stateMutability":"view"},{"type":"function","name":"optimizeForFinality","inputs":[],"outputs":[],"stateMutability":"nonpayable"},{"type":"function","name":"owner","inputs":[],"outputs":[{"name":"","type":"address","internalType":"address"}],"stateMutability":"view"},{"type":"function","name":"parallelExecutionEnabled","inputs":[],"outputs":[{"name":"","type":"bool","internalType":"bool"}],"stateMutability":"view"},{"type":"function","name":"rebalance","inputs":[{"name":"params","type":"tuple","internalType":"struct ISEIVault.AIRebalanceParams","components":[{"name":"newTickLower","type":"int24","internalType":"int24"},{"name":"newTickUpper","type":"int24","internalType":"int24"},{"name":"minAmount0","type":"uint256","internalType":"uint256"},{"name":"minAmount1","type":"uint256","internalType":"uint256"},{"name":"deadline","type":"uint256","internalType":"uint256"},{"name":"aiSignature","type":"bytes","internalType":"bytes"}]}],"outputs":[],"stateMutability":"nonpayable"},{"type":"function","name":"renounceOwnership","inputs":[],"outputs":[],"stateMutability":"nonpayable"},{"type":"function","name":"seiOptimizedDeposit","inputs":[{"name":"amount","type":"uint256","internalType":"uint256"},{"name":"recipient","type":"address","internalType":"address"}],"outputs":[{"name":"shares","type":"uint256","internalType":"uint256"}],"stateMutability":"nonpayable"},{"type":"function","name":"seiOptimizedWithdraw","inputs":[{"name":"shares","type":"uint256","internalType":"uint256"},{"name":"owner","type":"address","internalType":"address"},{"name":"recipient","type":"address","internalType":"address"}],"outputs":[{"name":"assets","type":"uint256","internalType":"uint256"}],"stateMutability":"nonpayable"},{"type":"function","name":"setParallelExecution","inputs":[{"name":"enabled","type":"bool","internalType":"bool"}],"outputs":[],"stateMutability":"nonpayable"},{"type":"function","name":"symbol","inputs":[],"outputs":[{"name":"","type":"string","internalType":"string"}],"stateMutability":"view"},{"type":"function","name":"totalAssets","inputs":[],"outputs":[{"name":"","type":"uint256","internalType":"uint256"}],"stateMutability":"view"},{"type":"function","name":"totalSupply","inputs":[],"outputs":[{"name":"","type":"uint256","internalType":"uint256"}],"stateMutability":"view"},{"type":"function","name":"transfer","inputs":[{"name":"to","type":"address","internalType":"address"},{"name":"value","type":"uint256","internalType":"uint256"}],"outputs":[{"name":"","type":"bool","internalType":"bool"}],"stateMutability":"nonpayable"},{"type":"function","name":"transferFrom","inputs":[{"name":"from","type":"address","internalType":"address"},{"name":"to","type":"address","internalType":"address"},{"name":"value","type":"uint256","internalType":"uint256"}],"outputs":[{"name":"","type":"bool","internalType":"bool"}],"stateMutability":"nonpayable"},{"type":"function","name":"transferOwnership","inputs":[{"name":"newOwner","type":"address","internalType":"address"}],"outputs":[],"stateMutability":"nonpayable"},{"type":"function","name":"validateSEIChain","inputs":[],"outputs":[{"name":"","type":"bool","internalType":"bool"}],"stateMutability":"nonpayable"},{"type":"function","name":"vaultInfo","inputs":[],"outputs":[{"name":"name","type":"string","internalType":"string"},{"name":"strategy","type":"string","internalType":"string"},{"name":"token0","type":"address","internalType":"address"},{"name":"token1","type":"address","internalType":"address"},{"name":"poolFee","type":"uint24","internalType":"uint24"},{"name":"totalSupply","type":"uint256","internalType":"uint256"},{"name":"totalValueLocked","type":"uint256","internalType":"uint256"},{"name":"isActive","type":"bool","internalType":"bool"}],"stateMutability":"view"},{"type":"function","name":"withdraw","inputs":[{"name":"shares","type":"uint256","internalType":"uint256"},{"name":"recipient","type":"address","internalType":"address"}],"outputs":[{"name":"amount0","type":"uint256","internalType":"uint256"},{"name":"amount1","type":"uint256","internalType":"uint256"}],"stateMutability":"nonpayable"},{"type":"event","name":"AIRebalanceExecuted","inputs":[{"name":"aiRequestId","type":"bytes32","indexed":true,"internalType":"bytes32"},{"name":"gasUsed","type":"uint256","indexed":false,"internalType":"uint256"}],"anonymous":false},{"type":"event","name":"Approval","inputs":[{"name":"owner","type":"address","indexed":true,"internalType":"address"},{"name":"spender","type":"address","indexed":true,"internalType":"address"},{"name":"value","type":"uint256","indexed":false,"internalType":"uint256"}],"anonymous":false},{"type":"event","name":"FinalityOptimized","inputs":[{"name":"blockTime","type":"uint256","indexed":false,"internalType":"uint256"},{"name":"executionBatch","type":"uint256","indexed":false,"internalType":"uint256"}],"anonymous":false},{"type":"event","name":"OwnershipTransferred","inputs":[{"name":"previousOwner","type":"address","indexed":true,"internalType":"address"},{"name":"newOwner","type":"address","indexed":true,"internalType":"address"}],"anonymous":false},{"type":"event","name":"ParallelExecutionEnabled","inputs":[{"name":"enabled","type":"bool","indexed":false,"internalType":"bool"}],"anonymous":false},{"type":"event","name":"PositionRebalanced","inputs":[{"name":"oldTickLower","type":"int24","indexed":false,"internalType":"int24"},{"name":"oldTickUpper","type":"int24","indexed":false,"internalType":"int24"},{"name":"newTickLower","type":"int24","indexed":false,"internalType":"int24"},{"name":"newTickUpper","type":"int24","indexed":false,"internalType":"int24"}],"anonymous":false},{"type":"event","name":"SEIChainValidated","inputs":[{"name":"chainId","type":"uint256","indexed":false,"internalType":"uint256"},{"name":"isValid","type":"bool","indexed":false,"internalType":"bool"}],"anonymous":false},{"type":"event","name":"SEIOptimizedDeposit","inputs":[{"name":"user","type":"address","indexed":true,"internalType":"address"},{"name":"amount","type":"uint256","indexed":false,"internalType":"uint256"},{"name":"shares","type":"uint256","indexed":false,"internalType":"uint256"},{"name":"blockTime","type":"uint256","indexed":false,"internalType":"uint256"}],"anonymous":false},{"type":"event","name":"SEIOptimizedWithdraw","inputs":[{"name":"user","type":"address","indexed":true,"internalType":"address"},{"name":"amount","type":"uint256","indexed":false,"internalType":"uint256"},{"name":"shares","type":"uint256","indexed":false,"internalType":"uint256"},{"name":"blockTime","type":"uint256","indexed":false,"internalType":"uint256"}],"anonymous":false},{"type":"event","name":"Transfer","inputs":[{"name":"from","type":"address","indexed":true,"internalType":"address"},{"name":"to","type":"address","indexed":true,"internalType":"address"},{"name":"value","type":"uint256","indexed":false,"internalType":"uint256"}],"anonymous":false},{"type":"event","name":"VaultCreated","inputs":[{"name":"vault","type":"address","indexed":true,"internalType":"address"},{"name":"name","type":"string","indexed":false,"internalType":"string"},{"name":"token0","type":"address","indexed":false,"internalType":"address"},{"name":"token1","type":"address","indexed":false,"internalType":"address"}],"anonymous":false},{"type":"error","name":"ERC20InsufficientAllowance","inputs":[{"name":"spender","type":"address","internalType":"address"},{"name":"allowance","type":"uint256","internalType":"uint256"},{"name":"needed","type":"uint256","internalType":"uint256"}]},{"type":"error","name":"ERC20InsufficientBalance","inputs":[{"name":"sender","type":"address","internalType":"address"},{"name":"balance","type":"uint256","internalType":"uint256"},{"name":"needed","type":"uint256","internalType":"uint256"}]},{"type":"error","name":"ERC20InvalidApprover","inputs":[{"name":"approver","type":"address","internalType":"address"}]},{"type":"error","name":"ERC20InvalidReceiver","inputs":[{"name":"receiver","type":"address","internalType":"address"}]},{"type":"error","name":"ERC20InvalidSender","inputs":[{"name":"sender","type":"address","internalType":"address"}]},{"type":"error","name":"ERC20InvalidSpender","inputs":[{"name":"spender","type":"address","internalType":"address"}]},{"type":"error","name":"OwnableInvalidOwner","inputs":[{"name":"owner","type":"address","internalType":"address"}]},{"type":"error","name":"OwnableUnauthorizedAccount","inputs":[{"name":"account","type":"address","internalType":"address"}]},{"type":"error","name":"ReentrancyGuardReentrantCall","inputs":[]}],"bytecode":{"object":"0x6080604052600160165f6101000a81548160ff0219169083151502179055503480156200002a575f80fd5b50604051620041a9380380620041a98339818101604052810190620000509190620007a5565b818484816003908162000064919062000a9e565b50806004908162000076919062000a9e565b5050505f73ffffffffffffffffffffffffffffffffffffffff168173ffffffffffffffffffffffffffffffffffffffff1603620000ec575f6040517f1e4fbdf7000000000000000000000000000000000000000000000000000000008152600401620000e3919062000b93565b60405180910390fd5b620000fd81620004fc60201b60201c565b506001600681905550620ae3f346146200014e576040517f08c379a0000000000000000000000000000000000000000000000000000000008152600401620001459062000c0c565b60405180910390fd5b5f73ffffffffffffffffffffffffffffffffffffffff168573ffffffffffffffffffffffffffffffffffffffff1603620001bf576040517f08c379a0000000000000000000000000000000000000000000000000000000008152600401620001b69062000c7a565b60405180910390fd5b5f73ffffffffffffffffffffffffffffffffffffffff168273ffffffffffffffffffffffffffffffffffffffff160362000230576040517f08c379a0000000000000000000000000000000000000000000000000000000008152600401620002279062000ce8565b60405180910390fd5b5f73ffffffffffffffffffffffffffffffffffffffff168173ffffffffffffffffffffffffffffffffffffffff1603620002a1576040517f08c379a0000000000000000000000000000000000000000000000000000000008152600401620002989062000d56565b60405180910390fd5b6040518061010001604052808581526020016040518060400160405280601d81526020017f5345495f41495f434f4e43454e5452415445445f4c495155494449545900000081525081526020018673ffffffffffffffffffffffffffffffffffffffff1681526020015f73ffffffffffffffffffffffffffffffffffffffff168152602001610bb862ffffff1681526020015f81526020015f81526020016001151581525060075f820151815f0190816200035d919062000a9e565b50602082015181600101908162000375919062000a9e565b506040820151816002015f6101000a81548173ffffffffffffffffffffffffffffffffffffffff021916908373ffffffffffffffffffffffffffffffffffffffff1602179055506060820151816003015f6101000a81548173ffffffffffffffffffffffffffffffffffffffff021916908373ffffffffffffffffffffffffffffffffffffffff16021790555060808201518160030160146101000a81548162ffffff021916908362ffffff16021790555060a0820151816004015560c0820151816005015560e0820151816006015f6101000a81548160ff0219169083151502179055509050508060145f6101000a81548173ffffffffffffffffffffffffffffffffffffffff021916908373ffffffffffffffffffffffffffffffffffffffff1602179055503073ffffffffffffffffffffffffffffffffffffffff167fa8ca87c5f5e04d4b4644da1612143a77fef7e3e6bfcae78c91c102763f9110fe85875f604051620004e99392919062000db6565b60405180910390a2505050505062000df8565b5f60055f9054906101000a900473ffffffffffffffffffffffffffffffffffffffff1690508160055f6101000a81548173ffffffffffffffffffffffffffffffffffffffff021916908373ffffffffffffffffffffffffffffffffffffffff1602179055508173ffffffffffffffffffffffffffffffffffffffff168173ffffffffffffffffffffffffffffffffffffffff167f8be0079c531659141344cd1fd0a4f28419497f9722a3daafe3b4186f6b6457e060405160405180910390a35050565b5f604051905090565b5f80fd5b5f80fd5b5f73ffffffffffffffffffffffffffffffffffffffff82169050919050565b5f620005fb82620005d0565b9050919050565b6200060d81620005ef565b811462000618575f80fd5b50565b5f815190506200062b8162000602565b92915050565b5f80fd5b5f80fd5b5f601f19601f8301169050919050565b7f4e487b71000000000000000000000000000000000000000000000000000000005f52604160045260245ffd5b620006818262000639565b810181811067ffffffffffffffff82111715620006a357620006a262000649565b5b80604052505050565b5f620006b7620005bf565b9050620006c5828262000676565b919050565b5f67ffffffffffffffff821115620006e757620006e662000649565b5b620006f28262000639565b9050602081019050919050565b5f5b838110156200071e57808201518184015260208101905062000701565b5f8484015250505050565b5f6200073f6200073984620006ca565b620006ac565b9050828152602081018484840111156200075e576200075d62000635565b5b6200076b848285620006ff565b509392505050565b5f82601f8301126200078a576200078962000631565b5b81516200079c84826020860162000729565b91505092915050565b5f805f805f60a08688031215620007c157620007c0620005c8565b5b5f620007d0888289016200061b565b955050602086015167ffffffffffffffff811115620007f457620007f3620005cc565b5b620008028882890162000773565b945050604086015167ffffffffffffffff811115620008265762000825620005cc565b5b620008348882890162000773565b935050606062000847888289016200061b565b92505060806200085a888289016200061b565b9150509295509295909350565b5f81519050919050565b7f4e487b71000000000000000000000000000000000000000000000000000000005f52602260045260245ffd5b5f6002820490506001821680620008b657607f821691505b602082108103620008cc57620008cb62000871565b5b50919050565b5f819050815f5260205f209050919050565b5f6020601f8301049050919050565b5f82821b905092915050565b5f60088302620009307fffffffffffffffffffffffffffffffffffffffffffffffffffffffffffffffff82620008f3565b6200093c8683620008f3565b95508019841693508086168417925050509392505050565b5f819050919050565b5f819050919050565b5f62000986620009806200097a8462000954565b6200095d565b62000954565b9050919050565b5f819050919050565b620009a18362000966565b620009b9620009b0826200098d565b848454620008ff565b825550505050565b5f90565b620009cf620009c1565b620009dc81848462000996565b505050565b5b8181101562000a0357620009f75f82620009c5565b600181019050620009e2565b5050565b601f82111562000a525762000a1c81620008d2565b62000a2784620008e4565b8101602085101562000a37578190505b62000a4f62000a4685620008e4565b830182620009e1565b50505b505050565b5f82821c905092915050565b5f62000a745f198460080262000a57565b1980831691505092915050565b5f62000a8e838362000a63565b9150826002028217905092915050565b62000aa98262000867565b67ffffffffffffffff81111562000ac55762000ac462000649565b5b62000ad182546200089e565b62000ade82828562000a07565b5f60209050601f83116001811462000b14575f841562000aff578287015190505b62000b0b858262000a81565b86555062000b7a565b601f19841662000b2486620008d2565b5f5b8281101562000b4d5784890151825560018201915060208501945060208101905062000b26565b8683101562000b6d578489015162000b69601f89168262000a63565b8355505b6001600288020188555050505b505050505050565b62000b8d81620005ef565b82525050565b5f60208201905062000ba85f83018462000b82565b92915050565b5f82825260208201905092915050565b7f496e76616c69642053454920636861696e0000000000000000000000000000005f82015250565b5f62000bf460118362000bae565b915062000c018262000bbe565b602082019050919050565b5f6020820190508181035f83015262000c258162000be6565b9050919050565b7f496e76616c6964206173736574000000000000000000000000000000000000005f82015250565b5f62000c62600d8362000bae565b915062000c6f8262000c2c565b602082019050919050565b5f6020820190508181035f83015262000c938162000c54565b9050919050565b7f496e76616c6964206f776e6572000000000000000000000000000000000000005f82015250565b5f62000cd0600d8362000bae565b915062000cdd8262000c9a565b602082019050919050565b5f6020820190508181035f83015262000d018162000cc2565b9050919050565b7f496e76616c6964204149206d6f64656c000000000000000000000000000000005f82015250565b5f62000d3e60108362000bae565b915062000d4b8262000d08565b602082019050919050565b5f6020820190508181035f83015262000d6f8162000d30565b9050919050565b5f62000d828262000867565b62000d8e818562000bae565b935062000da0818560208601620006ff565b62000dab8162000639565b840191505092915050565b5f6060820190508181035f83015262000dd0818662000d76565b905062000de1602083018562000b82565b62000df0604083018462000b82565b949350505050565b6133a38062000e065f395ff3fe608060405234801561000f575f80fd5b506004361061022f575f3560e01c8063715018a61161012e578063bff29729116100b6578063f1503c361161007a578063f1503c3614610685578063f2fde38b146106a3578063f81dd372146106bf578063fa95e4da146106ef578063fde038e61461070b5761022f565b8063bff29729146105d7578063d534d636146105f5578063dd62ed3e14610619578063e63a391f14610649578063e93f5665146106675761022f565b80638dbdbe6d116100fd5780638dbdbe6d146105335780638f28675d1461056357806395d89b411461056d578063a9059cbb1461058b578063ba0a348d146105bb5761022f565b8063715018a6146104cf5780637bd1e7ce146104d95780637f98aa71146104f75780638da5cb5b146105155761022f565b8063313ce567116101bc578063418f35cc11610180578063418f35cc14610420578063501ec7381461043e57806359673460146104635780635f1554e31461048157806370a082311461049f5761022f565b8063313ce5671461038a57806331b221cd146103a857806334475df3146103c6578063350e4221146103e457806338d52e0f146104025761022f565b8063106b9ca111610203578063106b9ca1146102d057806318160ddd146102ee578063205134ce1461030c57806323b872dd1461033c57806330e6050f1461036c5761022f565b8062f714ce1461023357806301e1d1141461026457806306fdde0314610282578063095ea7b3146102a0575b5f80fd5b61024d60048036038101906102489190612495565b61073b565b60405161025b9291906124e2565b60405180910390f35b61026c610859565b6040516102799190612509565b60405180910390f35b61028a6108fb565b60405161029791906125ac565b60405180910390f35b6102ba60048036038101906102b591906125cc565b61098b565b6040516102c79190612624565b60405180910390f35b6102d86109ad565b6040516102e59190612509565b60405180910390f35b6102f66109b3565b6040516103039190612509565b60405180910390f35b61032660048036038101906103219190612670565b6109bc565b6040516103339190612624565b60405180910390f35b6103566004803603810190610351919061269b565b6109d9565b6040516103639190612624565b60405180910390f35b610374610a07565b60405161038191906126fa565b60405180910390f35b610392610a2c565b60405161039f919061272e565b60405180910390f35b6103b0610a34565b6040516103bd91906126fa565b60405180910390f35b6103ce610a59565b6040516103db9190612624565b60405180910390f35b6103ec610a6b565b6040516103f99190612509565b60405180910390f35b61040a610a71565b60405161041791906126fa565b60405180910390f35b610428610a9c565b6040516104359190612827565b60405180910390f35b610446610b5e565b60405161045a98979695949392919061285d565b60405180910390f35b61046b610cf8565b6040516104789190612509565b60405180910390f35b610489610d01565b6040516104969190612509565b60405180910390f35b6104b960048036038101906104b491906128e7565b610d06565b6040516104c69190612509565b60405180910390f35b6104d7610d4b565b005b6104e1610d5e565b6040516104ee9190612509565b60405180910390f35b6104ff610d64565b60405161050c9190612a3b565b60405180910390f35b61051d610f99565b60405161052a91906126fa565b60405180910390f35b61054d60048036038101906105489190612a5b565b610fc1565b60405161055a9190612509565b60405180910390f35b61056b6110da565b005b610575611125565b60405161058291906125ac565b60405180910390f35b6105a560048036038101906105a091906125cc565b6111b5565b6040516105b29190612624565b60405180910390f35b6105d560048036038101906105d09190612ad5565b6111d7565b005b6105df611232565b6040516105ec9190612624565b60405180910390f35b6105fd61127c565b6040516106109796959493929190612b1e565b60405180910390f35b610633600480360381019061062e9190612b8b565b6112de565b6040516106409190612509565b60405180910390f35b610651611360565b60405161065e9190612509565b60405180910390f35b61066f611366565b60405161067c9190612509565b60405180910390f35b61068d61136c565b60405161069a9190612509565b60405180910390f35b6106bd60048036038101906106b891906128e7565b611376565b005b6106d960048036038101906106d49190612bc9565b6113fa565b6040516106e69190612509565b60405180910390f35b61070960048036038101906107049190612c3b565b611633565b005b61072560048036038101906107209190612495565b6117fd565b6040516107329190612509565b60405180910390f35b5f80610745611ab7565b620ae3f3461461078a576040517f08c379a000000000000000000000000000000000000000000000000000000000815260040161078190612ccc565b60405180910390fd5b5f84116107cc576040517f08c379a00000000000000000000000000000000000000000000000000000000081526004016107c390612d5a565b60405180910390fd5b5f73ffffffffffffffffffffffffffffffffffffffff168373ffffffffffffffffffffffffffffffffffffffff160361083a576040517f08c379a000000000000000000000000000000000000000000000000000000000815260040161083190612dc2565b60405180910390fd5b6108458433856113fa565b91505f9050610852611afd565b9250929050565b5f60076002015f9054906101000a900473ffffffffffffffffffffffffffffffffffffffff1673ffffffffffffffffffffffffffffffffffffffff166370a08231306040518263ffffffff1660e01b81526004016108b791906126fa565b602060405180830381865afa1580156108d2573d5f803e3d5ffd5b505050506040513d601f19601f820116820180604052508101906108f69190612df4565b905090565b60606003805461090a90612e4c565b80601f016020809104026020016040519081016040528092919081815260200182805461093690612e4c565b80156109815780601f1061095857610100808354040283529160200191610981565b820191905f5260205f20905b81548152906001019060200180831161096457829003601f168201915b5050505050905090565b5f80610995611b07565b90506109a2818585611b0e565b600191505092915050565b60185481565b5f600254905090565b6015602052805f5260405f205f915054906101000a900460ff1681565b5f806109e3611b07565b90506109f0858285611b20565b6109fb858585611bb3565b60019150509392505050565b60145f9054906101000a900473ffffffffffffffffffffffffffffffffffffffff1681565b5f6012905090565b60135f9054906101000a900473ffffffffffffffffffffffffffffffffffffffff1681565b60165f9054906101000a900460ff1681565b61019081565b5f60076002015f9054906101000a900473ffffffffffffffffffffffffffffffffffffffff16905090565b610aa4612340565b600e6040518060e00160405290815f82015f9054906101000a900460020b60020b60020b81526020015f820160039054906101000a900460020b60020b60020b81526020015f820160069054906101000a90046fffffffffffffffffffffffffffffffff166fffffffffffffffffffffffffffffffff166fffffffffffffffffffffffffffffffff168152602001600182015481526020016002820154815260200160038201548152602001600482015481525050905090565b6007805f018054610b6e90612e4c565b80601f0160208091040260200160405190810160405280929190818152602001828054610b9a90612e4c565b8015610be55780601f10610bbc57610100808354040283529160200191610be5565b820191905f5260205f20905b815481529060010190602001808311610bc857829003601f168201915b505050505090806001018054610bfa90612e4c565b80601f0160208091040260200160405190810160405280929190818152602001828054610c2690612e4c565b8015610c715780601f10610c4857610100808354040283529160200191610c71565b820191905f5260205f20905b815481529060010190602001808311610c5457829003601f168201915b505050505090806002015f9054906101000a900473ffffffffffffffffffffffffffffffffffffffff1690806003015f9054906101000a900473ffffffffffffffffffffffffffffffffffffffff16908060030160149054906101000a900462ffffff1690806004015490806005015490806006015f9054906101000a900460ff16905088565b5f601754905090565b606481565b5f805f8373ffffffffffffffffffffffffffffffffffffffff1673ffffffffffffffffffffffffffffffffffffffff1681526020019081526020015f20549050919050565b610d53611ca3565b610d5c5f611d2a565b565b60175481565b610d6c61238e565b6007604051806101000160405290815f82018054610d8990612e4c565b80601f0160208091040260200160405190810160405280929190818152602001828054610db590612e4c565b8015610e005780601f10610dd757610100808354040283529160200191610e00565b820191905f5260205f20905b815481529060010190602001808311610de357829003601f168201915b50505050508152602001600182018054610e1990612e4c565b80601f0160208091040260200160405190810160405280929190818152602001828054610e4590612e4c565b8015610e905780601f10610e6757610100808354040283529160200191610e90565b820191905f5260205f20905b815481529060010190602001808311610e7357829003601f168201915b50505050508152602001600282015f9054906101000a900473ffffffffffffffffffffffffffffffffffffffff1673ffffffffffffffffffffffffffffffffffffffff1673ffffffffffffffffffffffffffffffffffffffff168152602001600382015f9054906101000a900473ffffffffffffffffffffffffffffffffffffffff1673ffffffffffffffffffffffffffffffffffffffff1673ffffffffffffffffffffffffffffffffffffffff1681526020016003820160149054906101000a900462ffffff1662ffffff1662ffffff1681526020016004820154815260200160058201548152602001600682015f9054906101000a900460ff161515151581525050905090565b5f60055f9054906101000a900473ffffffffffffffffffffffffffffffffffffffff16905090565b5f610fca611ab7565b620ae3f3461461100f576040517f08c379a000000000000000000000000000000000000000000000000000000000815260040161100690612ccc565b60405180910390fd5b5f8411611051576040517f08c379a000000000000000000000000000000000000000000000000000000000815260040161104890612eec565b60405180910390fd5b5f73ffffffffffffffffffffffffffffffffffffffff168273ffffffffffffffffffffffffffffffffffffffff16036110bf576040517f08c379a00000000000000000000000000000000000000000000000000000000081526004016110b690612dc2565b60405180910390fd5b6110c984836117fd565b90506110d3611afd565b9392505050565b6110e2611ca3565b426017819055507f0ad274c7f542e8ab4a9a2b306981b29fa3dd3cdcfa30b246aecfc46e66cf883a42600160405161111b929190612f4c565b60405180910390a1565b60606004805461113490612e4c565b80601f016020809104026020016040519081016040528092919081815260200182805461116090612e4c565b80156111ab5780601f10611182576101008083540402835291602001916111ab565b820191905f5260205f20905b81548152906001019060200180831161118e57829003601f168201915b5050505050905090565b5f806111bf611b07565b90506111cc818585611bb3565b600191505092915050565b6111df611ca3565b8060165f6101000a81548160ff0219169083151502179055507f1c0a00c1e9c7f86fbf5b329d952561d3ba62c4d53d71bb227d6215d6bb5022a8816040516112279190612624565b60405180910390a150565b5f80620ae3f3461490507f40e32e9aff99e4ab76b6d1aaf85f9c600f1e7bbca59ab627b9547296fe256fda468260405161126d929190612f73565b60405180910390a18091505090565b600e805f015f9054906101000a900460020b90805f0160039054906101000a900460020b90805f0160069054906101000a90046fffffffffffffffffffffffffffffffff16908060010154908060020154908060030154908060040154905087565b5f60015f8473ffffffffffffffffffffffffffffffffffffffff1673ffffffffffffffffffffffffffffffffffffffff1681526020019081526020015f205f8373ffffffffffffffffffffffffffffffffffffffff1673ffffffffffffffffffffffffffffffffffffffff1681526020019081526020015f2054905092915050565b61271081565b6103e881565b5f620ae3f3905090565b61137e611ca3565b5f73ffffffffffffffffffffffffffffffffffffffff168173ffffffffffffffffffffffffffffffffffffffff16036113ee575f6040517f1e4fbdf70000000000000000000000000000000000000000000000000000000081526004016113e591906126fa565b60405180910390fd5b6113f781611d2a565b50565b5f611403611ab7565b620ae3f34614611448576040517f08c379a000000000000000000000000000000000000000000000000000000000815260040161143f90612ccc565b60405180910390fd5b5f841161148a576040517f08c379a000000000000000000000000000000000000000000000000000000000815260040161148190612d5a565b60405180910390fd5b8361149484610d06565b10156114d5576040517f08c379a00000000000000000000000000000000000000000000000000000000081526004016114cc90612fe4565b60405180910390fd5b5f6114de6109b3565b90505f6114e9610859565b90508181876114f8919061302f565b611502919061309d565b925061150e8587611ded565b60076002015f9054906101000a900473ffffffffffffffffffffffffffffffffffffffff1673ffffffffffffffffffffffffffffffffffffffff1663a9059cbb85856040518363ffffffff1660e01b815260040161156d9291906130cd565b6020604051808303815f875af1158015611589573d5f803e3d5ffd5b505050506040513d601f19601f820116820180604052508101906115ad9190613108565b506115b66109b3565b6007600401819055506115c7610859565b6007600501819055508373ffffffffffffffffffffffffffffffffffffffff167f30fda44e87537df3efccd5962c84af2f19525422eb95815e46e9ad52c382ab1e84884260405161161a93929190613133565b60405180910390a2505061162c611afd565b9392505050565b60135f9054906101000a900473ffffffffffffffffffffffffffffffffffffffff1673ffffffffffffffffffffffffffffffffffffffff163373ffffffffffffffffffffffffffffffffffffffff16146116c2576040517f08c379a00000000000000000000000000000000000000000000000000000000081526004016116b9906131b2565b60405180910390fd5b6116ca611ab7565b620ae3f3461461170f576040517f08c379a000000000000000000000000000000000000000000000000000000000815260040161170690612ccc565b60405180910390fd5b61019060185461171f91906131d0565b421015611761576040517f08c379a00000000000000000000000000000000000000000000000000000000081526004016117589061324d565b60405180910390fd5b61176a81611e6c565b426018819055507f6833c06a8e15ec6c550b15e0d1903b2d3215e6c3f47be904e88d58472d56122b600e5f015f9054906101000a900460020b600e5f0160039054906101000a900460020b835f0160208101906117c79190613295565b8460200160208101906117da9190613295565b6040516117ea94939291906132c0565b60405180910390a16117fa611afd565b50565b5f611806611ab7565b620ae3f3461461184b576040517f08c379a000000000000000000000000000000000000000000000000000000000815260040161184290612ccc565b60405180910390fd5b5f831161188d576040517f08c379a000000000000000000000000000000000000000000000000000000000815260040161188490612eec565b60405180910390fd5b5f73ffffffffffffffffffffffffffffffffffffffff168273ffffffffffffffffffffffffffffffffffffffff16036118fb576040517f08c379a00000000000000000000000000000000000000000000000000000000081526004016118f290612dc2565b60405180910390fd5b60165f9054906101000a900460ff1615611948577f1c0a00c1e9c7f86fbf5b329d952561d3ba62c4d53d71bb227d6215d6bb5022a8600160405161193f9190612624565b60405180910390a15b5f6119516109b3565b90505f61195c610859565b90505f820361196d57849250611987565b80828661197a919061302f565b611984919061309d565b92505b60076002015f9054906101000a900473ffffffffffffffffffffffffffffffffffffffff1673ffffffffffffffffffffffffffffffffffffffff166323b872dd3330886040518463ffffffff1660e01b81526004016119e893929190613303565b6020604051808303815f875af1158015611a04573d5f803e3d5ffd5b505050506040513d601f19601f82011682018060405250810190611a289190613108565b50611a338484611ed9565b611a3b6109b3565b600760040181905550611a4c610859565b6007600501819055508373ffffffffffffffffffffffffffffffffffffffff167fb109d7c42386e8132df0ffc2e2b0be0f20b3bab090956222f960781c2133dcd8868542604051611a9f93929190613133565b60405180910390a25050611ab1611afd565b92915050565b600260065403611af3576040517f3ee5aeb500000000000000000000000000000000000000000000000000000000815260040160405180910390fd5b6002600681905550565b6001600681905550565b5f33905090565b611b1b8383836001611f58565b505050565b5f611b2b84846112de565b90507fffffffffffffffffffffffffffffffffffffffffffffffffffffffffffffffff811015611bad5781811015611b9e578281836040517ffb8f41b2000000000000000000000000000000000000000000000000000000008152600401611b9593929190613338565b60405180910390fd5b611bac84848484035f611f58565b5b50505050565b5f73ffffffffffffffffffffffffffffffffffffffff168373ffffffffffffffffffffffffffffffffffffffff1603611c23575f6040517f96c6fd1e000000000000000000000000000000000000000000000000000000008152600401611c1a91906126fa565b60405180910390fd5b5f73ffffffffffffffffffffffffffffffffffffffff168273ffffffffffffffffffffffffffffffffffffffff1603611c93575f6040517fec442f05000000000000000000000000000000000000000000000000000000008152600401611c8a91906126fa565b60405180910390fd5b611c9e838383612127565b505050565b611cab611b07565b73ffffffffffffffffffffffffffffffffffffffff16611cc9610f99565b73ffffffffffffffffffffffffffffffffffffffff1614611d2857611cec611b07565b6040517f118cdaa7000000000000000000000000000000000000000000000000000000008152600401611d1f91906126fa565b60405180910390fd5b565b5f60055f9054906101000a900473ffffffffffffffffffffffffffffffffffffffff1690508160055f6101000a81548173ffffffffffffffffffffffffffffffffffffffff021916908373ffffffffffffffffffffffffffffffffffffffff1602179055508173ffffffffffffffffffffffffffffffffffffffff168173ffffffffffffffffffffffffffffffffffffffff167f8be0079c531659141344cd1fd0a4f28419497f9722a3daafe3b4186f6b6457e060405160405180910390a35050565b5f73ffffffffffffffffffffffffffffffffffffffff168273ffffffffffffffffffffffffffffffffffffffff1603611e5d575f6040517f96c6fd1e000000000000000000000000000000000000000000000000000000008152600401611e5491906126fa565b60405180910390fd5b611e68825f83612127565b5050565b805f016020810190611e7e9190613295565b600e5f015f6101000a81548162ffffff021916908360020b62ffffff160217905550806020016020810190611eb39190613295565b600e5f0160036101000a81548162ffffff021916908360020b62ffffff16021790555050565b5f73ffffffffffffffffffffffffffffffffffffffff168273ffffffffffffffffffffffffffffffffffffffff1603611f49575f6040517fec442f05000000000000000000000000000000000000000000000000000000008152600401611f4091906126fa565b60405180910390fd5b611f545f8383612127565b5050565b5f73ffffffffffffffffffffffffffffffffffffffff168473ffffffffffffffffffffffffffffffffffffffff1603611fc8575f6040517fe602df05000000000000000000000000000000000000000000000000000000008152600401611fbf91906126fa565b60405180910390fd5b5f73ffffffffffffffffffffffffffffffffffffffff168373ffffffffffffffffffffffffffffffffffffffff1603612038575f6040517f94280d6200000000000000000000000000000000000000000000000000000000815260040161202f91906126fa565b60405180910390fd5b8160015f8673ffffffffffffffffffffffffffffffffffffffff1673ffffffffffffffffffffffffffffffffffffffff1681526020019081526020015f205f8573ffffffffffffffffffffffffffffffffffffffff1673ffffffffffffffffffffffffffffffffffffffff1681526020019081526020015f20819055508015612121578273ffffffffffffffffffffffffffffffffffffffff168473ffffffffffffffffffffffffffffffffffffffff167f8c5be1e5ebec7d5bd14f71427d1e84f3dd0314c0f7b2291e5b200ac8c7c3b925846040516121189190612509565b60405180910390a35b50505050565b5f73ffffffffffffffffffffffffffffffffffffffff168373ffffffffffffffffffffffffffffffffffffffff1603612177578060025f82825461216b91906131d0565b92505081905550612245565b5f805f8573ffffffffffffffffffffffffffffffffffffffff1673ffffffffffffffffffffffffffffffffffffffff1681526020019081526020015f2054905081811015612200578381836040517fe450d38c0000000000000000000000000000000000000000000000000000000081526004016121f793929190613338565b60405180910390fd5b8181035f808673ffffffffffffffffffffffffffffffffffffffff1673ffffffffffffffffffffffffffffffffffffffff1681526020019081526020015f2081905550505b5f73ffffffffffffffffffffffffffffffffffffffff168273ffffffffffffffffffffffffffffffffffffffff160361228c578060025f82825403925050819055506122d6565b805f808473ffffffffffffffffffffffffffffffffffffffff1673ffffffffffffffffffffffffffffffffffffffff1681526020019081526020015f205f82825401925050819055505b8173ffffffffffffffffffffffffffffffffffffffff168373ffffffffffffffffffffffffffffffffffffffff167fddf252ad1be2c89b69c2b068fc378daa952ba7f163c4a11628f55a4df523b3ef836040516123339190612509565b60405180910390a3505050565b6040518060e001604052805f60020b81526020015f60020b81526020015f6fffffffffffffffffffffffffffffffff1681526020015f81526020015f81526020015f81526020015f81525090565b60405180610100016040528060608152602001606081526020015f73ffffffffffffffffffffffffffffffffffffffff1681526020015f73ffffffffffffffffffffffffffffffffffffffff1681526020015f62ffffff1681526020015f81526020015f81526020015f151581525090565b5f80fd5b5f80fd5b5f819050919050565b61241a81612408565b8114612424575f80fd5b50565b5f8135905061243581612411565b92915050565b5f73ffffffffffffffffffffffffffffffffffffffff82169050919050565b5f6124648261243b565b9050919050565b6124748161245a565b811461247e575f80fd5b50565b5f8135905061248f8161246b565b92915050565b5f80604083850312156124ab576124aa612400565b5b5f6124b885828601612427565b92505060206124c985828601612481565b9150509250929050565b6124dc81612408565b82525050565b5f6040820190506124f55f8301856124d3565b61250260208301846124d3565b9392505050565b5f60208201905061251c5f8301846124d3565b92915050565b5f81519050919050565b5f82825260208201905092915050565b5f5b8381101561255957808201518184015260208101905061253e565b5f8484015250505050565b5f601f19601f8301169050919050565b5f61257e82612522565b612588818561252c565b935061259881856020860161253c565b6125a181612564565b840191505092915050565b5f6020820190508181035f8301526125c48184612574565b905092915050565b5f80604083850312156125e2576125e1612400565b5b5f6125ef85828601612481565b925050602061260085828601612427565b9150509250929050565b5f8115159050919050565b61261e8161260a565b82525050565b5f6020820190506126375f830184612615565b92915050565b5f819050919050565b61264f8161263d565b8114612659575f80fd5b50565b5f8135905061266a81612646565b92915050565b5f6020828403121561268557612684612400565b5b5f6126928482850161265c565b91505092915050565b5f805f606084860312156126b2576126b1612400565b5b5f6126bf86828701612481565b93505060206126d086828701612481565b92505060406126e186828701612427565b9150509250925092565b6126f48161245a565b82525050565b5f60208201905061270d5f8301846126eb565b92915050565b5f60ff82169050919050565b61272881612713565b82525050565b5f6020820190506127415f83018461271f565b92915050565b5f8160020b9050919050565b61275c81612747565b82525050565b5f6fffffffffffffffffffffffffffffffff82169050919050565b61278681612762565b82525050565b61279581612408565b82525050565b60e082015f8201516127af5f850182612753565b5060208201516127c26020850182612753565b5060408201516127d5604085018261277d565b5060608201516127e8606085018261278c565b5060808201516127fb608085018261278c565b5060a082015161280e60a085018261278c565b5060c082015161282160c085018261278c565b50505050565b5f60e08201905061283a5f83018461279b565b92915050565b5f62ffffff82169050919050565b61285781612840565b82525050565b5f610100820190508181035f830152612876818b612574565b9050818103602083015261288a818a612574565b905061289960408301896126eb565b6128a660608301886126eb565b6128b3608083018761284e565b6128c060a08301866124d3565b6128cd60c08301856124d3565b6128da60e0830184612615565b9998505050505050505050565b5f602082840312156128fc576128fb612400565b5b5f61290984828501612481565b91505092915050565b5f82825260208201905092915050565b5f61292c82612522565b6129368185612912565b935061294681856020860161253c565b61294f81612564565b840191505092915050565b6129638161245a565b82525050565b61297281612840565b82525050565b6129818161260a565b82525050565b5f61010083015f8301518482035f8601526129a28282612922565b915050602083015184820360208601526129bc8282612922565b91505060408301516129d1604086018261295a565b5060608301516129e4606086018261295a565b5060808301516129f76080860182612969565b5060a0830151612a0a60a086018261278c565b5060c0830151612a1d60c086018261278c565b5060e0830151612a3060e0860182612978565b508091505092915050565b5f6020820190508181035f830152612a538184612987565b905092915050565b5f805f60608486031215612a7257612a71612400565b5b5f612a7f86828701612427565b9350506020612a9086828701612427565b9250506040612aa186828701612481565b9150509250925092565b612ab48161260a565b8114612abe575f80fd5b50565b5f81359050612acf81612aab565b92915050565b5f60208284031215612aea57612ae9612400565b5b5f612af784828501612ac1565b91505092915050565b612b0981612747565b82525050565b612b1881612762565b82525050565b5f60e082019050612b315f83018a612b00565b612b3e6020830189612b00565b612b4b6040830188612b0f565b612b5860608301876124d3565b612b6560808301866124d3565b612b7260a08301856124d3565b612b7f60c08301846124d3565b98975050505050505050565b5f8060408385031215612ba157612ba0612400565b5b5f612bae85828601612481565b9250506020612bbf85828601612481565b9150509250929050565b5f805f60608486031215612be057612bdf612400565b5b5f612bed86828701612427565b9350506020612bfe86828701612481565b9250506040612c0f86828701612481565b9150509250925092565b5f80fd5b5f60c08284031215612c3257612c31612c19565b5b81905092915050565b5f60208284031215612c5057612c4f612400565b5b5f82013567ffffffffffffffff811115612c6d57612c6c612404565b5b612c7984828501612c1d565b91505092915050565b7f496e76616c69642053454920636861696e0000000000000000000000000000005f82015250565b5f612cb660118361252c565b9150612cc182612c82565b602082019050919050565b5f6020820190508181035f830152612ce381612caa565b9050919050565b7f576974686472617720616d6f756e74206d7573742062652067726561746572205f8201527f7468616e20300000000000000000000000000000000000000000000000000000602082015250565b5f612d4460268361252c565b9150612d4f82612cea565b604082019050919050565b5f6020820190508181035f830152612d7181612d38565b9050919050565b7f496e76616c696420726563697069656e740000000000000000000000000000005f82015250565b5f612dac60118361252c565b9150612db782612d78565b602082019050919050565b5f6020820190508181035f830152612dd981612da0565b9050919050565b5f81519050612dee81612411565b92915050565b5f60208284031215612e0957612e08612400565b5b5f612e1684828501612de0565b91505092915050565b7f4e487b71000000000000000000000000000000000000000000000000000000005f52602260045260245ffd5b5f6002820490506001821680612e6357607f821691505b602082108103612e7657612e75612e1f565b5b50919050565b7f4465706f73697420616d6f756e74206d757374206265206772656174657220745f8201527f68616e2030000000000000000000000000000000000000000000000000000000602082015250565b5f612ed660258361252c565b9150612ee182612e7c565b604082019050919050565b5f6020820190508181035f830152612f0381612eca565b9050919050565b5f819050919050565b5f819050919050565b5f612f36612f31612f2c84612f0a565b612f13565b612408565b9050919050565b612f4681612f1c565b82525050565b5f604082019050612f5f5f8301856124d3565b612f6c6020830184612f3d565b9392505050565b5f604082019050612f865f8301856124d3565b612f936020830184612615565b9392505050565b7f496e73756666696369656e7420736861726573000000000000000000000000005f82015250565b5f612fce60138361252c565b9150612fd982612f9a565b602082019050919050565b5f6020820190508181035f830152612ffb81612fc2565b9050919050565b7f4e487b71000000000000000000000000000000000000000000000000000000005f52601160045260245ffd5b5f61303982612408565b915061304483612408565b925082820261305281612408565b9150828204841483151761306957613068613002565b5b5092915050565b7f4e487b71000000000000000000000000000000000000000000000000000000005f52601260045260245ffd5b5f6130a782612408565b91506130b283612408565b9250826130c2576130c1613070565b5b828204905092915050565b5f6040820190506130e05f8301856126eb565b6130ed60208301846124d3565b9392505050565b5f8151905061310281612aab565b92915050565b5f6020828403121561311d5761311c612400565b5b5f61312a848285016130f4565b91505092915050565b5f6060820190506131465f8301866124d3565b61315360208301856124d3565b61316060408301846124d3565b949350505050565b7f556e617574686f72697a656420414900000000000000000000000000000000005f82015250565b5f61319c600f8361252c565b91506131a782613168565b602082019050919050565b5f6020820190508181035f8301526131c981613190565b9050919050565b5f6131da82612408565b91506131e583612408565b92508282019050808211156131fd576131fc613002565b5b92915050565b7f526562616c616e636520746f6f206672657175656e74000000000000000000005f82015250565b5f61323760168361252c565b915061324282613203565b602082019050919050565b5f6020820190508181035f8301526132648161322b565b9050919050565b61327481612747565b811461327e575f80fd5b50565b5f8135905061328f8161326b565b92915050565b5f602082840312156132aa576132a9612400565b5b5f6132b784828501613281565b91505092915050565b5f6080820190506132d35f830187612b00565b6132e06020830186612b00565b6132ed6040830185612b00565b6132fa6060830184612b00565b95945050505050565b5f6060820190506133165f8301866126eb565b61332360208301856126eb565b61333060408301846124d3565b949350505050565b5f60608201905061334b5f8301866126eb565b61335860208301856124d3565b61336560408301846124d3565b94935050505056fea2646970667358221220a8ddc8c648952f3b9bfc61a20827e6832273ac7f5fa419f062680be6bdbb9d2864736f6c63430008140033","linkReferences":{}},"methodIdentifiers":{"FEE_PRECISION()":"e63a391f","MANAGEMENT_FEE()":"5f1554e3","MIN_REBALANCE_INTERVAL()":"350e4221","PERFORMANCE_FEE()":"e93f5665","aiModel()":"30e6050f","aiOracle()":"31b221cd","allowance(address,address)":"dd62ed3e","approve(address,uint256)":"095ea7b3","asset()":"38d52e0f","balanceOf(address)":"70a08231","currentPosition()":"d534d636","decimals()":"313ce567","deposit(uint256,uint256,address)":"8dbdbe6d","executedAIRequests(bytes32)":"205134ce","getCurrentPosition()":"418f35cc","getLastFinalityOptimization()":"59673460","getSEIChainId()":"f1503c36","getVaultInfo()":"7f98aa71","lastFinalityOptimization()":"7bd1e7ce","lastRebalance()":"106b9ca1","name()":"06fdde03","optimizeForFinality()":"8f28675d","owner()":"8da5cb5b","parallelExecutionEnabled()":"34475df3","rebalance((int24,int24,uint256,uint256,uint256,bytes))":"fa95e4da","renounceOwnership()":"715018a6","seiOptimizedDeposit(uint256,address)":"fde038e6","seiOptimizedWithdraw(uint256,address,address)":"f81dd372","setParallelExecution(bool)":"ba0a348d","symbol()":"95d89b41","totalAssets()":"01e1d114","totalSupply()":"18160ddd","transfer(address,uint256)":"a9059cbb","transferFrom(address,address,uint256)":"23b872dd","transferOwnership(address)":"f2fde38b","validateSEIChain()":"bff29729","vaultInfo()":"501ec738","withdraw(uint256,address)":"00f714ce"},"id":36}