{"abi":[{"type":"constructor","inputs":[{"name":"_asset","type":"address","internalType":"address"},{"name":"_name","type":"string","internalType":"string"},{"name":"_symbol","type":"string","internalType":"string"},{"name":"_owner","type":"address","internalType":"address"},{"name":"_aiModel","type":"address","internalType":"address"}],"stateMutability":"nonpayable"},{"type":"function","name":"FEE_PRECISION","inputs":[],"outputs":[{"name":"","type":"uint256","internalType":"uint256"}],"stateMutability":"view"},{"type":"function","name":"MANAGEMENT_FEE","inputs":[],"outputs":[{"name":"","type":"uint256","internalType":"uint256"}],"stateMutability":"view"},{"type":"function","name":"MIN_REBALANCE_INTERVAL","inputs":[],"outputs":[{"name":"","type":"uint256","internalType":"uint256"}],"stateMutability":"view"},{"type":"function","name":"PERFORMANCE_FEE","inputs":[],"outputs":[{"name":"","type":"uint256","internalType":"uint256"}],"stateMutability":"view"},{"type":"function","name":"aiModel","inputs":[],"outputs":[{"name":"","type":"address","internalType":"address"}],"stateMutability":"view"},{"type":"function","name":"aiOracle","inputs":[],"outputs":[{"name":"","type":"address","internalType":"address"}],"stateMutability":"view"},{"type":"function","name":"allowance","inputs":[{"name":"owner","type":"address","internalType":"address"},{"name":"spender","type":"address","internalType":"address"}],"outputs":[{"name":"","type":"uint256","internalType":"uint256"}],"stateMutability":"view"},{"type":"function","name":"approve","inputs":[{"name":"spender","type":"address","internalType":"address"},{"name":"value","type":"uint256","internalType":"uint256"}],"outputs":[{"name":"","type":"bool","internalType":"bool"}],"stateMutability":"nonpayable"},{"type":"function","name":"asset","inputs":[],"outputs":[{"name":"","type":"address","internalType":"address"}],"stateMutability":"view"},{"type":"function","name":"balanceOf","inputs":[{"name":"account","type":"address","internalType":"address"}],"outputs":[{"name":"","type":"uint256","internalType":"uint256"}],"stateMutability":"view"},{"type":"function","name":"currentPosition","inputs":[],"outputs":[{"name":"tickLower","type":"int24","internalType":"int24"},{"name":"tickUpper","type":"int24","internalType":"int24"},{"name":"liquidity","type":"uint128","internalType":"uint128"},{"name":"tokensOwed0","type":"uint256","internalType":"uint256"},{"name":"tokensOwed1","type":"uint256","internalType":"uint256"},{"name":"feeGrowthInside0LastX128","type":"uint256","internalType":"uint256"},{"name":"feeGrowthInside1LastX128","type":"uint256","internalType":"uint256"}],"stateMutability":"view"},{"type":"function","name":"decimals","inputs":[],"outputs":[{"name":"","type":"uint8","internalType":"uint8"}],"stateMutability":"view"},{"type":"function","name":"deposit","inputs":[{"name":"amount0","type":"uint256","internalType":"uint256"},{"name":"amount1","type":"uint256","internalType":"uint256"},{"name":"recipient","type":"address","internalType":"address"}],"outputs":[{"name":"shares","type":"uint256","internalType":"uint256"}],"stateMutability":"nonpayable"},{"type":"function","name":"executedAIRequests","inputs":[{"name":"","type":"bytes32","internalType":"bytes32"}],"outputs":[{"name":"","type":"bool","internalType":"bool"}],"stateMutability":"view"},{"type":"function","name":"getCurrentPosition","inputs":[],"outputs":[{"name":"","type":"tuple","internalType":"struct ISEIVault.Position","components":[{"name":"tickLower","type":"int24","internalType":"int24"},{"name":"tickUpper","type":"int24","internalType":"int24"},{"name":"liquidity","type":"uint128","internalType":"uint128"},{"name":"tokensOwed0","type":"uint256","internalType":"uint256"},{"name":"tokensOwed1","type":"uint256","internalType":"uint256"},{"name":"feeGrowthInside0LastX128","type":"uint256","internalType":"uint256"},{"name":"feeGrowthInside1LastX128","type":"uint256","internalType":"uint256"}]}],"stateMutability":"view"},{"type":"function","name":"getLastFinalityOptimization","inputs":[],"outputs":[{"name":"","type":"uint256","internalType":"uint256"}],"stateMutability":"view"},{"type":"function","name":"getSEIChainId","inputs":[],"outputs":[{"name":"","type":"uint256","internalType":"uint256"}],"stateMutability":"pure"},{"type":"function","name":"getVaultInfo","inputs":[],"outputs":[{"name":"","type":"tuple","internalType":"struct ISEIVault.VaultInfo","components":[{"name":"name","type":"string","internalType":"string"},{"name":"strategy","type":"string","internalType":"string"},{"name":"token0","type":"address","internalType":"address"},{"name":"token1","type":"address","internalType":"address"},{"name":"poolFee","type":"uint24","internalType":"uint24"},{"name":"totalSupply","type":"uint256","internalType":"uint256"},{"name":"totalValueLocked","type":"uint256","internalType":"uint256"},{"name":"isActive","type":"bool","internalType":"bool"}]}],"stateMutability":"view"},{"type":"function","name":"lastFinalityOptimization","inputs":[],"outputs":[{"name":"","type":"uint256","internalType":"uint256"}],"stateMutability":"view"},{"type":"function","name":"lastRebalance","inputs":[],"outputs":[{"name":"","type":"uint256","internalType":"uint256"}],"stateMutability":"view"},{"type":"function","name":"name","inputs":[],"outputs":[{"name":"","type":"string","internalType":"string"}],"stateMutability":"view"},{"type":"function","name":"optimizeForFinality","inputs":[],"outputs":[],"stateMutability":"nonpayable"},{"type":"function","name":"owner","inputs":[],"outputs":[{"name":"","type":"address","internalType":"address"}],"stateMutability":"view"},{"type":"function","name":"parallelExecutionEnabled","inputs":[],"outputs":[{"name":"","type":"bool","internalType":"bool"}],"stateMutability":"view"},{"type":"function","name":"rebalance","inputs":[{"name":"params","type":"tuple","internalType":"struct ISEIVault.AIRebalanceParams","components":[{"name":"newTickLower","type":"int24","internalType":"int24"},{"name":"newTickUpper","type":"int24","internalType":"int24"},{"name":"minAmount0","type":"uint256","internalType":"uint256"},{"name":"minAmount1","type":"uint256","internalType":"uint256"},{"name":"deadline","type":"uint256","internalType":"uint256"},{"name":"aiSignature","type":"bytes","internalType":"bytes"}]}],"outputs":[],"stateMutability":"nonpayable"},{"type":"function","name":"renounceOwnership","inputs":[],"outputs":[],"stateMutability":"nonpayable"},{"type":"function","name":"seiOptimizedDeposit","inputs":[{"name":"amount","type":"uint256","internalType":"uint256"},{"name":"recipient","type":"address","internalType":"address"}],"outputs":[{"name":"shares","type":"uint256","internalType":"uint256"}],"stateMutability":"nonpayable"},{"type":"function","name":"seiOptimizedWithdraw","inputs":[{"name":"shares","type":"uint256","internalType":"uint256"},{"name":"owner","type":"address","internalType":"address"},{"name":"recipient","type":"address","internalType":"address"}],"outputs":[{"name":"assets","type":"uint256","internalType":"uint256"}],"stateMutability":"nonpayable"},{"type":"function","name":"setParallelExecution","inputs":[{"name":"enabled","type":"bool","internalType":"bool"}],"outputs":[],"stateMutability":"nonpayable"},{"type":"function","name":"symbol","inputs":[],"outputs":[{"name":"","type":"string","internalType":"string"}],"stateMutability":"view"},{"type":"function","name":"totalAssets","inputs":[],"outputs":[{"name":"","type":"uint256","internalType":"uint256"}],"stateMutability":"view"},{"type":"function","name":"totalSupply","inputs":[],"outputs":[{"name":"","type":"uint256","internalType":"uint256"}],"stateMutability":"view"},{"type":"function","name":"transfer","inputs":[{"name":"to","type":"address","internalType":"address"},{"name":"value","type":"uint256","internalType":"uint256"}],"outputs":[{"name":"","type":"bool","internalType":"bool"}],"stateMutability":"nonpayable"},{"type":"function","name":"transferFrom","inputs":[{"name":"from","type":"address","internalType":"address"},{"name":"to","type":"address","internalType":"address"},{"name":"value","type":"uint256","internalType":"uint256"}],"outputs":[{"name":"","type":"bool","internalType":"bool"}],"stateMutability":"nonpayable"},{"type":"function","name":"transferOwnership","inputs":[{"name":"newOwner","type":"address","internalType":"address"}],"outputs":[],"stateMutability":"nonpayable"},{"type":"function","name":"validateSEIChain","inputs":[],"outputs":[{"name":"","type":"bool","internalType":"bool"}],"stateMutability":"nonpayable"},{"type":"function","name":"vaultInfo","inputs":[],"outputs":[{"name":"name","type":"string","internalType":"string"},{"name":"strategy","type":"string","internalType":"string"},{"name":"token0","type":"address","internalType":"address"},{"name":"token1","type":"address","internalType":"address"},{"name":"poolFee","type":"uint24","internalType":"uint24"},{"name":"totalSupply","type":"uint256","internalType":"uint256"},{"name":"totalValueLocked","type":"uint256","internalType":"uint256"},{"name":"isActive","type":"bool","internalType":"bool"}],"stateMutability":"view"},{"type":"function","name":"withdraw","inputs":[{"name":"shares","type":"uint256","internalType":"uint256"},{"name":"recipient","type":"address","internalType":"address"}],"outputs":[{"name":"amount0","type":"uint256","internalType":"uint256"},{"name":"amount1","type":"uint256","internalType":"uint256"}],"stateMutability":"nonpayable"},{"type":"event","name":"AIRebalanceExecuted","inputs":[{"name":"aiRequestId","type":"bytes32","indexed":true,"internalType":"bytes32"},{"name":"gasUsed","type":"uint256","indexed":false,"internalType":"uint256"}],"anonymous":false},{"type":"event","name":"Approval","inputs":[{"name":"owner","type":"address","indexed":true,"internalType":"address"},{"name":"spender","type":"address","indexed":true,"internalType":"address"},{"name":"value","type":"uint256","indexed":false,"internalType":"uint256"}],"anonymous":false},{"type":"event","name":"FinalityOptimized","inputs":[{"name":"blockTime","type":"uint256","indexed":false,"internalType":"uint256"},{"name":"executionBatch","type":"uint256","indexed":false,"internalType":"uint256"}],"anonymous":false},{"type":"event","name":"OwnershipTransferred","inputs":[{"name":"previousOwner","type":"address","indexed":true,"internalType":"address"},{"name":"newOwner","type":"address","indexed":true,"internalType":"address"}],"anonymous":false},{"type":"event","name":"ParallelExecutionEnabled","inputs":[{"name":"enabled","type":"bool","indexed":false,"internalType":"bool"}],"anonymous":false},{"type":"event","name":"PositionRebalanced","inputs":[{"name":"oldTickLower","type":"int24","indexed":false,"internalType":"int24"},{"name":"oldTickUpper","type":"int24","indexed":false,"internalType":"int24"},{"name":"newTickLower","type":"int24","indexed":false,"internalType":"int24"},{"name":"newTickUpper","type":"int24","indexed":false,"internalType":"int24"}],"anonymous":false},{"type":"event","name":"SEIChainValidated","inputs":[{"name":"chainId","type":"uint256","indexed":false,"internalType":"uint256"},{"name":"isValid","type":"bool","indexed":false,"internalType":"bool"}],"anonymous":false},{"type":"event","name":"SEIOptimizedDeposit","inputs":[{"name":"user","type":"address","indexed":true,"internalType":"address"},{"name":"amount","type":"uint256","indexed":false,"internalType":"uint256"},{"name":"shares","type":"uint256","indexed":false,"internalType":"uint256"},{"name":"blockTime","type":"uint256","indexed":false,"internalType":"uint256"}],"anonymous":false},{"type":"event","name":"SEIOptimizedWithdraw","inputs":[{"name":"user","type":"address","indexed":true,"internalType":"address"},{"name":"amount","type":"uint256","indexed":false,"internalType":"uint256"},{"name":"shares","type":"uint256","indexed":false,"internalType":"uint256"},{"name":"blockTime","type":"uint256","indexed":false,"internalType":"uint256"}],"anonymous":false},{"type":"event","name":"Transfer","inputs":[{"name":"from","type":"address","indexed":true,"internalType":"address"},{"name":"to","type":"address","indexed":true,"internalType":"address"},{"name":"value","type":"uint256","indexed":false,"internalType":"uint256"}],"anonymous":false},{"type":"event","name":"VaultCreated","inputs":[{"name":"vault","type":"address","indexed":true,"internalType":"address"},{"name":"name","type":"string","indexed":false,"internalType":"string"},{"name":"token0","type":"address","indexed":false,"internalType":"address"},{"name":"token1","type":"address","indexed":false,"internalType":"address"}],"anonymous":false},{"type":"error","name":"ERC20InsufficientAllowance","inputs":[{"name":"spender","type":"address","internalType":"address"},{"name":"allowance","type":"uint256","internalType":"uint256"},{"name":"needed","type":"uint256","internalType":"uint256"}]},{"type":"error","name":"ERC20InsufficientBalance","inputs":[{"name":"sender","type":"address","internalType":"address"},{"name":"balance","type":"uint256","internalType":"uint256"},{"name":"needed","type":"uint256","internalType":"uint256"}]},{"type":"error","name":"ERC20InvalidApprover","inputs":[{"name":"approver","type":"address","internalType":"address"}]},{"type":"error","name":"ERC20InvalidReceiver","inputs":[{"name":"receiver","type":"address","internalType":"address"}]},{"type":"error","name":"ERC20InvalidSender","inputs":[{"name":"sender","type":"address","internalType":"address"}]},{"type":"error","name":"ERC20InvalidSpender","inputs":[{"name":"spender","type":"address","internalType":"address"}]},{"type":"error","name":"OwnableInvalidOwner","inputs":[{"name":"owner","type":"address","internalType":"address"}]},{"type":"error","name":"OwnableUnauthorizedAccount","inputs":[{"name":"account","type":"address","internalType":"address"}]},{"type":"error","name":"ReentrancyGuardReentrantCall","inputs":[]}],"bytecode":{"object":"0x6080604052600160165f6101000a81548160ff021916908315150217905550348015610029575f5ffd5b506040516140b53803806140b5833981810160405281019061004b9190610745565b818484816003908161005d9190610a04565b50806004908161006d9190610a04565b5050505f73ffffffffffffffffffffffffffffffffffffffff168173ffffffffffffffffffffffffffffffffffffffff16036100e0575f6040517f1e4fbdf70000000000000000000000000000000000000000000000000000000081526004016100d79190610ae2565b60405180910390fd5b6100ef816104db60201b60201c565b506001600681905550620ae3f3461461013d576040517f08c379a000000000000000000000000000000000000000000000000000000000815260040161013490610b55565b60405180910390fd5b5f73ffffffffffffffffffffffffffffffffffffffff168573ffffffffffffffffffffffffffffffffffffffff16036101ab576040517f08c379a00000000000000000000000000000000000000000000000000000000081526004016101a290610bbd565b60405180910390fd5b5f73ffffffffffffffffffffffffffffffffffffffff168273ffffffffffffffffffffffffffffffffffffffff1603610219576040517f08c379a000000000000000000000000000000000000000000000000000000000815260040161021090610c25565b60405180910390fd5b5f73ffffffffffffffffffffffffffffffffffffffff168173ffffffffffffffffffffffffffffffffffffffff1603610287576040517f08c379a000000000000000000000000000000000000000000000000000000000815260040161027e90610c8d565b60405180910390fd5b6040518061010001604052808581526020016040518060400160405280601d81526020017f5345495f41495f434f4e43454e5452415445445f4c495155494449545900000081525081526020018673ffffffffffffffffffffffffffffffffffffffff1681526020015f73ffffffffffffffffffffffffffffffffffffffff168152602001610bb862ffffff1681526020015f81526020015f81526020016001151581525060075f820151815f0190816103419190610a04565b5060208201518160010190816103579190610a04565b506040820151816002015f6101000a81548173ffffffffffffffffffffffffffffffffffffffff021916908373ffffffffffffffffffffffffffffffffffffffff1602179055506060820151816003015f6101000a81548173ffffffffffffffffffffffffffffffffffffffff021916908373ffffffffffffffffffffffffffffffffffffffff16021790555060808201518160030160146101000a81548162ffffff021916908362ffffff16021790555060a0820151816004015560c0820151816005015560e0820151816006015f6101000a81548160ff0219169083151502179055509050508060145f6101000a81548173ffffffffffffffffffffffffffffffffffffffff021916908373ffffffffffffffffffffffffffffffffffffffff1602179055503073ffffffffffffffffffffffffffffffffffffffff167fa8ca87c5f5e04d4b4644da1612143a77fef7e3e6bfcae78c91c102763f9110fe85875f6040516104c993929190610ce3565b60405180910390a25050505050610d1f565b5f60055f9054906101000a900473ffffffffffffffffffffffffffffffffffffffff1690508160055f6101000a81548173ffffffffffffffffffffffffffffffffffffffff021916908373ffffffffffffffffffffffffffffffffffffffff1602179055508173ffffffffffffffffffffffffffffffffffffffff168173ffffffffffffffffffffffffffffffffffffffff167f8be0079c531659141344cd1fd0a4f28419497f9722a3daafe3b4186f6b6457e060405160405180910390a35050565b5f604051905090565b5f5ffd5b5f5ffd5b5f73ffffffffffffffffffffffffffffffffffffffff82169050919050565b5f6105d8826105af565b9050919050565b6105e8816105ce565b81146105f2575f5ffd5b50565b5f81519050610603816105df565b92915050565b5f5ffd5b5f5ffd5b5f601f19601f8301169050919050565b7f4e487b71000000000000000000000000000000000000000000000000000000005f52604160045260245ffd5b61065782610611565b810181811067ffffffffffffffff8211171561067657610675610621565b5b80604052505050565b5f61068861059e565b9050610694828261064e565b919050565b5f67ffffffffffffffff8211156106b3576106b2610621565b5b6106bc82610611565b9050602081019050919050565b8281835e5f83830152505050565b5f6106e96106e484610699565b61067f565b9050828152602081018484840111156107055761070461060d565b5b6107108482856106c9565b509392505050565b5f82601f83011261072c5761072b610609565b5b815161073c8482602086016106d7565b91505092915050565b5f5f5f5f5f60a0868803121561075e5761075d6105a7565b5b5f61076b888289016105f5565b955050602086015167ffffffffffffffff81111561078c5761078b6105ab565b5b61079888828901610718565b945050604086015167ffffffffffffffff8111156107b9576107b86105ab565b5b6107c588828901610718565b93505060606107d6888289016105f5565b92505060806107e7888289016105f5565b9150509295509295909350565b5f81519050919050565b7f4e487b71000000000000000000000000000000000000000000000000000000005f52602260045260245ffd5b5f600282049050600182168061084257607f821691505b602082108103610855576108546107fe565b5b50919050565b5f819050815f5260205f209050919050565b5f6020601f8301049050919050565b5f82821b905092915050565b5f600883026108b77fffffffffffffffffffffffffffffffffffffffffffffffffffffffffffffffff8261087c565b6108c1868361087c565b95508019841693508086168417925050509392505050565b5f819050919050565b5f819050919050565b5f6109056109006108fb846108d9565b6108e2565b6108d9565b9050919050565b5f819050919050565b61091e836108eb565b61093261092a8261090c565b848454610888565b825550505050565b5f5f905090565b61094961093a565b610954818484610915565b505050565b5b818110156109775761096c5f82610941565b60018101905061095a565b5050565b601f8211156109bc5761098d8161085b565b6109968461086d565b810160208510156109a5578190505b6109b96109b18561086d565b830182610959565b50505b505050565b5f82821c905092915050565b5f6109dc5f19846008026109c1565b1980831691505092915050565b5f6109f483836109cd565b9150826002028217905092915050565b610a0d826107f4565b67ffffffffffffffff811115610a2657610a25610621565b5b610a30825461082b565b610a3b82828561097b565b5f60209050601f831160018114610a6c575f8415610a5a578287015190505b610a6485826109e9565b865550610acb565b601f198416610a7a8661085b565b5f5b82811015610aa157848901518255600182019150602085019450602081019050610a7c565b86831015610abe5784890151610aba601f8916826109cd565b8355505b6001600288020188555050505b505050505050565b610adc816105ce565b82525050565b5f602082019050610af55f830184610ad3565b92915050565b5f82825260208201905092915050565b7f496e76616c69642053454920636861696e0000000000000000000000000000005f82015250565b5f610b3f601183610afb565b9150610b4a82610b0b565b602082019050919050565b5f6020820190508181035f830152610b6c81610b33565b9050919050565b7f496e76616c6964206173736574000000000000000000000000000000000000005f82015250565b5f610ba7600d83610afb565b9150610bb282610b73565b602082019050919050565b5f6020820190508181035f830152610bd481610b9b565b9050919050565b7f496e76616c6964206f776e6572000000000000000000000000000000000000005f82015250565b5f610c0f600d83610afb565b9150610c1a82610bdb565b602082019050919050565b5f6020820190508181035f830152610c3c81610c03565b9050919050565b7f496e76616c6964204149206d6f64656c000000000000000000000000000000005f82015250565b5f610c77601083610afb565b9150610c8282610c43565b602082019050919050565b5f6020820190508181035f830152610ca481610c6b565b9050919050565b5f610cb5826107f4565b610cbf8185610afb565b9350610ccf8185602086016106c9565b610cd881610611565b840191505092915050565b5f6060820190508181035f830152610cfb8186610cab565b9050610d0a6020830185610ad3565b610d176040830184610ad3565b949350505050565b61338980610d2c5f395ff3fe608060405234801561000f575f5ffd5b506004361061022f575f3560e01c8063715018a61161012e578063bff29729116100b6578063f1503c361161007a578063f1503c3614610685578063f2fde38b146106a3578063f81dd372146106bf578063fa95e4da146106ef578063fde038e61461070b5761022f565b8063bff29729146105d7578063d534d636146105f5578063dd62ed3e14610619578063e63a391f14610649578063e93f5665146106675761022f565b80638dbdbe6d116100fd5780638dbdbe6d146105335780638f28675d1461056357806395d89b411461056d578063a9059cbb1461058b578063ba0a348d146105bb5761022f565b8063715018a6146104cf5780637bd1e7ce146104d95780637f98aa71146104f75780638da5cb5b146105155761022f565b8063313ce567116101bc578063418f35cc11610180578063418f35cc14610420578063501ec7381461043e57806359673460146104635780635f1554e31461048157806370a082311461049f5761022f565b8063313ce5671461038a57806331b221cd146103a857806334475df3146103c6578063350e4221146103e457806338d52e0f146104025761022f565b8063106b9ca111610203578063106b9ca1146102d057806318160ddd146102ee578063205134ce1461030c57806323b872dd1461033c57806330e6050f1461036c5761022f565b8062f714ce1461023357806301e1d1141461026457806306fdde0314610282578063095ea7b3146102a0575b5f5ffd5b61024d60048036038101906102489190612495565b61073b565b60405161025b9291906124e2565b60405180910390f35b61026c610859565b6040516102799190612509565b60405180910390f35b61028a6108fb565b6040516102979190612592565b60405180910390f35b6102ba60048036038101906102b591906125b2565b61098b565b6040516102c7919061260a565b60405180910390f35b6102d86109ad565b6040516102e59190612509565b60405180910390f35b6102f66109b3565b6040516103039190612509565b60405180910390f35b61032660048036038101906103219190612656565b6109bc565b604051610333919061260a565b60405180910390f35b61035660048036038101906103519190612681565b6109d9565b604051610363919061260a565b60405180910390f35b610374610a07565b60405161038191906126e0565b60405180910390f35b610392610a2c565b60405161039f9190612714565b60405180910390f35b6103b0610a34565b6040516103bd91906126e0565b60405180910390f35b6103ce610a59565b6040516103db919061260a565b60405180910390f35b6103ec610a6b565b6040516103f99190612509565b60405180910390f35b61040a610a71565b60405161041791906126e0565b60405180910390f35b610428610a9c565b604051610435919061280d565b60405180910390f35b610446610b5e565b60405161045a989796959493929190612843565b60405180910390f35b61046b610cf8565b6040516104789190612509565b60405180910390f35b610489610d01565b6040516104969190612509565b60405180910390f35b6104b960048036038101906104b491906128cd565b610d06565b6040516104c69190612509565b60405180910390f35b6104d7610d4b565b005b6104e1610d5e565b6040516104ee9190612509565b60405180910390f35b6104ff610d64565b60405161050c9190612a21565b60405180910390f35b61051d610f99565b60405161052a91906126e0565b60405180910390f35b61054d60048036038101906105489190612a41565b610fc1565b60405161055a9190612509565b60405180910390f35b61056b6110da565b005b610575611125565b6040516105829190612592565b60405180910390f35b6105a560048036038101906105a091906125b2565b6111b5565b6040516105b2919061260a565b60405180910390f35b6105d560048036038101906105d09190612abb565b6111d7565b005b6105df611232565b6040516105ec919061260a565b60405180910390f35b6105fd61127c565b6040516106109796959493929190612b04565b60405180910390f35b610633600480360381019061062e9190612b71565b6112de565b6040516106409190612509565b60405180910390f35b610651611360565b60405161065e9190612509565b60405180910390f35b61066f611366565b60405161067c9190612509565b60405180910390f35b61068d61136c565b60405161069a9190612509565b60405180910390f35b6106bd60048036038101906106b891906128cd565b611376565b005b6106d960048036038101906106d49190612baf565b6113fa565b6040516106e69190612509565b60405180910390f35b61070960048036038101906107049190612c21565b611633565b005b61072560048036038101906107209190612495565b6117fd565b6040516107329190612509565b60405180910390f35b5f5f610745611ab7565b620ae3f3461461078a576040517f08c379a000000000000000000000000000000000000000000000000000000000815260040161078190612cb2565b60405180910390fd5b5f84116107cc576040517f08c379a00000000000000000000000000000000000000000000000000000000081526004016107c390612d40565b60405180910390fd5b5f73ffffffffffffffffffffffffffffffffffffffff168373ffffffffffffffffffffffffffffffffffffffff160361083a576040517f08c379a000000000000000000000000000000000000000000000000000000000815260040161083190612da8565b60405180910390fd5b6108458433856113fa565b91505f9050610852611afd565b9250929050565b5f60076002015f9054906101000a900473ffffffffffffffffffffffffffffffffffffffff1673ffffffffffffffffffffffffffffffffffffffff166370a08231306040518263ffffffff1660e01b81526004016108b791906126e0565b602060405180830381865afa1580156108d2573d5f5f3e3d5ffd5b505050506040513d601f19601f820116820180604052508101906108f69190612dda565b905090565b60606003805461090a90612e32565b80601f016020809104026020016040519081016040528092919081815260200182805461093690612e32565b80156109815780601f1061095857610100808354040283529160200191610981565b820191905f5260205f20905b81548152906001019060200180831161096457829003601f168201915b5050505050905090565b5f5f610995611b07565b90506109a2818585611b0e565b600191505092915050565b60185481565b5f600254905090565b6015602052805f5260405f205f915054906101000a900460ff1681565b5f5f6109e3611b07565b90506109f0858285611b20565b6109fb858585611bb3565b60019150509392505050565b60145f9054906101000a900473ffffffffffffffffffffffffffffffffffffffff1681565b5f6012905090565b60135f9054906101000a900473ffffffffffffffffffffffffffffffffffffffff1681565b60165f9054906101000a900460ff1681565b61019081565b5f60076002015f9054906101000a900473ffffffffffffffffffffffffffffffffffffffff16905090565b610aa4612340565b600e6040518060e00160405290815f82015f9054906101000a900460020b60020b60020b81526020015f820160039054906101000a900460020b60020b60020b81526020015f820160069054906101000a90046fffffffffffffffffffffffffffffffff166fffffffffffffffffffffffffffffffff166fffffffffffffffffffffffffffffffff168152602001600182015481526020016002820154815260200160038201548152602001600482015481525050905090565b6007805f018054610b6e90612e32565b80601f0160208091040260200160405190810160405280929190818152602001828054610b9a90612e32565b8015610be55780601f10610bbc57610100808354040283529160200191610be5565b820191905f5260205f20905b815481529060010190602001808311610bc857829003601f168201915b505050505090806001018054610bfa90612e32565b80601f0160208091040260200160405190810160405280929190818152602001828054610c2690612e32565b8015610c715780601f10610c4857610100808354040283529160200191610c71565b820191905f5260205f20905b815481529060010190602001808311610c5457829003601f168201915b505050505090806002015f9054906101000a900473ffffffffffffffffffffffffffffffffffffffff1690806003015f9054906101000a900473ffffffffffffffffffffffffffffffffffffffff16908060030160149054906101000a900462ffffff1690806004015490806005015490806006015f9054906101000a900460ff16905088565b5f601754905090565b606481565b5f5f5f8373ffffffffffffffffffffffffffffffffffffffff1673ffffffffffffffffffffffffffffffffffffffff1681526020019081526020015f20549050919050565b610d53611ca3565b610d5c5f611d2a565b565b60175481565b610d6c61238e565b6007604051806101000160405290815f82018054610d8990612e32565b80601f0160208091040260200160405190810160405280929190818152602001828054610db590612e32565b8015610e005780601f10610dd757610100808354040283529160200191610e00565b820191905f5260205f20905b815481529060010190602001808311610de357829003601f168201915b50505050508152602001600182018054610e1990612e32565b80601f0160208091040260200160405190810160405280929190818152602001828054610e4590612e32565b8015610e905780601f10610e6757610100808354040283529160200191610e90565b820191905f5260205f20905b815481529060010190602001808311610e7357829003601f168201915b50505050508152602001600282015f9054906101000a900473ffffffffffffffffffffffffffffffffffffffff1673ffffffffffffffffffffffffffffffffffffffff1673ffffffffffffffffffffffffffffffffffffffff168152602001600382015f9054906101000a900473ffffffffffffffffffffffffffffffffffffffff1673ffffffffffffffffffffffffffffffffffffffff1673ffffffffffffffffffffffffffffffffffffffff1681526020016003820160149054906101000a900462ffffff1662ffffff1662ffffff1681526020016004820154815260200160058201548152602001600682015f9054906101000a900460ff161515151581525050905090565b5f60055f9054906101000a900473ffffffffffffffffffffffffffffffffffffffff16905090565b5f610fca611ab7565b620ae3f3461461100f576040517f08c379a000000000000000000000000000000000000000000000000000000000815260040161100690612cb2565b60405180910390fd5b5f8411611051576040517f08c379a000000000000000000000000000000000000000000000000000000000815260040161104890612ed2565b60405180910390fd5b5f73ffffffffffffffffffffffffffffffffffffffff168273ffffffffffffffffffffffffffffffffffffffff16036110bf576040517f08c379a00000000000000000000000000000000000000000000000000000000081526004016110b690612da8565b60405180910390fd5b6110c984836117fd565b90506110d3611afd565b9392505050565b6110e2611ca3565b426017819055507f0ad274c7f542e8ab4a9a2b306981b29fa3dd3cdcfa30b246aecfc46e66cf883a42600160405161111b929190612f32565b60405180910390a1565b60606004805461113490612e32565b80601f016020809104026020016040519081016040528092919081815260200182805461116090612e32565b80156111ab5780601f10611182576101008083540402835291602001916111ab565b820191905f5260205f20905b81548152906001019060200180831161118e57829003601f168201915b5050505050905090565b5f5f6111bf611b07565b90506111cc818585611bb3565b600191505092915050565b6111df611ca3565b8060165f6101000a81548160ff0219169083151502179055507f1c0a00c1e9c7f86fbf5b329d952561d3ba62c4d53d71bb227d6215d6bb5022a881604051611227919061260a565b60405180910390a150565b5f5f620ae3f3461490507f40e32e9aff99e4ab76b6d1aaf85f9c600f1e7bbca59ab627b9547296fe256fda468260405161126d929190612f59565b60405180910390a18091505090565b600e805f015f9054906101000a900460020b90805f0160039054906101000a900460020b90805f0160069054906101000a90046fffffffffffffffffffffffffffffffff16908060010154908060020154908060030154908060040154905087565b5f60015f8473ffffffffffffffffffffffffffffffffffffffff1673ffffffffffffffffffffffffffffffffffffffff1681526020019081526020015f205f8373ffffffffffffffffffffffffffffffffffffffff1673ffffffffffffffffffffffffffffffffffffffff1681526020019081526020015f2054905092915050565b61271081565b6103e881565b5f620ae3f3905090565b61137e611ca3565b5f73ffffffffffffffffffffffffffffffffffffffff168173ffffffffffffffffffffffffffffffffffffffff16036113ee575f6040517f1e4fbdf70000000000000000000000000000000000000000000000000000000081526004016113e591906126e0565b60405180910390fd5b6113f781611d2a565b50565b5f611403611ab7565b620ae3f34614611448576040517f08c379a000000000000000000000000000000000000000000000000000000000815260040161143f90612cb2565b60405180910390fd5b5f841161148a576040517f08c379a000000000000000000000000000000000000000000000000000000000815260040161148190612d40565b60405180910390fd5b8361149484610d06565b10156114d5576040517f08c379a00000000000000000000000000000000000000000000000000000000081526004016114cc90612fca565b60405180910390fd5b5f6114de6109b3565b90505f6114e9610859565b90508181876114f89190613015565b6115029190613083565b925061150e8587611ded565b60076002015f9054906101000a900473ffffffffffffffffffffffffffffffffffffffff1673ffffffffffffffffffffffffffffffffffffffff1663a9059cbb85856040518363ffffffff1660e01b815260040161156d9291906130b3565b6020604051808303815f875af1158015611589573d5f5f3e3d5ffd5b505050506040513d601f19601f820116820180604052508101906115ad91906130ee565b506115b66109b3565b6007600401819055506115c7610859565b6007600501819055508373ffffffffffffffffffffffffffffffffffffffff167f30fda44e87537df3efccd5962c84af2f19525422eb95815e46e9ad52c382ab1e84884260405161161a93929190613119565b60405180910390a2505061162c611afd565b9392505050565b60135f9054906101000a900473ffffffffffffffffffffffffffffffffffffffff1673ffffffffffffffffffffffffffffffffffffffff163373ffffffffffffffffffffffffffffffffffffffff16146116c2576040517f08c379a00000000000000000000000000000000000000000000000000000000081526004016116b990613198565b60405180910390fd5b6116ca611ab7565b620ae3f3461461170f576040517f08c379a000000000000000000000000000000000000000000000000000000000815260040161170690612cb2565b60405180910390fd5b61019060185461171f91906131b6565b421015611761576040517f08c379a000000000000000000000000000000000000000000000000000000000815260040161175890613233565b60405180910390fd5b61176a81611e6c565b426018819055507f6833c06a8e15ec6c550b15e0d1903b2d3215e6c3f47be904e88d58472d56122b600e5f015f9054906101000a900460020b600e5f0160039054906101000a900460020b835f0160208101906117c7919061327b565b8460200160208101906117da919061327b565b6040516117ea94939291906132a6565b60405180910390a16117fa611afd565b50565b5f611806611ab7565b620ae3f3461461184b576040517f08c379a000000000000000000000000000000000000000000000000000000000815260040161184290612cb2565b60405180910390fd5b5f831161188d576040517f08c379a000000000000000000000000000000000000000000000000000000000815260040161188490612ed2565b60405180910390fd5b5f73ffffffffffffffffffffffffffffffffffffffff168273ffffffffffffffffffffffffffffffffffffffff16036118fb576040517f08c379a00000000000000000000000000000000000000000000000000000000081526004016118f290612da8565b60405180910390fd5b60165f9054906101000a900460ff1615611948577f1c0a00c1e9c7f86fbf5b329d952561d3ba62c4d53d71bb227d6215d6bb5022a8600160405161193f919061260a565b60405180910390a15b5f6119516109b3565b90505f61195c610859565b90505f820361196d57849250611987565b80828661197a9190613015565b6119849190613083565b92505b60076002015f9054906101000a900473ffffffffffffffffffffffffffffffffffffffff1673ffffffffffffffffffffffffffffffffffffffff166323b872dd3330886040518463ffffffff1660e01b81526004016119e8939291906132e9565b6020604051808303815f875af1158015611a04573d5f5f3e3d5ffd5b505050506040513d601f19601f82011682018060405250810190611a2891906130ee565b50611a338484611ed9565b611a3b6109b3565b600760040181905550611a4c610859565b6007600501819055508373ffffffffffffffffffffffffffffffffffffffff167fb109d7c42386e8132df0ffc2e2b0be0f20b3bab090956222f960781c2133dcd8868542604051611a9f93929190613119565b60405180910390a25050611ab1611afd565b92915050565b600260065403611af3576040517f3ee5aeb500000000000000000000000000000000000000000000000000000000815260040160405180910390fd5b6002600681905550565b6001600681905550565b5f33905090565b611b1b8383836001611f58565b505050565b5f611b2b84846112de565b90507fffffffffffffffffffffffffffffffffffffffffffffffffffffffffffffffff811015611bad5781811015611b9e578281836040517ffb8f41b2000000000000000000000000000000000000000000000000000000008152600401611b959392919061331e565b60405180910390fd5b611bac84848484035f611f58565b5b50505050565b5f73ffffffffffffffffffffffffffffffffffffffff168373ffffffffffffffffffffffffffffffffffffffff1603611c23575f6040517f96c6fd1e000000000000000000000000000000000000000000000000000000008152600401611c1a91906126e0565b60405180910390fd5b5f73ffffffffffffffffffffffffffffffffffffffff168273ffffffffffffffffffffffffffffffffffffffff1603611c93575f6040517fec442f05000000000000000000000000000000000000000000000000000000008152600401611c8a91906126e0565b60405180910390fd5b611c9e838383612127565b505050565b611cab611b07565b73ffffffffffffffffffffffffffffffffffffffff16611cc9610f99565b73ffffffffffffffffffffffffffffffffffffffff1614611d2857611cec611b07565b6040517f118cdaa7000000000000000000000000000000000000000000000000000000008152600401611d1f91906126e0565b60405180910390fd5b565b5f60055f9054906101000a900473ffffffffffffffffffffffffffffffffffffffff1690508160055f6101000a81548173ffffffffffffffffffffffffffffffffffffffff021916908373ffffffffffffffffffffffffffffffffffffffff1602179055508173ffffffffffffffffffffffffffffffffffffffff168173ffffffffffffffffffffffffffffffffffffffff167f8be0079c531659141344cd1fd0a4f28419497f9722a3daafe3b4186f6b6457e060405160405180910390a35050565b5f73ffffffffffffffffffffffffffffffffffffffff168273ffffffffffffffffffffffffffffffffffffffff1603611e5d575f6040517f96c6fd1e000000000000000000000000000000000000000000000000000000008152600401611e5491906126e0565b60405180910390fd5b611e68825f83612127565b5050565b805f016020810190611e7e919061327b565b600e5f015f6101000a81548162ffffff021916908360020b62ffffff160217905550806020016020810190611eb3919061327b565b600e5f0160036101000a81548162ffffff021916908360020b62ffffff16021790555050565b5f73ffffffffffffffffffffffffffffffffffffffff168273ffffffffffffffffffffffffffffffffffffffff1603611f49575f6040517fec442f05000000000000000000000000000000000000000000000000000000008152600401611f4091906126e0565b60405180910390fd5b611f545f8383612127565b5050565b5f73ffffffffffffffffffffffffffffffffffffffff168473ffffffffffffffffffffffffffffffffffffffff1603611fc8575f6040517fe602df05000000000000000000000000000000000000000000000000000000008152600401611fbf91906126e0565b60405180910390fd5b5f73ffffffffffffffffffffffffffffffffffffffff168373ffffffffffffffffffffffffffffffffffffffff1603612038575f6040517f94280d6200000000000000000000000000000000000000000000000000000000815260040161202f91906126e0565b60405180910390fd5b8160015f8673ffffffffffffffffffffffffffffffffffffffff1673ffffffffffffffffffffffffffffffffffffffff1681526020019081526020015f205f8573ffffffffffffffffffffffffffffffffffffffff1673ffffffffffffffffffffffffffffffffffffffff1681526020019081526020015f20819055508015612121578273ffffffffffffffffffffffffffffffffffffffff168473ffffffffffffffffffffffffffffffffffffffff167f8c5be1e5ebec7d5bd14f71427d1e84f3dd0314c0f7b2291e5b200ac8c7c3b925846040516121189190612509565b60405180910390a35b50505050565b5f73ffffffffffffffffffffffffffffffffffffffff168373ffffffffffffffffffffffffffffffffffffffff1603612177578060025f82825461216b91906131b6565b92505081905550612245565b5f5f5f8573ffffffffffffffffffffffffffffffffffffffff1673ffffffffffffffffffffffffffffffffffffffff1681526020019081526020015f2054905081811015612200578381836040517fe450d38c0000000000000000000000000000000000000000000000000000000081526004016121f79392919061331e565b60405180910390fd5b8181035f5f8673ffffffffffffffffffffffffffffffffffffffff1673ffffffffffffffffffffffffffffffffffffffff1681526020019081526020015f2081905550505b5f73ffffffffffffffffffffffffffffffffffffffff168273ffffffffffffffffffffffffffffffffffffffff160361228c578060025f82825403925050819055506122d6565b805f5f8473ffffffffffffffffffffffffffffffffffffffff1673ffffffffffffffffffffffffffffffffffffffff1681526020019081526020015f205f82825401925050819055505b8173ffffffffffffffffffffffffffffffffffffffff168373ffffffffffffffffffffffffffffffffffffffff167fddf252ad1be2c89b69c2b068fc378daa952ba7f163c4a11628f55a4df523b3ef836040516123339190612509565b60405180910390a3505050565b6040518060e001604052805f60020b81526020015f60020b81526020015f6fffffffffffffffffffffffffffffffff1681526020015f81526020015f81526020015f81526020015f81525090565b60405180610100016040528060608152602001606081526020015f73ffffffffffffffffffffffffffffffffffffffff1681526020015f73ffffffffffffffffffffffffffffffffffffffff1681526020015f62ffffff1681526020015f81526020015f81526020015f151581525090565b5f5ffd5b5f5ffd5b5f819050919050565b61241a81612408565b8114612424575f5ffd5b50565b5f8135905061243581612411565b92915050565b5f73ffffffffffffffffffffffffffffffffffffffff82169050919050565b5f6124648261243b565b9050919050565b6124748161245a565b811461247e575f5ffd5b50565b5f8135905061248f8161246b565b92915050565b5f5f604083850312156124ab576124aa612400565b5b5f6124b885828601612427565b92505060206124c985828601612481565b9150509250929050565b6124dc81612408565b82525050565b5f6040820190506124f55f8301856124d3565b61250260208301846124d3565b9392505050565b5f60208201905061251c5f8301846124d3565b92915050565b5f81519050919050565b5f82825260208201905092915050565b8281835e5f83830152505050565b5f601f19601f8301169050919050565b5f61256482612522565b61256e818561252c565b935061257e81856020860161253c565b6125878161254a565b840191505092915050565b5f6020820190508181035f8301526125aa818461255a565b905092915050565b5f5f604083850312156125c8576125c7612400565b5b5f6125d585828601612481565b92505060206125e685828601612427565b9150509250929050565b5f8115159050919050565b612604816125f0565b82525050565b5f60208201905061261d5f8301846125fb565b92915050565b5f819050919050565b61263581612623565b811461263f575f5ffd5b50565b5f813590506126508161262c565b92915050565b5f6020828403121561266b5761266a612400565b5b5f61267884828501612642565b91505092915050565b5f5f5f6060848603121561269857612697612400565b5b5f6126a586828701612481565b93505060206126b686828701612481565b92505060406126c786828701612427565b9150509250925092565b6126da8161245a565b82525050565b5f6020820190506126f35f8301846126d1565b92915050565b5f60ff82169050919050565b61270e816126f9565b82525050565b5f6020820190506127275f830184612705565b92915050565b5f8160020b9050919050565b6127428161272d565b82525050565b5f6fffffffffffffffffffffffffffffffff82169050919050565b61276c81612748565b82525050565b61277b81612408565b82525050565b60e082015f8201516127955f850182612739565b5060208201516127a86020850182612739565b5060408201516127bb6040850182612763565b5060608201516127ce6060850182612772565b5060808201516127e16080850182612772565b5060a08201516127f460a0850182612772565b5060c082015161280760c0850182612772565b50505050565b5f60e0820190506128205f830184612781565b92915050565b5f62ffffff82169050919050565b61283d81612826565b82525050565b5f610100820190508181035f83015261285c818b61255a565b90508181036020830152612870818a61255a565b905061287f60408301896126d1565b61288c60608301886126d1565b6128996080830187612834565b6128a660a08301866124d3565b6128b360c08301856124d3565b6128c060e08301846125fb565b9998505050505050505050565b5f602082840312156128e2576128e1612400565b5b5f6128ef84828501612481565b91505092915050565b5f82825260208201905092915050565b5f61291282612522565b61291c81856128f8565b935061292c81856020860161253c565b6129358161254a565b840191505092915050565b6129498161245a565b82525050565b61295881612826565b82525050565b612967816125f0565b82525050565b5f61010083015f8301518482035f8601526129888282612908565b915050602083015184820360208601526129a28282612908565b91505060408301516129b76040860182612940565b5060608301516129ca6060860182612940565b5060808301516129dd608086018261294f565b5060a08301516129f060a0860182612772565b5060c0830151612a0360c0860182612772565b5060e0830151612a1660e086018261295e565b508091505092915050565b5f6020820190508181035f830152612a39818461296d565b905092915050565b5f5f5f60608486031215612a5857612a57612400565b5b5f612a6586828701612427565b9350506020612a7686828701612427565b9250506040612a8786828701612481565b9150509250925092565b612a9a816125f0565b8114612aa4575f5ffd5b50565b5f81359050612ab581612a91565b92915050565b5f60208284031215612ad057612acf612400565b5b5f612add84828501612aa7565b91505092915050565b612aef8161272d565b82525050565b612afe81612748565b82525050565b5f60e082019050612b175f83018a612ae6565b612b246020830189612ae6565b612b316040830188612af5565b612b3e60608301876124d3565b612b4b60808301866124d3565b612b5860a08301856124d3565b612b6560c08301846124d3565b98975050505050505050565b5f5f60408385031215612b8757612b86612400565b5b5f612b9485828601612481565b9250506020612ba585828601612481565b9150509250929050565b5f5f5f60608486031215612bc657612bc5612400565b5b5f612bd386828701612427565b9350506020612be486828701612481565b9250506040612bf586828701612481565b9150509250925092565b5f5ffd5b5f60c08284031215612c1857612c17612bff565b5b81905092915050565b5f60208284031215612c3657612c35612400565b5b5f82013567ffffffffffffffff811115612c5357612c52612404565b5b612c5f84828501612c03565b91505092915050565b7f496e76616c69642053454920636861696e0000000000000000000000000000005f82015250565b5f612c9c60118361252c565b9150612ca782612c68565b602082019050919050565b5f6020820190508181035f830152612cc981612c90565b9050919050565b7f576974686472617720616d6f756e74206d7573742062652067726561746572205f8201527f7468616e20300000000000000000000000000000000000000000000000000000602082015250565b5f612d2a60268361252c565b9150612d3582612cd0565b604082019050919050565b5f6020820190508181035f830152612d5781612d1e565b9050919050565b7f496e76616c696420726563697069656e740000000000000000000000000000005f82015250565b5f612d9260118361252c565b9150612d9d82612d5e565b602082019050919050565b5f6020820190508181035f830152612dbf81612d86565b9050919050565b5f81519050612dd481612411565b92915050565b5f60208284031215612def57612dee612400565b5b5f612dfc84828501612dc6565b91505092915050565b7f4e487b71000000000000000000000000000000000000000000000000000000005f52602260045260245ffd5b5f6002820490506001821680612e4957607f821691505b602082108103612e5c57612e5b612e05565b5b50919050565b7f4465706f73697420616d6f756e74206d757374206265206772656174657220745f8201527f68616e2030000000000000000000000000000000000000000000000000000000602082015250565b5f612ebc60258361252c565b9150612ec782612e62565b604082019050919050565b5f6020820190508181035f830152612ee981612eb0565b9050919050565b5f819050919050565b5f819050919050565b5f612f1c612f17612f1284612ef0565b612ef9565b612408565b9050919050565b612f2c81612f02565b82525050565b5f604082019050612f455f8301856124d3565b612f526020830184612f23565b9392505050565b5f604082019050612f6c5f8301856124d3565b612f7960208301846125fb565b9392505050565b7f496e73756666696369656e7420736861726573000000000000000000000000005f82015250565b5f612fb460138361252c565b9150612fbf82612f80565b602082019050919050565b5f6020820190508181035f830152612fe181612fa8565b9050919050565b7f4e487b71000000000000000000000000000000000000000000000000000000005f52601160045260245ffd5b5f61301f82612408565b915061302a83612408565b925082820261303881612408565b9150828204841483151761304f5761304e612fe8565b5b5092915050565b7f4e487b71000000000000000000000000000000000000000000000000000000005f52601260045260245ffd5b5f61308d82612408565b915061309883612408565b9250826130a8576130a7613056565b5b828204905092915050565b5f6040820190506130c65f8301856126d1565b6130d360208301846124d3565b9392505050565b5f815190506130e881612a91565b92915050565b5f6020828403121561310357613102612400565b5b5f613110848285016130da565b91505092915050565b5f60608201905061312c5f8301866124d3565b61313960208301856124d3565b61314660408301846124d3565b949350505050565b7f556e617574686f72697a656420414900000000000000000000000000000000005f82015250565b5f613182600f8361252c565b915061318d8261314e565b602082019050919050565b5f6020820190508181035f8301526131af81613176565b9050919050565b5f6131c082612408565b91506131cb83612408565b92508282019050808211156131e3576131e2612fe8565b5b92915050565b7f526562616c616e636520746f6f206672657175656e74000000000000000000005f82015250565b5f61321d60168361252c565b9150613228826131e9565b602082019050919050565b5f6020820190508181035f83015261324a81613211565b9050919050565b61325a8161272d565b8114613264575f5ffd5b50565b5f8135905061327581613251565b92915050565b5f602082840312156132905761328f612400565b5b5f61329d84828501613267565b91505092915050565b5f6080820190506132b95f830187612ae6565b6132c66020830186612ae6565b6132d36040830185612ae6565b6132e06060830184612ae6565b95945050505050565b5f6060820190506132fc5f8301866126d1565b61330960208301856126d1565b61331660408301846124d3565b949350505050565b5f6060820190506133315f8301866126d1565b61333e60208301856124d3565b61334b60408301846124d3565b94935050505056fea2646970667358221220b3e2bd6c44d666c40c646540c6dd28745affe6defcb1b3cd7d4ea4f13f02378564736f6c634300081e0033","linkReferences":{}},"methodIdentifiers":{"FEE_PRECISION()":"e63a391f","MANAGEMENT_FEE()":"5f1554e3","MIN_REBALANCE_INTERVAL()":"350e4221","PERFORMANCE_FEE()":"e93f5665","aiModel()":"30e6050f","aiOracle()":"31b221cd","allowance(address,address)":"dd62ed3e","approve(address,uint256)":"095ea7b3","asset()":"38d52e0f","balanceOf(address)":"70a08231","currentPosition()":"d534d636","decimals()":"313ce567","deposit(uint256,uint256,address)":"8dbdbe6d","executedAIRequests(bytes32)":"205134ce","getCurrentPosition()":"418f35cc","getLastFinalityOptimization()":"59673460","getSEIChainId()":"f1503c36","getVaultInfo()":"7f98aa71","lastFinalityOptimization()":"7bd1e7ce","lastRebalance()":"106b9ca1","name()":"06fdde03","optimizeForFinality()":"8f28675d","owner()":"8da5cb5b","parallelExecutionEnabled()":"34475df3","rebalance((int24,int24,uint256,uint256,uint256,bytes))":"fa95e4da","renounceOwnership()":"715018a6","seiOptimizedDeposit(uint256,address)":"fde038e6","seiOptimizedWithdraw(uint256,address,address)":"f81dd372","setParallelExecution(bool)":"ba0a348d","symbol()":"95d89b41","totalAssets()":"01e1d114","totalSupply()":"18160ddd","transfer(address,uint256)":"a9059cbb","transferFrom(address,address,uint256)":"23b872dd","transferOwnership(address)":"f2fde38b","validateSEIChain()":"bff29729","vaultInfo()":"501ec738","withdraw(uint256,address)":"00f714ce"},"id":40}