{"abi":[{"type":"constructor","inputs":[{"name":"name","type":"string","internalType":"string"},{"name":"symbol","type":"string","internalType":"string"},{"name":"_token0","type":"address","internalType":"address"},{"name":"_token1","type":"address","internalType":"address"},{"name":"_poolFee","type":"uint24","internalType":"uint24"},{"name":"_aiOracle","type":"address","internalType":"address"},{"name":"initialOwner","type":"address","internalType":"address"}],"stateMutability":"nonpayable"},{"type":"function","name":"FEE_PRECISION","inputs":[],"outputs":[{"name":"","type":"uint256","internalType":"uint256"}],"stateMutability":"view"},{"type":"function","name":"MANAGEMENT_FEE","inputs":[],"outputs":[{"name":"","type":"uint256","internalType":"uint256"}],"stateMutability":"view"},{"type":"function","name":"MIN_REBALANCE_INTERVAL","inputs":[],"outputs":[{"name":"","type":"uint256","internalType":"uint256"}],"stateMutability":"view"},{"type":"function","name":"PERFORMANCE_FEE","inputs":[],"outputs":[{"name":"","type":"uint256","internalType":"uint256"}],"stateMutability":"view"},{"type":"function","name":"SEI_CHAIN_ID","inputs":[],"outputs":[{"name":"","type":"uint256","internalType":"uint256"}],"stateMutability":"view"},{"type":"function","name":"WITHDRAWAL_FEE","inputs":[],"outputs":[{"name":"","type":"uint256","internalType":"uint256"}],"stateMutability":"view"},{"type":"function","name":"aiOracle","inputs":[],"outputs":[{"name":"","type":"address","internalType":"address"}],"stateMutability":"view"},{"type":"function","name":"allowance","inputs":[{"name":"owner","type":"address","internalType":"address"},{"name":"spender","type":"address","internalType":"address"}],"outputs":[{"name":"","type":"uint256","internalType":"uint256"}],"stateMutability":"view"},{"type":"function","name":"approve","inputs":[{"name":"spender","type":"address","internalType":"address"},{"name":"value","type":"uint256","internalType":"uint256"}],"outputs":[{"name":"","type":"bool","internalType":"bool"}],"stateMutability":"nonpayable"},{"type":"function","name":"balanceOf","inputs":[{"name":"account","type":"address","internalType":"address"}],"outputs":[{"name":"","type":"uint256","internalType":"uint256"}],"stateMutability":"view"},{"type":"function","name":"currentPosition","inputs":[],"outputs":[{"name":"tickLower","type":"int24","internalType":"int24"},{"name":"tickUpper","type":"int24","internalType":"int24"},{"name":"liquidity","type":"uint128","internalType":"uint128"},{"name":"tokensOwed0","type":"uint256","internalType":"uint256"},{"name":"tokensOwed1","type":"uint256","internalType":"uint256"},{"name":"feeGrowthInside0LastX128","type":"uint256","internalType":"uint256"},{"name":"feeGrowthInside1LastX128","type":"uint256","internalType":"uint256"}],"stateMutability":"view"},{"type":"function","name":"customerDepositTime","inputs":[{"name":"","type":"address","internalType":"address"}],"outputs":[{"name":"","type":"uint256","internalType":"uint256"}],"stateMutability":"view"},{"type":"function","name":"customerTotalDeposited","inputs":[{"name":"","type":"address","internalType":"address"}],"outputs":[{"name":"","type":"uint256","internalType":"uint256"}],"stateMutability":"view"},{"type":"function","name":"customerTotalWithdrawn","inputs":[{"name":"","type":"address","internalType":"address"}],"outputs":[{"name":"","type":"uint256","internalType":"uint256"}],"stateMutability":"view"},{"type":"function","name":"decimals","inputs":[],"outputs":[{"name":"","type":"uint8","internalType":"uint8"}],"stateMutability":"view"},{"type":"function","name":"deposit","inputs":[{"name":"amount0","type":"uint256","internalType":"uint256"},{"name":"amount1","type":"uint256","internalType":"uint256"},{"name":"recipient","type":"address","internalType":"address"}],"outputs":[{"name":"shares","type":"uint256","internalType":"uint256"}],"stateMutability":"nonpayable"},{"type":"function","name":"distributeYield","inputs":[],"outputs":[],"stateMutability":"nonpayable"},{"type":"function","name":"emergencyPause","inputs":[],"outputs":[],"stateMutability":"nonpayable"},{"type":"function","name":"emergencyPaused","inputs":[],"outputs":[{"name":"","type":"bool","internalType":"bool"}],"stateMutability":"view"},{"type":"function","name":"executedAIRequests","inputs":[{"name":"","type":"bytes32","internalType":"bytes32"}],"outputs":[{"name":"","type":"bool","internalType":"bool"}],"stateMutability":"view"},{"type":"function","name":"getCurrentPosition","inputs":[],"outputs":[{"name":"","type":"tuple","internalType":"struct IStrategyVault.Position","components":[{"name":"tickLower","type":"int24","internalType":"int24"},{"name":"tickUpper","type":"int24","internalType":"int24"},{"name":"liquidity","type":"uint128","internalType":"uint128"},{"name":"tokensOwed0","type":"uint256","internalType":"uint256"},{"name":"tokensOwed1","type":"uint256","internalType":"uint256"},{"name":"feeGrowthInside0LastX128","type":"uint256","internalType":"uint256"},{"name":"feeGrowthInside1LastX128","type":"uint256","internalType":"uint256"}]}],"stateMutability":"view"},{"type":"function","name":"getCustomerStats","inputs":[{"name":"customer","type":"address","internalType":"address"}],"outputs":[{"name":"shares","type":"uint256","internalType":"uint256"},{"name":"shareValue","type":"uint256","internalType":"uint256"},{"name":"totalDeposited","type":"uint256","internalType":"uint256"},{"name":"totalWithdrawn","type":"uint256","internalType":"uint256"},{"name":"depositTime","type":"uint256","internalType":"uint256"},{"name":"lockTimeRemaining","type":"uint256","internalType":"uint256"}],"stateMutability":"view"},{"type":"function","name":"getVaultInfo","inputs":[],"outputs":[{"name":"","type":"tuple","internalType":"struct IStrategyVault.VaultInfo","components":[{"name":"name","type":"string","internalType":"string"},{"name":"strategy","type":"string","internalType":"string"},{"name":"token0","type":"address","internalType":"address"},{"name":"token1","type":"address","internalType":"address"},{"name":"poolFee","type":"uint24","internalType":"uint24"},{"name":"totalSupply","type":"uint256","internalType":"uint256"},{"name":"totalValueLocked","type":"uint256","internalType":"uint256"},{"name":"isActive","type":"bool","internalType":"bool"}]}],"stateMutability":"view"},{"type":"function","name":"lastPerformanceFeeCollection","inputs":[],"outputs":[{"name":"","type":"uint256","internalType":"uint256"}],"stateMutability":"view"},{"type":"function","name":"lastRebalance","inputs":[],"outputs":[{"name":"","type":"uint256","internalType":"uint256"}],"stateMutability":"view"},{"type":"function","name":"minimumLockPeriod","inputs":[],"outputs":[{"name":"","type":"uint256","internalType":"uint256"}],"stateMutability":"view"},{"type":"function","name":"name","inputs":[],"outputs":[{"name":"","type":"string","internalType":"string"}],"stateMutability":"view"},{"type":"function","name":"owner","inputs":[],"outputs":[{"name":"","type":"address","internalType":"address"}],"stateMutability":"view"},{"type":"function","name":"rebalance","inputs":[{"name":"params","type":"tuple","internalType":"struct IStrategyVault.AIRebalanceParams","components":[{"name":"newTickLower","type":"int24","internalType":"int24"},{"name":"newTickUpper","type":"int24","internalType":"int24"},{"name":"minAmount0","type":"uint256","internalType":"uint256"},{"name":"minAmount1","type":"uint256","internalType":"uint256"},{"name":"deadline","type":"uint256","internalType":"uint256"},{"name":"aiSignature","type":"bytes","internalType":"bytes"}]}],"outputs":[],"stateMutability":"nonpayable"},{"type":"function","name":"renounceOwnership","inputs":[],"outputs":[],"stateMutability":"nonpayable"},{"type":"function","name":"resume","inputs":[],"outputs":[],"stateMutability":"nonpayable"},{"type":"function","name":"setMinimumLockPeriod","inputs":[{"name":"newPeriod","type":"uint256","internalType":"uint256"}],"outputs":[],"stateMutability":"nonpayable"},{"type":"function","name":"symbol","inputs":[],"outputs":[{"name":"","type":"string","internalType":"string"}],"stateMutability":"view"},{"type":"function","name":"totalFeesCollected","inputs":[],"outputs":[{"name":"","type":"uint256","internalType":"uint256"}],"stateMutability":"view"},{"type":"function","name":"totalSupply","inputs":[],"outputs":[{"name":"","type":"uint256","internalType":"uint256"}],"stateMutability":"view"},{"type":"function","name":"totalYieldGenerated","inputs":[],"outputs":[{"name":"","type":"uint256","internalType":"uint256"}],"stateMutability":"view"},{"type":"function","name":"transfer","inputs":[{"name":"to","type":"address","internalType":"address"},{"name":"value","type":"uint256","internalType":"uint256"}],"outputs":[{"name":"","type":"bool","internalType":"bool"}],"stateMutability":"nonpayable"},{"type":"function","name":"transferFrom","inputs":[{"name":"from","type":"address","internalType":"address"},{"name":"to","type":"address","internalType":"address"},{"name":"value","type":"uint256","internalType":"uint256"}],"outputs":[{"name":"","type":"bool","internalType":"bool"}],"stateMutability":"nonpayable"},{"type":"function","name":"transferOwnership","inputs":[{"name":"newOwner","type":"address","internalType":"address"}],"outputs":[],"stateMutability":"nonpayable"},{"type":"function","name":"updateAIOracle","inputs":[{"name":"newOracle","type":"address","internalType":"address"}],"outputs":[],"stateMutability":"nonpayable"},{"type":"function","name":"vaultInfo","inputs":[],"outputs":[{"name":"name","type":"string","internalType":"string"},{"name":"strategy","type":"string","internalType":"string"},{"name":"token0","type":"address","internalType":"address"},{"name":"token1","type":"address","internalType":"address"},{"name":"poolFee","type":"uint24","internalType":"uint24"},{"name":"totalSupply","type":"uint256","internalType":"uint256"},{"name":"totalValueLocked","type":"uint256","internalType":"uint256"},{"name":"isActive","type":"bool","internalType":"bool"}],"stateMutability":"view"},{"type":"function","name":"withdraw","inputs":[{"name":"shares","type":"uint256","internalType":"uint256"},{"name":"recipient","type":"address","internalType":"address"}],"outputs":[{"name":"amount0","type":"uint256","internalType":"uint256"},{"name":"amount1","type":"uint256","internalType":"uint256"}],"stateMutability":"nonpayable"},{"type":"event","name":"AIRebalanceExecuted","inputs":[{"name":"aiRequestId","type":"bytes32","indexed":true,"internalType":"bytes32"},{"name":"gasUsed","type":"uint256","indexed":false,"internalType":"uint256"}],"anonymous":false},{"type":"event","name":"Approval","inputs":[{"name":"owner","type":"address","indexed":true,"internalType":"address"},{"name":"spender","type":"address","indexed":true,"internalType":"address"},{"name":"value","type":"uint256","indexed":false,"internalType":"uint256"}],"anonymous":false},{"type":"event","name":"CustomerDeposit","inputs":[{"name":"customer","type":"address","indexed":true,"internalType":"address"},{"name":"amount0","type":"uint256","indexed":false,"internalType":"uint256"},{"name":"amount1","type":"uint256","indexed":false,"internalType":"uint256"},{"name":"shares","type":"uint256","indexed":false,"internalType":"uint256"},{"name":"timestamp","type":"uint256","indexed":false,"internalType":"uint256"}],"anonymous":false},{"type":"event","name":"CustomerWithdraw","inputs":[{"name":"customer","type":"address","indexed":true,"internalType":"address"},{"name":"shares","type":"uint256","indexed":false,"internalType":"uint256"},{"name":"amount0","type":"uint256","indexed":false,"internalType":"uint256"},{"name":"amount1","type":"uint256","indexed":false,"internalType":"uint256"},{"name":"timestamp","type":"uint256","indexed":false,"internalType":"uint256"}],"anonymous":false},{"type":"event","name":"FeesCollected","inputs":[{"name":"managementFees","type":"uint256","indexed":false,"internalType":"uint256"},{"name":"performanceFees","type":"uint256","indexed":false,"internalType":"uint256"}],"anonymous":false},{"type":"event","name":"OwnershipTransferred","inputs":[{"name":"previousOwner","type":"address","indexed":true,"internalType":"address"},{"name":"newOwner","type":"address","indexed":true,"internalType":"address"}],"anonymous":false},{"type":"event","name":"PositionRebalanced","inputs":[{"name":"oldTickLower","type":"int24","indexed":false,"internalType":"int24"},{"name":"oldTickUpper","type":"int24","indexed":false,"internalType":"int24"},{"name":"newTickLower","type":"int24","indexed":false,"internalType":"int24"},{"name":"newTickUpper","type":"int24","indexed":false,"internalType":"int24"}],"anonymous":false},{"type":"event","name":"Transfer","inputs":[{"name":"from","type":"address","indexed":true,"internalType":"address"},{"name":"to","type":"address","indexed":true,"internalType":"address"},{"name":"value","type":"uint256","indexed":false,"internalType":"uint256"}],"anonymous":false},{"type":"event","name":"VaultCreated","inputs":[{"name":"vault","type":"address","indexed":true,"internalType":"address"},{"name":"name","type":"string","indexed":false,"internalType":"string"},{"name":"token0","type":"address","indexed":false,"internalType":"address"},{"name":"token1","type":"address","indexed":false,"internalType":"address"}],"anonymous":false},{"type":"event","name":"YieldDistributed","inputs":[{"name":"totalYield","type":"uint256","indexed":false,"internalType":"uint256"},{"name":"perShareYield","type":"uint256","indexed":false,"internalType":"uint256"}],"anonymous":false},{"type":"error","name":"ERC20InsufficientAllowance","inputs":[{"name":"spender","type":"address","internalType":"address"},{"name":"allowance","type":"uint256","internalType":"uint256"},{"name":"needed","type":"uint256","internalType":"uint256"}]},{"type":"error","name":"ERC20InsufficientBalance","inputs":[{"name":"sender","type":"address","internalType":"address"},{"name":"balance","type":"uint256","internalType":"uint256"},{"name":"needed","type":"uint256","internalType":"uint256"}]},{"type":"error","name":"ERC20InvalidApprover","inputs":[{"name":"approver","type":"address","internalType":"address"}]},{"type":"error","name":"ERC20InvalidReceiver","inputs":[{"name":"receiver","type":"address","internalType":"address"}]},{"type":"error","name":"ERC20InvalidSender","inputs":[{"name":"sender","type":"address","internalType":"address"}]},{"type":"error","name":"ERC20InvalidSpender","inputs":[{"name":"spender","type":"address","internalType":"address"}]},{"type":"error","name":"OwnableInvalidOwner","inputs":[{"name":"owner","type":"address","internalType":"address"}]},{"type":"error","name":"OwnableUnauthorizedAccount","inputs":[{"name":"account","type":"address","internalType":"address"}]},{"type":"error","name":"ReentrancyGuardReentrantCall","inputs":[]}],"bytecode":{"object":"0x6080604052620151806018555f601c5f6101000a81548160ff02191690831515021790555034801561002f575f5ffd5b50604051614be2380380614be283398181016040528101906100519190610640565b80878781600390816100639190610925565b5080600490816100739190610925565b5050505f73ffffffffffffffffffffffffffffffffffffffff168173ffffffffffffffffffffffffffffffffffffffff16036100e6575f6040517f1e4fbdf70000000000000000000000000000000000000000000000000000000081526004016100dd9190610a03565b60405180910390fd5b6100f58161039e60201b60201c565b506001600681905550620ae3f34614610143576040517f08c379a000000000000000000000000000000000000000000000000000000000815260040161013a90610a76565b60405180910390fd5b6040518061010001604052808881526020016040518060400160405280601d81526020017f41495f44594e414d49435f4c49515549444954595f454e48414e43454400000081525081526020018673ffffffffffffffffffffffffffffffffffffffff1681526020018573ffffffffffffffffffffffffffffffffffffffff1681526020018462ffffff1681526020015f81526020015f81526020016001151581525060075f820151815f0190816101fb9190610925565b5060208201518160010190816102119190610925565b506040820151816002015f6101000a81548173ffffffffffffffffffffffffffffffffffffffff021916908373ffffffffffffffffffffffffffffffffffffffff1602179055506060820151816003015f6101000a81548173ffffffffffffffffffffffffffffffffffffffff021916908373ffffffffffffffffffffffffffffffffffffffff16021790555060808201518160030160146101000a81548162ffffff021916908362ffffff16021790555060a0820151816004015560c0820151816005015560e0820151816006015f6101000a81548160ff0219169083151502179055509050508160135f6101000a81548173ffffffffffffffffffffffffffffffffffffffff021916908373ffffffffffffffffffffffffffffffffffffffff16021790555042601b819055503073ffffffffffffffffffffffffffffffffffffffff167fa8ca87c5f5e04d4b4644da1612143a77fef7e3e6bfcae78c91c102763f9110fe88878760405161038a93929190610acc565b60405180910390a250505050505050610b08565b5f60055f9054906101000a900473ffffffffffffffffffffffffffffffffffffffff1690508160055f6101000a81548173ffffffffffffffffffffffffffffffffffffffff021916908373ffffffffffffffffffffffffffffffffffffffff1602179055508173ffffffffffffffffffffffffffffffffffffffff168173ffffffffffffffffffffffffffffffffffffffff167f8be0079c531659141344cd1fd0a4f28419497f9722a3daafe3b4186f6b6457e060405160405180910390a35050565b5f604051905090565b5f5ffd5b5f5ffd5b5f5ffd5b5f5ffd5b5f601f19601f8301169050919050565b7f4e487b71000000000000000000000000000000000000000000000000000000005f52604160045260245ffd5b6104c08261047a565b810181811067ffffffffffffffff821117156104df576104de61048a565b5b80604052505050565b5f6104f1610461565b90506104fd82826104b7565b919050565b5f67ffffffffffffffff82111561051c5761051b61048a565b5b6105258261047a565b9050602081019050919050565b8281835e5f83830152505050565b5f61055261054d84610502565b6104e8565b90508281526020810184848401111561056e5761056d610476565b5b610579848285610532565b509392505050565b5f82601f83011261059557610594610472565b5b81516105a5848260208601610540565b91505092915050565b5f73ffffffffffffffffffffffffffffffffffffffff82169050919050565b5f6105d7826105ae565b9050919050565b6105e7816105cd565b81146105f1575f5ffd5b50565b5f81519050610602816105de565b92915050565b5f62ffffff82169050919050565b61061f81610608565b8114610629575f5ffd5b50565b5f8151905061063a81610616565b92915050565b5f5f5f5f5f5f5f60e0888a03121561065b5761065a61046a565b5b5f88015167ffffffffffffffff8111156106785761067761046e565b5b6106848a828b01610581565b975050602088015167ffffffffffffffff8111156106a5576106a461046e565b5b6106b18a828b01610581565b96505060406106c28a828b016105f4565b95505060606106d38a828b016105f4565b94505060806106e48a828b0161062c565b93505060a06106f58a828b016105f4565b92505060c06107068a828b016105f4565b91505092959891949750929550565b5f81519050919050565b7f4e487b71000000000000000000000000000000000000000000000000000000005f52602260045260245ffd5b5f600282049050600182168061076357607f821691505b6020821081036107765761077561071f565b5b50919050565b5f819050815f5260205f209050919050565b5f6020601f8301049050919050565b5f82821b905092915050565b5f600883026107d87fffffffffffffffffffffffffffffffffffffffffffffffffffffffffffffffff8261079d565b6107e2868361079d565b95508019841693508086168417925050509392505050565b5f819050919050565b5f819050919050565b5f61082661082161081c846107fa565b610803565b6107fa565b9050919050565b5f819050919050565b61083f8361080c565b61085361084b8261082d565b8484546107a9565b825550505050565b5f5f905090565b61086a61085b565b610875818484610836565b505050565b5b818110156108985761088d5f82610862565b60018101905061087b565b5050565b601f8211156108dd576108ae8161077c565b6108b78461078e565b810160208510156108c6578190505b6108da6108d28561078e565b83018261087a565b50505b505050565b5f82821c905092915050565b5f6108fd5f19846008026108e2565b1980831691505092915050565b5f61091583836108ee565b9150826002028217905092915050565b61092e82610715565b67ffffffffffffffff8111156109475761094661048a565b5b610951825461074c565b61095c82828561089c565b5f60209050601f83116001811461098d575f841561097b578287015190505b610985858261090a565b8655506109ec565b601f19841661099b8661077c565b5f5b828110156109c25784890151825560018201915060208501945060208101905061099d565b868310156109df57848901516109db601f8916826108ee565b8355505b6001600288020188555050505b505050505050565b6109fd816105cd565b82525050565b5f602082019050610a165f8301846109f4565b92915050565b5f82825260208201905092915050565b7f496e76616c696420636861696e000000000000000000000000000000000000005f82015250565b5f610a60600d83610a1c565b9150610a6b82610a2c565b602082019050919050565b5f6020820190508181035f830152610a8d81610a54565b9050919050565b5f610a9e82610715565b610aa88185610a1c565b9350610ab8818560208601610532565b610ac18161047a565b840191505092915050565b5f6060820190508181035f830152610ae48186610a94565b9050610af360208301856109f4565b610b0060408301846109f4565b949350505050565b6140cd80610b155f395ff3fe608060405234801561000f575f5ffd5b506004361061025b575f3560e01c806360c6d8ae11610144578063a9059cbb116100c1578063dd62ed3e11610085578063dd62ed3e1461071c578063e63a391f1461074c578063e876d4ea1461076a578063e93f566514610788578063f2fde38b146107a6578063fa95e4da146107c25761025b565b8063a9059cbb14610659578063c7f0744714610689578063cea7b63b146106a7578063cf04a19d146106dc578063d534d636146106f85761025b565b80638c825056116101085780638c825056146105b15780638da5cb5b146105cf5780638dbdbe6d146105ed57806395d89b411461061d578063a5d33ed51461063b5761025b565b806360c6d8ae1461053157806370a082311461054f578063715018a61461057f5780637f98aa71146105895780638a570a12146105a75761025b565b80632ad334e4116101dd578063418f35cc116101a1578063418f35cc14610466578063460db2a814610484578063485d2edc146104b4578063501ec738146104e457806351858e27146105095780635f1554e3146105135761025b565b80632ad334e4146103c0578063313ce567146103f057806331b221cd1461040e578063350e42211461042c5780633f2df4ad1461044a5761025b565b806316e9b26c1161022457806316e9b26c1461030657806318160ddd14610324578063205134ce1461034257806323b872dd1461037257806327c830a9146103a25761025b565b8062f714ce1461025f578063046f7da21461029057806306fdde031461029a578063095ea7b3146102b8578063106b9ca1146102e8575b5f5ffd5b61027960048036038101906102749190612f00565b6107de565b604051610287929190612f4d565b60405180910390f35b610298610ca4565b005b6102a2610cc7565b6040516102af9190612fe4565b60405180910390f35b6102d260048036038101906102cd9190613004565b610d57565b6040516102df919061305c565b60405180910390f35b6102f0610d79565b6040516102fd9190613075565b60405180910390f35b61030e610d7f565b60405161031b9190613075565b60405180910390f35b61032c610d85565b6040516103399190613075565b60405180910390f35b61035c600480360381019061035791906130c1565b610d8e565b604051610369919061305c565b60405180910390f35b61038c600480360381019061038791906130ec565b610dab565b604051610399919061305c565b60405180910390f35b6103aa610dd9565b6040516103b7919061305c565b60405180910390f35b6103da60048036038101906103d5919061313c565b610deb565b6040516103e79190613075565b60405180910390f35b6103f8610e00565b6040516104059190613182565b60405180910390f35b610416610e08565b60405161042391906131aa565b60405180910390f35b610434610e2d565b6040516104419190613075565b60405180910390f35b610464600480360381019061045f919061313c565b610e33565b005b61046e610eec565b60405161047b91906132a3565b60405180910390f35b61049e6004803603810190610499919061313c565b610fae565b6040516104ab9190613075565b60405180910390f35b6104ce60048036038101906104c9919061313c565b610fc3565b6040516104db9190613075565b60405180910390f35b6104ec610fd8565b6040516105009897969594939291906132d9565b60405180910390f35b610511611172565b005b61051b611196565b6040516105289190613075565b60405180910390f35b61053961119b565b6040516105469190613075565b60405180910390f35b6105696004803603810190610564919061313c565b6111a1565b6040516105769190613075565b60405180910390f35b6105876111e6565b005b6105916111f9565b60405161059e919061348c565b60405180910390f35b6105af61142e565b005b6105b96114ee565b6040516105c69190613075565b60405180910390f35b6105d76114f4565b6040516105e491906131aa565b60405180910390f35b610607600480360381019061060291906134ac565b61151c565b6040516106149190613075565b60405180910390f35b610625611a68565b6040516106329190612fe4565b60405180910390f35b610643611af8565b6040516106509190613075565b60405180910390f35b610673600480360381019061066e9190613004565b611afd565b604051610680919061305c565b60405180910390f35b610691611b1f565b60405161069e9190613075565b60405180910390f35b6106c160048036038101906106bc919061313c565b611b26565b6040516106d3969594939291906134fc565b60405180910390f35b6106f660048036038101906106f1919061355b565b611c39565b005b610700611c91565b60405161071397969594939291906135a4565b60405180910390f35b61073660048036038101906107319190613611565b611cf3565b6040516107439190613075565b60405180910390f35b610754611d75565b6040516107619190613075565b60405180910390f35b610772611d7b565b60405161077f9190613075565b60405180910390f35b610790611d81565b60405161079d9190613075565b60405180910390f35b6107c060048036038101906107bb919061313c565b611d87565b005b6107dc60048036038101906107d79190613671565b611e0b565b005b5f5f6107e8612198565b620ae3f3461461082d576040517f08c379a000000000000000000000000000000000000000000000000000000000815260040161082490613702565b60405180910390fd5b601c5f9054906101000a900460ff161561087c576040517f08c379a00000000000000000000000000000000000000000000000000000000081526004016108739061376a565b60405180910390fd5b5f84116108be576040517f08c379a00000000000000000000000000000000000000000000000000000000081526004016108b5906137d2565b60405180910390fd5b6108c7336111a1565b841115610909576040517f08c379a00000000000000000000000000000000000000000000000000000000081526004016109009061383a565b60405180910390fd5b60185460155f3373ffffffffffffffffffffffffffffffffffffffff1673ffffffffffffffffffffffffffffffffffffffff1681526020019081526020015f20546109549190613885565b421015610996576040517f08c379a000000000000000000000000000000000000000000000000000000000815260040161098d90613902565b60405180910390fd5b61099e6121de565b5f6109a7610d85565b9050806109b26122a7565b866109bd9190613920565b6109c7919061398e565b9250806109d2612349565b866109dd9190613920565b6109e7919061398e565b91505f6127106032856109fa9190613920565b610a04919061398e565b90505f612710603285610a179190613920565b610a21919061398e565b90508185610a2f91906139be565b94508084610a3d91906139be565b9350610a4933886123eb565b5f851115610af25760076002015f9054906101000a900473ffffffffffffffffffffffffffffffffffffffff1673ffffffffffffffffffffffffffffffffffffffff1663a9059cbb87876040518363ffffffff1660e01b8152600401610ab09291906139f1565b6020604051808303815f875af1158015610acc573d5f5f3e3d5ffd5b505050506040513d601f19601f82011682018060405250810190610af09190613a42565b505b5f841115610b9b5760076003015f9054906101000a900473ffffffffffffffffffffffffffffffffffffffff1673ffffffffffffffffffffffffffffffffffffffff1663a9059cbb87866040518363ffffffff1660e01b8152600401610b599291906139f1565b6020604051808303815f875af1158015610b75573d5f5f3e3d5ffd5b505050506040513d601f19601f82011682018060405250810190610b999190613a42565b505b8385610ba79190613885565b60175f3373ffffffffffffffffffffffffffffffffffffffff1673ffffffffffffffffffffffffffffffffffffffff1681526020019081526020015f205f828254610bf29190613885565b925050819055508082610c059190613885565b60195f828254610c159190613885565b92505081905550610c24610d85565b600760040181905550610c3561246a565b6007600501819055503373ffffffffffffffffffffffffffffffffffffffff167fbbb1ea57b3253948d7776df8b594960506127c34ab43debdfe5a5ed4df184b7088878742604051610c8a9493929190613a6d565b60405180910390a2505050610c9d61248a565b9250929050565b610cac612494565b5f601c5f6101000a81548160ff021916908315150217905550565b606060038054610cd690613add565b80601f0160208091040260200160405190810160405280929190818152602001828054610d0290613add565b8015610d4d5780601f10610d2457610100808354040283529160200191610d4d565b820191905f5260205f20905b815481529060010190602001808311610d3057829003601f168201915b5050505050905090565b5f5f610d6161251b565b9050610d6e818585612522565b600191505092915050565b601d5481565b601b5481565b5f600254905090565b6014602052805f5260405f205f915054906101000a900460ff1681565b5f5f610db561251b565b9050610dc2858285612534565b610dcd8585856125c7565b60019150509392505050565b601c5f9054906101000a900460ff1681565b6016602052805f5260405f205f915090505481565b5f6012905090565b60135f9054906101000a900473ffffffffffffffffffffffffffffffffffffffff1681565b610e1081565b610e3b612494565b5f73ffffffffffffffffffffffffffffffffffffffff168173ffffffffffffffffffffffffffffffffffffffff1603610ea9576040517f08c379a0000000000000000000000000000000000000000000000000000000008152600401610ea090613b57565b60405180910390fd5b8060135f6101000a81548173ffffffffffffffffffffffffffffffffffffffff021916908373ffffffffffffffffffffffffffffffffffffffff16021790555050565b610ef4612dab565b600e6040518060e00160405290815f82015f9054906101000a900460020b60020b60020b81526020015f820160039054906101000a900460020b60020b60020b81526020015f820160069054906101000a90046fffffffffffffffffffffffffffffffff166fffffffffffffffffffffffffffffffff166fffffffffffffffffffffffffffffffff168152602001600182015481526020016002820154815260200160038201548152602001600482015481525050905090565b6015602052805f5260405f205f915090505481565b6017602052805f5260405f205f915090505481565b6007805f018054610fe890613add565b80601f016020809104026020016040519081016040528092919081815260200182805461101490613add565b801561105f5780601f106110365761010080835404028352916020019161105f565b820191905f5260205f20905b81548152906001019060200180831161104257829003601f168201915b50505050509080600101805461107490613add565b80601f01602080910402602001604051908101604052809291908181526020018280546110a090613add565b80156110eb5780601f106110c2576101008083540402835291602001916110eb565b820191905f5260205f20905b8154815290600101906020018083116110ce57829003601f168201915b505050505090806002015f9054906101000a900473ffffffffffffffffffffffffffffffffffffffff1690806003015f9054906101000a900473ffffffffffffffffffffffffffffffffffffffff16908060030160149054906101000a900462ffffff1690806004015490806005015490806006015f9054906101000a900460ff16905088565b61117a612494565b6001601c5f6101000a81548160ff021916908315150217905550565b606481565b60195481565b5f5f5f8373ffffffffffffffffffffffffffffffffffffffff1673ffffffffffffffffffffffffffffffffffffffff1681526020019081526020015f20549050919050565b6111ee612494565b6111f75f6126b7565b565b611201612df9565b6007604051806101000160405290815f8201805461121e90613add565b80601f016020809104026020016040519081016040528092919081815260200182805461124a90613add565b80156112955780601f1061126c57610100808354040283529160200191611295565b820191905f5260205f20905b81548152906001019060200180831161127857829003601f168201915b505050505081526020016001820180546112ae90613add565b80601f01602080910402602001604051908101604052809291908181526020018280546112da90613add565b80156113255780601f106112fc57610100808354040283529160200191611325565b820191905f5260205f20905b81548152906001019060200180831161130857829003601f168201915b50505050508152602001600282015f9054906101000a900473ffffffffffffffffffffffffffffffffffffffff1673ffffffffffffffffffffffffffffffffffffffff1673ffffffffffffffffffffffffffffffffffffffff168152602001600382015f9054906101000a900473ffffffffffffffffffffffffffffffffffffffff1673ffffffffffffffffffffffffffffffffffffffff1673ffffffffffffffffffffffffffffffffffffffff1681526020016003820160149054906101000a900462ffffff1662ffffff1662ffffff1681526020016004820154815260200160058201548152602001600682015f9054906101000a900460ff161515151581525050905090565b611436612494565b5f61143f61246a565b90505f6007600501549050808211156114ea575f818361145f91906139be565b90505f5f61146b610d85565b11611476575f61148a565b61147e610d85565b82611489919061398e565b5b905081601a5f82825461149d9190613885565b92505081905550836007600501819055507ffe4996cd48c364c468cee70dd6b9061874ff01b05c5ea49311cbcabd9b9cb61582826040516114df929190612f4d565b60405180910390a150505b5050565b601a5481565b5f60055f9054906101000a900473ffffffffffffffffffffffffffffffffffffffff16905090565b5f611525612198565b620ae3f3461461156a576040517f08c379a000000000000000000000000000000000000000000000000000000000815260040161156190613702565b60405180910390fd5b601c5f9054906101000a900460ff16156115b9576040517f08c379a00000000000000000000000000000000000000000000000000000000081526004016115b09061376a565b60405180910390fd5b5f8411806115c657505f83115b611605576040517f08c379a00000000000000000000000000000000000000000000000000000000081526004016115fc90613bbf565b60405180910390fd5b5f73ffffffffffffffffffffffffffffffffffffffff168273ffffffffffffffffffffffffffffffffffffffff1603611673576040517f08c379a000000000000000000000000000000000000000000000000000000000815260040161166a90613c27565b60405180910390fd5b61167b6121de565b5f61168461246a565b90505f61168f610d85565b90505f8103611707576116ac85876116a79190613920565b61277a565b92506103e883116116f2576040517f08c379a00000000000000000000000000000000000000000000000000000000081526004016116e990613c8f565b60405180910390fd5b6103e88361170091906139be565b9250611746565b5f61171287876127eb565b905082600284611722919061398e565b838361172e9190613920565b6117389190613885565b611742919061398e565b9350505b5f8611156117f15760076002015f9054906101000a900473ffffffffffffffffffffffffffffffffffffffff1673ffffffffffffffffffffffffffffffffffffffff166323b872dd3330896040518463ffffffff1660e01b81526004016117af93929190613cad565b6020604051808303815f875af11580156117cb573d5f5f3e3d5ffd5b505050506040513d601f19601f820116820180604052508101906117ef9190613a42565b505b5f85111561189c5760076003015f9054906101000a900473ffffffffffffffffffffffffffffffffffffffff1673ffffffffffffffffffffffffffffffffffffffff166323b872dd3330886040518463ffffffff1660e01b815260040161185a93929190613cad565b6020604051808303815f875af1158015611876573d5f5f3e3d5ffd5b505050506040513d601f19601f8201168201806040525081019061189a9190613a42565b505b6118a68484612893565b5f60155f8673ffffffffffffffffffffffffffffffffffffffff1673ffffffffffffffffffffffffffffffffffffffff1681526020019081526020015f2054148061193b575060185460155f8673ffffffffffffffffffffffffffffffffffffffff1673ffffffffffffffffffffffffffffffffffffffff1681526020019081526020015f20546119379190613885565b4210155b15611983574260155f8673ffffffffffffffffffffffffffffffffffffffff1673ffffffffffffffffffffffffffffffffffffffff1681526020019081526020015f20819055505b848661198f9190613885565b60165f8673ffffffffffffffffffffffffffffffffffffffff1673ffffffffffffffffffffffffffffffffffffffff1681526020019081526020015f205f8282546119da9190613885565b925050819055506119e9610d85565b6007600401819055506119fa61246a565b6007600501819055508373ffffffffffffffffffffffffffffffffffffffff167f705aa396c85ae9b585ec29414163b52a233271e499bd802b43b26533d08c1d8487878642604051611a4f9493929190613a6d565b60405180910390a25050611a6161248a565b9392505050565b606060048054611a7790613add565b80601f0160208091040260200160405190810160405280929190818152602001828054611aa390613add565b8015611aee5780601f10611ac557610100808354040283529160200191611aee565b820191905f5260205f20905b815481529060010190602001808311611ad157829003601f168201915b5050505050905090565b603281565b5f5f611b0761251b565b9050611b148185856125c7565b600191505092915050565b620ae3f381565b5f5f5f5f5f5f611b35876111a1565b9550611b4086612912565b945060165f8873ffffffffffffffffffffffffffffffffffffffff1673ffffffffffffffffffffffffffffffffffffffff1681526020019081526020015f2054935060175f8873ffffffffffffffffffffffffffffffffffffffff1673ffffffffffffffffffffffffffffffffffffffff1681526020019081526020015f2054925060155f8873ffffffffffffffffffffffffffffffffffffffff1673ffffffffffffffffffffffffffffffffffffffff1681526020019081526020015f205491505f60185483611c119190613885565b9050428111611c20575f611c2d565b4281611c2c91906139be565b5b91505091939550919395565b611c41612494565b62278d00811115611c87576040517f08c379a0000000000000000000000000000000000000000000000000000000008152600401611c7e90613d2c565b60405180910390fd5b8060188190555050565b600e805f015f9054906101000a900460020b90805f0160039054906101000a900460020b90805f0160069054906101000a90046fffffffffffffffffffffffffffffffff16908060010154908060020154908060030154908060040154905087565b5f60015f8473ffffffffffffffffffffffffffffffffffffffff1673ffffffffffffffffffffffffffffffffffffffff1681526020019081526020015f205f8373ffffffffffffffffffffffffffffffffffffffff1673ffffffffffffffffffffffffffffffffffffffff1681526020019081526020015f2054905092915050565b61271081565b60185481565b6103e881565b611d8f612494565b5f73ffffffffffffffffffffffffffffffffffffffff168173ffffffffffffffffffffffffffffffffffffffff1603611dff575f6040517f1e4fbdf7000000000000000000000000000000000000000000000000000000008152600401611df691906131aa565b60405180910390fd5b611e08816126b7565b50565b60135f9054906101000a900473ffffffffffffffffffffffffffffffffffffffff1673ffffffffffffffffffffffffffffffffffffffff163373ffffffffffffffffffffffffffffffffffffffff1614611e9a576040517f08c379a0000000000000000000000000000000000000000000000000000000008152600401611e9190613d94565b60405180910390fd5b611ea2612198565b620ae3f34614611ee7576040517f08c379a0000000000000000000000000000000000000000000000000000000008152600401611ede90613702565b60405180910390fd5b601c5f9054906101000a900460ff1615611f36576040517f08c379a0000000000000000000000000000000000000000000000000000000008152600401611f2d9061376a565b60405180910390fd5b5f601d541480611f555750610e10601d54611f519190613885565b4210155b611f94576040517f08c379a0000000000000000000000000000000000000000000000000000000008152600401611f8b90613dfc565b60405180910390fd5b5f815f016020810190611fa79190613e44565b826020016020810190611fba9190613e44565b836080013542604051602001611fd39493929190613ec3565b60405160208183030381529060405280519060200120905060145f8281526020019081526020015f205f9054906101000a900460ff1615612049576040517f08c379a000000000000000000000000000000000000000000000000000000000815260040161204090613f5a565b60405180910390fd5b8160800135421115612090576040517f08c379a000000000000000000000000000000000000000000000000000000000815260040161208790613fc2565b60405180910390fd5b600160145f8381526020019081526020015f205f6101000a81548160ff0219169083151502179055505f600e5f015f9054906101000a900460020b90505f600e5f0160039054906101000a900460020b90506120eb84612956565b42601d819055507f6833c06a8e15ec6c550b15e0d1903b2d3215e6c3f47be904e88d58472d56122b8282865f0160208101906121279190613e44565b87602001602081019061213a9190613e44565b60405161214a9493929190613fe0565b60405180910390a1827fe419c54eef9bf2fbd3d740a2e91b28b93330120c37e79c4e088f87e14a815d535a6040516121829190613075565b60405180910390a250505061219561248a565b50565b6002600654036121d4576040517f3ee5aeb500000000000000000000000000000000000000000000000000000000815260040160405180910390fd5b6002600681905550565b5f601b54426121ed91906139be565b90506301e13380811115612203576301e1338090505b5f6301e133806127106122169190613920565b82606461222161246a565b61222b9190613920565b6122359190613920565b61223f919061398e565b90505f8111156122a3575f61225261246a565b61225a610d85565b836122659190613920565b61226f919061398e565b905061228261227c6114f4565b82612893565b8160195f8282546122939190613885565b9250508190555042601b81905550505b5050565b5f60076002015f9054906101000a900473ffffffffffffffffffffffffffffffffffffffff1673ffffffffffffffffffffffffffffffffffffffff166370a08231306040518263ffffffff1660e01b815260040161230591906131aa565b602060405180830381865afa158015612320573d5f5f3e3d5ffd5b505050506040513d601f19601f820116820180604052508101906123449190614037565b905090565b5f60076003015f9054906101000a900473ffffffffffffffffffffffffffffffffffffffff1673ffffffffffffffffffffffffffffffffffffffff166370a08231306040518263ffffffff1660e01b81526004016123a791906131aa565b602060405180830381865afa1580156123c2573d5f5f3e3d5ffd5b505050506040513d601f19601f820116820180604052508101906123e69190614037565b905090565b5f73ffffffffffffffffffffffffffffffffffffffff168273ffffffffffffffffffffffffffffffffffffffff160361245b575f6040517f96c6fd1e00000000000000000000000000000000000000000000000000000000815260040161245291906131aa565b60405180910390fd5b612466825f836129c3565b5050565b5f612473612349565b61247b6122a7565b6124859190613885565b905090565b6001600681905550565b61249c61251b565b73ffffffffffffffffffffffffffffffffffffffff166124ba6114f4565b73ffffffffffffffffffffffffffffffffffffffff1614612519576124dd61251b565b6040517f118cdaa700000000000000000000000000000000000000000000000000000000815260040161251091906131aa565b60405180910390fd5b565b5f33905090565b61252f8383836001612bdc565b505050565b5f61253f8484611cf3565b90507fffffffffffffffffffffffffffffffffffffffffffffffffffffffffffffffff8110156125c157818110156125b2578281836040517ffb8f41b20000000000000000000000000000000000000000000000000000000081526004016125a993929190614062565b60405180910390fd5b6125c084848484035f612bdc565b5b50505050565b5f73ffffffffffffffffffffffffffffffffffffffff168373ffffffffffffffffffffffffffffffffffffffff1603612637575f6040517f96c6fd1e00000000000000000000000000000000000000000000000000000000815260040161262e91906131aa565b60405180910390fd5b5f73ffffffffffffffffffffffffffffffffffffffff168273ffffffffffffffffffffffffffffffffffffffff16036126a7575f6040517fec442f0500000000000000000000000000000000000000000000000000000000815260040161269e91906131aa565b60405180910390fd5b6126b28383836129c3565b505050565b5f60055f9054906101000a900473ffffffffffffffffffffffffffffffffffffffff1690508160055f6101000a81548173ffffffffffffffffffffffffffffffffffffffff021916908373ffffffffffffffffffffffffffffffffffffffff1602179055508173ffffffffffffffffffffffffffffffffffffffff168173ffffffffffffffffffffffffffffffffffffffff167f8be0079c531659141344cd1fd0a4f28419497f9722a3daafe3b4186f6b6457e060405160405180910390a35050565b5f5f820361278a575f90506127e6565b5f600260018461279a9190613885565b6127a4919061398e565b90505f8390505b808210156127e05781905060028283866127c5919061398e565b6127cf9190613885565b6127d9919061398e565b91506127ab565b80925050505b919050565b5f5f6127f56122a7565b90505f612800612349565b90505f8214801561281057505f81145b1561282a5783856128219190613885565b9250505061288d565b5f5f82116128385785612850565b8282876128459190613920565b61284f919061398e565b5b90505f5f84116128605785612878565b82848761286d9190613920565b612877919061398e565b5b905080826128869190613885565b9450505050505b92915050565b5f73ffffffffffffffffffffffffffffffffffffffff168273ffffffffffffffffffffffffffffffffffffffff1603612903575f6040517fec442f050000000000000000000000000000000000000000000000000000000081526004016128fa91906131aa565b60405180910390fd5b61290e5f83836129c3565b5050565b5f5f61291c610d85565b03612929575f9050612951565b612931610d85565b61293961246a565b836129449190613920565b61294e919061398e565b90505b919050565b805f0160208101906129689190613e44565b600e5f015f6101000a81548162ffffff021916908360020b62ffffff16021790555080602001602081019061299d9190613e44565b600e5f0160036101000a81548162ffffff021916908360020b62ffffff16021790555050565b5f73ffffffffffffffffffffffffffffffffffffffff168373ffffffffffffffffffffffffffffffffffffffff1603612a13578060025f828254612a079190613885565b92505081905550612ae1565b5f5f5f8573ffffffffffffffffffffffffffffffffffffffff1673ffffffffffffffffffffffffffffffffffffffff1681526020019081526020015f2054905081811015612a9c578381836040517fe450d38c000000000000000000000000000000000000000000000000000000008152600401612a9393929190614062565b60405180910390fd5b8181035f5f8673ffffffffffffffffffffffffffffffffffffffff1673ffffffffffffffffffffffffffffffffffffffff1681526020019081526020015f2081905550505b5f73ffffffffffffffffffffffffffffffffffffffff168273ffffffffffffffffffffffffffffffffffffffff1603612b28578060025f8282540392505081905550612b72565b805f5f8473ffffffffffffffffffffffffffffffffffffffff1673ffffffffffffffffffffffffffffffffffffffff1681526020019081526020015f205f82825401925050819055505b8173ffffffffffffffffffffffffffffffffffffffff168373ffffffffffffffffffffffffffffffffffffffff167fddf252ad1be2c89b69c2b068fc378daa952ba7f163c4a11628f55a4df523b3ef83604051612bcf9190613075565b60405180910390a3505050565b5f73ffffffffffffffffffffffffffffffffffffffff168473ffffffffffffffffffffffffffffffffffffffff1603612c4c575f6040517fe602df05000000000000000000000000000000000000000000000000000000008152600401612c4391906131aa565b60405180910390fd5b5f73ffffffffffffffffffffffffffffffffffffffff168373ffffffffffffffffffffffffffffffffffffffff1603612cbc575f6040517f94280d62000000000000000000000000000000000000000000000000000000008152600401612cb391906131aa565b60405180910390fd5b8160015f8673ffffffffffffffffffffffffffffffffffffffff1673ffffffffffffffffffffffffffffffffffffffff1681526020019081526020015f205f8573ffffffffffffffffffffffffffffffffffffffff1673ffffffffffffffffffffffffffffffffffffffff1681526020019081526020015f20819055508015612da5578273ffffffffffffffffffffffffffffffffffffffff168473ffffffffffffffffffffffffffffffffffffffff167f8c5be1e5ebec7d5bd14f71427d1e84f3dd0314c0f7b2291e5b200ac8c7c3b92584604051612d9c9190613075565b60405180910390a35b50505050565b6040518060e001604052805f60020b81526020015f60020b81526020015f6fffffffffffffffffffffffffffffffff1681526020015f81526020015f81526020015f81526020015f81525090565b60405180610100016040528060608152602001606081526020015f73ffffffffffffffffffffffffffffffffffffffff1681526020015f73ffffffffffffffffffffffffffffffffffffffff1681526020015f62ffffff1681526020015f81526020015f81526020015f151581525090565b5f5ffd5b5f5ffd5b5f819050919050565b612e8581612e73565b8114612e8f575f5ffd5b50565b5f81359050612ea081612e7c565b92915050565b5f73ffffffffffffffffffffffffffffffffffffffff82169050919050565b5f612ecf82612ea6565b9050919050565b612edf81612ec5565b8114612ee9575f5ffd5b50565b5f81359050612efa81612ed6565b92915050565b5f5f60408385031215612f1657612f15612e6b565b5b5f612f2385828601612e92565b9250506020612f3485828601612eec565b9150509250929050565b612f4781612e73565b82525050565b5f604082019050612f605f830185612f3e565b612f6d6020830184612f3e565b9392505050565b5f81519050919050565b5f82825260208201905092915050565b8281835e5f83830152505050565b5f601f19601f8301169050919050565b5f612fb682612f74565b612fc08185612f7e565b9350612fd0818560208601612f8e565b612fd981612f9c565b840191505092915050565b5f6020820190508181035f830152612ffc8184612fac565b905092915050565b5f5f6040838503121561301a57613019612e6b565b5b5f61302785828601612eec565b925050602061303885828601612e92565b9150509250929050565b5f8115159050919050565b61305681613042565b82525050565b5f60208201905061306f5f83018461304d565b92915050565b5f6020820190506130885f830184612f3e565b92915050565b5f819050919050565b6130a08161308e565b81146130aa575f5ffd5b50565b5f813590506130bb81613097565b92915050565b5f602082840312156130d6576130d5612e6b565b5b5f6130e3848285016130ad565b91505092915050565b5f5f5f6060848603121561310357613102612e6b565b5b5f61311086828701612eec565b935050602061312186828701612eec565b925050604061313286828701612e92565b9150509250925092565b5f6020828403121561315157613150612e6b565b5b5f61315e84828501612eec565b91505092915050565b5f60ff82169050919050565b61317c81613167565b82525050565b5f6020820190506131955f830184613173565b92915050565b6131a481612ec5565b82525050565b5f6020820190506131bd5f83018461319b565b92915050565b5f8160020b9050919050565b6131d8816131c3565b82525050565b5f6fffffffffffffffffffffffffffffffff82169050919050565b613202816131de565b82525050565b61321181612e73565b82525050565b60e082015f82015161322b5f8501826131cf565b50602082015161323e60208501826131cf565b50604082015161325160408501826131f9565b5060608201516132646060850182613208565b5060808201516132776080850182613208565b5060a082015161328a60a0850182613208565b5060c082015161329d60c0850182613208565b50505050565b5f60e0820190506132b65f830184613217565b92915050565b5f62ffffff82169050919050565b6132d3816132bc565b82525050565b5f610100820190508181035f8301526132f2818b612fac565b90508181036020830152613306818a612fac565b9050613315604083018961319b565b613322606083018861319b565b61332f60808301876132ca565b61333c60a0830186612f3e565b61334960c0830185612f3e565b61335660e083018461304d565b9998505050505050505050565b5f82825260208201905092915050565b5f61337d82612f74565b6133878185613363565b9350613397818560208601612f8e565b6133a081612f9c565b840191505092915050565b6133b481612ec5565b82525050565b6133c3816132bc565b82525050565b6133d281613042565b82525050565b5f61010083015f8301518482035f8601526133f38282613373565b9150506020830151848203602086015261340d8282613373565b915050604083015161342260408601826133ab565b50606083015161343560608601826133ab565b50608083015161344860808601826133ba565b5060a083015161345b60a0860182613208565b5060c083015161346e60c0860182613208565b5060e083015161348160e08601826133c9565b508091505092915050565b5f6020820190508181035f8301526134a481846133d8565b905092915050565b5f5f5f606084860312156134c3576134c2612e6b565b5b5f6134d086828701612e92565b93505060206134e186828701612e92565b92505060406134f286828701612eec565b9150509250925092565b5f60c08201905061350f5f830189612f3e565b61351c6020830188612f3e565b6135296040830187612f3e565b6135366060830186612f3e565b6135436080830185612f3e565b61355060a0830184612f3e565b979650505050505050565b5f602082840312156135705761356f612e6b565b5b5f61357d84828501612e92565b91505092915050565b61358f816131c3565b82525050565b61359e816131de565b82525050565b5f60e0820190506135b75f83018a613586565b6135c46020830189613586565b6135d16040830188613595565b6135de6060830187612f3e565b6135eb6080830186612f3e565b6135f860a0830185612f3e565b61360560c0830184612f3e565b98975050505050505050565b5f5f6040838503121561362757613626612e6b565b5b5f61363485828601612eec565b925050602061364585828601612eec565b9150509250929050565b5f5ffd5b5f60c082840312156136685761366761364f565b5b81905092915050565b5f6020828403121561368657613685612e6b565b5b5f82013567ffffffffffffffff8111156136a3576136a2612e6f565b5b6136af84828501613653565b91505092915050565b7f496e76616c696420636861696e000000000000000000000000000000000000005f82015250565b5f6136ec600d83612f7e565b91506136f7826136b8565b602082019050919050565b5f6020820190508181035f830152613719816136e0565b9050919050565b7f5661756c742070617573656400000000000000000000000000000000000000005f82015250565b5f613754600c83612f7e565b915061375f82613720565b602082019050919050565b5f6020820190508181035f83015261378181613748565b9050919050565b7f496e76616c6964207368617265730000000000000000000000000000000000005f82015250565b5f6137bc600e83612f7e565b91506137c782613788565b602082019050919050565b5f6020820190508181035f8301526137e9816137b0565b9050919050565b7f496e73756666696369656e7420736861726573000000000000000000000000005f82015250565b5f613824601383612f7e565b915061382f826137f0565b602082019050919050565b5f6020820190508181035f83015261385181613818565b9050919050565b7f4e487b71000000000000000000000000000000000000000000000000000000005f52601160045260245ffd5b5f61388f82612e73565b915061389a83612e73565b92508282019050808211156138b2576138b1613858565b5b92915050565b7f4d696e696d756d206c6f636b20706572696f64206e6f74206d657400000000005f82015250565b5f6138ec601b83612f7e565b91506138f7826138b8565b602082019050919050565b5f6020820190508181035f830152613919816138e0565b9050919050565b5f61392a82612e73565b915061393583612e73565b925082820261394381612e73565b9150828204841483151761395a57613959613858565b5b5092915050565b7f4e487b71000000000000000000000000000000000000000000000000000000005f52601260045260245ffd5b5f61399882612e73565b91506139a383612e73565b9250826139b3576139b2613961565b5b828204905092915050565b5f6139c882612e73565b91506139d383612e73565b92508282039050818111156139eb576139ea613858565b5b92915050565b5f604082019050613a045f83018561319b565b613a116020830184612f3e565b9392505050565b613a2181613042565b8114613a2b575f5ffd5b50565b5f81519050613a3c81613a18565b92915050565b5f60208284031215613a5757613a56612e6b565b5b5f613a6484828501613a2e565b91505092915050565b5f608082019050613a805f830187612f3e565b613a8d6020830186612f3e565b613a9a6040830185612f3e565b613aa76060830184612f3e565b95945050505050565b7f4e487b71000000000000000000000000000000000000000000000000000000005f52602260045260245ffd5b5f6002820490506001821680613af457607f821691505b602082108103613b0757613b06613ab0565b5b50919050565b7f496e76616c6964206f7261636c650000000000000000000000000000000000005f82015250565b5f613b41600e83612f7e565b9150613b4c82613b0d565b602082019050919050565b5f6020820190508181035f830152613b6e81613b35565b9050919050565b7f496e76616c696420616d6f756e747300000000000000000000000000000000005f82015250565b5f613ba9600f83612f7e565b9150613bb482613b75565b602082019050919050565b5f6020820190508181035f830152613bd681613b9d565b9050919050565b7f496e76616c696420726563697069656e740000000000000000000000000000005f82015250565b5f613c11601183612f7e565b9150613c1c82613bdd565b602082019050919050565b5f6020820190508181035f830152613c3e81613c05565b9050919050565b7f496e73756666696369656e7420696e697469616c206c697175696469747900005f82015250565b5f613c79601e83612f7e565b9150613c8482613c45565b602082019050919050565b5f6020820190508181035f830152613ca681613c6d565b9050919050565b5f606082019050613cc05f83018661319b565b613ccd602083018561319b565b613cda6040830184612f3e565b949350505050565b7f4c6f636b20706572696f6420746f6f206c6f6e670000000000000000000000005f82015250565b5f613d16601483612f7e565b9150613d2182613ce2565b602082019050919050565b5f6020820190508181035f830152613d4381613d0a565b9050919050565b7f556e617574686f72697a6564204149206f7261636c65000000000000000000005f82015250565b5f613d7e601683612f7e565b9150613d8982613d4a565b602082019050919050565b5f6020820190508181035f830152613dab81613d72565b9050919050565b7f526562616c616e636520746f6f206672657175656e74000000000000000000005f82015250565b5f613de6601683612f7e565b9150613df182613db2565b602082019050919050565b5f6020820190508181035f830152613e1381613dda565b9050919050565b613e23816131c3565b8114613e2d575f5ffd5b50565b5f81359050613e3e81613e1a565b92915050565b5f60208284031215613e5957613e58612e6b565b5b5f613e6684828501613e30565b91505092915050565b5f8160e81b9050919050565b5f613e8582613e6f565b9050919050565b613e9d613e98826131c3565b613e7b565b82525050565b5f819050919050565b613ebd613eb882612e73565b613ea3565b82525050565b5f613ece8287613e8c565b600382019150613ede8286613e8c565b600382019150613eee8285613eac565b602082019150613efe8284613eac565b60208201915081905095945050505050565b7f5265717565737420616c726561647920657865637574656400000000000000005f82015250565b5f613f44601883612f7e565b9150613f4f82613f10565b602082019050919050565b5f6020820190508181035f830152613f7181613f38565b9050919050565b7f52657175657374206578706972656400000000000000000000000000000000005f82015250565b5f613fac600f83612f7e565b9150613fb782613f78565b602082019050919050565b5f6020820190508181035f830152613fd981613fa0565b9050919050565b5f608082019050613ff35f830187613586565b6140006020830186613586565b61400d6040830185613586565b61401a6060830184613586565b95945050505050565b5f8151905061403181612e7c565b92915050565b5f6020828403121561404c5761404b612e6b565b5b5f61405984828501614023565b91505092915050565b5f6060820190506140755f83018661319b565b6140826020830185612f3e565b61408f6040830184612f3e565b94935050505056fea2646970667358221220f3fe4925ac22c4c3edd44839f873d3ec300918530c5d78bdd0cffdf0e38253a764736f6c634300081e0033","linkReferences":{}},"methodIdentifiers":{"FEE_PRECISION()":"e63a391f","MANAGEMENT_FEE()":"5f1554e3","MIN_REBALANCE_INTERVAL()":"350e4221","PERFORMANCE_FEE()":"e93f5665","SEI_CHAIN_ID()":"c7f07447","WITHDRAWAL_FEE()":"a5d33ed5","aiOracle()":"31b221cd","allowance(address,address)":"dd62ed3e","approve(address,uint256)":"095ea7b3","balanceOf(address)":"70a08231","currentPosition()":"d534d636","customerDepositTime(address)":"460db2a8","customerTotalDeposited(address)":"2ad334e4","customerTotalWithdrawn(address)":"485d2edc","decimals()":"313ce567","deposit(uint256,uint256,address)":"8dbdbe6d","distributeYield()":"8a570a12","emergencyPause()":"51858e27","emergencyPaused()":"27c830a9","executedAIRequests(bytes32)":"205134ce","getCurrentPosition()":"418f35cc","getCustomerStats(address)":"cea7b63b","getVaultInfo()":"7f98aa71","lastPerformanceFeeCollection()":"16e9b26c","lastRebalance()":"106b9ca1","minimumLockPeriod()":"e876d4ea","name()":"06fdde03","owner()":"8da5cb5b","rebalance((int24,int24,uint256,uint256,uint256,bytes))":"fa95e4da","renounceOwnership()":"715018a6","resume()":"046f7da2","setMinimumLockPeriod(uint256)":"cf04a19d","symbol()":"95d89b41","totalFeesCollected()":"60c6d8ae","totalSupply()":"18160ddd","totalYieldGenerated()":"8c825056","transfer(address,uint256)":"a9059cbb","transferFrom(address,address,uint256)":"23b872dd","transferOwnership(address)":"f2fde38b","updateAIOracle(address)":"3f2df4ad","vaultInfo()":"501ec738","withdraw(uint256,address)":"00f714ce"},"id":8}