{"abi":[{"type":"constructor","inputs":[{"name":"name","type":"string","internalType":"string"},{"name":"symbol","type":"string","internalType":"string"},{"name":"_token0","type":"address","internalType":"address"},{"name":"_token1","type":"address","internalType":"address"},{"name":"_poolFee","type":"uint24","internalType":"uint24"},{"name":"_aiOracle","type":"address","internalType":"address"},{"name":"initialOwner","type":"address","internalType":"address"}],"stateMutability":"nonpayable"},{"type":"function","name":"FEE_PRECISION","inputs":[],"outputs":[{"name":"","type":"uint256","internalType":"uint256"}],"stateMutability":"view"},{"type":"function","name":"MANAGEMENT_FEE","inputs":[],"outputs":[{"name":"","type":"uint256","internalType":"uint256"}],"stateMutability":"view"},{"type":"function","name":"MIN_REBALANCE_INTERVAL","inputs":[],"outputs":[{"name":"","type":"uint256","internalType":"uint256"}],"stateMutability":"view"},{"type":"function","name":"PERFORMANCE_FEE","inputs":[],"outputs":[{"name":"","type":"uint256","internalType":"uint256"}],"stateMutability":"view"},{"type":"function","name":"SEI_CHAIN_ID","inputs":[],"outputs":[{"name":"","type":"uint256","internalType":"uint256"}],"stateMutability":"view"},{"type":"function","name":"WITHDRAWAL_FEE","inputs":[],"outputs":[{"name":"","type":"uint256","internalType":"uint256"}],"stateMutability":"view"},{"type":"function","name":"aiOracle","inputs":[],"outputs":[{"name":"","type":"address","internalType":"address"}],"stateMutability":"view"},{"type":"function","name":"allowance","inputs":[{"name":"owner","type":"address","internalType":"address"},{"name":"spender","type":"address","internalType":"address"}],"outputs":[{"name":"","type":"uint256","internalType":"uint256"}],"stateMutability":"view"},{"type":"function","name":"approve","inputs":[{"name":"spender","type":"address","internalType":"address"},{"name":"value","type":"uint256","internalType":"uint256"}],"outputs":[{"name":"","type":"bool","internalType":"bool"}],"stateMutability":"nonpayable"},{"type":"function","name":"balanceOf","inputs":[{"name":"account","type":"address","internalType":"address"}],"outputs":[{"name":"","type":"uint256","internalType":"uint256"}],"stateMutability":"view"},{"type":"function","name":"currentPosition","inputs":[],"outputs":[{"name":"tickLower","type":"int24","internalType":"int24"},{"name":"tickUpper","type":"int24","internalType":"int24"},{"name":"liquidity","type":"uint128","internalType":"uint128"},{"name":"tokensOwed0","type":"uint256","internalType":"uint256"},{"name":"tokensOwed1","type":"uint256","internalType":"uint256"},{"name":"feeGrowthInside0LastX128","type":"uint256","internalType":"uint256"},{"name":"feeGrowthInside1LastX128","type":"uint256","internalType":"uint256"}],"stateMutability":"view"},{"type":"function","name":"customerDepositTime","inputs":[{"name":"","type":"address","internalType":"address"}],"outputs":[{"name":"","type":"uint256","internalType":"uint256"}],"stateMutability":"view"},{"type":"function","name":"customerTotalDeposited","inputs":[{"name":"","type":"address","internalType":"address"}],"outputs":[{"name":"","type":"uint256","internalType":"uint256"}],"stateMutability":"view"},{"type":"function","name":"customerTotalWithdrawn","inputs":[{"name":"","type":"address","internalType":"address"}],"outputs":[{"name":"","type":"uint256","internalType":"uint256"}],"stateMutability":"view"},{"type":"function","name":"decimals","inputs":[],"outputs":[{"name":"","type":"uint8","internalType":"uint8"}],"stateMutability":"view"},{"type":"function","name":"deposit","inputs":[{"name":"amount0","type":"uint256","internalType":"uint256"},{"name":"amount1","type":"uint256","internalType":"uint256"},{"name":"recipient","type":"address","internalType":"address"}],"outputs":[{"name":"shares","type":"uint256","internalType":"uint256"}],"stateMutability":"nonpayable"},{"type":"function","name":"distributeYield","inputs":[],"outputs":[],"stateMutability":"nonpayable"},{"type":"function","name":"emergencyPause","inputs":[],"outputs":[],"stateMutability":"nonpayable"},{"type":"function","name":"emergencyPaused","inputs":[],"outputs":[{"name":"","type":"bool","internalType":"bool"}],"stateMutability":"view"},{"type":"function","name":"executedAIRequests","inputs":[{"name":"","type":"bytes32","internalType":"bytes32"}],"outputs":[{"name":"","type":"bool","internalType":"bool"}],"stateMutability":"view"},{"type":"function","name":"getCurrentPosition","inputs":[],"outputs":[{"name":"","type":"tuple","internalType":"struct IStrategyVault.Position","components":[{"name":"tickLower","type":"int24","internalType":"int24"},{"name":"tickUpper","type":"int24","internalType":"int24"},{"name":"liquidity","type":"uint128","internalType":"uint128"},{"name":"tokensOwed0","type":"uint256","internalType":"uint256"},{"name":"tokensOwed1","type":"uint256","internalType":"uint256"},{"name":"feeGrowthInside0LastX128","type":"uint256","internalType":"uint256"},{"name":"feeGrowthInside1LastX128","type":"uint256","internalType":"uint256"}]}],"stateMutability":"view"},{"type":"function","name":"getCustomerStats","inputs":[{"name":"customer","type":"address","internalType":"address"}],"outputs":[{"name":"shares","type":"uint256","internalType":"uint256"},{"name":"shareValue","type":"uint256","internalType":"uint256"},{"name":"totalDeposited","type":"uint256","internalType":"uint256"},{"name":"totalWithdrawn","type":"uint256","internalType":"uint256"},{"name":"depositTime","type":"uint256","internalType":"uint256"},{"name":"lockTimeRemaining","type":"uint256","internalType":"uint256"}],"stateMutability":"view"},{"type":"function","name":"getVaultInfo","inputs":[],"outputs":[{"name":"","type":"tuple","internalType":"struct IStrategyVault.VaultInfo","components":[{"name":"name","type":"string","internalType":"string"},{"name":"strategy","type":"string","internalType":"string"},{"name":"token0","type":"address","internalType":"address"},{"name":"token1","type":"address","internalType":"address"},{"name":"poolFee","type":"uint24","internalType":"uint24"},{"name":"totalSupply","type":"uint256","internalType":"uint256"},{"name":"totalValueLocked","type":"uint256","internalType":"uint256"},{"name":"isActive","type":"bool","internalType":"bool"}]}],"stateMutability":"view"},{"type":"function","name":"lastPerformanceFeeCollection","inputs":[],"outputs":[{"name":"","type":"uint256","internalType":"uint256"}],"stateMutability":"view"},{"type":"function","name":"lastRebalance","inputs":[],"outputs":[{"name":"","type":"uint256","internalType":"uint256"}],"stateMutability":"view"},{"type":"function","name":"minimumLockPeriod","inputs":[],"outputs":[{"name":"","type":"uint256","internalType":"uint256"}],"stateMutability":"view"},{"type":"function","name":"name","inputs":[],"outputs":[{"name":"","type":"string","internalType":"string"}],"stateMutability":"view"},{"type":"function","name":"owner","inputs":[],"outputs":[{"name":"","type":"address","internalType":"address"}],"stateMutability":"view"},{"type":"function","name":"rebalance","inputs":[{"name":"params","type":"tuple","internalType":"struct IStrategyVault.AIRebalanceParams","components":[{"name":"newTickLower","type":"int24","internalType":"int24"},{"name":"newTickUpper","type":"int24","internalType":"int24"},{"name":"minAmount0","type":"uint256","internalType":"uint256"},{"name":"minAmount1","type":"uint256","internalType":"uint256"},{"name":"deadline","type":"uint256","internalType":"uint256"},{"name":"aiSignature","type":"bytes","internalType":"bytes"}]}],"outputs":[],"stateMutability":"nonpayable"},{"type":"function","name":"renounceOwnership","inputs":[],"outputs":[],"stateMutability":"nonpayable"},{"type":"function","name":"resume","inputs":[],"outputs":[],"stateMutability":"nonpayable"},{"type":"function","name":"setMinimumLockPeriod","inputs":[{"name":"newPeriod","type":"uint256","internalType":"uint256"}],"outputs":[],"stateMutability":"nonpayable"},{"type":"function","name":"symbol","inputs":[],"outputs":[{"name":"","type":"string","internalType":"string"}],"stateMutability":"view"},{"type":"function","name":"totalFeesCollected","inputs":[],"outputs":[{"name":"","type":"uint256","internalType":"uint256"}],"stateMutability":"view"},{"type":"function","name":"totalSupply","inputs":[],"outputs":[{"name":"","type":"uint256","internalType":"uint256"}],"stateMutability":"view"},{"type":"function","name":"totalYieldGenerated","inputs":[],"outputs":[{"name":"","type":"uint256","internalType":"uint256"}],"stateMutability":"view"},{"type":"function","name":"transfer","inputs":[{"name":"to","type":"address","internalType":"address"},{"name":"value","type":"uint256","internalType":"uint256"}],"outputs":[{"name":"","type":"bool","internalType":"bool"}],"stateMutability":"nonpayable"},{"type":"function","name":"transferFrom","inputs":[{"name":"from","type":"address","internalType":"address"},{"name":"to","type":"address","internalType":"address"},{"name":"value","type":"uint256","internalType":"uint256"}],"outputs":[{"name":"","type":"bool","internalType":"bool"}],"stateMutability":"nonpayable"},{"type":"function","name":"transferOwnership","inputs":[{"name":"newOwner","type":"address","internalType":"address"}],"outputs":[],"stateMutability":"nonpayable"},{"type":"function","name":"updateAIOracle","inputs":[{"name":"newOracle","type":"address","internalType":"address"}],"outputs":[],"stateMutability":"nonpayable"},{"type":"function","name":"vaultInfo","inputs":[],"outputs":[{"name":"name","type":"string","internalType":"string"},{"name":"strategy","type":"string","internalType":"string"},{"name":"token0","type":"address","internalType":"address"},{"name":"token1","type":"address","internalType":"address"},{"name":"poolFee","type":"uint24","internalType":"uint24"},{"name":"totalSupply","type":"uint256","internalType":"uint256"},{"name":"totalValueLocked","type":"uint256","internalType":"uint256"},{"name":"isActive","type":"bool","internalType":"bool"}],"stateMutability":"view"},{"type":"function","name":"withdraw","inputs":[{"name":"shares","type":"uint256","internalType":"uint256"},{"name":"recipient","type":"address","internalType":"address"}],"outputs":[{"name":"amount0","type":"uint256","internalType":"uint256"},{"name":"amount1","type":"uint256","internalType":"uint256"}],"stateMutability":"nonpayable"},{"type":"event","name":"AIRebalanceExecuted","inputs":[{"name":"aiRequestId","type":"bytes32","indexed":true,"internalType":"bytes32"},{"name":"gasUsed","type":"uint256","indexed":false,"internalType":"uint256"}],"anonymous":false},{"type":"event","name":"Approval","inputs":[{"name":"owner","type":"address","indexed":true,"internalType":"address"},{"name":"spender","type":"address","indexed":true,"internalType":"address"},{"name":"value","type":"uint256","indexed":false,"internalType":"uint256"}],"anonymous":false},{"type":"event","name":"CustomerDeposit","inputs":[{"name":"customer","type":"address","indexed":true,"internalType":"address"},{"name":"amount0","type":"uint256","indexed":false,"internalType":"uint256"},{"name":"amount1","type":"uint256","indexed":false,"internalType":"uint256"},{"name":"shares","type":"uint256","indexed":false,"internalType":"uint256"},{"name":"timestamp","type":"uint256","indexed":false,"internalType":"uint256"}],"anonymous":false},{"type":"event","name":"CustomerWithdraw","inputs":[{"name":"customer","type":"address","indexed":true,"internalType":"address"},{"name":"shares","type":"uint256","indexed":false,"internalType":"uint256"},{"name":"amount0","type":"uint256","indexed":false,"internalType":"uint256"},{"name":"amount1","type":"uint256","indexed":false,"internalType":"uint256"},{"name":"timestamp","type":"uint256","indexed":false,"internalType":"uint256"}],"anonymous":false},{"type":"event","name":"FeesCollected","inputs":[{"name":"managementFees","type":"uint256","indexed":false,"internalType":"uint256"},{"name":"performanceFees","type":"uint256","indexed":false,"internalType":"uint256"}],"anonymous":false},{"type":"event","name":"OwnershipTransferred","inputs":[{"name":"previousOwner","type":"address","indexed":true,"internalType":"address"},{"name":"newOwner","type":"address","indexed":true,"internalType":"address"}],"anonymous":false},{"type":"event","name":"PositionRebalanced","inputs":[{"name":"oldTickLower","type":"int24","indexed":false,"internalType":"int24"},{"name":"oldTickUpper","type":"int24","indexed":false,"internalType":"int24"},{"name":"newTickLower","type":"int24","indexed":false,"internalType":"int24"},{"name":"newTickUpper","type":"int24","indexed":false,"internalType":"int24"}],"anonymous":false},{"type":"event","name":"Transfer","inputs":[{"name":"from","type":"address","indexed":true,"internalType":"address"},{"name":"to","type":"address","indexed":true,"internalType":"address"},{"name":"value","type":"uint256","indexed":false,"internalType":"uint256"}],"anonymous":false},{"type":"event","name":"VaultCreated","inputs":[{"name":"vault","type":"address","indexed":true,"internalType":"address"},{"name":"name","type":"string","indexed":false,"internalType":"string"},{"name":"token0","type":"address","indexed":false,"internalType":"address"},{"name":"token1","type":"address","indexed":false,"internalType":"address"}],"anonymous":false},{"type":"event","name":"YieldDistributed","inputs":[{"name":"totalYield","type":"uint256","indexed":false,"internalType":"uint256"},{"name":"perShareYield","type":"uint256","indexed":false,"internalType":"uint256"}],"anonymous":false},{"type":"error","name":"ERC20InsufficientAllowance","inputs":[{"name":"spender","type":"address","internalType":"address"},{"name":"allowance","type":"uint256","internalType":"uint256"},{"name":"needed","type":"uint256","internalType":"uint256"}]},{"type":"error","name":"ERC20InsufficientBalance","inputs":[{"name":"sender","type":"address","internalType":"address"},{"name":"balance","type":"uint256","internalType":"uint256"},{"name":"needed","type":"uint256","internalType":"uint256"}]},{"type":"error","name":"ERC20InvalidApprover","inputs":[{"name":"approver","type":"address","internalType":"address"}]},{"type":"error","name":"ERC20InvalidReceiver","inputs":[{"name":"receiver","type":"address","internalType":"address"}]},{"type":"error","name":"ERC20InvalidSender","inputs":[{"name":"sender","type":"address","internalType":"address"}]},{"type":"error","name":"ERC20InvalidSpender","inputs":[{"name":"spender","type":"address","internalType":"address"}]},{"type":"error","name":"OwnableInvalidOwner","inputs":[{"name":"owner","type":"address","internalType":"address"}]},{"type":"error","name":"OwnableUnauthorizedAccount","inputs":[{"name":"account","type":"address","internalType":"address"}]},{"type":"error","name":"ReentrancyGuardReentrantCall","inputs":[]}],"bytecode":{"object":"0x6080604052620151806018555f601c5f6101000a81548160ff02191690831515021790555034801562000030575f80fd5b5060405162004c1238038062004c1283398181016040528101906200005691906200069c565b80878781600390816200006a9190620009bf565b5080600490816200007c9190620009bf565b5050505f73ffffffffffffffffffffffffffffffffffffffff168173ffffffffffffffffffffffffffffffffffffffff1603620000f2575f6040517f1e4fbdf7000000000000000000000000000000000000000000000000000000008152600401620000e9919062000ab4565b60405180910390fd5b6200010381620003b660201b60201c565b506001600681905550620ae3f3461462000154576040517f08c379a00000000000000000000000000000000000000000000000000000000081526004016200014b9062000b2d565b60405180910390fd5b6040518061010001604052808881526020016040518060400160405280601d81526020017f41495f44594e414d49435f4c49515549444954595f454e48414e43454400000081525081526020018673ffffffffffffffffffffffffffffffffffffffff1681526020018573ffffffffffffffffffffffffffffffffffffffff1681526020018462ffffff1681526020015f81526020015f81526020016001151581525060075f820151815f0190816200020e9190620009bf565b506020820151816001019081620002269190620009bf565b506040820151816002015f6101000a81548173ffffffffffffffffffffffffffffffffffffffff021916908373ffffffffffffffffffffffffffffffffffffffff1602179055506060820151816003015f6101000a81548173ffffffffffffffffffffffffffffffffffffffff021916908373ffffffffffffffffffffffffffffffffffffffff16021790555060808201518160030160146101000a81548162ffffff021916908362ffffff16021790555060a0820151816004015560c0820151816005015560e0820151816006015f6101000a81548160ff0219169083151502179055509050508160135f6101000a81548173ffffffffffffffffffffffffffffffffffffffff021916908373ffffffffffffffffffffffffffffffffffffffff16021790555042601b819055503073ffffffffffffffffffffffffffffffffffffffff167fa8ca87c5f5e04d4b4644da1612143a77fef7e3e6bfcae78c91c102763f9110fe888787604051620003a19392919062000b8d565b60405180910390a25050505050505062000bcf565b5f60055f9054906101000a900473ffffffffffffffffffffffffffffffffffffffff1690508160055f6101000a81548173ffffffffffffffffffffffffffffffffffffffff021916908373ffffffffffffffffffffffffffffffffffffffff1602179055508173ffffffffffffffffffffffffffffffffffffffff168173ffffffffffffffffffffffffffffffffffffffff167f8be0079c531659141344cd1fd0a4f28419497f9722a3daafe3b4186f6b6457e060405160405180910390a35050565b5f604051905090565b5f80fd5b5f80fd5b5f80fd5b5f80fd5b5f601f19601f8301169050919050565b7f4e487b71000000000000000000000000000000000000000000000000000000005f52604160045260245ffd5b620004da8262000492565b810181811067ffffffffffffffff82111715620004fc57620004fb620004a2565b5b80604052505050565b5f6200051062000479565b90506200051e8282620004cf565b919050565b5f67ffffffffffffffff82111562000540576200053f620004a2565b5b6200054b8262000492565b9050602081019050919050565b5f5b83811015620005775780820151818401526020810190506200055a565b5f8484015250505050565b5f62000598620005928462000523565b62000505565b905082815260208101848484011115620005b757620005b66200048e565b5b620005c484828562000558565b509392505050565b5f82601f830112620005e357620005e26200048a565b5b8151620005f584826020860162000582565b91505092915050565b5f73ffffffffffffffffffffffffffffffffffffffff82169050919050565b5f6200062982620005fe565b9050919050565b6200063b816200061d565b811462000646575f80fd5b50565b5f81519050620006598162000630565b92915050565b5f62ffffff82169050919050565b62000678816200065f565b811462000683575f80fd5b50565b5f8151905062000696816200066d565b92915050565b5f805f805f805f60e0888a031215620006ba57620006b962000482565b5b5f88015167ffffffffffffffff811115620006da57620006d962000486565b5b620006e88a828b01620005cc565b975050602088015167ffffffffffffffff8111156200070c576200070b62000486565b5b6200071a8a828b01620005cc565b96505060406200072d8a828b0162000649565b9550506060620007408a828b0162000649565b9450506080620007538a828b0162000686565b93505060a0620007668a828b0162000649565b92505060c0620007798a828b0162000649565b91505092959891949750929550565b5f81519050919050565b7f4e487b71000000000000000000000000000000000000000000000000000000005f52602260045260245ffd5b5f6002820490506001821680620007d757607f821691505b602082108103620007ed57620007ec62000792565b5b50919050565b5f819050815f5260205f209050919050565b5f6020601f8301049050919050565b5f82821b905092915050565b5f60088302620008517fffffffffffffffffffffffffffffffffffffffffffffffffffffffffffffffff8262000814565b6200085d868362000814565b95508019841693508086168417925050509392505050565b5f819050919050565b5f819050919050565b5f620008a7620008a16200089b8462000875565b6200087e565b62000875565b9050919050565b5f819050919050565b620008c28362000887565b620008da620008d182620008ae565b84845462000820565b825550505050565b5f90565b620008f0620008e2565b620008fd818484620008b7565b505050565b5b818110156200092457620009185f82620008e6565b60018101905062000903565b5050565b601f82111562000973576200093d81620007f3565b620009488462000805565b8101602085101562000958578190505b62000970620009678562000805565b83018262000902565b50505b505050565b5f82821c905092915050565b5f620009955f198460080262000978565b1980831691505092915050565b5f620009af838362000984565b9150826002028217905092915050565b620009ca8262000788565b67ffffffffffffffff811115620009e657620009e5620004a2565b5b620009f28254620007bf565b620009ff82828562000928565b5f60209050601f83116001811462000a35575f841562000a20578287015190505b62000a2c8582620009a2565b86555062000a9b565b601f19841662000a4586620007f3565b5f5b8281101562000a6e5784890151825560018201915060208501945060208101905062000a47565b8683101562000a8e578489015162000a8a601f89168262000984565b8355505b6001600288020188555050505b505050505050565b62000aae816200061d565b82525050565b5f60208201905062000ac95f83018462000aa3565b92915050565b5f82825260208201905092915050565b7f496e76616c696420636861696e000000000000000000000000000000000000005f82015250565b5f62000b15600d8362000acf565b915062000b228262000adf565b602082019050919050565b5f6020820190508181035f83015262000b468162000b07565b9050919050565b5f62000b598262000788565b62000b65818562000acf565b935062000b7781856020860162000558565b62000b828162000492565b840191505092915050565b5f6060820190508181035f83015262000ba7818662000b4d565b905062000bb8602083018562000aa3565b62000bc7604083018462000aa3565b949350505050565b6140358062000bdd5f395ff3fe608060405234801561000f575f80fd5b506004361061025b575f3560e01c806360c6d8ae11610144578063a9059cbb116100c1578063dd62ed3e11610085578063dd62ed3e1461071c578063e63a391f1461074c578063e876d4ea1461076a578063e93f566514610788578063f2fde38b146107a6578063fa95e4da146107c25761025b565b8063a9059cbb14610659578063c7f0744714610689578063cea7b63b146106a7578063cf04a19d146106dc578063d534d636146106f85761025b565b80638c825056116101085780638c825056146105b15780638da5cb5b146105cf5780638dbdbe6d146105ed57806395d89b411461061d578063a5d33ed51461063b5761025b565b806360c6d8ae1461053157806370a082311461054f578063715018a61461057f5780637f98aa71146105895780638a570a12146105a75761025b565b80632ad334e4116101dd578063418f35cc116101a1578063418f35cc14610466578063460db2a814610484578063485d2edc146104b4578063501ec738146104e457806351858e27146105095780635f1554e3146105135761025b565b80632ad334e4146103c0578063313ce567146103f057806331b221cd1461040e578063350e42211461042c5780633f2df4ad1461044a5761025b565b806316e9b26c1161022457806316e9b26c1461030657806318160ddd14610324578063205134ce1461034257806323b872dd1461037257806327c830a9146103a25761025b565b8062f714ce1461025f578063046f7da21461029057806306fdde031461029a578063095ea7b3146102b8578063106b9ca1146102e8575b5f80fd5b61027960048036038101906102749190612e4e565b6107de565b604051610287929190612e9b565b60405180910390f35b610298610ca4565b005b6102a2610cc7565b6040516102af9190612f4c565b60405180910390f35b6102d260048036038101906102cd9190612f6c565b610d57565b6040516102df9190612fc4565b60405180910390f35b6102f0610d79565b6040516102fd9190612fdd565b60405180910390f35b61030e610d7f565b60405161031b9190612fdd565b60405180910390f35b61032c610d85565b6040516103399190612fdd565b60405180910390f35b61035c60048036038101906103579190613029565b610d8e565b6040516103699190612fc4565b60405180910390f35b61038c60048036038101906103879190613054565b610dab565b6040516103999190612fc4565b60405180910390f35b6103aa610dd9565b6040516103b79190612fc4565b60405180910390f35b6103da60048036038101906103d591906130a4565b610deb565b6040516103e79190612fdd565b60405180910390f35b6103f8610e00565b60405161040591906130ea565b60405180910390f35b610416610e08565b6040516104239190613112565b60405180910390f35b610434610e2d565b6040516104419190612fdd565b60405180910390f35b610464600480360381019061045f91906130a4565b610e33565b005b61046e610eec565b60405161047b919061320b565b60405180910390f35b61049e600480360381019061049991906130a4565b610fae565b6040516104ab9190612fdd565b60405180910390f35b6104ce60048036038101906104c991906130a4565b610fc3565b6040516104db9190612fdd565b60405180910390f35b6104ec610fd8565b604051610500989796959493929190613241565b60405180910390f35b610511611172565b005b61051b611196565b6040516105289190612fdd565b60405180910390f35b61053961119b565b6040516105469190612fdd565b60405180910390f35b610569600480360381019061056491906130a4565b6111a1565b6040516105769190612fdd565b60405180910390f35b6105876111e6565b005b6105916111f9565b60405161059e91906133f4565b60405180910390f35b6105af61142e565b005b6105b96114ee565b6040516105c69190612fdd565b60405180910390f35b6105d76114f4565b6040516105e49190613112565b60405180910390f35b61060760048036038101906106029190613414565b61151c565b6040516106149190612fdd565b60405180910390f35b6106256119b6565b6040516106329190612f4c565b60405180910390f35b610643611a46565b6040516106509190612fdd565b60405180910390f35b610673600480360381019061066e9190612f6c565b611a4b565b6040516106809190612fc4565b60405180910390f35b610691611a6d565b60405161069e9190612fdd565b60405180910390f35b6106c160048036038101906106bc91906130a4565b611a74565b6040516106d396959493929190613464565b60405180910390f35b6106f660048036038101906106f191906134c3565b611b87565b005b610700611bdf565b604051610713979695949392919061350c565b60405180910390f35b61073660048036038101906107319190613579565b611c41565b6040516107439190612fdd565b60405180910390f35b610754611cc3565b6040516107619190612fdd565b60405180910390f35b610772611cc9565b60405161077f9190612fdd565b60405180910390f35b610790611ccf565b60405161079d9190612fdd565b60405180910390f35b6107c060048036038101906107bb91906130a4565b611cd5565b005b6107dc60048036038101906107d791906135d9565b611d59565b005b5f806107e86120e6565b620ae3f3461461082d576040517f08c379a00000000000000000000000000000000000000000000000000000000081526004016108249061366a565b60405180910390fd5b601c5f9054906101000a900460ff161561087c576040517f08c379a0000000000000000000000000000000000000000000000000000000008152600401610873906136d2565b60405180910390fd5b5f84116108be576040517f08c379a00000000000000000000000000000000000000000000000000000000081526004016108b59061373a565b60405180910390fd5b6108c7336111a1565b841115610909576040517f08c379a0000000000000000000000000000000000000000000000000000000008152600401610900906137a2565b60405180910390fd5b60185460155f3373ffffffffffffffffffffffffffffffffffffffff1673ffffffffffffffffffffffffffffffffffffffff1681526020019081526020015f205461095491906137ed565b421015610996576040517f08c379a000000000000000000000000000000000000000000000000000000000815260040161098d9061386a565b60405180910390fd5b61099e61212c565b5f6109a7610d85565b9050806109b26121f5565b866109bd9190613888565b6109c791906138f6565b9250806109d2612297565b866109dd9190613888565b6109e791906138f6565b91505f6127106032856109fa9190613888565b610a0491906138f6565b90505f612710603285610a179190613888565b610a2191906138f6565b90508185610a2f9190613926565b94508084610a3d9190613926565b9350610a493388612339565b5f851115610af25760076002015f9054906101000a900473ffffffffffffffffffffffffffffffffffffffff1673ffffffffffffffffffffffffffffffffffffffff1663a9059cbb87876040518363ffffffff1660e01b8152600401610ab0929190613959565b6020604051808303815f875af1158015610acc573d5f803e3d5ffd5b505050506040513d601f19601f82011682018060405250810190610af091906139aa565b505b5f841115610b9b5760076003015f9054906101000a900473ffffffffffffffffffffffffffffffffffffffff1673ffffffffffffffffffffffffffffffffffffffff1663a9059cbb87866040518363ffffffff1660e01b8152600401610b59929190613959565b6020604051808303815f875af1158015610b75573d5f803e3d5ffd5b505050506040513d601f19601f82011682018060405250810190610b9991906139aa565b505b8385610ba791906137ed565b60175f3373ffffffffffffffffffffffffffffffffffffffff1673ffffffffffffffffffffffffffffffffffffffff1681526020019081526020015f205f828254610bf291906137ed565b925050819055508082610c0591906137ed565b60195f828254610c1591906137ed565b92505081905550610c24610d85565b600760040181905550610c356123b8565b6007600501819055503373ffffffffffffffffffffffffffffffffffffffff167fbbb1ea57b3253948d7776df8b594960506127c34ab43debdfe5a5ed4df184b7088878742604051610c8a94939291906139d5565b60405180910390a2505050610c9d6123d8565b9250929050565b610cac6123e2565b5f601c5f6101000a81548160ff021916908315150217905550565b606060038054610cd690613a45565b80601f0160208091040260200160405190810160405280929190818152602001828054610d0290613a45565b8015610d4d5780601f10610d2457610100808354040283529160200191610d4d565b820191905f5260205f20905b815481529060010190602001808311610d3057829003601f168201915b5050505050905090565b5f80610d61612469565b9050610d6e818585612470565b600191505092915050565b601d5481565b601b5481565b5f600254905090565b6014602052805f5260405f205f915054906101000a900460ff1681565b5f80610db5612469565b9050610dc2858285612482565b610dcd858585612515565b60019150509392505050565b601c5f9054906101000a900460ff1681565b6016602052805f5260405f205f915090505481565b5f6012905090565b60135f9054906101000a900473ffffffffffffffffffffffffffffffffffffffff1681565b610e1081565b610e3b6123e2565b5f73ffffffffffffffffffffffffffffffffffffffff168173ffffffffffffffffffffffffffffffffffffffff1603610ea9576040517f08c379a0000000000000000000000000000000000000000000000000000000008152600401610ea090613abf565b60405180910390fd5b8060135f6101000a81548173ffffffffffffffffffffffffffffffffffffffff021916908373ffffffffffffffffffffffffffffffffffffffff16021790555050565b610ef4612cf9565b600e6040518060e00160405290815f82015f9054906101000a900460020b60020b60020b81526020015f820160039054906101000a900460020b60020b60020b81526020015f820160069054906101000a90046fffffffffffffffffffffffffffffffff166fffffffffffffffffffffffffffffffff166fffffffffffffffffffffffffffffffff168152602001600182015481526020016002820154815260200160038201548152602001600482015481525050905090565b6015602052805f5260405f205f915090505481565b6017602052805f5260405f205f915090505481565b6007805f018054610fe890613a45565b80601f016020809104026020016040519081016040528092919081815260200182805461101490613a45565b801561105f5780601f106110365761010080835404028352916020019161105f565b820191905f5260205f20905b81548152906001019060200180831161104257829003601f168201915b50505050509080600101805461107490613a45565b80601f01602080910402602001604051908101604052809291908181526020018280546110a090613a45565b80156110eb5780601f106110c2576101008083540402835291602001916110eb565b820191905f5260205f20905b8154815290600101906020018083116110ce57829003601f168201915b505050505090806002015f9054906101000a900473ffffffffffffffffffffffffffffffffffffffff1690806003015f9054906101000a900473ffffffffffffffffffffffffffffffffffffffff16908060030160149054906101000a900462ffffff1690806004015490806005015490806006015f9054906101000a900460ff16905088565b61117a6123e2565b6001601c5f6101000a81548160ff021916908315150217905550565b606481565b60195481565b5f805f8373ffffffffffffffffffffffffffffffffffffffff1673ffffffffffffffffffffffffffffffffffffffff1681526020019081526020015f20549050919050565b6111ee6123e2565b6111f75f612605565b565b611201612d47565b6007604051806101000160405290815f8201805461121e90613a45565b80601f016020809104026020016040519081016040528092919081815260200182805461124a90613a45565b80156112955780601f1061126c57610100808354040283529160200191611295565b820191905f5260205f20905b81548152906001019060200180831161127857829003601f168201915b505050505081526020016001820180546112ae90613a45565b80601f01602080910402602001604051908101604052809291908181526020018280546112da90613a45565b80156113255780601f106112fc57610100808354040283529160200191611325565b820191905f5260205f20905b81548152906001019060200180831161130857829003601f168201915b50505050508152602001600282015f9054906101000a900473ffffffffffffffffffffffffffffffffffffffff1673ffffffffffffffffffffffffffffffffffffffff1673ffffffffffffffffffffffffffffffffffffffff168152602001600382015f9054906101000a900473ffffffffffffffffffffffffffffffffffffffff1673ffffffffffffffffffffffffffffffffffffffff1673ffffffffffffffffffffffffffffffffffffffff1681526020016003820160149054906101000a900462ffffff1662ffffff1662ffffff1681526020016004820154815260200160058201548152602001600682015f9054906101000a900460ff161515151581525050905090565b6114366123e2565b5f61143f6123b8565b90505f6007600501549050808211156114ea575f818361145f9190613926565b90505f8061146b610d85565b11611476575f61148a565b61147e610d85565b8261148991906138f6565b5b905081601a5f82825461149d91906137ed565b92505081905550836007600501819055507ffe4996cd48c364c468cee70dd6b9061874ff01b05c5ea49311cbcabd9b9cb61582826040516114df929190612e9b565b60405180910390a150505b5050565b601a5481565b5f60055f9054906101000a900473ffffffffffffffffffffffffffffffffffffffff16905090565b5f6115256120e6565b620ae3f3461461156a576040517f08c379a00000000000000000000000000000000000000000000000000000000081526004016115619061366a565b60405180910390fd5b601c5f9054906101000a900460ff16156115b9576040517f08c379a00000000000000000000000000000000000000000000000000000000081526004016115b0906136d2565b60405180910390fd5b5f8411806115c657505f83115b611605576040517f08c379a00000000000000000000000000000000000000000000000000000000081526004016115fc90613b27565b60405180910390fd5b5f73ffffffffffffffffffffffffffffffffffffffff168273ffffffffffffffffffffffffffffffffffffffff1603611673576040517f08c379a000000000000000000000000000000000000000000000000000000000815260040161166a90613b8f565b60405180910390fd5b61167b61212c565b5f6116846123b8565b90505f61168f610d85565b90505f8103611707576116ac85876116a79190613888565b6126c8565b92506103e883116116f2576040517f08c379a00000000000000000000000000000000000000000000000000000000081526004016116e990613bf7565b60405180910390fd5b6103e8836117009190613926565b925061172f565b5f6117128787612739565b90508282826117219190613888565b61172b91906138f6565b9350505b5f8611156117da5760076002015f9054906101000a900473ffffffffffffffffffffffffffffffffffffffff1673ffffffffffffffffffffffffffffffffffffffff166323b872dd3330896040518463ffffffff1660e01b815260040161179893929190613c15565b6020604051808303815f875af11580156117b4573d5f803e3d5ffd5b505050506040513d601f19601f820116820180604052508101906117d891906139aa565b505b5f8511156118855760076003015f9054906101000a900473ffffffffffffffffffffffffffffffffffffffff1673ffffffffffffffffffffffffffffffffffffffff166323b872dd3330886040518463ffffffff1660e01b815260040161184393929190613c15565b6020604051808303815f875af115801561185f573d5f803e3d5ffd5b505050506040513d601f19601f8201168201806040525081019061188391906139aa565b505b61188f84846127e1565b4260155f8673ffffffffffffffffffffffffffffffffffffffff1673ffffffffffffffffffffffffffffffffffffffff1681526020019081526020015f208190555084866118dd91906137ed565b60165f8673ffffffffffffffffffffffffffffffffffffffff1673ffffffffffffffffffffffffffffffffffffffff1681526020019081526020015f205f82825461192891906137ed565b92505081905550611937610d85565b6007600401819055506119486123b8565b6007600501819055508373ffffffffffffffffffffffffffffffffffffffff167f705aa396c85ae9b585ec29414163b52a233271e499bd802b43b26533d08c1d848787864260405161199d94939291906139d5565b60405180910390a250506119af6123d8565b9392505050565b6060600480546119c590613a45565b80601f01602080910402602001604051908101604052809291908181526020018280546119f190613a45565b8015611a3c5780601f10611a1357610100808354040283529160200191611a3c565b820191905f5260205f20905b815481529060010190602001808311611a1f57829003601f168201915b5050505050905090565b603281565b5f80611a55612469565b9050611a62818585612515565b600191505092915050565b620ae3f381565b5f805f805f80611a83876111a1565b9550611a8e86612860565b945060165f8873ffffffffffffffffffffffffffffffffffffffff1673ffffffffffffffffffffffffffffffffffffffff1681526020019081526020015f2054935060175f8873ffffffffffffffffffffffffffffffffffffffff1673ffffffffffffffffffffffffffffffffffffffff1681526020019081526020015f2054925060155f8873ffffffffffffffffffffffffffffffffffffffff1673ffffffffffffffffffffffffffffffffffffffff1681526020019081526020015f205491505f60185483611b5f91906137ed565b9050428111611b6e575f611b7b565b4281611b7a9190613926565b5b91505091939550919395565b611b8f6123e2565b62278d00811115611bd5576040517f08c379a0000000000000000000000000000000000000000000000000000000008152600401611bcc90613c94565b60405180910390fd5b8060188190555050565b600e805f015f9054906101000a900460020b90805f0160039054906101000a900460020b90805f0160069054906101000a90046fffffffffffffffffffffffffffffffff16908060010154908060020154908060030154908060040154905087565b5f60015f8473ffffffffffffffffffffffffffffffffffffffff1673ffffffffffffffffffffffffffffffffffffffff1681526020019081526020015f205f8373ffffffffffffffffffffffffffffffffffffffff1673ffffffffffffffffffffffffffffffffffffffff1681526020019081526020015f2054905092915050565b61271081565b60185481565b6103e881565b611cdd6123e2565b5f73ffffffffffffffffffffffffffffffffffffffff168173ffffffffffffffffffffffffffffffffffffffff1603611d4d575f6040517f1e4fbdf7000000000000000000000000000000000000000000000000000000008152600401611d449190613112565b60405180910390fd5b611d5681612605565b50565b60135f9054906101000a900473ffffffffffffffffffffffffffffffffffffffff1673ffffffffffffffffffffffffffffffffffffffff163373ffffffffffffffffffffffffffffffffffffffff1614611de8576040517f08c379a0000000000000000000000000000000000000000000000000000000008152600401611ddf90613cfc565b60405180910390fd5b611df06120e6565b620ae3f34614611e35576040517f08c379a0000000000000000000000000000000000000000000000000000000008152600401611e2c9061366a565b60405180910390fd5b601c5f9054906101000a900460ff1615611e84576040517f08c379a0000000000000000000000000000000000000000000000000000000008152600401611e7b906136d2565b60405180910390fd5b5f601d541480611ea35750610e10601d54611e9f91906137ed565b4210155b611ee2576040517f08c379a0000000000000000000000000000000000000000000000000000000008152600401611ed990613d64565b60405180910390fd5b5f815f016020810190611ef59190613dac565b826020016020810190611f089190613dac565b836080013542604051602001611f219493929190613e2b565b60405160208183030381529060405280519060200120905060145f8281526020019081526020015f205f9054906101000a900460ff1615611f97576040517f08c379a0000000000000000000000000000000000000000000000000000000008152600401611f8e90613ec2565b60405180910390fd5b8160800135421115611fde576040517f08c379a0000000000000000000000000000000000000000000000000000000008152600401611fd590613f2a565b60405180910390fd5b600160145f8381526020019081526020015f205f6101000a81548160ff0219169083151502179055505f600e5f015f9054906101000a900460020b90505f600e5f0160039054906101000a900460020b9050612039846128a4565b42601d819055507f6833c06a8e15ec6c550b15e0d1903b2d3215e6c3f47be904e88d58472d56122b8282865f0160208101906120759190613dac565b8760200160208101906120889190613dac565b6040516120989493929190613f48565b60405180910390a1827fe419c54eef9bf2fbd3d740a2e91b28b93330120c37e79c4e088f87e14a815d535a6040516120d09190612fdd565b60405180910390a25050506120e36123d8565b50565b600260065403612122576040517f3ee5aeb500000000000000000000000000000000000000000000000000000000815260040160405180910390fd5b6002600681905550565b5f601b544261213b9190613926565b90506301e13380811115612151576301e1338090505b5f6301e133806127106121649190613888565b82606461216f6123b8565b6121799190613888565b6121839190613888565b61218d91906138f6565b90505f8111156121f1575f6121a06123b8565b6121a8610d85565b836121b39190613888565b6121bd91906138f6565b90506121d06121ca6114f4565b826127e1565b8160195f8282546121e191906137ed565b9250508190555042601b81905550505b5050565b5f60076002015f9054906101000a900473ffffffffffffffffffffffffffffffffffffffff1673ffffffffffffffffffffffffffffffffffffffff166370a08231306040518263ffffffff1660e01b81526004016122539190613112565b602060405180830381865afa15801561226e573d5f803e3d5ffd5b505050506040513d601f19601f820116820180604052508101906122929190613f9f565b905090565b5f60076003015f9054906101000a900473ffffffffffffffffffffffffffffffffffffffff1673ffffffffffffffffffffffffffffffffffffffff166370a08231306040518263ffffffff1660e01b81526004016122f59190613112565b602060405180830381865afa158015612310573d5f803e3d5ffd5b505050506040513d601f19601f820116820180604052508101906123349190613f9f565b905090565b5f73ffffffffffffffffffffffffffffffffffffffff168273ffffffffffffffffffffffffffffffffffffffff16036123a9575f6040517f96c6fd1e0000000000000000000000000000000000000000000000000000000081526004016123a09190613112565b60405180910390fd5b6123b4825f83612911565b5050565b5f6123c1612297565b6123c96121f5565b6123d391906137ed565b905090565b6001600681905550565b6123ea612469565b73ffffffffffffffffffffffffffffffffffffffff166124086114f4565b73ffffffffffffffffffffffffffffffffffffffff16146124675761242b612469565b6040517f118cdaa700000000000000000000000000000000000000000000000000000000815260040161245e9190613112565b60405180910390fd5b565b5f33905090565b61247d8383836001612b2a565b505050565b5f61248d8484611c41565b90507fffffffffffffffffffffffffffffffffffffffffffffffffffffffffffffffff81101561250f5781811015612500578281836040517ffb8f41b20000000000000000000000000000000000000000000000000000000081526004016124f793929190613fca565b60405180910390fd5b61250e84848484035f612b2a565b5b50505050565b5f73ffffffffffffffffffffffffffffffffffffffff168373ffffffffffffffffffffffffffffffffffffffff1603612585575f6040517f96c6fd1e00000000000000000000000000000000000000000000000000000000815260040161257c9190613112565b60405180910390fd5b5f73ffffffffffffffffffffffffffffffffffffffff168273ffffffffffffffffffffffffffffffffffffffff16036125f5575f6040517fec442f050000000000000000000000000000000000000000000000000000000081526004016125ec9190613112565b60405180910390fd5b612600838383612911565b505050565b5f60055f9054906101000a900473ffffffffffffffffffffffffffffffffffffffff1690508160055f6101000a81548173ffffffffffffffffffffffffffffffffffffffff021916908373ffffffffffffffffffffffffffffffffffffffff1602179055508173ffffffffffffffffffffffffffffffffffffffff168173ffffffffffffffffffffffffffffffffffffffff167f8be0079c531659141344cd1fd0a4f28419497f9722a3daafe3b4186f6b6457e060405160405180910390a35050565b5f8082036126d8575f9050612734565b5f60026001846126e891906137ed565b6126f291906138f6565b90505f8390505b8082101561272e57819050600282838661271391906138f6565b61271d91906137ed565b61272791906138f6565b91506126f9565b80925050505b919050565b5f806127436121f5565b90505f61274e612297565b90505f8214801561275e57505f81145b1561277857838561276f91906137ed565b925050506127db565b5f808211612786578561279e565b8282876127939190613888565b61279d91906138f6565b5b90505f8084116127ae57856127c6565b8284876127bb9190613888565b6127c591906138f6565b5b905080826127d491906137ed565b9450505050505b92915050565b5f73ffffffffffffffffffffffffffffffffffffffff168273ffffffffffffffffffffffffffffffffffffffff1603612851575f6040517fec442f050000000000000000000000000000000000000000000000000000000081526004016128489190613112565b60405180910390fd5b61285c5f8383612911565b5050565b5f8061286a610d85565b03612877575f905061289f565b61287f610d85565b6128876123b8565b836128929190613888565b61289c91906138f6565b90505b919050565b805f0160208101906128b69190613dac565b600e5f015f6101000a81548162ffffff021916908360020b62ffffff1602179055508060200160208101906128eb9190613dac565b600e5f0160036101000a81548162ffffff021916908360020b62ffffff16021790555050565b5f73ffffffffffffffffffffffffffffffffffffffff168373ffffffffffffffffffffffffffffffffffffffff1603612961578060025f82825461295591906137ed565b92505081905550612a2f565b5f805f8573ffffffffffffffffffffffffffffffffffffffff1673ffffffffffffffffffffffffffffffffffffffff1681526020019081526020015f20549050818110156129ea578381836040517fe450d38c0000000000000000000000000000000000000000000000000000000081526004016129e193929190613fca565b60405180910390fd5b8181035f808673ffffffffffffffffffffffffffffffffffffffff1673ffffffffffffffffffffffffffffffffffffffff1681526020019081526020015f2081905550505b5f73ffffffffffffffffffffffffffffffffffffffff168273ffffffffffffffffffffffffffffffffffffffff1603612a76578060025f8282540392505081905550612ac0565b805f808473ffffffffffffffffffffffffffffffffffffffff1673ffffffffffffffffffffffffffffffffffffffff1681526020019081526020015f205f82825401925050819055505b8173ffffffffffffffffffffffffffffffffffffffff168373ffffffffffffffffffffffffffffffffffffffff167fddf252ad1be2c89b69c2b068fc378daa952ba7f163c4a11628f55a4df523b3ef83604051612b1d9190612fdd565b60405180910390a3505050565b5f73ffffffffffffffffffffffffffffffffffffffff168473ffffffffffffffffffffffffffffffffffffffff1603612b9a575f6040517fe602df05000000000000000000000000000000000000000000000000000000008152600401612b919190613112565b60405180910390fd5b5f73ffffffffffffffffffffffffffffffffffffffff168373ffffffffffffffffffffffffffffffffffffffff1603612c0a575f6040517f94280d62000000000000000000000000000000000000000000000000000000008152600401612c019190613112565b60405180910390fd5b8160015f8673ffffffffffffffffffffffffffffffffffffffff1673ffffffffffffffffffffffffffffffffffffffff1681526020019081526020015f205f8573ffffffffffffffffffffffffffffffffffffffff1673ffffffffffffffffffffffffffffffffffffffff1681526020019081526020015f20819055508015612cf3578273ffffffffffffffffffffffffffffffffffffffff168473ffffffffffffffffffffffffffffffffffffffff167f8c5be1e5ebec7d5bd14f71427d1e84f3dd0314c0f7b2291e5b200ac8c7c3b92584604051612cea9190612fdd565b60405180910390a35b50505050565b6040518060e001604052805f60020b81526020015f60020b81526020015f6fffffffffffffffffffffffffffffffff1681526020015f81526020015f81526020015f81526020015f81525090565b60405180610100016040528060608152602001606081526020015f73ffffffffffffffffffffffffffffffffffffffff1681526020015f73ffffffffffffffffffffffffffffffffffffffff1681526020015f62ffffff1681526020015f81526020015f81526020015f151581525090565b5f80fd5b5f80fd5b5f819050919050565b612dd381612dc1565b8114612ddd575f80fd5b50565b5f81359050612dee81612dca565b92915050565b5f73ffffffffffffffffffffffffffffffffffffffff82169050919050565b5f612e1d82612df4565b9050919050565b612e2d81612e13565b8114612e37575f80fd5b50565b5f81359050612e4881612e24565b92915050565b5f8060408385031215612e6457612e63612db9565b5b5f612e7185828601612de0565b9250506020612e8285828601612e3a565b9150509250929050565b612e9581612dc1565b82525050565b5f604082019050612eae5f830185612e8c565b612ebb6020830184612e8c565b9392505050565b5f81519050919050565b5f82825260208201905092915050565b5f5b83811015612ef9578082015181840152602081019050612ede565b5f8484015250505050565b5f601f19601f8301169050919050565b5f612f1e82612ec2565b612f288185612ecc565b9350612f38818560208601612edc565b612f4181612f04565b840191505092915050565b5f6020820190508181035f830152612f648184612f14565b905092915050565b5f8060408385031215612f8257612f81612db9565b5b5f612f8f85828601612e3a565b9250506020612fa085828601612de0565b9150509250929050565b5f8115159050919050565b612fbe81612faa565b82525050565b5f602082019050612fd75f830184612fb5565b92915050565b5f602082019050612ff05f830184612e8c565b92915050565b5f819050919050565b61300881612ff6565b8114613012575f80fd5b50565b5f8135905061302381612fff565b92915050565b5f6020828403121561303e5761303d612db9565b5b5f61304b84828501613015565b91505092915050565b5f805f6060848603121561306b5761306a612db9565b5b5f61307886828701612e3a565b935050602061308986828701612e3a565b925050604061309a86828701612de0565b9150509250925092565b5f602082840312156130b9576130b8612db9565b5b5f6130c684828501612e3a565b91505092915050565b5f60ff82169050919050565b6130e4816130cf565b82525050565b5f6020820190506130fd5f8301846130db565b92915050565b61310c81612e13565b82525050565b5f6020820190506131255f830184613103565b92915050565b5f8160020b9050919050565b6131408161312b565b82525050565b5f6fffffffffffffffffffffffffffffffff82169050919050565b61316a81613146565b82525050565b61317981612dc1565b82525050565b60e082015f8201516131935f850182613137565b5060208201516131a66020850182613137565b5060408201516131b96040850182613161565b5060608201516131cc6060850182613170565b5060808201516131df6080850182613170565b5060a08201516131f260a0850182613170565b5060c082015161320560c0850182613170565b50505050565b5f60e08201905061321e5f83018461317f565b92915050565b5f62ffffff82169050919050565b61323b81613224565b82525050565b5f610100820190508181035f83015261325a818b612f14565b9050818103602083015261326e818a612f14565b905061327d6040830189613103565b61328a6060830188613103565b6132976080830187613232565b6132a460a0830186612e8c565b6132b160c0830185612e8c565b6132be60e0830184612fb5565b9998505050505050505050565b5f82825260208201905092915050565b5f6132e582612ec2565b6132ef81856132cb565b93506132ff818560208601612edc565b61330881612f04565b840191505092915050565b61331c81612e13565b82525050565b61332b81613224565b82525050565b61333a81612faa565b82525050565b5f61010083015f8301518482035f86015261335b82826132db565b9150506020830151848203602086015261337582826132db565b915050604083015161338a6040860182613313565b50606083015161339d6060860182613313565b5060808301516133b06080860182613322565b5060a08301516133c360a0860182613170565b5060c08301516133d660c0860182613170565b5060e08301516133e960e0860182613331565b508091505092915050565b5f6020820190508181035f83015261340c8184613340565b905092915050565b5f805f6060848603121561342b5761342a612db9565b5b5f61343886828701612de0565b935050602061344986828701612de0565b925050604061345a86828701612e3a565b9150509250925092565b5f60c0820190506134775f830189612e8c565b6134846020830188612e8c565b6134916040830187612e8c565b61349e6060830186612e8c565b6134ab6080830185612e8c565b6134b860a0830184612e8c565b979650505050505050565b5f602082840312156134d8576134d7612db9565b5b5f6134e584828501612de0565b91505092915050565b6134f78161312b565b82525050565b61350681613146565b82525050565b5f60e08201905061351f5f83018a6134ee565b61352c60208301896134ee565b61353960408301886134fd565b6135466060830187612e8c565b6135536080830186612e8c565b61356060a0830185612e8c565b61356d60c0830184612e8c565b98975050505050505050565b5f806040838503121561358f5761358e612db9565b5b5f61359c85828601612e3a565b92505060206135ad85828601612e3a565b9150509250929050565b5f80fd5b5f60c082840312156135d0576135cf6135b7565b5b81905092915050565b5f602082840312156135ee576135ed612db9565b5b5f82013567ffffffffffffffff81111561360b5761360a612dbd565b5b613617848285016135bb565b91505092915050565b7f496e76616c696420636861696e000000000000000000000000000000000000005f82015250565b5f613654600d83612ecc565b915061365f82613620565b602082019050919050565b5f6020820190508181035f83015261368181613648565b9050919050565b7f5661756c742070617573656400000000000000000000000000000000000000005f82015250565b5f6136bc600c83612ecc565b91506136c782613688565b602082019050919050565b5f6020820190508181035f8301526136e9816136b0565b9050919050565b7f496e76616c6964207368617265730000000000000000000000000000000000005f82015250565b5f613724600e83612ecc565b915061372f826136f0565b602082019050919050565b5f6020820190508181035f83015261375181613718565b9050919050565b7f496e73756666696369656e7420736861726573000000000000000000000000005f82015250565b5f61378c601383612ecc565b915061379782613758565b602082019050919050565b5f6020820190508181035f8301526137b981613780565b9050919050565b7f4e487b71000000000000000000000000000000000000000000000000000000005f52601160045260245ffd5b5f6137f782612dc1565b915061380283612dc1565b925082820190508082111561381a576138196137c0565b5b92915050565b7f4d696e696d756d206c6f636b20706572696f64206e6f74206d657400000000005f82015250565b5f613854601b83612ecc565b915061385f82613820565b602082019050919050565b5f6020820190508181035f83015261388181613848565b9050919050565b5f61389282612dc1565b915061389d83612dc1565b92508282026138ab81612dc1565b915082820484148315176138c2576138c16137c0565b5b5092915050565b7f4e487b71000000000000000000000000000000000000000000000000000000005f52601260045260245ffd5b5f61390082612dc1565b915061390b83612dc1565b92508261391b5761391a6138c9565b5b828204905092915050565b5f61393082612dc1565b915061393b83612dc1565b9250828203905081811115613953576139526137c0565b5b92915050565b5f60408201905061396c5f830185613103565b6139796020830184612e8c565b9392505050565b61398981612faa565b8114613993575f80fd5b50565b5f815190506139a481613980565b92915050565b5f602082840312156139bf576139be612db9565b5b5f6139cc84828501613996565b91505092915050565b5f6080820190506139e85f830187612e8c565b6139f56020830186612e8c565b613a026040830185612e8c565b613a0f6060830184612e8c565b95945050505050565b7f4e487b71000000000000000000000000000000000000000000000000000000005f52602260045260245ffd5b5f6002820490506001821680613a5c57607f821691505b602082108103613a6f57613a6e613a18565b5b50919050565b7f496e76616c6964206f7261636c650000000000000000000000000000000000005f82015250565b5f613aa9600e83612ecc565b9150613ab482613a75565b602082019050919050565b5f6020820190508181035f830152613ad681613a9d565b9050919050565b7f496e76616c696420616d6f756e747300000000000000000000000000000000005f82015250565b5f613b11600f83612ecc565b9150613b1c82613add565b602082019050919050565b5f6020820190508181035f830152613b3e81613b05565b9050919050565b7f496e76616c696420726563697069656e740000000000000000000000000000005f82015250565b5f613b79601183612ecc565b9150613b8482613b45565b602082019050919050565b5f6020820190508181035f830152613ba681613b6d565b9050919050565b7f496e73756666696369656e7420696e697469616c206c697175696469747900005f82015250565b5f613be1601e83612ecc565b9150613bec82613bad565b602082019050919050565b5f6020820190508181035f830152613c0e81613bd5565b9050919050565b5f606082019050613c285f830186613103565b613c356020830185613103565b613c426040830184612e8c565b949350505050565b7f4c6f636b20706572696f6420746f6f206c6f6e670000000000000000000000005f82015250565b5f613c7e601483612ecc565b9150613c8982613c4a565b602082019050919050565b5f6020820190508181035f830152613cab81613c72565b9050919050565b7f556e617574686f72697a6564204149206f7261636c65000000000000000000005f82015250565b5f613ce6601683612ecc565b9150613cf182613cb2565b602082019050919050565b5f6020820190508181035f830152613d1381613cda565b9050919050565b7f526562616c616e636520746f6f206672657175656e74000000000000000000005f82015250565b5f613d4e601683612ecc565b9150613d5982613d1a565b602082019050919050565b5f6020820190508181035f830152613d7b81613d42565b9050919050565b613d8b8161312b565b8114613d95575f80fd5b50565b5f81359050613da681613d82565b92915050565b5f60208284031215613dc157613dc0612db9565b5b5f613dce84828501613d98565b91505092915050565b5f8160e81b9050919050565b5f613ded82613dd7565b9050919050565b613e05613e008261312b565b613de3565b82525050565b5f819050919050565b613e25613e2082612dc1565b613e0b565b82525050565b5f613e368287613df4565b600382019150613e468286613df4565b600382019150613e568285613e14565b602082019150613e668284613e14565b60208201915081905095945050505050565b7f5265717565737420616c726561647920657865637574656400000000000000005f82015250565b5f613eac601883612ecc565b9150613eb782613e78565b602082019050919050565b5f6020820190508181035f830152613ed981613ea0565b9050919050565b7f52657175657374206578706972656400000000000000000000000000000000005f82015250565b5f613f14600f83612ecc565b9150613f1f82613ee0565b602082019050919050565b5f6020820190508181035f830152613f4181613f08565b9050919050565b5f608082019050613f5b5f8301876134ee565b613f6860208301866134ee565b613f7560408301856134ee565b613f8260608301846134ee565b95945050505050565b5f81519050613f9981612dca565b92915050565b5f60208284031215613fb457613fb3612db9565b5b5f613fc184828501613f8b565b91505092915050565b5f606082019050613fdd5f830186613103565b613fea6020830185612e8c565b613ff76040830184612e8c565b94935050505056fea2646970667358221220d7210d08b9fe709003c36f9970849483f0a6aef588bc67f8add5c7ae96e70cd364736f6c63430008140033","linkReferences":{}},"methodIdentifiers":{"FEE_PRECISION()":"e63a391f","MANAGEMENT_FEE()":"5f1554e3","MIN_REBALANCE_INTERVAL()":"350e4221","PERFORMANCE_FEE()":"e93f5665","SEI_CHAIN_ID()":"c7f07447","WITHDRAWAL_FEE()":"a5d33ed5","aiOracle()":"31b221cd","allowance(address,address)":"dd62ed3e","approve(address,uint256)":"095ea7b3","balanceOf(address)":"70a08231","currentPosition()":"d534d636","customerDepositTime(address)":"460db2a8","customerTotalDeposited(address)":"2ad334e4","customerTotalWithdrawn(address)":"485d2edc","decimals()":"313ce567","deposit(uint256,uint256,address)":"8dbdbe6d","distributeYield()":"8a570a12","emergencyPause()":"51858e27","emergencyPaused()":"27c830a9","executedAIRequests(bytes32)":"205134ce","getCurrentPosition()":"418f35cc","getCustomerStats(address)":"cea7b63b","getVaultInfo()":"7f98aa71","lastPerformanceFeeCollection()":"16e9b26c","lastRebalance()":"106b9ca1","minimumLockPeriod()":"e876d4ea","name()":"06fdde03","owner()":"8da5cb5b","rebalance((int24,int24,uint256,uint256,uint256,bytes))":"fa95e4da","renounceOwnership()":"715018a6","resume()":"046f7da2","setMinimumLockPeriod(uint256)":"cf04a19d","symbol()":"95d89b41","totalFeesCollected()":"60c6d8ae","totalSupply()":"18160ddd","totalYieldGenerated()":"8c825056","transfer(address,uint256)":"a9059cbb","transferFrom(address,address,uint256)":"23b872dd","transferOwnership(address)":"f2fde38b","updateAIOracle(address)":"3f2df4ad","vaultInfo()":"501ec738","withdraw(uint256,address)":"00f714ce"},"id":35}