{"abi":[{"type":"constructor","inputs":[{"name":"initialOwner","type":"address","internalType":"address"}],"stateMutability":"nonpayable"},{"type":"function","name":"SEI_CHAIN_ID","inputs":[],"outputs":[{"name":"","type":"uint256","internalType":"uint256"}],"stateMutability":"view"},{"type":"function","name":"activeModels","inputs":[{"name":"","type":"uint256","internalType":"uint256"}],"outputs":[{"name":"","type":"string","internalType":"string"}],"stateMutability":"view"},{"type":"function","name":"aiModels","inputs":[{"name":"","type":"string","internalType":"string"}],"outputs":[{"name":"version","type":"string","internalType":"string"},{"name":"signer","type":"address","internalType":"address"},{"name":"isActive","type":"bool","internalType":"bool"},{"name":"successRate","type":"uint256","internalType":"uint256"},{"name":"totalRequests","type":"uint256","internalType":"uint256"}],"stateMutability":"view"},{"type":"function","name":"averageExecutionTime","inputs":[],"outputs":[{"name":"","type":"uint256","internalType":"uint256"}],"stateMutability":"view"},{"type":"function","name":"deactivateModel","inputs":[{"name":"model","type":"string","internalType":"string"}],"outputs":[],"stateMutability":"nonpayable"},{"type":"function","name":"executeRebalanceRequest","inputs":[{"name":"requestId","type":"bytes32","internalType":"bytes32"},{"name":"model","type":"string","internalType":"string"}],"outputs":[{"name":"success","type":"bool","internalType":"bool"}],"stateMutability":"nonpayable"},{"type":"function","name":"getModelPerformance","inputs":[{"name":"model","type":"string","internalType":"string"}],"outputs":[{"name":"successRate","type":"uint256","internalType":"uint256"},{"name":"modelTotalRequests","type":"uint256","internalType":"uint256"},{"name":"isActive","type":"bool","internalType":"bool"}],"stateMutability":"view"},{"type":"function","name":"owner","inputs":[],"outputs":[{"name":"","type":"address","internalType":"address"}],"stateMutability":"view"},{"type":"function","name":"primaryModel","inputs":[],"outputs":[{"name":"","type":"string","internalType":"string"}],"stateMutability":"view"},{"type":"function","name":"registerAIModel","inputs":[{"name":"model","type":"string","internalType":"string"},{"name":"signer","type":"address","internalType":"address"}],"outputs":[],"stateMutability":"nonpayable"},{"type":"function","name":"renounceOwnership","inputs":[],"outputs":[],"stateMutability":"nonpayable"},{"type":"function","name":"requests","inputs":[{"name":"","type":"bytes32","internalType":"bytes32"}],"outputs":[{"name":"vault","type":"address","internalType":"address"},{"name":"newTickLower","type":"int24","internalType":"int24"},{"name":"newTickUpper","type":"int24","internalType":"int24"},{"name":"confidence","type":"uint256","internalType":"uint256"},{"name":"timestamp","type":"uint256","internalType":"uint256"},{"name":"deadline","type":"uint256","internalType":"uint256"},{"name":"executed","type":"bool","internalType":"bool"}],"stateMutability":"view"},{"type":"function","name":"setPrimaryModel","inputs":[{"name":"model","type":"string","internalType":"string"}],"outputs":[],"stateMutability":"nonpayable"},{"type":"function","name":"submitRebalanceRequest","inputs":[{"name":"vault","type":"address","internalType":"address"},{"name":"newTickLower","type":"int24","internalType":"int24"},{"name":"newTickUpper","type":"int24","internalType":"int24"},{"name":"confidence","type":"uint256","internalType":"uint256"},{"name":"deadline","type":"uint256","internalType":"uint256"},{"name":"model","type":"string","internalType":"string"},{"name":"signature","type":"bytes","internalType":"bytes"}],"outputs":[{"name":"requestId","type":"bytes32","internalType":"bytes32"}],"stateMutability":"nonpayable"},{"type":"function","name":"successfulRequests","inputs":[],"outputs":[{"name":"","type":"uint256","internalType":"uint256"}],"stateMutability":"view"},{"type":"function","name":"totalRequests","inputs":[],"outputs":[{"name":"","type":"uint256","internalType":"uint256"}],"stateMutability":"view"},{"type":"function","name":"transferOwnership","inputs":[{"name":"newOwner","type":"address","internalType":"address"}],"outputs":[],"stateMutability":"nonpayable"},{"type":"function","name":"vaultRequestCount","inputs":[{"name":"","type":"address","internalType":"address"}],"outputs":[{"name":"","type":"uint256","internalType":"uint256"}],"stateMutability":"view"},{"type":"event","name":"AIRequestExecuted","inputs":[{"name":"requestId","type":"bytes32","indexed":true,"internalType":"bytes32"},{"name":"success","type":"bool","indexed":false,"internalType":"bool"},{"name":"gasUsed","type":"uint256","indexed":false,"internalType":"uint256"}],"anonymous":false},{"type":"event","name":"AIRequestSubmitted","inputs":[{"name":"requestId","type":"bytes32","indexed":true,"internalType":"bytes32"},{"name":"vault","type":"address","indexed":true,"internalType":"address"},{"name":"model","type":"string","indexed":false,"internalType":"string"}],"anonymous":false},{"type":"event","name":"ModelDeactivated","inputs":[{"name":"model","type":"string","indexed":false,"internalType":"string"}],"anonymous":false},{"type":"event","name":"ModelRegistered","inputs":[{"name":"model","type":"string","indexed":false,"internalType":"string"},{"name":"signer","type":"address","indexed":false,"internalType":"address"}],"anonymous":false},{"type":"event","name":"OwnershipTransferred","inputs":[{"name":"previousOwner","type":"address","indexed":true,"internalType":"address"},{"name":"newOwner","type":"address","indexed":true,"internalType":"address"}],"anonymous":false},{"type":"error","name":"ECDSAInvalidSignature","inputs":[]},{"type":"error","name":"ECDSAInvalidSignatureLength","inputs":[{"name":"length","type":"uint256","internalType":"uint256"}]},{"type":"error","name":"ECDSAInvalidSignatureS","inputs":[{"name":"s","type":"bytes32","internalType":"bytes32"}]},{"type":"error","name":"InvalidChain","inputs":[]},{"type":"error","name":"InvalidSigner","inputs":[]},{"type":"error","name":"OwnableInvalidOwner","inputs":[{"name":"owner","type":"address","internalType":"address"}]},{"type":"error","name":"OwnableUnauthorizedAccount","inputs":[{"name":"account","type":"address","internalType":"address"}]},{"type":"error","name":"ReentrancyGuardReentrantCall","inputs":[]},{"type":"error","name":"RequestAlreadyExecuted","inputs":[]},{"type":"error","name":"RequestExpired","inputs":[]},{"type":"error","name":"RequestNotFound","inputs":[]}],"bytecode":{"object":"0x608060405234801561000f575f5ffd5b506040516134fc3803806134fc83398181016040528101906100319190610223565b805f73ffffffffffffffffffffffffffffffffffffffff168173ffffffffffffffffffffffffffffffffffffffff16036100a2575f6040517f1e4fbdf7000000000000000000000000000000000000000000000000000000008152600401610099919061025d565b60405180910390fd5b6100b18161010460201b60201c565b5060018081905550620ae3f346146100fe576040517f08c379a00000000000000000000000000000000000000000000000000000000081526004016100f5906102d0565b60405180910390fd5b506102ee565b5f5f5f9054906101000a900473ffffffffffffffffffffffffffffffffffffffff169050815f5f6101000a81548173ffffffffffffffffffffffffffffffffffffffff021916908373ffffffffffffffffffffffffffffffffffffffff1602179055508173ffffffffffffffffffffffffffffffffffffffff168173ffffffffffffffffffffffffffffffffffffffff167f8be0079c531659141344cd1fd0a4f28419497f9722a3daafe3b4186f6b6457e060405160405180910390a35050565b5f5ffd5b5f73ffffffffffffffffffffffffffffffffffffffff82169050919050565b5f6101f2826101c9565b9050919050565b610202816101e8565b811461020c575f5ffd5b50565b5f8151905061021d816101f9565b92915050565b5f60208284031215610238576102376101c5565b5b5f6102458482850161020f565b91505092915050565b610257816101e8565b82525050565b5f6020820190506102705f83018461024e565b92915050565b5f82825260208201905092915050565b7f496e76616c696420636861696e000000000000000000000000000000000000005f82015250565b5f6102ba600d83610276565b91506102c582610286565b602082019050919050565b5f6020820190508181035f8301526102e7816102ae565b9050919050565b613201806102fb5f395ff3fe608060405234801561000f575f5ffd5b5060043610610114575f3560e01c80638ec6901d116100a0578063d7beb4b91161006f578063d7beb4b9146102d4578063d8be708514610304578063f03e748a14610338578063f2fde38b14610354578063f6d929ff1461037057610114565b80638ec6901d146102205780639d86698514610250578063c7f0744714610286578063d3d0d168146102a457610114565b80636c36a1b1116100e75780636c36a1b11461018c578063715018a6146101aa5780638aea61dc146101b45780638da5cb5b146101d25780638e8690bf146101f057610114565b8063504e3c691461011857806352823042146101345780635fe9aef31461015057806367ba100a1461016e575b5f5ffd5b610132600480360381019061012d9190611c44565b6103a2565b005b61014e60048036038101906101499190611ce9565b610430565b005b6101586106ee565b6040516101659190611db6565b60405180910390f35b61017661077a565b6040516101839190611dee565b60405180910390f35b610194610780565b6040516101a19190611dee565b60405180910390f35b6101b2610786565b005b6101bc610799565b6040516101c99190611dee565b60405180910390f35b6101da61079f565b6040516101e79190611e16565b60405180910390f35b61020a60048036038101906102059190611e59565b6107c6565b6040516102179190611db6565b60405180910390f35b61023a60048036038101906102359190611f0f565b61086c565b6040516102479190612003565b60405180910390f35b61026a60048036038101906102659190612046565b610eac565b60405161027d979695949392919061209a565b60405180910390f35b61028e610f2d565b60405161029b9190611dee565b60405180910390f35b6102be60048036038101906102b99190612107565b610f34565b6040516102cb9190612164565b60405180910390f35b6102ee60048036038101906102e9919061217d565b611353565b6040516102fb9190611dee565b60405180910390f35b61031e600480360381019061031991906122d0565b611368565b60405161032f959493929190612317565b60405180910390f35b610352600480360381019061034d9190611c44565b611464565b005b61036e6004803603810190610369919061217d565b611554565b005b61038a60048036038101906103859190611c44565b6115d8565b6040516103999392919061236f565b60405180910390f35b6103aa611739565b600282826040516103bc9291906123d2565b908152602001604051809103902060010160149054906101000a900460ff1661041a576040517f08c379a000000000000000000000000000000000000000000000000000000000815260040161041190612434565b60405180910390fd5b81816004918261042b929190612659565b505050565b610438611739565b5f73ffffffffffffffffffffffffffffffffffffffff168173ffffffffffffffffffffffffffffffffffffffff16036104a6576040517f08c379a000000000000000000000000000000000000000000000000000000000815260040161049d90612770565b60405180910390fd5b600283836040516104b89291906123d2565b908152602001604051809103902060010160149054906101000a900460ff1615610517576040517f08c379a000000000000000000000000000000000000000000000000000000000815260040161050e906127d8565b60405180910390fd5b6040518060a0016040528084848080601f0160208091040260200160405190810160405280939291908181526020018383808284375f81840152601f19601f8201169050808301925050505050505081526020018273ffffffffffffffffffffffffffffffffffffffff1681526020016001151581526020015f81526020015f815250600284846040516105ac9291906123d2565b90815260200160405180910390205f820151815f0190816105cd91906127f6565b506020820151816001015f6101000a81548173ffffffffffffffffffffffffffffffffffffffff021916908373ffffffffffffffffffffffffffffffffffffffff16021790555060408201518160010160146101000a81548160ff02191690831515021790555060608201518160020155608082015181600301559050506003838390918060018154018082558091505060019003905f5260205f20015f909192909192909192909192509182610685929190612659565b505f6004805461069490612489565b9050036106ae578282600491826106ac929190612659565b505b7ffb136e664a5a095e1220d33773fe2d825de4095dfb4fb5d0515927a1448745838383836040516106e1939291906128f1565b60405180910390a1505050565b600480546106fb90612489565b80601f016020809104026020016040519081016040528092919081815260200182805461072790612489565b80156107725780601f1061074957610100808354040283529160200191610772565b820191905f5260205f20905b81548152906001019060200180831161075557829003601f168201915b505050505081565b60085481565b60095481565b61078e611739565b6107975f6117c0565b565b60075481565b5f5f5f9054906101000a900473ffffffffffffffffffffffffffffffffffffffff16905090565b600381815481106107d5575f80fd5b905f5260205f20015f9150905080546107ed90612489565b80601f016020809104026020016040519081016040528092919081815260200182805461081990612489565b80156108645780601f1061083b57610100808354040283529160200191610864565b820191905f5260205f20905b81548152906001019060200180831161084757829003601f168201915b505050505081565b5f620ae3f346146108b2576040517f08c379a00000000000000000000000000000000000000000000000000000000081526004016108a99061296b565b60405180910390fd5b8484600282826040516108c69291906123d2565b908152602001604051809103902060010160149054906101000a900460ff16610924576040517f08c379a000000000000000000000000000000000000000000000000000000000815260040161091b90612434565b60405180910390fd5b5f73ffffffffffffffffffffffffffffffffffffffff168c73ffffffffffffffffffffffffffffffffffffffff1603610992576040517f08c379a0000000000000000000000000000000000000000000000000000000008152600401610989906129d3565b60405180910390fd5b4288116109d4576040517f08c379a00000000000000000000000000000000000000000000000000000000081526004016109cb90612a3b565b60405180910390fd5b612710891115610a19576040517f08c379a0000000000000000000000000000000000000000000000000000000008152600401610a1090612aa3565b60405180910390fd5b8b8b8b8b4233604051602001610a3496959493929190612b5a565b6040516020818303038152906040528051906020012092505f73ffffffffffffffffffffffffffffffffffffffff1660055f8581526020019081526020015f205f015f9054906101000a900473ffffffffffffffffffffffffffffffffffffffff1673ffffffffffffffffffffffffffffffffffffffff1614610aec576040517f08c379a0000000000000000000000000000000000000000000000000000000008152600401610ae390612c13565b60405180910390fd5b60418585905014610b32576040517f08c379a0000000000000000000000000000000000000000000000000000000008152600401610b2990612c7b565b60405180910390fd5b5f610b6a8d8d8d8d8d604051602001610b4f959493929190612c99565b60405160208183030381529060405280519060200120611881565b90505f610bc387878080601f0160208091040260200160405190810160405280939291908181526020018383808284375f81840152601f19601f82011690508083019250505050505050836118b490919063ffffffff16565b905060028989604051610bd79291906123d2565b90815260200160405180910390206001015f9054906101000a900473ffffffffffffffffffffffffffffffffffffffff1673ffffffffffffffffffffffffffffffffffffffff168173ffffffffffffffffffffffffffffffffffffffff1614610c75576040517f08c379a0000000000000000000000000000000000000000000000000000000008152600401610c6c90612c7b565b60405180910390fd5b6040518060e001604052808f73ffffffffffffffffffffffffffffffffffffffff1681526020018e60020b81526020018d60020b81526020018c81526020014281526020018b81526020015f151581525060055f8781526020019081526020015f205f820151815f015f6101000a81548173ffffffffffffffffffffffffffffffffffffffff021916908373ffffffffffffffffffffffffffffffffffffffff1602179055506020820151815f0160146101000a81548162ffffff021916908360020b62ffffff1602179055506040820151815f0160176101000a81548162ffffff021916908360020b62ffffff160217905550606082015181600101556080820151816002015560a0820151816003015560c0820151816004015f6101000a81548160ff02191690831515021790555090505060065f8f73ffffffffffffffffffffffffffffffffffffffff1673ffffffffffffffffffffffffffffffffffffffff1681526020019081526020015f205f815480929190610df690612d24565b919050555060075f815480929190610e0d90612d24565b919050555060028989604051610e249291906123d2565b90815260200160405180910390206003015f815480929190610e4590612d24565b91905055508d73ffffffffffffffffffffffffffffffffffffffff16857f44373028788bc5137f4aa7a5ff12a286919a85d17ca7c8be5422f9236278b23e8b8b604051610e93929190612d6b565b60405180910390a3505050509998505050505050505050565b6005602052805f5260405f205f91509050805f015f9054906101000a900473ffffffffffffffffffffffffffffffffffffffff1690805f0160149054906101000a900460020b90805f0160179054906101000a900460020b90806001015490806002015490806003015490806004015f9054906101000a900460ff16905087565b620ae3f381565b5f620ae3f34614610f7a576040517f08c379a0000000000000000000000000000000000000000000000000000000008152600401610f719061296b565b60405180910390fd5b610f826118de565b5f60055f8681526020019081526020015f2090505f73ffffffffffffffffffffffffffffffffffffffff16815f015f9054906101000a900473ffffffffffffffffffffffffffffffffffffffff1673ffffffffffffffffffffffffffffffffffffffff1603611026576040517f08c379a000000000000000000000000000000000000000000000000000000000815260040161101d90612dd7565b60405180910390fd5b806004015f9054906101000a900460ff1615611077576040517f08c379a000000000000000000000000000000000000000000000000000000000815260040161106e90612e3f565b60405180910390fd5b80600301544211156110be576040517f08c379a00000000000000000000000000000000000000000000000000000000081526004016110b590612ea7565b60405180910390fd5b5f5a90506001826004015f6101000a81548160ff021916908315150217905550815f015f9054906101000a900473ffffffffffffffffffffffffffffffffffffffff1673ffffffffffffffffffffffffffffffffffffffff1663fa95e4da6040518060c00160405280855f0160149054906101000a900460020b60020b8152602001855f0160179054906101000a900460020b60020b81526020015f81526020015f815260200185600301548152602001896040516020016111809190612ee5565b6040516020818303038152906040528152506040518263ffffffff1660e01b81526004016111ae9190612ff5565b5f604051808303815f87803b1580156111c5575f5ffd5b505af19250505080156111d6575060015b6111e2575f92506112be565b6001925060085f8154809291906111f890612d24565b91905055506002858560405161120f9291906123d2565b9081526020016040518091039020600301546127106001600288886040516112389291906123d2565b9081526020016040518091039020600301546112549190613015565b600288886040516112669291906123d2565b9081526020016040518091039020600201546112829190613048565b61128c9190613089565b61129691906130e9565b600286866040516112a89291906123d2565b9081526020016040518091039020600201819055505b5f5a826112cb9190613015565b90506007548160016007546112e09190613015565b6009546112ed9190613048565b6112f79190613089565b61130191906130e9565b600981905550867f83f75c2051ff1fa3772836bb161fb2ebc9038d05c2261d03670bdd0653cd208d8583604051611339929190613119565b60405180910390a250505061134c611924565b9392505050565b6006602052805f5260405f205f915090505481565b6002818051602081018201805184825260208301602085012081835280955050505050505f91509050805f01805461139f90612489565b80601f01602080910402602001604051908101604052809291908181526020018280546113cb90612489565b80156114165780601f106113ed57610100808354040283529160200191611416565b820191905f5260205f20905b8154815290600101906020018083116113f957829003601f168201915b505050505090806001015f9054906101000a900473ffffffffffffffffffffffffffffffffffffffff16908060010160149054906101000a900460ff16908060020154908060030154905085565b61146c611739565b6002828260405161147e9291906123d2565b908152602001604051809103902060010160149054906101000a900460ff166114dc576040517f08c379a00000000000000000000000000000000000000000000000000000000081526004016114d390612434565b60405180910390fd5b5f600283836040516114ef9291906123d2565b908152602001604051809103902060010160146101000a81548160ff0219169083151502179055507f6fbb2d84fb8edc4cf6136f5ba4120b761a531bcfa395f797ce1ea9941565a04f8282604051611548929190612d6b565b60405180910390a15050565b61155c611739565b5f73ffffffffffffffffffffffffffffffffffffffff168173ffffffffffffffffffffffffffffffffffffffff16036115cc575f6040517f1e4fbdf70000000000000000000000000000000000000000000000000000000081526004016115c39190611e16565b60405180910390fd5b6115d5816117c0565b50565b5f5f5f5f600286866040516115ee9291906123d2565b90815260200160405180910390206040518060a00160405290815f8201805461161690612489565b80601f016020809104026020016040519081016040528092919081815260200182805461164290612489565b801561168d5780601f106116645761010080835404028352916020019161168d565b820191905f5260205f20905b81548152906001019060200180831161167057829003601f168201915b50505050508152602001600182015f9054906101000a900473ffffffffffffffffffffffffffffffffffffffff1673ffffffffffffffffffffffffffffffffffffffff1673ffffffffffffffffffffffffffffffffffffffff1681526020016001820160149054906101000a900460ff16151515158152602001600282015481526020016003820154815250509050806060015181608001518260400151935093509350509250925092565b61174161192d565b73ffffffffffffffffffffffffffffffffffffffff1661175f61079f565b73ffffffffffffffffffffffffffffffffffffffff16146117be5761178261192d565b6040517f118cdaa70000000000000000000000000000000000000000000000000000000081526004016117b59190611e16565b60405180910390fd5b565b5f5f5f9054906101000a900473ffffffffffffffffffffffffffffffffffffffff169050815f5f6101000a81548173ffffffffffffffffffffffffffffffffffffffff021916908373ffffffffffffffffffffffffffffffffffffffff1602179055508173ffffffffffffffffffffffffffffffffffffffff168173ffffffffffffffffffffffffffffffffffffffff167f8be0079c531659141344cd1fd0a4f28419497f9722a3daafe3b4186f6b6457e060405160405180910390a35050565b5f7f19457468657265756d205369676e6564204d6573736167653a0a3332000000005f5281601c52603c5f209050919050565b5f5f5f5f6118c28686611934565b9250925092506118d28282611989565b82935050505092915050565b60026001540361191a576040517f3ee5aeb500000000000000000000000000000000000000000000000000000000815260040160405180910390fd5b6002600181905550565b60018081905550565b5f33905090565b5f5f5f6041845103611974575f5f5f602087015192506040870151915060608701515f1a905061196688828585611aeb565b955095509550505050611982565b5f600285515f1b9250925092505b9250925092565b5f600381111561199c5761199b613140565b5b8260038111156119af576119ae613140565b5b0315611ae757600160038111156119c9576119c8613140565b5b8260038111156119dc576119db613140565b5b03611a13576040517ff645eedf00000000000000000000000000000000000000000000000000000000815260040160405180910390fd5b60026003811115611a2757611a26613140565b5b826003811115611a3a57611a39613140565b5b03611a7e57805f1c6040517ffce698f7000000000000000000000000000000000000000000000000000000008152600401611a759190611dee565b60405180910390fd5b600380811115611a9157611a90613140565b5b826003811115611aa457611aa3613140565b5b03611ae657806040517fd78bce0c000000000000000000000000000000000000000000000000000000008152600401611add9190612003565b60405180910390fd5b5b5050565b5f5f5f7f7fffffffffffffffffffffffffffffff5d576e7357a4501ddfe92f46681b20a0845f1c1115611b27575f600385925092509250611bc8565b5f6001888888886040515f8152602001604052604051611b4a9493929190613188565b6020604051602081039080840390855afa158015611b6a573d5f5f3e3d5ffd5b5050506020604051035190505f73ffffffffffffffffffffffffffffffffffffffff168173ffffffffffffffffffffffffffffffffffffffff1603611bbb575f60015f5f1b93509350935050611bc8565b805f5f5f1b935093509350505b9450945094915050565b5f604051905090565b5f5ffd5b5f5ffd5b5f5ffd5b5f5ffd5b5f5ffd5b5f5f83601f840112611c0457611c03611be3565b5b8235905067ffffffffffffffff811115611c2157611c20611be7565b5b602083019150836001820283011115611c3d57611c3c611beb565b5b9250929050565b5f5f60208385031215611c5a57611c59611bdb565b5b5f83013567ffffffffffffffff811115611c7757611c76611bdf565b5b611c8385828601611bef565b92509250509250929050565b5f73ffffffffffffffffffffffffffffffffffffffff82169050919050565b5f611cb882611c8f565b9050919050565b611cc881611cae565b8114611cd2575f5ffd5b50565b5f81359050611ce381611cbf565b92915050565b5f5f5f60408486031215611d0057611cff611bdb565b5b5f84013567ffffffffffffffff811115611d1d57611d1c611bdf565b5b611d2986828701611bef565b93509350506020611d3c86828701611cd5565b9150509250925092565b5f81519050919050565b5f82825260208201905092915050565b8281835e5f83830152505050565b5f601f19601f8301169050919050565b5f611d8882611d46565b611d928185611d50565b9350611da2818560208601611d60565b611dab81611d6e565b840191505092915050565b5f6020820190508181035f830152611dce8184611d7e565b905092915050565b5f819050919050565b611de881611dd6565b82525050565b5f602082019050611e015f830184611ddf565b92915050565b611e1081611cae565b82525050565b5f602082019050611e295f830184611e07565b92915050565b611e3881611dd6565b8114611e42575f5ffd5b50565b5f81359050611e5381611e2f565b92915050565b5f60208284031215611e6e57611e6d611bdb565b5b5f611e7b84828501611e45565b91505092915050565b5f8160020b9050919050565b611e9981611e84565b8114611ea3575f5ffd5b50565b5f81359050611eb481611e90565b92915050565b5f5f83601f840112611ecf57611ece611be3565b5b8235905067ffffffffffffffff811115611eec57611eeb611be7565b5b602083019150836001820283011115611f0857611f07611beb565b5b9250929050565b5f5f5f5f5f5f5f5f5f60e08a8c031215611f2c57611f2b611bdb565b5b5f611f398c828d01611cd5565b9950506020611f4a8c828d01611ea6565b9850506040611f5b8c828d01611ea6565b9750506060611f6c8c828d01611e45565b9650506080611f7d8c828d01611e45565b95505060a08a013567ffffffffffffffff811115611f9e57611f9d611bdf565b5b611faa8c828d01611bef565b945094505060c08a013567ffffffffffffffff811115611fcd57611fcc611bdf565b5b611fd98c828d01611eba565b92509250509295985092959850929598565b5f819050919050565b611ffd81611feb565b82525050565b5f6020820190506120165f830184611ff4565b92915050565b61202581611feb565b811461202f575f5ffd5b50565b5f813590506120408161201c565b92915050565b5f6020828403121561205b5761205a611bdb565b5b5f61206884828501612032565b91505092915050565b61207a81611e84565b82525050565b5f8115159050919050565b61209481612080565b82525050565b5f60e0820190506120ad5f83018a611e07565b6120ba6020830189612071565b6120c76040830188612071565b6120d46060830187611ddf565b6120e16080830186611ddf565b6120ee60a0830185611ddf565b6120fb60c083018461208b565b98975050505050505050565b5f5f5f6040848603121561211e5761211d611bdb565b5b5f61212b86828701612032565b935050602084013567ffffffffffffffff81111561214c5761214b611bdf565b5b61215886828701611bef565b92509250509250925092565b5f6020820190506121775f83018461208b565b92915050565b5f6020828403121561219257612191611bdb565b5b5f61219f84828501611cd5565b91505092915050565b5f5ffd5b7f4e487b71000000000000000000000000000000000000000000000000000000005f52604160045260245ffd5b6121e282611d6e565b810181811067ffffffffffffffff82111715612201576122006121ac565b5b80604052505050565b5f612213611bd2565b905061221f82826121d9565b919050565b5f67ffffffffffffffff82111561223e5761223d6121ac565b5b61224782611d6e565b9050602081019050919050565b828183375f83830152505050565b5f61227461226f84612224565b61220a565b9050828152602081018484840111156122905761228f6121a8565b5b61229b848285612254565b509392505050565b5f82601f8301126122b7576122b6611be3565b5b81356122c7848260208601612262565b91505092915050565b5f602082840312156122e5576122e4611bdb565b5b5f82013567ffffffffffffffff81111561230257612301611bdf565b5b61230e848285016122a3565b91505092915050565b5f60a0820190508181035f83015261232f8188611d7e565b905061233e6020830187611e07565b61234b604083018661208b565b6123586060830185611ddf565b6123656080830184611ddf565b9695505050505050565b5f6060820190506123825f830186611ddf565b61238f6020830185611ddf565b61239c604083018461208b565b949350505050565b5f81905092915050565b5f6123b983856123a4565b93506123c6838584612254565b82840190509392505050565b5f6123de8284866123ae565b91508190509392505050565b7f4d6f64656c206e6f7420616374697665000000000000000000000000000000005f82015250565b5f61241e601083611d50565b9150612429826123ea565b602082019050919050565b5f6020820190508181035f83015261244b81612412565b9050919050565b5f82905092915050565b7f4e487b71000000000000000000000000000000000000000000000000000000005f52602260045260245ffd5b5f60028204905060018216806124a057607f821691505b6020821081036124b3576124b261245c565b5b50919050565b5f819050815f5260205f209050919050565b5f6020601f8301049050919050565b5f82821b905092915050565b5f600883026125157fffffffffffffffffffffffffffffffffffffffffffffffffffffffffffffffff826124da565b61251f86836124da565b95508019841693508086168417925050509392505050565b5f819050919050565b5f61255a61255561255084611dd6565b612537565b611dd6565b9050919050565b5f819050919050565b61257383612540565b61258761257f82612561565b8484546124e6565b825550505050565b5f5f905090565b61259e61258f565b6125a981848461256a565b505050565b5b818110156125cc576125c15f82612596565b6001810190506125af565b5050565b601f821115612611576125e2816124b9565b6125eb846124cb565b810160208510156125fa578190505b61260e612606856124cb565b8301826125ae565b50505b505050565b5f82821c905092915050565b5f6126315f1984600802612616565b1980831691505092915050565b5f6126498383612622565b9150826002028217905092915050565b6126638383612452565b67ffffffffffffffff81111561267c5761267b6121ac565b5b6126868254612489565b6126918282856125d0565b5f601f8311600181146126be575f84156126ac578287013590505b6126b6858261263e565b86555061271d565b601f1984166126cc866124b9565b5f5b828110156126f3578489013582556001820191506020850194506020810190506126ce565b86831015612710578489013561270c601f891682612622565b8355505b6001600288020188555050505b50505050505050565b7f496e76616c6964207369676e65720000000000000000000000000000000000005f82015250565b5f61275a600e83611d50565b915061276582612726565b602082019050919050565b5f6020820190508181035f8301526127878161274e565b9050919050565b7f4d6f64656c20616c7265616479206163746976650000000000000000000000005f82015250565b5f6127c2601483611d50565b91506127cd8261278e565b602082019050919050565b5f6020820190508181035f8301526127ef816127b6565b9050919050565b6127ff82611d46565b67ffffffffffffffff811115612818576128176121ac565b5b6128228254612489565b61282d8282856125d0565b5f60209050601f83116001811461285e575f841561284c578287015190505b612856858261263e565b8655506128bd565b601f19841661286c866124b9565b5f5b828110156128935784890151825560018201915060208501945060208101905061286e565b868310156128b057848901516128ac601f891682612622565b8355505b6001600288020188555050505b505050505050565b5f6128d08385611d50565b93506128dd838584612254565b6128e683611d6e565b840190509392505050565b5f6040820190508181035f83015261290a8185876128c5565b90506129196020830184611e07565b949350505050565b7f496e76616c696420636861696e000000000000000000000000000000000000005f82015250565b5f612955600d83611d50565b915061296082612921565b602082019050919050565b5f6020820190508181035f83015261298281612949565b9050919050565b7f496e76616c6964207661756c74000000000000000000000000000000000000005f82015250565b5f6129bd600d83611d50565b91506129c882612989565b602082019050919050565b5f6020820190508181035f8301526129ea816129b1565b9050919050565b7f496e76616c696420646561646c696e65000000000000000000000000000000005f82015250565b5f612a25601083611d50565b9150612a30826129f1565b602082019050919050565b5f6020820190508181035f830152612a5281612a19565b9050919050565b7f496e76616c696420636f6e666964656e636500000000000000000000000000005f82015250565b5f612a8d601283611d50565b9150612a9882612a59565b602082019050919050565b5f6020820190508181035f830152612aba81612a81565b9050919050565b5f8160601b9050919050565b5f612ad782612ac1565b9050919050565b5f612ae882612acd565b9050919050565b612b00612afb82611cae565b612ade565b82525050565b5f8160e81b9050919050565b5f612b1c82612b06565b9050919050565b612b34612b2f82611e84565b612b12565b82525050565b5f819050919050565b612b54612b4f82611dd6565b612b3a565b82525050565b5f612b658289612aef565b601482019150612b758288612b23565b600382019150612b858287612b23565b600382019150612b958286612b43565b602082019150612ba58285612b43565b602082019150612bb58284612aef565b601482019150819050979650505050505050565b7f52657175657374206578697374730000000000000000000000000000000000005f82015250565b5f612bfd600e83611d50565b9150612c0882612bc9565b602082019050919050565b5f6020820190508181035f830152612c2a81612bf1565b9050919050565b7f496e76616c6964204149207369676e61747572650000000000000000000000005f82015250565b5f612c65601483611d50565b9150612c7082612c31565b602082019050919050565b5f6020820190508181035f830152612c9281612c59565b9050919050565b5f612ca48288612aef565b601482019150612cb48287612b23565b600382019150612cc48286612b23565b600382019150612cd48285612b43565b602082019150612ce48284612b43565b6020820191508190509695505050505050565b7f4e487b71000000000000000000000000000000000000000000000000000000005f52601160045260245ffd5b5f612d2e82611dd6565b91507fffffffffffffffffffffffffffffffffffffffffffffffffffffffffffffffff8203612d6057612d5f612cf7565b5b600182019050919050565b5f6020820190508181035f830152612d848184866128c5565b90509392505050565b7f52657175657374206e6f7420666f756e640000000000000000000000000000005f82015250565b5f612dc1601183611d50565b9150612dcc82612d8d565b602082019050919050565b5f6020820190508181035f830152612dee81612db5565b9050919050565b7f416c7265616479206578656375746564000000000000000000000000000000005f82015250565b5f612e29601083611d50565b9150612e3482612df5565b602082019050919050565b5f6020820190508181035f830152612e5681612e1d565b9050919050565b7f52657175657374206578706972656400000000000000000000000000000000005f82015250565b5f612e91600f83611d50565b9150612e9c82612e5d565b602082019050919050565b5f6020820190508181035f830152612ebe81612e85565b9050919050565b5f819050919050565b612edf612eda82611feb565b612ec5565b82525050565b5f612ef08284612ece565b60208201915081905092915050565b612f0881611e84565b82525050565b612f1781611dd6565b82525050565b5f81519050919050565b5f82825260208201905092915050565b5f612f4182612f1d565b612f4b8185612f27565b9350612f5b818560208601611d60565b612f6481611d6e565b840191505092915050565b5f60c083015f830151612f845f860182612eff565b506020830151612f976020860182612eff565b506040830151612faa6040860182612f0e565b506060830151612fbd6060860182612f0e565b506080830151612fd06080860182612f0e565b5060a083015184820360a0860152612fe88282612f37565b9150508091505092915050565b5f6020820190508181035f83015261300d8184612f6f565b905092915050565b5f61301f82611dd6565b915061302a83611dd6565b925082820390508181111561304257613041612cf7565b5b92915050565b5f61305282611dd6565b915061305d83611dd6565b925082820261306b81611dd6565b9150828204841483151761308257613081612cf7565b5b5092915050565b5f61309382611dd6565b915061309e83611dd6565b92508282019050808211156130b6576130b5612cf7565b5b92915050565b7f4e487b71000000000000000000000000000000000000000000000000000000005f52601260045260245ffd5b5f6130f382611dd6565b91506130fe83611dd6565b92508261310e5761310d6130bc565b5b828204905092915050565b5f60408201905061312c5f83018561208b565b6131396020830184611ddf565b9392505050565b7f4e487b71000000000000000000000000000000000000000000000000000000005f52602160045260245ffd5b5f60ff82169050919050565b6131828161316d565b82525050565b5f60808201905061319b5f830187611ff4565b6131a86020830186613179565b6131b56040830185611ff4565b6131c26060830184611ff4565b9594505050505056fea264697066735822122097dd8f2d50517129d21eb5481ce6bd52432d090645128267aed72e707d3ec47f64736f6c634300081e0033","linkReferences":{}},"methodIdentifiers":{"SEI_CHAIN_ID()":"c7f07447","activeModels(uint256)":"8e8690bf","aiModels(string)":"d8be7085","averageExecutionTime()":"6c36a1b1","deactivateModel(string)":"f03e748a","executeRebalanceRequest(bytes32,string)":"d3d0d168","getModelPerformance(string)":"f6d929ff","owner()":"8da5cb5b","primaryModel()":"5fe9aef3","registerAIModel(string,address)":"52823042","renounceOwnership()":"715018a6","requests(bytes32)":"9d866985","setPrimaryModel(string)":"504e3c69","submitRebalanceRequest(address,int24,int24,uint256,uint256,string,bytes)":"8ec6901d","successfulRequests()":"67ba100a","totalRequests()":"8aea61dc","transferOwnership(address)":"f2fde38b","vaultRequestCount(address)":"d7beb4b9"},"id":33}