{"abi":[{"type":"constructor","inputs":[{"name":"_token0","type":"address","internalType":"address"},{"name":"_token1","type":"address","internalType":"address"},{"name":"_aiOracle","type":"address","internalType":"address"},{"name":"_initialOwner","type":"address","internalType":"address"}],"stateMutability":"nonpayable"},{"type":"function","name":"SEI_CHAIN_ID","inputs":[],"outputs":[{"name":"","type":"uint256","internalType":"uint256"}],"stateMutability":"view"},{"type":"function","name":"aiOracle","inputs":[],"outputs":[{"name":"","type":"address","internalType":"address"}],"stateMutability":"view"},{"type":"function","name":"allowance","inputs":[{"name":"owner","type":"address","internalType":"address"},{"name":"spender","type":"address","internalType":"address"}],"outputs":[{"name":"","type":"uint256","internalType":"uint256"}],"stateMutability":"view"},{"type":"function","name":"approve","inputs":[{"name":"spender","type":"address","internalType":"address"},{"name":"value","type":"uint256","internalType":"uint256"}],"outputs":[{"name":"","type":"bool","internalType":"bool"}],"stateMutability":"nonpayable"},{"type":"function","name":"balanceOf","inputs":[{"name":"account","type":"address","internalType":"address"}],"outputs":[{"name":"","type":"uint256","internalType":"uint256"}],"stateMutability":"view"},{"type":"function","name":"currentPosition","inputs":[],"outputs":[{"name":"tickLower","type":"int24","internalType":"int24"},{"name":"tickUpper","type":"int24","internalType":"int24"},{"name":"liquidity","type":"uint128","internalType":"uint128"},{"name":"tokensOwed0","type":"uint256","internalType":"uint256"},{"name":"tokensOwed1","type":"uint256","internalType":"uint256"},{"name":"feeGrowthInside0LastX128","type":"uint256","internalType":"uint256"},{"name":"feeGrowthInside1LastX128","type":"uint256","internalType":"uint256"}],"stateMutability":"view"},{"type":"function","name":"decimals","inputs":[],"outputs":[{"name":"","type":"uint8","internalType":"uint8"}],"stateMutability":"view"},{"type":"function","name":"deposit","inputs":[{"name":"amount0","type":"uint256","internalType":"uint256"},{"name":"amount1","type":"uint256","internalType":"uint256"},{"name":"recipient","type":"address","internalType":"address"}],"outputs":[{"name":"shares","type":"uint256","internalType":"uint256"}],"stateMutability":"nonpayable"},{"type":"function","name":"getCurrentPosition","inputs":[],"outputs":[{"name":"","type":"tuple","internalType":"struct IStrategyVault.Position","components":[{"name":"tickLower","type":"int24","internalType":"int24"},{"name":"tickUpper","type":"int24","internalType":"int24"},{"name":"liquidity","type":"uint128","internalType":"uint128"},{"name":"tokensOwed0","type":"uint256","internalType":"uint256"},{"name":"tokensOwed1","type":"uint256","internalType":"uint256"},{"name":"feeGrowthInside0LastX128","type":"uint256","internalType":"uint256"},{"name":"feeGrowthInside1LastX128","type":"uint256","internalType":"uint256"}]}],"stateMutability":"view"},{"type":"function","name":"getVaultInfo","inputs":[],"outputs":[{"name":"","type":"tuple","internalType":"struct IStrategyVault.VaultInfo","components":[{"name":"name","type":"string","internalType":"string"},{"name":"strategy","type":"string","internalType":"string"},{"name":"token0","type":"address","internalType":"address"},{"name":"token1","type":"address","internalType":"address"},{"name":"poolFee","type":"uint24","internalType":"uint24"},{"name":"totalSupply","type":"uint256","internalType":"uint256"},{"name":"totalValueLocked","type":"uint256","internalType":"uint256"},{"name":"isActive","type":"bool","internalType":"bool"}]}],"stateMutability":"view"},{"type":"function","name":"name","inputs":[],"outputs":[{"name":"","type":"string","internalType":"string"}],"stateMutability":"view"},{"type":"function","name":"owner","inputs":[],"outputs":[{"name":"","type":"address","internalType":"address"}],"stateMutability":"view"},{"type":"function","name":"rebalance","inputs":[{"name":"params","type":"tuple","internalType":"struct IStrategyVault.AIRebalanceParams","components":[{"name":"newTickLower","type":"int24","internalType":"int24"},{"name":"newTickUpper","type":"int24","internalType":"int24"},{"name":"minAmount0","type":"uint256","internalType":"uint256"},{"name":"minAmount1","type":"uint256","internalType":"uint256"},{"name":"deadline","type":"uint256","internalType":"uint256"},{"name":"aiSignature","type":"bytes","internalType":"bytes"}]}],"outputs":[],"stateMutability":"nonpayable"},{"type":"function","name":"renounceOwnership","inputs":[],"outputs":[],"stateMutability":"nonpayable"},{"type":"function","name":"symbol","inputs":[],"outputs":[{"name":"","type":"string","internalType":"string"}],"stateMutability":"view"},{"type":"function","name":"totalSupply","inputs":[],"outputs":[{"name":"","type":"uint256","internalType":"uint256"}],"stateMutability":"view"},{"type":"function","name":"transfer","inputs":[{"name":"to","type":"address","internalType":"address"},{"name":"value","type":"uint256","internalType":"uint256"}],"outputs":[{"name":"","type":"bool","internalType":"bool"}],"stateMutability":"nonpayable"},{"type":"function","name":"transferFrom","inputs":[{"name":"from","type":"address","internalType":"address"},{"name":"to","type":"address","internalType":"address"},{"name":"value","type":"uint256","internalType":"uint256"}],"outputs":[{"name":"","type":"bool","internalType":"bool"}],"stateMutability":"nonpayable"},{"type":"function","name":"transferOwnership","inputs":[{"name":"newOwner","type":"address","internalType":"address"}],"outputs":[],"stateMutability":"nonpayable"},{"type":"function","name":"vaultInfo","inputs":[],"outputs":[{"name":"name","type":"string","internalType":"string"},{"name":"strategy","type":"string","internalType":"string"},{"name":"token0","type":"address","internalType":"address"},{"name":"token1","type":"address","internalType":"address"},{"name":"poolFee","type":"uint24","internalType":"uint24"},{"name":"totalSupply","type":"uint256","internalType":"uint256"},{"name":"totalValueLocked","type":"uint256","internalType":"uint256"},{"name":"isActive","type":"bool","internalType":"bool"}],"stateMutability":"view"},{"type":"function","name":"withdraw","inputs":[{"name":"shares","type":"uint256","internalType":"uint256"},{"name":"recipient","type":"address","internalType":"address"}],"outputs":[{"name":"amount0","type":"uint256","internalType":"uint256"},{"name":"amount1","type":"uint256","internalType":"uint256"}],"stateMutability":"nonpayable"},{"type":"event","name":"AIRebalanceExecuted","inputs":[{"name":"aiRequestId","type":"bytes32","indexed":true,"internalType":"bytes32"},{"name":"gasUsed","type":"uint256","indexed":false,"internalType":"uint256"}],"anonymous":false},{"type":"event","name":"Approval","inputs":[{"name":"owner","type":"address","indexed":true,"internalType":"address"},{"name":"spender","type":"address","indexed":true,"internalType":"address"},{"name":"value","type":"uint256","indexed":false,"internalType":"uint256"}],"anonymous":false},{"type":"event","name":"OwnershipTransferred","inputs":[{"name":"previousOwner","type":"address","indexed":true,"internalType":"address"},{"name":"newOwner","type":"address","indexed":true,"internalType":"address"}],"anonymous":false},{"type":"event","name":"PositionRebalanced","inputs":[{"name":"oldTickLower","type":"int24","indexed":false,"internalType":"int24"},{"name":"oldTickUpper","type":"int24","indexed":false,"internalType":"int24"},{"name":"newTickLower","type":"int24","indexed":false,"internalType":"int24"},{"name":"newTickUpper","type":"int24","indexed":false,"internalType":"int24"}],"anonymous":false},{"type":"event","name":"Transfer","inputs":[{"name":"from","type":"address","indexed":true,"internalType":"address"},{"name":"to","type":"address","indexed":true,"internalType":"address"},{"name":"value","type":"uint256","indexed":false,"internalType":"uint256"}],"anonymous":false},{"type":"event","name":"VaultCreated","inputs":[{"name":"vault","type":"address","indexed":true,"internalType":"address"},{"name":"name","type":"string","indexed":false,"internalType":"string"},{"name":"token0","type":"address","indexed":false,"internalType":"address"},{"name":"token1","type":"address","indexed":false,"internalType":"address"}],"anonymous":false},{"type":"error","name":"ERC20InsufficientAllowance","inputs":[{"name":"spender","type":"address","internalType":"address"},{"name":"allowance","type":"uint256","internalType":"uint256"},{"name":"needed","type":"uint256","internalType":"uint256"}]},{"type":"error","name":"ERC20InsufficientBalance","inputs":[{"name":"sender","type":"address","internalType":"address"},{"name":"balance","type":"uint256","internalType":"uint256"},{"name":"needed","type":"uint256","internalType":"uint256"}]},{"type":"error","name":"ERC20InvalidApprover","inputs":[{"name":"approver","type":"address","internalType":"address"}]},{"type":"error","name":"ERC20InvalidReceiver","inputs":[{"name":"receiver","type":"address","internalType":"address"}]},{"type":"error","name":"ERC20InvalidSender","inputs":[{"name":"sender","type":"address","internalType":"address"}]},{"type":"error","name":"ERC20InvalidSpender","inputs":[{"name":"spender","type":"address","internalType":"address"}]},{"type":"error","name":"OwnableInvalidOwner","inputs":[{"name":"owner","type":"address","internalType":"address"}]},{"type":"error","name":"OwnableUnauthorizedAccount","inputs":[{"name":"account","type":"address","internalType":"address"}]},{"type":"error","name":"ReentrancyGuardReentrantCall","inputs":[]}],"bytecode":{"object":"0x608060405234801561000f575f5ffd5b5060405161273d38038061273d83398181016040528101906100319190610482565b806040518060400160405280601781526020017f53454920487970657267726f777468205345492f4554480000000000000000008152506040518060400160405280600481526020017f48474c500000000000000000000000000000000000000000000000000000000081525081600390816100ad9190610723565b5080600490816100bd9190610723565b5050505f73ffffffffffffffffffffffffffffffffffffffff168173ffffffffffffffffffffffffffffffffffffffff1603610130575f6040517f1e4fbdf70000000000000000000000000000000000000000000000000000000081526004016101279190610801565b60405180910390fd5b61013f8161036160201b60201c565b5060016006819055506040518061010001604052806040518060400160405280600f81526020017f53454920487970657267726f7774680000000000000000000000000000000000815250815260200160405180606001604052806023815260200161271a6023913981526020018573ffffffffffffffffffffffffffffffffffffffff1681526020018473ffffffffffffffffffffffffffffffffffffffff16815260200161271062ffffff1681526020015f81526020015f81526020016001151581525060075f820151815f01908161021a9190610723565b5060208201518160010190816102309190610723565b506040820151816002015f6101000a81548173ffffffffffffffffffffffffffffffffffffffff021916908373ffffffffffffffffffffffffffffffffffffffff1602179055506060820151816003015f6101000a81548173ffffffffffffffffffffffffffffffffffffffff021916908373ffffffffffffffffffffffffffffffffffffffff16021790555060808201518160030160146101000a81548162ffffff021916908362ffffff16021790555060a0820151816004015560c0820151816005015560e0820151816006015f6101000a81548160ff0219169083151502179055509050508160135f6101000a81548173ffffffffffffffffffffffffffffffffffffffff021916908373ffffffffffffffffffffffffffffffffffffffff1602179055505050505061081a565b5f60055f9054906101000a900473ffffffffffffffffffffffffffffffffffffffff1690508160055f6101000a81548173ffffffffffffffffffffffffffffffffffffffff021916908373ffffffffffffffffffffffffffffffffffffffff1602179055508173ffffffffffffffffffffffffffffffffffffffff168173ffffffffffffffffffffffffffffffffffffffff167f8be0079c531659141344cd1fd0a4f28419497f9722a3daafe3b4186f6b6457e060405160405180910390a35050565b5f5ffd5b5f73ffffffffffffffffffffffffffffffffffffffff82169050919050565b5f61045182610428565b9050919050565b61046181610447565b811461046b575f5ffd5b50565b5f8151905061047c81610458565b92915050565b5f5f5f5f6080858703121561049a57610499610424565b5b5f6104a78782880161046e565b94505060206104b88782880161046e565b93505060406104c98782880161046e565b92505060606104da8782880161046e565b91505092959194509250565b5f81519050919050565b7f4e487b71000000000000000000000000000000000000000000000000000000005f52604160045260245ffd5b7f4e487b71000000000000000000000000000000000000000000000000000000005f52602260045260245ffd5b5f600282049050600182168061056157607f821691505b6020821081036105745761057361051d565b5b50919050565b5f819050815f5260205f209050919050565b5f6020601f8301049050919050565b5f82821b905092915050565b5f600883026105d67fffffffffffffffffffffffffffffffffffffffffffffffffffffffffffffffff8261059b565b6105e0868361059b565b95508019841693508086168417925050509392505050565b5f819050919050565b5f819050919050565b5f61062461061f61061a846105f8565b610601565b6105f8565b9050919050565b5f819050919050565b61063d8361060a565b6106516106498261062b565b8484546105a7565b825550505050565b5f5f905090565b610668610659565b610673818484610634565b505050565b5b818110156106965761068b5f82610660565b600181019050610679565b5050565b601f8211156106db576106ac8161057a565b6106b58461058c565b810160208510156106c4578190505b6106d86106d08561058c565b830182610678565b50505b505050565b5f82821c905092915050565b5f6106fb5f19846008026106e0565b1980831691505092915050565b5f61071383836106ec565b9150826002028217905092915050565b61072c826104e6565b67ffffffffffffffff811115610745576107446104f0565b5b61074f825461054a565b61075a82828561069a565b5f60209050601f83116001811461078b575f8415610779578287015190505b6107838582610708565b8655506107ea565b601f1984166107998661057a565b5f5b828110156107c05784890151825560018201915060208501945060208101905061079b565b868310156107dd57848901516107d9601f8916826106ec565b8355505b6001600288020188555050505b505050505050565b6107fb81610447565b82525050565b5f6020820190506108145f8301846107f2565b92915050565b611ef3806108275f395ff3fe608060405234801561000f575f5ffd5b5060043610610134575f3560e01c8063715018a6116100b6578063a9059cbb1161007a578063a9059cbb14610348578063c7f0744714610378578063d534d63614610396578063dd62ed3e146103ba578063f2fde38b146103ea578063fa95e4da1461040657610134565b8063715018a6146102b45780637f98aa71146102be5780638da5cb5b146102dc5780638dbdbe6d146102fa57806395d89b411461032a57610134565b8063313ce567116100fd578063313ce5671461020557806331b221cd14610223578063418f35cc14610241578063501ec7381461025f57806370a082311461028457610134565b8062f714ce1461013857806306fdde0314610169578063095ea7b31461018757806318160ddd146101b757806323b872dd146101d5575b5f5ffd5b610152600480360381019061014d9190611649565b610422565b604051610160929190611696565b60405180910390f35b610171610453565b60405161017e919061172d565b60405180910390f35b6101a1600480360381019061019c919061174d565b6104e3565b6040516101ae91906117a5565b60405180910390f35b6101bf610505565b6040516101cc91906117be565b60405180910390f35b6101ef60048036038101906101ea91906117d7565b61050e565b6040516101fc91906117a5565b60405180910390f35b61020d61053c565b60405161021a9190611842565b60405180910390f35b61022b610544565b604051610238919061186a565b60405180910390f35b610249610569565b6040516102569190611963565b60405180910390f35b61026761062b565b60405161027b989796959493929190611999565b60405180910390f35b61029e60048036038101906102999190611a23565b6107c5565b6040516102ab91906117be565b60405180910390f35b6102bc61080a565b005b6102c661081d565b6040516102d39190611b77565b60405180910390f35b6102e4610a52565b6040516102f1919061186a565b60405180910390f35b610314600480360381019061030f9190611b97565b610a7a565b60405161032191906117be565b60405180910390f35b610332610a9a565b60405161033f919061172d565b60405180910390f35b610362600480360381019061035d919061174d565b610b2a565b60405161036f91906117a5565b60405180910390f35b610380610b4c565b60405161038d91906117be565b60405180910390f35b61039e610b53565b6040516103b19796959493929190611c05565b60405180910390f35b6103d460048036038101906103cf9190611c72565b610bb5565b6040516103e191906117be565b60405180910390f35b61040460048036038101906103ff9190611a23565b610c37565b005b610420600480360381019061041b9190611cd2565b610cbb565b005b5f5f6002846104319190611d73565b91506002846104409190611d73565b905061044c3385610d28565b9250929050565b60606003805461046290611dd0565b80601f016020809104026020016040519081016040528092919081815260200182805461048e90611dd0565b80156104d95780601f106104b0576101008083540402835291602001916104d9565b820191905f5260205f20905b8154815290600101906020018083116104bc57829003601f168201915b5050505050905090565b5f5f6104ed610da7565b90506104fa818585610dae565b600191505092915050565b5f600254905090565b5f5f610518610da7565b9050610525858285610dc0565b610530858585610e53565b60019150509392505050565b5f6012905090565b60135f9054906101000a900473ffffffffffffffffffffffffffffffffffffffff1681565b6105716114f4565b600e6040518060e00160405290815f82015f9054906101000a900460020b60020b60020b81526020015f820160039054906101000a900460020b60020b60020b81526020015f820160069054906101000a90046fffffffffffffffffffffffffffffffff166fffffffffffffffffffffffffffffffff166fffffffffffffffffffffffffffffffff168152602001600182015481526020016002820154815260200160038201548152602001600482015481525050905090565b6007805f01805461063b90611dd0565b80601f016020809104026020016040519081016040528092919081815260200182805461066790611dd0565b80156106b25780601f10610689576101008083540402835291602001916106b2565b820191905f5260205f20905b81548152906001019060200180831161069557829003601f168201915b5050505050908060010180546106c790611dd0565b80601f01602080910402602001604051908101604052809291908181526020018280546106f390611dd0565b801561073e5780601f106107155761010080835404028352916020019161073e565b820191905f5260205f20905b81548152906001019060200180831161072157829003601f168201915b505050505090806002015f9054906101000a900473ffffffffffffffffffffffffffffffffffffffff1690806003015f9054906101000a900473ffffffffffffffffffffffffffffffffffffffff16908060030160149054906101000a900462ffffff1690806004015490806005015490806006015f9054906101000a900460ff16905088565b5f5f5f8373ffffffffffffffffffffffffffffffffffffffff1673ffffffffffffffffffffffffffffffffffffffff1681526020019081526020015f20549050919050565b610812610f43565b61081b5f610fca565b565b610825611542565b6007604051806101000160405290815f8201805461084290611dd0565b80601f016020809104026020016040519081016040528092919081815260200182805461086e90611dd0565b80156108b95780601f10610890576101008083540402835291602001916108b9565b820191905f5260205f20905b81548152906001019060200180831161089c57829003601f168201915b505050505081526020016001820180546108d290611dd0565b80601f01602080910402602001604051908101604052809291908181526020018280546108fe90611dd0565b80156109495780601f1061092057610100808354040283529160200191610949565b820191905f5260205f20905b81548152906001019060200180831161092c57829003601f168201915b50505050508152602001600282015f9054906101000a900473ffffffffffffffffffffffffffffffffffffffff1673ffffffffffffffffffffffffffffffffffffffff1673ffffffffffffffffffffffffffffffffffffffff168152602001600382015f9054906101000a900473ffffffffffffffffffffffffffffffffffffffff1673ffffffffffffffffffffffffffffffffffffffff1673ffffffffffffffffffffffffffffffffffffffff1681526020016003820160149054906101000a900462ffffff1662ffffff1662ffffff1681526020016004820154815260200160058201548152602001600682015f9054906101000a900460ff161515151581525050905090565b5f60055f9054906101000a900473ffffffffffffffffffffffffffffffffffffffff16905090565b5f8284610a879190611e00565b9050610a93828261108d565b9392505050565b606060048054610aa990611dd0565b80601f0160208091040260200160405190810160405280929190818152602001828054610ad590611dd0565b8015610b205780601f10610af757610100808354040283529160200191610b20565b820191905f5260205f20905b815481529060010190602001808311610b0357829003601f168201915b5050505050905090565b5f5f610b34610da7565b9050610b41818585610e53565b600191505092915050565b620ae3f381565b600e805f015f9054906101000a900460020b90805f0160039054906101000a900460020b90805f0160069054906101000a90046fffffffffffffffffffffffffffffffff16908060010154908060020154908060030154908060040154905087565b5f60015f8473ffffffffffffffffffffffffffffffffffffffff1673ffffffffffffffffffffffffffffffffffffffff1681526020019081526020015f205f8373ffffffffffffffffffffffffffffffffffffffff1673ffffffffffffffffffffffffffffffffffffffff1681526020019081526020015f2054905092915050565b610c3f610f43565b5f73ffffffffffffffffffffffffffffffffffffffff168173ffffffffffffffffffffffffffffffffffffffff1603610caf575f6040517f1e4fbdf7000000000000000000000000000000000000000000000000000000008152600401610ca6919061186a565b60405180910390fd5b610cb881610fca565b50565b805f016020810190610ccd9190611e5d565b600e5f015f6101000a81548162ffffff021916908360020b62ffffff160217905550806020016020810190610d029190611e5d565b600e5f0160036101000a81548162ffffff021916908360020b62ffffff16021790555050565b5f73ffffffffffffffffffffffffffffffffffffffff168273ffffffffffffffffffffffffffffffffffffffff1603610d98575f6040517f96c6fd1e000000000000000000000000000000000000000000000000000000008152600401610d8f919061186a565b60405180910390fd5b610da3825f8361110c565b5050565b5f33905090565b610dbb8383836001611325565b505050565b5f610dcb8484610bb5565b90507fffffffffffffffffffffffffffffffffffffffffffffffffffffffffffffffff811015610e4d5781811015610e3e578281836040517ffb8f41b2000000000000000000000000000000000000000000000000000000008152600401610e3593929190611e88565b60405180910390fd5b610e4c84848484035f611325565b5b50505050565b5f73ffffffffffffffffffffffffffffffffffffffff168373ffffffffffffffffffffffffffffffffffffffff1603610ec3575f6040517f96c6fd1e000000000000000000000000000000000000000000000000000000008152600401610eba919061186a565b60405180910390fd5b5f73ffffffffffffffffffffffffffffffffffffffff168273ffffffffffffffffffffffffffffffffffffffff1603610f33575f6040517fec442f05000000000000000000000000000000000000000000000000000000008152600401610f2a919061186a565b60405180910390fd5b610f3e83838361110c565b505050565b610f4b610da7565b73ffffffffffffffffffffffffffffffffffffffff16610f69610a52565b73ffffffffffffffffffffffffffffffffffffffff1614610fc857610f8c610da7565b6040517f118cdaa7000000000000000000000000000000000000000000000000000000008152600401610fbf919061186a565b60405180910390fd5b565b5f60055f9054906101000a900473ffffffffffffffffffffffffffffffffffffffff1690508160055f6101000a81548173ffffffffffffffffffffffffffffffffffffffff021916908373ffffffffffffffffffffffffffffffffffffffff1602179055508173ffffffffffffffffffffffffffffffffffffffff168173ffffffffffffffffffffffffffffffffffffffff167f8be0079c531659141344cd1fd0a4f28419497f9722a3daafe3b4186f6b6457e060405160405180910390a35050565b5f73ffffffffffffffffffffffffffffffffffffffff168273ffffffffffffffffffffffffffffffffffffffff16036110fd575f6040517fec442f050000000000000000000000000000000000000000000000000000000081526004016110f4919061186a565b60405180910390fd5b6111085f838361110c565b5050565b5f73ffffffffffffffffffffffffffffffffffffffff168373ffffffffffffffffffffffffffffffffffffffff160361115c578060025f8282546111509190611e00565b9250508190555061122a565b5f5f5f8573ffffffffffffffffffffffffffffffffffffffff1673ffffffffffffffffffffffffffffffffffffffff1681526020019081526020015f20549050818110156111e5578381836040517fe450d38c0000000000000000000000000000000000000000000000000000000081526004016111dc93929190611e88565b60405180910390fd5b8181035f5f8673ffffffffffffffffffffffffffffffffffffffff1673ffffffffffffffffffffffffffffffffffffffff1681526020019081526020015f2081905550505b5f73ffffffffffffffffffffffffffffffffffffffff168273ffffffffffffffffffffffffffffffffffffffff1603611271578060025f82825403925050819055506112bb565b805f5f8473ffffffffffffffffffffffffffffffffffffffff1673ffffffffffffffffffffffffffffffffffffffff1681526020019081526020015f205f82825401925050819055505b8173ffffffffffffffffffffffffffffffffffffffff168373ffffffffffffffffffffffffffffffffffffffff167fddf252ad1be2c89b69c2b068fc378daa952ba7f163c4a11628f55a4df523b3ef8360405161131891906117be565b60405180910390a3505050565b5f73ffffffffffffffffffffffffffffffffffffffff168473ffffffffffffffffffffffffffffffffffffffff1603611395575f6040517fe602df0500000000000000000000000000000000000000000000000000000000815260040161138c919061186a565b60405180910390fd5b5f73ffffffffffffffffffffffffffffffffffffffff168373ffffffffffffffffffffffffffffffffffffffff1603611405575f6040517f94280d620000000000000000000000000000000000000000000000000000000081526004016113fc919061186a565b60405180910390fd5b8160015f8673ffffffffffffffffffffffffffffffffffffffff1673ffffffffffffffffffffffffffffffffffffffff1681526020019081526020015f205f8573ffffffffffffffffffffffffffffffffffffffff1673ffffffffffffffffffffffffffffffffffffffff1681526020019081526020015f208190555080156114ee578273ffffffffffffffffffffffffffffffffffffffff168473ffffffffffffffffffffffffffffffffffffffff167f8c5be1e5ebec7d5bd14f71427d1e84f3dd0314c0f7b2291e5b200ac8c7c3b925846040516114e591906117be565b60405180910390a35b50505050565b6040518060e001604052805f60020b81526020015f60020b81526020015f6fffffffffffffffffffffffffffffffff1681526020015f81526020015f81526020015f81526020015f81525090565b60405180610100016040528060608152602001606081526020015f73ffffffffffffffffffffffffffffffffffffffff1681526020015f73ffffffffffffffffffffffffffffffffffffffff1681526020015f62ffffff1681526020015f81526020015f81526020015f151581525090565b5f5ffd5b5f5ffd5b5f819050919050565b6115ce816115bc565b81146115d8575f5ffd5b50565b5f813590506115e9816115c5565b92915050565b5f73ffffffffffffffffffffffffffffffffffffffff82169050919050565b5f611618826115ef565b9050919050565b6116288161160e565b8114611632575f5ffd5b50565b5f813590506116438161161f565b92915050565b5f5f6040838503121561165f5761165e6115b4565b5b5f61166c858286016115db565b925050602061167d85828601611635565b9150509250929050565b611690816115bc565b82525050565b5f6040820190506116a95f830185611687565b6116b66020830184611687565b9392505050565b5f81519050919050565b5f82825260208201905092915050565b8281835e5f83830152505050565b5f601f19601f8301169050919050565b5f6116ff826116bd565b61170981856116c7565b93506117198185602086016116d7565b611722816116e5565b840191505092915050565b5f6020820190508181035f83015261174581846116f5565b905092915050565b5f5f60408385031215611763576117626115b4565b5b5f61177085828601611635565b9250506020611781858286016115db565b9150509250929050565b5f8115159050919050565b61179f8161178b565b82525050565b5f6020820190506117b85f830184611796565b92915050565b5f6020820190506117d15f830184611687565b92915050565b5f5f5f606084860312156117ee576117ed6115b4565b5b5f6117fb86828701611635565b935050602061180c86828701611635565b925050604061181d868287016115db565b9150509250925092565b5f60ff82169050919050565b61183c81611827565b82525050565b5f6020820190506118555f830184611833565b92915050565b6118648161160e565b82525050565b5f60208201905061187d5f83018461185b565b92915050565b5f8160020b9050919050565b61189881611883565b82525050565b5f6fffffffffffffffffffffffffffffffff82169050919050565b6118c28161189e565b82525050565b6118d1816115bc565b82525050565b60e082015f8201516118eb5f85018261188f565b5060208201516118fe602085018261188f565b50604082015161191160408501826118b9565b50606082015161192460608501826118c8565b50608082015161193760808501826118c8565b5060a082015161194a60a08501826118c8565b5060c082015161195d60c08501826118c8565b50505050565b5f60e0820190506119765f8301846118d7565b92915050565b5f62ffffff82169050919050565b6119938161197c565b82525050565b5f610100820190508181035f8301526119b2818b6116f5565b905081810360208301526119c6818a6116f5565b90506119d5604083018961185b565b6119e2606083018861185b565b6119ef608083018761198a565b6119fc60a0830186611687565b611a0960c0830185611687565b611a1660e0830184611796565b9998505050505050505050565b5f60208284031215611a3857611a376115b4565b5b5f611a4584828501611635565b91505092915050565b5f82825260208201905092915050565b5f611a68826116bd565b611a728185611a4e565b9350611a828185602086016116d7565b611a8b816116e5565b840191505092915050565b611a9f8161160e565b82525050565b611aae8161197c565b82525050565b611abd8161178b565b82525050565b5f61010083015f8301518482035f860152611ade8282611a5e565b91505060208301518482036020860152611af88282611a5e565b9150506040830151611b0d6040860182611a96565b506060830151611b206060860182611a96565b506080830151611b336080860182611aa5565b5060a0830151611b4660a08601826118c8565b5060c0830151611b5960c08601826118c8565b5060e0830151611b6c60e0860182611ab4565b508091505092915050565b5f6020820190508181035f830152611b8f8184611ac3565b905092915050565b5f5f5f60608486031215611bae57611bad6115b4565b5b5f611bbb868287016115db565b9350506020611bcc868287016115db565b9250506040611bdd86828701611635565b9150509250925092565b611bf081611883565b82525050565b611bff8161189e565b82525050565b5f60e082019050611c185f83018a611be7565b611c256020830189611be7565b611c326040830188611bf6565b611c3f6060830187611687565b611c4c6080830186611687565b611c5960a0830185611687565b611c6660c0830184611687565b98975050505050505050565b5f5f60408385031215611c8857611c876115b4565b5b5f611c9585828601611635565b9250506020611ca685828601611635565b9150509250929050565b5f5ffd5b5f60c08284031215611cc957611cc8611cb0565b5b81905092915050565b5f60208284031215611ce757611ce66115b4565b5b5f82013567ffffffffffffffff811115611d0457611d036115b8565b5b611d1084828501611cb4565b91505092915050565b7f4e487b71000000000000000000000000000000000000000000000000000000005f52601260045260245ffd5b7f4e487b71000000000000000000000000000000000000000000000000000000005f52601160045260245ffd5b5f611d7d826115bc565b9150611d88836115bc565b925082611d9857611d97611d19565b5b828204905092915050565b7f4e487b71000000000000000000000000000000000000000000000000000000005f52602260045260245ffd5b5f6002820490506001821680611de757607f821691505b602082108103611dfa57611df9611da3565b5b50919050565b5f611e0a826115bc565b9150611e15836115bc565b9250828201905080821115611e2d57611e2c611d46565b5b92915050565b611e3c81611883565b8114611e46575f5ffd5b50565b5f81359050611e5781611e33565b92915050565b5f60208284031215611e7257611e716115b4565b5b5f611e7f84828501611e49565b91505092915050565b5f606082019050611e9b5f83018661185b565b611ea86020830185611687565b611eb56040830184611687565b94935050505056fea2646970667358221220725268b7f4764fc99bfb00301445bf64f6f287360d1f3997053ce1a58b85d2d364736f6c634300081e0033486967682d7269736b2c20686967682d72657761726420534549206578706f73757265","linkReferences":{}},"methodIdentifiers":{"SEI_CHAIN_ID()":"c7f07447","aiOracle()":"31b221cd","allowance(address,address)":"dd62ed3e","approve(address,uint256)":"095ea7b3","balanceOf(address)":"70a08231","currentPosition()":"d534d636","decimals()":"313ce567","deposit(uint256,uint256,address)":"8dbdbe6d","getCurrentPosition()":"418f35cc","getVaultInfo()":"7f98aa71","name()":"06fdde03","owner()":"8da5cb5b","rebalance((int24,int24,uint256,uint256,uint256,bytes))":"fa95e4da","renounceOwnership()":"715018a6","symbol()":"95d89b41","totalSupply()":"18160ddd","transfer(address,uint256)":"a9059cbb","transferFrom(address,address,uint256)":"23b872dd","transferOwnership(address)":"f2fde38b","vaultInfo()":"501ec738","withdraw(uint256,address)":"00f714ce"},"id":32}