{"abi":[{"type":"constructor","inputs":[{"name":"_defaultAIOracle","type":"address","internalType":"address"},{"name":"initialOwner","type":"address","internalType":"address"}],"stateMutability":"nonpayable"},{"type":"function","name":"SEI_CHAIN_ID","inputs":[],"outputs":[{"name":"","type":"uint256","internalType":"uint256"}],"stateMutability":"view"},{"type":"function","name":"allVaults","inputs":[{"name":"","type":"uint256","internalType":"uint256"}],"outputs":[{"name":"","type":"address","internalType":"address"}],"stateMutability":"view"},{"type":"function","name":"allVaultsLength","inputs":[],"outputs":[{"name":"","type":"uint256","internalType":"uint256"}],"stateMutability":"view"},{"type":"function","name":"createVault","inputs":[{"name":"params","type":"tuple","internalType":"struct VaultFactory.VaultCreationParams","components":[{"name":"name","type":"string","internalType":"string"},{"name":"symbol","type":"string","internalType":"string"},{"name":"token0","type":"address","internalType":"address"},{"name":"token1","type":"address","internalType":"address"},{"name":"poolFee","type":"uint24","internalType":"uint24"},{"name":"aiOracle","type":"address","internalType":"address"}]}],"outputs":[{"name":"vault","type":"address","internalType":"address"}],"stateMutability":"payable"},{"type":"function","name":"creationFee","inputs":[],"outputs":[{"name":"","type":"uint256","internalType":"uint256"}],"stateMutability":"view"},{"type":"function","name":"defaultAIOracle","inputs":[],"outputs":[{"name":"","type":"address","internalType":"address"}],"stateMutability":"view"},{"type":"function","name":"getVault","inputs":[{"name":"","type":"bytes32","internalType":"bytes32"}],"outputs":[{"name":"","type":"address","internalType":"address"}],"stateMutability":"view"},{"type":"function","name":"isVault","inputs":[{"name":"","type":"address","internalType":"address"}],"outputs":[{"name":"","type":"bool","internalType":"bool"}],"stateMutability":"view"},{"type":"function","name":"owner","inputs":[],"outputs":[{"name":"","type":"address","internalType":"address"}],"stateMutability":"view"},{"type":"function","name":"renounceOwnership","inputs":[],"outputs":[],"stateMutability":"nonpayable"},{"type":"function","name":"setCreationFee","inputs":[{"name":"newFee","type":"uint256","internalType":"uint256"}],"outputs":[],"stateMutability":"nonpayable"},{"type":"function","name":"setDefaultAIOracle","inputs":[{"name":"newOracle","type":"address","internalType":"address"}],"outputs":[],"stateMutability":"nonpayable"},{"type":"function","name":"transferOwnership","inputs":[{"name":"newOwner","type":"address","internalType":"address"}],"outputs":[],"stateMutability":"nonpayable"},{"type":"function","name":"withdrawFees","inputs":[],"outputs":[],"stateMutability":"nonpayable"},{"type":"event","name":"OwnershipTransferred","inputs":[{"name":"previousOwner","type":"address","indexed":true,"internalType":"address"},{"name":"newOwner","type":"address","indexed":true,"internalType":"address"}],"anonymous":false},{"type":"event","name":"VaultCreated","inputs":[{"name":"vault","type":"address","indexed":true,"internalType":"address"},{"name":"token0","type":"address","indexed":true,"internalType":"address"},{"name":"token1","type":"address","indexed":true,"internalType":"address"},{"name":"poolFee","type":"uint24","indexed":false,"internalType":"uint24"},{"name":"name","type":"string","indexed":false,"internalType":"string"}],"anonymous":false},{"type":"error","name":"OwnableInvalidOwner","inputs":[{"name":"owner","type":"address","internalType":"address"}]},{"type":"error","name":"OwnableUnauthorizedAccount","inputs":[{"name":"account","type":"address","internalType":"address"}]},{"type":"error","name":"ReentrancyGuardReentrantCall","inputs":[]}],"bytecode":{"object":"0x608060405267016345785d8a000060065534801561001b575f5ffd5b50604051615941380380615941833981810160405281019061003d9190610270565b805f73ffffffffffffffffffffffffffffffffffffffff168173ffffffffffffffffffffffffffffffffffffffff16036100ae575f6040517f1e4fbdf70000000000000000000000000000000000000000000000000000000081526004016100a591906102bd565b60405180910390fd5b6100bd8161015160201b60201c565b5060018081905550620ae3f3461461010a576040517f08c379a000000000000000000000000000000000000000000000000000000000815260040161010190610330565b60405180910390fd5b8160055f6101000a81548173ffffffffffffffffffffffffffffffffffffffff021916908373ffffffffffffffffffffffffffffffffffffffff160217905550505061034e565b5f5f5f9054906101000a900473ffffffffffffffffffffffffffffffffffffffff169050815f5f6101000a81548173ffffffffffffffffffffffffffffffffffffffff021916908373ffffffffffffffffffffffffffffffffffffffff1602179055508173ffffffffffffffffffffffffffffffffffffffff168173ffffffffffffffffffffffffffffffffffffffff167f8be0079c531659141344cd1fd0a4f28419497f9722a3daafe3b4186f6b6457e060405160405180910390a35050565b5f5ffd5b5f73ffffffffffffffffffffffffffffffffffffffff82169050919050565b5f61023f82610216565b9050919050565b61024f81610235565b8114610259575f5ffd5b50565b5f8151905061026a81610246565b92915050565b5f5f6040838503121561028657610285610212565b5b5f6102938582860161025c565b92505060206102a48582860161025c565b9150509250929050565b6102b781610235565b82525050565b5f6020820190506102d05f8301846102ae565b92915050565b5f82825260208201905092915050565b7f4d757374206465706c6f79206f6e2053454900000000000000000000000000005f82015250565b5f61031a6012836102d6565b9150610325826102e6565b602082019050919050565b5f6020820190508181035f8301526103478161030e565b9050919050565b6155e68061035b5f395ff3fe6080604052600436106100dc575f3560e01c8063a5bbf9c91161007e578063b8aa85ea11610058578063b8aa85ea14610294578063c7f07447146102be578063dce0b4e4146102e8578063f2fde38b14610312576100dc565b8063a5bbf9c914610208578063b7c61f0614610230578063b7d862251461026c576100dc565b8063652b9b41116100ba578063652b9b4114610150578063715018a61461018c5780638da5cb5b146101a25780639094a91e146101cc576100dc565b806346ebfa80146100e0578063476343ee146101105780634cd1857714610126575b5f5ffd5b6100fa60048036038101906100f59190610d94565b61033a565b6040516101079190610e1a565b60405180910390f35b34801561011b575f5ffd5b5061012461091b565b005b348015610131575f5ffd5b5061013a610970565b6040516101479190610e4b565b60405180910390f35b34801561015b575f5ffd5b5061017660048036038101906101719190610e8e565b61097c565b6040516101839190610ed3565b60405180910390f35b348015610197575f5ffd5b506101a0610999565b005b3480156101ad575f5ffd5b506101b66109ac565b6040516101c39190610e1a565b60405180910390f35b3480156101d7575f5ffd5b506101f260048036038101906101ed9190610f16565b6109d3565b6040516101ff9190610e1a565b60405180910390f35b348015610213575f5ffd5b5061022e60048036038101906102299190610e8e565b610a0e565b005b34801561023b575f5ffd5b5061025660048036038101906102519190610f74565b610ac7565b6040516102639190610e1a565b60405180910390f35b348015610277575f5ffd5b50610292600480360381019061028d9190610f16565b610af7565b005b34801561029f575f5ffd5b506102a8610b09565b6040516102b59190610e1a565b60405180910390f35b3480156102c9575f5ffd5b506102d2610b2e565b6040516102df9190610e4b565b60405180910390f35b3480156102f3575f5ffd5b506102fc610b35565b6040516103099190610e4b565b60405180910390f35b34801561031d575f5ffd5b5061033860048036038101906103339190610e8e565b610b3b565b005b5f610343610bbf565b620ae3f34614610388576040517f08c379a000000000000000000000000000000000000000000000000000000000815260040161037f90610ff9565b60405180910390fd5b6006543410156103cd576040517f08c379a00000000000000000000000000000000000000000000000000000000081526004016103c490611061565b60405180910390fd5b8160600160208101906103e09190610e8e565b73ffffffffffffffffffffffffffffffffffffffff168260400160208101906104099190610e8e565b73ffffffffffffffffffffffffffffffffffffffff160361045f576040517f08c379a0000000000000000000000000000000000000000000000000000000008152600401610456906110c9565b60405180910390fd5b5f73ffffffffffffffffffffffffffffffffffffffff168260400160208101906104899190610e8e565b73ffffffffffffffffffffffffffffffffffffffff16141580156104eb57505f73ffffffffffffffffffffffffffffffffffffffff168260600160208101906104d29190610e8e565b73ffffffffffffffffffffffffffffffffffffffff1614155b61052a576040517f08c379a000000000000000000000000000000000000000000000000000000000815260040161052190611131565b60405180910390fd5b5f82604001602081019061053e9190610e8e565b8360600160208101906105519190610e8e565b8460800160208101906105649190611187565b42604051602001610578949392919061124b565b6040516020818303038152906040528051906020012090505f73ffffffffffffffffffffffffffffffffffffffff1660045f8381526020019081526020015f205f9054906101000a900473ffffffffffffffffffffffffffffffffffffffff1673ffffffffffffffffffffffffffffffffffffffff161461062e576040517f08c379a0000000000000000000000000000000000000000000000000000000008152600401610625906112e2565b60405180910390fd5b8083805f019061063e919061130c565b85806020019061064e919061130c565b8760400160208101906106619190610e8e565b8860600160208101906106749190610e8e565b8960800160208101906106879190611187565b5f73ffffffffffffffffffffffffffffffffffffffff168b60a00160208101906106b19190610e8e565b73ffffffffffffffffffffffffffffffffffffffff16036106f35760055f9054906101000a900473ffffffffffffffffffffffffffffffffffffffff16610707565b8a60a00160208101906107069190610e8e565b5b3360405161071490610d5d565b610726999897969594939291906113c7565b8190604051809103905ff5905080158015610743573d5f5f3e3d5ffd5b509150600282908060018154018082558091505060019003905f5260205f20015f9091909190916101000a81548173ffffffffffffffffffffffffffffffffffffffff021916908373ffffffffffffffffffffffffffffffffffffffff160217905550600160035f8473ffffffffffffffffffffffffffffffffffffffff1673ffffffffffffffffffffffffffffffffffffffff1681526020019081526020015f205f6101000a81548160ff0219169083151502179055508160045f8381526020019081526020015f205f6101000a81548173ffffffffffffffffffffffffffffffffffffffff021916908373ffffffffffffffffffffffffffffffffffffffff16021790555082606001602081019061085d9190610e8e565b73ffffffffffffffffffffffffffffffffffffffff168360400160208101906108869190610e8e565b73ffffffffffffffffffffffffffffffffffffffff168373ffffffffffffffffffffffffffffffffffffffff167ff76a75e6400e793472c8a1df1748c02cd826c4952967c15cba41d0116b19162c8660800160208101906108e79190611187565b87805f01906108f6919061130c565b60405161090593929190611446565b60405180910390a450610916610c05565b919050565b610923610c0e565b61092b6109ac565b73ffffffffffffffffffffffffffffffffffffffff166108fc4790811502906040515f60405180830381858888f1935050505015801561096d573d5f5f3e3d5ffd5b50565b5f600280549050905090565b6003602052805f5260405f205f915054906101000a900460ff1681565b6109a1610c0e565b6109aa5f610c95565b565b5f5f5f9054906101000a900473ffffffffffffffffffffffffffffffffffffffff16905090565b600281815481106109e2575f80fd5b905f5260205f20015f915054906101000a900473ffffffffffffffffffffffffffffffffffffffff1681565b610a16610c0e565b5f73ffffffffffffffffffffffffffffffffffffffff168173ffffffffffffffffffffffffffffffffffffffff1603610a84576040517f08c379a0000000000000000000000000000000000000000000000000000000008152600401610a7b906114c0565b60405180910390fd5b8060055f6101000a81548173ffffffffffffffffffffffffffffffffffffffff021916908373ffffffffffffffffffffffffffffffffffffffff16021790555050565b6004602052805f5260405f205f915054906101000a900473ffffffffffffffffffffffffffffffffffffffff1681565b610aff610c0e565b8060068190555050565b60055f9054906101000a900473ffffffffffffffffffffffffffffffffffffffff1681565b620ae3f381565b60065481565b610b43610c0e565b5f73ffffffffffffffffffffffffffffffffffffffff168173ffffffffffffffffffffffffffffffffffffffff1603610bb3575f6040517f1e4fbdf7000000000000000000000000000000000000000000000000000000008152600401610baa9190610e1a565b60405180910390fd5b610bbc81610c95565b50565b600260015403610bfb576040517f3ee5aeb500000000000000000000000000000000000000000000000000000000815260040160405180910390fd5b6002600181905550565b60018081905550565b610c16610d56565b73ffffffffffffffffffffffffffffffffffffffff16610c346109ac565b73ffffffffffffffffffffffffffffffffffffffff1614610c9357610c57610d56565b6040517f118cdaa7000000000000000000000000000000000000000000000000000000008152600401610c8a9190610e1a565b60405180910390fd5b565b5f5f5f9054906101000a900473ffffffffffffffffffffffffffffffffffffffff169050815f5f6101000a81548173ffffffffffffffffffffffffffffffffffffffff021916908373ffffffffffffffffffffffffffffffffffffffff1602179055508173ffffffffffffffffffffffffffffffffffffffff168173ffffffffffffffffffffffffffffffffffffffff167f8be0079c531659141344cd1fd0a4f28419497f9722a3daafe3b4186f6b6457e060405160405180910390a35050565b5f33905090565b6140d2806114df83390190565b5f5ffd5b5f5ffd5b5f5ffd5b5f60c08284031215610d8b57610d8a610d72565b5b81905092915050565b5f60208284031215610da957610da8610d6a565b5b5f82013567ffffffffffffffff811115610dc657610dc5610d6e565b5b610dd284828501610d76565b91505092915050565b5f73ffffffffffffffffffffffffffffffffffffffff82169050919050565b5f610e0482610ddb565b9050919050565b610e1481610dfa565b82525050565b5f602082019050610e2d5f830184610e0b565b92915050565b5f819050919050565b610e4581610e33565b82525050565b5f602082019050610e5e5f830184610e3c565b92915050565b610e6d81610dfa565b8114610e77575f5ffd5b50565b5f81359050610e8881610e64565b92915050565b5f60208284031215610ea357610ea2610d6a565b5b5f610eb084828501610e7a565b91505092915050565b5f8115159050919050565b610ecd81610eb9565b82525050565b5f602082019050610ee65f830184610ec4565b92915050565b610ef581610e33565b8114610eff575f5ffd5b50565b5f81359050610f1081610eec565b92915050565b5f60208284031215610f2b57610f2a610d6a565b5b5f610f3884828501610f02565b91505092915050565b5f819050919050565b610f5381610f41565b8114610f5d575f5ffd5b50565b5f81359050610f6e81610f4a565b92915050565b5f60208284031215610f8957610f88610d6a565b5b5f610f9684828501610f60565b91505092915050565b5f82825260208201905092915050565b7f496e76616c696420636861696e000000000000000000000000000000000000005f82015250565b5f610fe3600d83610f9f565b9150610fee82610faf565b602082019050919050565b5f6020820190508181035f83015261101081610fd7565b9050919050565b7f496e73756666696369656e74206372656174696f6e20666565000000000000005f82015250565b5f61104b601983610f9f565b915061105682611017565b602082019050919050565b5f6020820190508181035f8301526110788161103f565b9050919050565b7f4964656e746963616c20746f6b656e73000000000000000000000000000000005f82015250565b5f6110b3601083610f9f565b91506110be8261107f565b602082019050919050565b5f6020820190508181035f8301526110e0816110a7565b9050919050565b7f5a65726f206164647265737300000000000000000000000000000000000000005f82015250565b5f61111b600c83610f9f565b9150611126826110e7565b602082019050919050565b5f6020820190508181035f8301526111488161110f565b9050919050565b5f62ffffff82169050919050565b6111668161114f565b8114611170575f5ffd5b50565b5f813590506111818161115d565b92915050565b5f6020828403121561119c5761119b610d6a565b5b5f6111a984828501611173565b91505092915050565b5f8160601b9050919050565b5f6111c8826111b2565b9050919050565b5f6111d9826111be565b9050919050565b6111f16111ec82610dfa565b6111cf565b82525050565b5f8160e81b9050919050565b5f61120d826111f7565b9050919050565b6112256112208261114f565b611203565b82525050565b5f819050919050565b61124561124082610e33565b61122b565b82525050565b5f61125682876111e0565b60148201915061126682866111e0565b6014820191506112768285611214565b6003820191506112868284611234565b60208201915081905095945050505050565b7f5661756c7420616c7265616479206578697374730000000000000000000000005f82015250565b5f6112cc601483610f9f565b91506112d782611298565b602082019050919050565b5f6020820190508181035f8301526112f9816112c0565b9050919050565b5f5ffd5b5f5ffd5b5f5ffd5b5f5f8335600160200384360303811261132857611327611300565b5b80840192508235915067ffffffffffffffff82111561134a57611349611304565b5b60208301925060018202360383131561136657611365611308565b5b509250929050565b828183375f83830152505050565b5f601f19601f8301169050919050565b5f6113978385610f9f565b93506113a483858461136e565b6113ad8361137c565b840190509392505050565b6113c18161114f565b82525050565b5f60e0820190508181035f8301526113e0818b8d61138c565b905081810360208301526113f581898b61138c565b90506114046040830188610e0b565b6114116060830187610e0b565b61141e60808301866113b8565b61142b60a0830185610e0b565b61143860c0830184610e0b565b9a9950505050505050505050565b5f6040820190506114595f8301866113b8565b818103602083015261146c81848661138c565b9050949350505050565b7f496e76616c6964206f7261636c650000000000000000000000000000000000005f82015250565b5f6114aa600e83610f9f565b91506114b582611476565b602082019050919050565b5f6020820190508181035f8301526114d78161149e565b905091905056fe60806040525f60155f6101000a81548160ff021916908315150217905550348015610028575f5ffd5b506040516140d23803806140d2833981810160405281019061004a9190610632565b808787816003908161005c9190610917565b50806004908161006c9190610917565b5050505f73ffffffffffffffffffffffffffffffffffffffff168173ffffffffffffffffffffffffffffffffffffffff16036100df575f6040517f1e4fbdf70000000000000000000000000000000000000000000000000000000081526004016100d691906109f5565b60405180910390fd5b6100ee8161039060201b60201c565b506001600681905550620ae3f3461461013c576040517f08c379a000000000000000000000000000000000000000000000000000000000815260040161013390610a68565b60405180910390fd5b6040518061010001604052808881526020016040518060400160405280601481526020017f41495f44594e414d49435f4c495155494449545900000000000000000000000081525081526020018673ffffffffffffffffffffffffffffffffffffffff1681526020018573ffffffffffffffffffffffffffffffffffffffff1681526020018462ffffff1681526020015f81526020015f81526020016001151581525060075f820151815f0190816101f49190610917565b50602082015181600101908161020a9190610917565b506040820151816002015f6101000a81548173ffffffffffffffffffffffffffffffffffffffff021916908373ffffffffffffffffffffffffffffffffffffffff1602179055506060820151816003015f6101000a81548173ffffffffffffffffffffffffffffffffffffffff021916908373ffffffffffffffffffffffffffffffffffffffff16021790555060808201518160030160146101000a81548162ffffff021916908362ffffff16021790555060a0820151816004015560c0820151816005015560e0820151816006015f6101000a81548160ff0219169083151502179055509050508160135f6101000a81548173ffffffffffffffffffffffffffffffffffffffff021916908373ffffffffffffffffffffffffffffffffffffffff1602179055503073ffffffffffffffffffffffffffffffffffffffff167fa8ca87c5f5e04d4b4644da1612143a77fef7e3e6bfcae78c91c102763f9110fe88878760405161037c93929190610abe565b60405180910390a250505050505050610afa565b5f60055f9054906101000a900473ffffffffffffffffffffffffffffffffffffffff1690508160055f6101000a81548173ffffffffffffffffffffffffffffffffffffffff021916908373ffffffffffffffffffffffffffffffffffffffff1602179055508173ffffffffffffffffffffffffffffffffffffffff168173ffffffffffffffffffffffffffffffffffffffff167f8be0079c531659141344cd1fd0a4f28419497f9722a3daafe3b4186f6b6457e060405160405180910390a35050565b5f604051905090565b5f5ffd5b5f5ffd5b5f5ffd5b5f5ffd5b5f601f19601f8301169050919050565b7f4e487b71000000000000000000000000000000000000000000000000000000005f52604160045260245ffd5b6104b28261046c565b810181811067ffffffffffffffff821117156104d1576104d061047c565b5b80604052505050565b5f6104e3610453565b90506104ef82826104a9565b919050565b5f67ffffffffffffffff82111561050e5761050d61047c565b5b6105178261046c565b9050602081019050919050565b8281835e5f83830152505050565b5f61054461053f846104f4565b6104da565b9050828152602081018484840111156105605761055f610468565b5b61056b848285610524565b509392505050565b5f82601f83011261058757610586610464565b5b8151610597848260208601610532565b91505092915050565b5f73ffffffffffffffffffffffffffffffffffffffff82169050919050565b5f6105c9826105a0565b9050919050565b6105d9816105bf565b81146105e3575f5ffd5b50565b5f815190506105f4816105d0565b92915050565b5f62ffffff82169050919050565b610611816105fa565b811461061b575f5ffd5b50565b5f8151905061062c81610608565b92915050565b5f5f5f5f5f5f5f60e0888a03121561064d5761064c61045c565b5b5f88015167ffffffffffffffff81111561066a57610669610460565b5b6106768a828b01610573565b975050602088015167ffffffffffffffff81111561069757610696610460565b5b6106a38a828b01610573565b96505060406106b48a828b016105e6565b95505060606106c58a828b016105e6565b94505060806106d68a828b0161061e565b93505060a06106e78a828b016105e6565b92505060c06106f88a828b016105e6565b91505092959891949750929550565b5f81519050919050565b7f4e487b71000000000000000000000000000000000000000000000000000000005f52602260045260245ffd5b5f600282049050600182168061075557607f821691505b60208210810361076857610767610711565b5b50919050565b5f819050815f5260205f209050919050565b5f6020601f8301049050919050565b5f82821b905092915050565b5f600883026107ca7fffffffffffffffffffffffffffffffffffffffffffffffffffffffffffffffff8261078f565b6107d4868361078f565b95508019841693508086168417925050509392505050565b5f819050919050565b5f819050919050565b5f61081861081361080e846107ec565b6107f5565b6107ec565b9050919050565b5f819050919050565b610831836107fe565b61084561083d8261081f565b84845461079b565b825550505050565b5f5f905090565b61085c61084d565b610867818484610828565b505050565b5b8181101561088a5761087f5f82610854565b60018101905061086d565b5050565b601f8211156108cf576108a08161076e565b6108a984610780565b810160208510156108b8578190505b6108cc6108c485610780565b83018261086c565b50505b505050565b5f82821c905092915050565b5f6108ef5f19846008026108d4565b1980831691505092915050565b5f61090783836108e0565b9150826002028217905092915050565b61092082610707565b67ffffffffffffffff8111156109395761093861047c565b5b610943825461073e565b61094e82828561088e565b5f60209050601f83116001811461097f575f841561096d578287015190505b61097785826108fc565b8655506109de565b601f19841661098d8661076e565b5f5b828110156109b45784890151825560018201915060208501945060208101905061098f565b868310156109d157848901516109cd601f8916826108e0565b8355505b6001600288020188555050505b505050505050565b6109ef816105bf565b82525050565b5f602082019050610a085f8301846109e6565b92915050565b5f82825260208201905092915050565b7f496e76616c696420636861696e000000000000000000000000000000000000005f82015250565b5f610a52600d83610a0e565b9150610a5d82610a1e565b602082019050919050565b5f6020820190508181035f830152610a7f81610a46565b9050919050565b5f610a9082610707565b610a9a8185610a0e565b9350610aaa818560208601610524565b610ab38161046c565b840191505092915050565b5f6060820190508181035f830152610ad68186610a86565b9050610ae560208301856109e6565b610af260408301846109e6565b949350505050565b6135cb80610b075f395ff3fe608060405234801561000f575f5ffd5b50600436106101e2575f3560e01c806351858e271161010d578063a9059cbb116100a0578063e63a391f1161006f578063e63a391f14610570578063e93f56651461058e578063f2fde38b146105ac578063fa95e4da146105c8576101e2565b8063a9059cbb146104ce578063c7f07447146104fe578063d534d6361461051c578063dd62ed3e14610540576101e2565b80637f98aa71116100dc5780637f98aa71146104445780638da5cb5b146104625780638dbdbe6d1461048057806395d89b41146104b0576101e2565b806351858e27146103e25780635f1554e3146103ec57806370a082311461040a578063715018a61461043a576101e2565b806323b872dd11610185578063350e422111610154578063350e4221146103655780633f2df4ad14610383578063418f35cc1461039f578063501ec738146103bd576101e2565b806323b872dd146102db57806327c830a91461030b578063313ce5671461032957806331b221cd14610347576101e2565b8063095ea7b3116101c1578063095ea7b31461023f578063106b9ca11461026f57806318160ddd1461028d578063205134ce146102ab576101e2565b8062f714ce146101e6578063046f7da21461021757806306fdde0314610221575b5f5ffd5b61020060048036038101906101fb919061259b565b6105e4565b60405161020e9291906125e8565b60405180910390f35b61021f6108e8565b005b61022961090b565b604051610236919061267f565b60405180910390f35b6102596004803603810190610254919061269f565b61099b565b60405161026691906126f7565b60405180910390f35b6102776109bd565b6040516102849190612710565b60405180910390f35b6102956109c3565b6040516102a29190612710565b60405180910390f35b6102c560048036038101906102c0919061275c565b6109cc565b6040516102d291906126f7565b60405180910390f35b6102f560048036038101906102f09190612787565b6109e9565b60405161030291906126f7565b60405180910390f35b610313610a17565b60405161032091906126f7565b60405180910390f35b610331610a29565b60405161033e91906127f2565b60405180910390f35b61034f610a31565b60405161035c919061281a565b60405180910390f35b61036d610a56565b60405161037a9190612710565b60405180910390f35b61039d60048036038101906103989190612833565b610a5c565b005b6103a7610b15565b6040516103b4919061293e565b60405180910390f35b6103c5610bd7565b6040516103d9989796959493929190612974565b60405180910390f35b6103ea610d71565b005b6103f4610d95565b6040516104019190612710565b60405180910390f35b610424600480360381019061041f9190612833565b610d9a565b6040516104319190612710565b60405180910390f35b610442610ddf565b005b61044c610df2565b6040516104599190612b27565b60405180910390f35b61046a611027565b604051610477919061281a565b60405180910390f35b61049a60048036038101906104959190612b47565b61104f565b6040516104a79190612710565b60405180910390f35b6104b861142e565b6040516104c5919061267f565b60405180910390f35b6104e860048036038101906104e3919061269f565b6114be565b6040516104f591906126f7565b60405180910390f35b6105066114e0565b6040516105139190612710565b60405180910390f35b6105246114e7565b6040516105379796959493929190612bb5565b60405180910390f35b61055a60048036038101906105559190612c22565b611549565b6040516105679190612710565b60405180910390f35b6105786115cb565b6040516105859190612710565b60405180910390f35b6105966115d1565b6040516105a39190612710565b60405180910390f35b6105c660048036038101906105c19190612833565b6115d7565b005b6105e260048036038101906105dd9190612c82565b61165b565b005b5f5f6105ee6119e8565b620ae3f34614610633576040517f08c379a000000000000000000000000000000000000000000000000000000000815260040161062a90612d13565b60405180910390fd5b60155f9054906101000a900460ff1615610682576040517f08c379a000000000000000000000000000000000000000000000000000000000815260040161067990612d7b565b60405180910390fd5b5f84116106c4576040517f08c379a00000000000000000000000000000000000000000000000000000000081526004016106bb90612de3565b60405180910390fd5b6106cd33610d9a565b84111561070f576040517f08c379a000000000000000000000000000000000000000000000000000000000815260040161070690612e4b565b60405180910390fd5b5f6107186109c3565b905080610723611a2e565b8661072e9190612e96565b6107389190612f04565b925080610743611ad0565b8661074e9190612e96565b6107589190612f04565b91506107643386611b72565b5f83111561080d5760076002015f9054906101000a900473ffffffffffffffffffffffffffffffffffffffff1673ffffffffffffffffffffffffffffffffffffffff1663a9059cbb85856040518363ffffffff1660e01b81526004016107cb929190612f34565b6020604051808303815f875af11580156107e7573d5f5f3e3d5ffd5b505050506040513d601f19601f8201168201806040525081019061080b9190612f85565b505b5f8211156108b65760076003015f9054906101000a900473ffffffffffffffffffffffffffffffffffffffff1673ffffffffffffffffffffffffffffffffffffffff1663a9059cbb85846040518363ffffffff1660e01b8152600401610874929190612f34565b6020604051808303815f875af1158015610890573d5f5f3e3d5ffd5b505050506040513d601f19601f820116820180604052508101906108b49190612f85565b505b6108be6109c3565b6007600401819055506108cf611bf1565b600760050181905550506108e1611c11565b9250929050565b6108f0611c1b565b5f60155f6101000a81548160ff021916908315150217905550565b60606003805461091a90612fdd565b80601f016020809104026020016040519081016040528092919081815260200182805461094690612fdd565b80156109915780601f1061096857610100808354040283529160200191610991565b820191905f5260205f20905b81548152906001019060200180831161097457829003601f168201915b5050505050905090565b5f5f6109a5611ca2565b90506109b2818585611ca9565b600191505092915050565b60165481565b5f600254905090565b6014602052805f5260405f205f915054906101000a900460ff1681565b5f5f6109f3611ca2565b9050610a00858285611cbb565b610a0b858585611d4e565b60019150509392505050565b60155f9054906101000a900460ff1681565b5f6012905090565b60135f9054906101000a900473ffffffffffffffffffffffffffffffffffffffff1681565b610e1081565b610a64611c1b565b5f73ffffffffffffffffffffffffffffffffffffffff168173ffffffffffffffffffffffffffffffffffffffff1603610ad2576040517f08c379a0000000000000000000000000000000000000000000000000000000008152600401610ac990613057565b60405180910390fd5b8060135f6101000a81548173ffffffffffffffffffffffffffffffffffffffff021916908373ffffffffffffffffffffffffffffffffffffffff16021790555050565b610b1d612446565b600e6040518060e00160405290815f82015f9054906101000a900460020b60020b60020b81526020015f820160039054906101000a900460020b60020b60020b81526020015f820160069054906101000a90046fffffffffffffffffffffffffffffffff166fffffffffffffffffffffffffffffffff166fffffffffffffffffffffffffffffffff168152602001600182015481526020016002820154815260200160038201548152602001600482015481525050905090565b6007805f018054610be790612fdd565b80601f0160208091040260200160405190810160405280929190818152602001828054610c1390612fdd565b8015610c5e5780601f10610c3557610100808354040283529160200191610c5e565b820191905f5260205f20905b815481529060010190602001808311610c4157829003601f168201915b505050505090806001018054610c7390612fdd565b80601f0160208091040260200160405190810160405280929190818152602001828054610c9f90612fdd565b8015610cea5780601f10610cc157610100808354040283529160200191610cea565b820191905f5260205f20905b815481529060010190602001808311610ccd57829003601f168201915b505050505090806002015f9054906101000a900473ffffffffffffffffffffffffffffffffffffffff1690806003015f9054906101000a900473ffffffffffffffffffffffffffffffffffffffff16908060030160149054906101000a900462ffffff1690806004015490806005015490806006015f9054906101000a900460ff16905088565b610d79611c1b565b600160155f6101000a81548160ff021916908315150217905550565b606481565b5f5f5f8373ffffffffffffffffffffffffffffffffffffffff1673ffffffffffffffffffffffffffffffffffffffff1681526020019081526020015f20549050919050565b610de7611c1b565b610df05f611e3e565b565b610dfa612494565b6007604051806101000160405290815f82018054610e1790612fdd565b80601f0160208091040260200160405190810160405280929190818152602001828054610e4390612fdd565b8015610e8e5780601f10610e6557610100808354040283529160200191610e8e565b820191905f5260205f20905b815481529060010190602001808311610e7157829003601f168201915b50505050508152602001600182018054610ea790612fdd565b80601f0160208091040260200160405190810160405280929190818152602001828054610ed390612fdd565b8015610f1e5780601f10610ef557610100808354040283529160200191610f1e565b820191905f5260205f20905b815481529060010190602001808311610f0157829003601f168201915b50505050508152602001600282015f9054906101000a900473ffffffffffffffffffffffffffffffffffffffff1673ffffffffffffffffffffffffffffffffffffffff1673ffffffffffffffffffffffffffffffffffffffff168152602001600382015f9054906101000a900473ffffffffffffffffffffffffffffffffffffffff1673ffffffffffffffffffffffffffffffffffffffff1673ffffffffffffffffffffffffffffffffffffffff1681526020016003820160149054906101000a900462ffffff1662ffffff1662ffffff1681526020016004820154815260200160058201548152602001600682015f9054906101000a900460ff161515151581525050905090565b5f60055f9054906101000a900473ffffffffffffffffffffffffffffffffffffffff16905090565b5f6110586119e8565b620ae3f3461461109d576040517f08c379a000000000000000000000000000000000000000000000000000000000815260040161109490612d13565b60405180910390fd5b60155f9054906101000a900460ff16156110ec576040517f08c379a00000000000000000000000000000000000000000000000000000000081526004016110e390612d7b565b60405180910390fd5b5f8411806110f957505f83115b611138576040517f08c379a000000000000000000000000000000000000000000000000000000000815260040161112f906130bf565b60405180910390fd5b5f73ffffffffffffffffffffffffffffffffffffffff168273ffffffffffffffffffffffffffffffffffffffff16036111a6576040517f08c379a000000000000000000000000000000000000000000000000000000000815260040161119d90613127565b60405180910390fd5b5f6111af611bf1565b90505f6111ba6109c3565b90505f8103611232576111d785876111d29190612e96565b611f01565b92506103e8831161121d576040517f08c379a00000000000000000000000000000000000000000000000000000000081526004016112149061318f565b60405180910390fd5b6103e88361122b91906131ad565b925061129b565b5f61123b611a2e565b83886112479190612e96565b6112519190612f04565b90505f61125c611ad0565b84886112689190612e96565b6112729190612f04565b90508383828461128291906131e0565b61128c9190612e96565b6112969190612f04565b945050505b5f8611156113465760076002015f9054906101000a900473ffffffffffffffffffffffffffffffffffffffff1673ffffffffffffffffffffffffffffffffffffffff166323b872dd3330896040518463ffffffff1660e01b815260040161130493929190613213565b6020604051808303815f875af1158015611320573d5f5f3e3d5ffd5b505050506040513d601f19601f820116820180604052508101906113449190612f85565b505b5f8511156113f15760076003015f9054906101000a900473ffffffffffffffffffffffffffffffffffffffff1673ffffffffffffffffffffffffffffffffffffffff166323b872dd3330886040518463ffffffff1660e01b81526004016113af93929190613213565b6020604051808303815f875af11580156113cb573d5f5f3e3d5ffd5b505050506040513d601f19601f820116820180604052508101906113ef9190612f85565b505b6113fb8484611f72565b6114036109c3565b600760040181905550611414611bf1565b6007600501819055505050611427611c11565b9392505050565b60606004805461143d90612fdd565b80601f016020809104026020016040519081016040528092919081815260200182805461146990612fdd565b80156114b45780601f1061148b576101008083540402835291602001916114b4565b820191905f5260205f20905b81548152906001019060200180831161149757829003601f168201915b5050505050905090565b5f5f6114c8611ca2565b90506114d5818585611d4e565b600191505092915050565b620ae3f381565b600e805f015f9054906101000a900460020b90805f0160039054906101000a900460020b90805f0160069054906101000a90046fffffffffffffffffffffffffffffffff16908060010154908060020154908060030154908060040154905087565b5f60015f8473ffffffffffffffffffffffffffffffffffffffff1673ffffffffffffffffffffffffffffffffffffffff1681526020019081526020015f205f8373ffffffffffffffffffffffffffffffffffffffff1673ffffffffffffffffffffffffffffffffffffffff1681526020019081526020015f2054905092915050565b61271081565b6103e881565b6115df611c1b565b5f73ffffffffffffffffffffffffffffffffffffffff168173ffffffffffffffffffffffffffffffffffffffff160361164f575f6040517f1e4fbdf7000000000000000000000000000000000000000000000000000000008152600401611646919061281a565b60405180910390fd5b61165881611e3e565b50565b60135f9054906101000a900473ffffffffffffffffffffffffffffffffffffffff1673ffffffffffffffffffffffffffffffffffffffff163373ffffffffffffffffffffffffffffffffffffffff16146116ea576040517f08c379a00000000000000000000000000000000000000000000000000000000081526004016116e190613292565b60405180910390fd5b6116f26119e8565b620ae3f34614611737576040517f08c379a000000000000000000000000000000000000000000000000000000000815260040161172e90612d13565b60405180910390fd5b60155f9054906101000a900460ff1615611786576040517f08c379a000000000000000000000000000000000000000000000000000000000815260040161177d90612d7b565b60405180910390fd5b5f60165414806117a55750610e106016546117a191906131e0565b4210155b6117e4576040517f08c379a00000000000000000000000000000000000000000000000000000000081526004016117db906132fa565b60405180910390fd5b5f815f0160208101906117f79190613342565b82602001602081019061180a9190613342565b83608001354260405160200161182394939291906133c1565b60405160208183030381529060405280519060200120905060145f8281526020019081526020015f205f9054906101000a900460ff1615611899576040517f08c379a000000000000000000000000000000000000000000000000000000000815260040161189090613458565b60405180910390fd5b81608001354211156118e0576040517f08c379a00000000000000000000000000000000000000000000000000000000081526004016118d7906134c0565b60405180910390fd5b600160145f8381526020019081526020015f205f6101000a81548160ff0219169083151502179055505f600e5f015f9054906101000a900460020b90505f600e5f0160039054906101000a900460020b905061193b84611ff1565b426016819055507f6833c06a8e15ec6c550b15e0d1903b2d3215e6c3f47be904e88d58472d56122b8282865f0160208101906119779190613342565b87602001602081019061198a9190613342565b60405161199a94939291906134de565b60405180910390a1827fe419c54eef9bf2fbd3d740a2e91b28b93330120c37e79c4e088f87e14a815d535a6040516119d29190612710565b60405180910390a25050506119e5611c11565b50565b600260065403611a24576040517f3ee5aeb500000000000000000000000000000000000000000000000000000000815260040160405180910390fd5b6002600681905550565b5f60076002015f9054906101000a900473ffffffffffffffffffffffffffffffffffffffff1673ffffffffffffffffffffffffffffffffffffffff166370a08231306040518263ffffffff1660e01b8152600401611a8c919061281a565b602060405180830381865afa158015611aa7573d5f5f3e3d5ffd5b505050506040513d601f19601f82011682018060405250810190611acb9190613535565b905090565b5f60076003015f9054906101000a900473ffffffffffffffffffffffffffffffffffffffff1673ffffffffffffffffffffffffffffffffffffffff166370a08231306040518263ffffffff1660e01b8152600401611b2e919061281a565b602060405180830381865afa158015611b49573d5f5f3e3d5ffd5b505050506040513d601f19601f82011682018060405250810190611b6d9190613535565b905090565b5f73ffffffffffffffffffffffffffffffffffffffff168273ffffffffffffffffffffffffffffffffffffffff1603611be2575f6040517f96c6fd1e000000000000000000000000000000000000000000000000000000008152600401611bd9919061281a565b60405180910390fd5b611bed825f8361205e565b5050565b5f611bfa611ad0565b611c02611a2e565b611c0c91906131e0565b905090565b6001600681905550565b611c23611ca2565b73ffffffffffffffffffffffffffffffffffffffff16611c41611027565b73ffffffffffffffffffffffffffffffffffffffff1614611ca057611c64611ca2565b6040517f118cdaa7000000000000000000000000000000000000000000000000000000008152600401611c97919061281a565b60405180910390fd5b565b5f33905090565b611cb68383836001612277565b505050565b5f611cc68484611549565b90507fffffffffffffffffffffffffffffffffffffffffffffffffffffffffffffffff811015611d485781811015611d39578281836040517ffb8f41b2000000000000000000000000000000000000000000000000000000008152600401611d3093929190613560565b60405180910390fd5b611d4784848484035f612277565b5b50505050565b5f73ffffffffffffffffffffffffffffffffffffffff168373ffffffffffffffffffffffffffffffffffffffff1603611dbe575f6040517f96c6fd1e000000000000000000000000000000000000000000000000000000008152600401611db5919061281a565b60405180910390fd5b5f73ffffffffffffffffffffffffffffffffffffffff168273ffffffffffffffffffffffffffffffffffffffff1603611e2e575f6040517fec442f05000000000000000000000000000000000000000000000000000000008152600401611e25919061281a565b60405180910390fd5b611e3983838361205e565b505050565b5f60055f9054906101000a900473ffffffffffffffffffffffffffffffffffffffff1690508160055f6101000a81548173ffffffffffffffffffffffffffffffffffffffff021916908373ffffffffffffffffffffffffffffffffffffffff1602179055508173ffffffffffffffffffffffffffffffffffffffff168173ffffffffffffffffffffffffffffffffffffffff167f8be0079c531659141344cd1fd0a4f28419497f9722a3daafe3b4186f6b6457e060405160405180910390a35050565b5f5f8203611f11575f9050611f6d565b5f6002600184611f2191906131e0565b611f2b9190612f04565b90505f8390505b80821015611f67578190506002828386611f4c9190612f04565b611f5691906131e0565b611f609190612f04565b9150611f32565b80925050505b919050565b5f73ffffffffffffffffffffffffffffffffffffffff168273ffffffffffffffffffffffffffffffffffffffff1603611fe2575f6040517fec442f05000000000000000000000000000000000000000000000000000000008152600401611fd9919061281a565b60405180910390fd5b611fed5f838361205e565b5050565b805f0160208101906120039190613342565b600e5f015f6101000a81548162ffffff021916908360020b62ffffff1602179055508060200160208101906120389190613342565b600e5f0160036101000a81548162ffffff021916908360020b62ffffff16021790555050565b5f73ffffffffffffffffffffffffffffffffffffffff168373ffffffffffffffffffffffffffffffffffffffff16036120ae578060025f8282546120a291906131e0565b9250508190555061217c565b5f5f5f8573ffffffffffffffffffffffffffffffffffffffff1673ffffffffffffffffffffffffffffffffffffffff1681526020019081526020015f2054905081811015612137578381836040517fe450d38c00000000000000000000000000000000000000000000000000000000815260040161212e93929190613560565b60405180910390fd5b8181035f5f8673ffffffffffffffffffffffffffffffffffffffff1673ffffffffffffffffffffffffffffffffffffffff1681526020019081526020015f2081905550505b5f73ffffffffffffffffffffffffffffffffffffffff168273ffffffffffffffffffffffffffffffffffffffff16036121c3578060025f828254039250508190555061220d565b805f5f8473ffffffffffffffffffffffffffffffffffffffff1673ffffffffffffffffffffffffffffffffffffffff1681526020019081526020015f205f82825401925050819055505b8173ffffffffffffffffffffffffffffffffffffffff168373ffffffffffffffffffffffffffffffffffffffff167fddf252ad1be2c89b69c2b068fc378daa952ba7f163c4a11628f55a4df523b3ef8360405161226a9190612710565b60405180910390a3505050565b5f73ffffffffffffffffffffffffffffffffffffffff168473ffffffffffffffffffffffffffffffffffffffff16036122e7575f6040517fe602df050000000000000000000000000000000000000000000000000000000081526004016122de919061281a565b60405180910390fd5b5f73ffffffffffffffffffffffffffffffffffffffff168373ffffffffffffffffffffffffffffffffffffffff1603612357575f6040517f94280d6200000000000000000000000000000000000000000000000000000000815260040161234e919061281a565b60405180910390fd5b8160015f8673ffffffffffffffffffffffffffffffffffffffff1673ffffffffffffffffffffffffffffffffffffffff1681526020019081526020015f205f8573ffffffffffffffffffffffffffffffffffffffff1673ffffffffffffffffffffffffffffffffffffffff1681526020019081526020015f20819055508015612440578273ffffffffffffffffffffffffffffffffffffffff168473ffffffffffffffffffffffffffffffffffffffff167f8c5be1e5ebec7d5bd14f71427d1e84f3dd0314c0f7b2291e5b200ac8c7c3b925846040516124379190612710565b60405180910390a35b50505050565b6040518060e001604052805f60020b81526020015f60020b81526020015f6fffffffffffffffffffffffffffffffff1681526020015f81526020015f81526020015f81526020015f81525090565b60405180610100016040528060608152602001606081526020015f73ffffffffffffffffffffffffffffffffffffffff1681526020015f73ffffffffffffffffffffffffffffffffffffffff1681526020015f62ffffff1681526020015f81526020015f81526020015f151581525090565b5f5ffd5b5f5ffd5b5f819050919050565b6125208161250e565b811461252a575f5ffd5b50565b5f8135905061253b81612517565b92915050565b5f73ffffffffffffffffffffffffffffffffffffffff82169050919050565b5f61256a82612541565b9050919050565b61257a81612560565b8114612584575f5ffd5b50565b5f8135905061259581612571565b92915050565b5f5f604083850312156125b1576125b0612506565b5b5f6125be8582860161252d565b92505060206125cf85828601612587565b9150509250929050565b6125e28161250e565b82525050565b5f6040820190506125fb5f8301856125d9565b61260860208301846125d9565b9392505050565b5f81519050919050565b5f82825260208201905092915050565b8281835e5f83830152505050565b5f601f19601f8301169050919050565b5f6126518261260f565b61265b8185612619565b935061266b818560208601612629565b61267481612637565b840191505092915050565b5f6020820190508181035f8301526126978184612647565b905092915050565b5f5f604083850312156126b5576126b4612506565b5b5f6126c285828601612587565b92505060206126d38582860161252d565b9150509250929050565b5f8115159050919050565b6126f1816126dd565b82525050565b5f60208201905061270a5f8301846126e8565b92915050565b5f6020820190506127235f8301846125d9565b92915050565b5f819050919050565b61273b81612729565b8114612745575f5ffd5b50565b5f8135905061275681612732565b92915050565b5f6020828403121561277157612770612506565b5b5f61277e84828501612748565b91505092915050565b5f5f5f6060848603121561279e5761279d612506565b5b5f6127ab86828701612587565b93505060206127bc86828701612587565b92505060406127cd8682870161252d565b9150509250925092565b5f60ff82169050919050565b6127ec816127d7565b82525050565b5f6020820190506128055f8301846127e3565b92915050565b61281481612560565b82525050565b5f60208201905061282d5f83018461280b565b92915050565b5f6020828403121561284857612847612506565b5b5f61285584828501612587565b91505092915050565b5f8160020b9050919050565b6128738161285e565b82525050565b5f6fffffffffffffffffffffffffffffffff82169050919050565b61289d81612879565b82525050565b6128ac8161250e565b82525050565b60e082015f8201516128c65f85018261286a565b5060208201516128d9602085018261286a565b5060408201516128ec6040850182612894565b5060608201516128ff60608501826128a3565b50608082015161291260808501826128a3565b5060a082015161292560a08501826128a3565b5060c082015161293860c08501826128a3565b50505050565b5f60e0820190506129515f8301846128b2565b92915050565b5f62ffffff82169050919050565b61296e81612957565b82525050565b5f610100820190508181035f83015261298d818b612647565b905081810360208301526129a1818a612647565b90506129b0604083018961280b565b6129bd606083018861280b565b6129ca6080830187612965565b6129d760a08301866125d9565b6129e460c08301856125d9565b6129f160e08301846126e8565b9998505050505050505050565b5f82825260208201905092915050565b5f612a188261260f565b612a2281856129fe565b9350612a32818560208601612629565b612a3b81612637565b840191505092915050565b612a4f81612560565b82525050565b612a5e81612957565b82525050565b612a6d816126dd565b82525050565b5f61010083015f8301518482035f860152612a8e8282612a0e565b91505060208301518482036020860152612aa88282612a0e565b9150506040830151612abd6040860182612a46565b506060830151612ad06060860182612a46565b506080830151612ae36080860182612a55565b5060a0830151612af660a08601826128a3565b5060c0830151612b0960c08601826128a3565b5060e0830151612b1c60e0860182612a64565b508091505092915050565b5f6020820190508181035f830152612b3f8184612a73565b905092915050565b5f5f5f60608486031215612b5e57612b5d612506565b5b5f612b6b8682870161252d565b9350506020612b7c8682870161252d565b9250506040612b8d86828701612587565b9150509250925092565b612ba08161285e565b82525050565b612baf81612879565b82525050565b5f60e082019050612bc85f83018a612b97565b612bd56020830189612b97565b612be26040830188612ba6565b612bef60608301876125d9565b612bfc60808301866125d9565b612c0960a08301856125d9565b612c1660c08301846125d9565b98975050505050505050565b5f5f60408385031215612c3857612c37612506565b5b5f612c4585828601612587565b9250506020612c5685828601612587565b9150509250929050565b5f5ffd5b5f60c08284031215612c7957612c78612c60565b5b81905092915050565b5f60208284031215612c9757612c96612506565b5b5f82013567ffffffffffffffff811115612cb457612cb361250a565b5b612cc084828501612c64565b91505092915050565b7f496e76616c696420636861696e000000000000000000000000000000000000005f82015250565b5f612cfd600d83612619565b9150612d0882612cc9565b602082019050919050565b5f6020820190508181035f830152612d2a81612cf1565b9050919050565b7f5661756c742070617573656400000000000000000000000000000000000000005f82015250565b5f612d65600c83612619565b9150612d7082612d31565b602082019050919050565b5f6020820190508181035f830152612d9281612d59565b9050919050565b7f496e76616c6964207368617265730000000000000000000000000000000000005f82015250565b5f612dcd600e83612619565b9150612dd882612d99565b602082019050919050565b5f6020820190508181035f830152612dfa81612dc1565b9050919050565b7f496e73756666696369656e7420736861726573000000000000000000000000005f82015250565b5f612e35601383612619565b9150612e4082612e01565b602082019050919050565b5f6020820190508181035f830152612e6281612e29565b9050919050565b7f4e487b71000000000000000000000000000000000000000000000000000000005f52601160045260245ffd5b5f612ea08261250e565b9150612eab8361250e565b9250828202612eb98161250e565b91508282048414831517612ed057612ecf612e69565b5b5092915050565b7f4e487b71000000000000000000000000000000000000000000000000000000005f52601260045260245ffd5b5f612f0e8261250e565b9150612f198361250e565b925082612f2957612f28612ed7565b5b828204905092915050565b5f604082019050612f475f83018561280b565b612f5460208301846125d9565b9392505050565b612f64816126dd565b8114612f6e575f5ffd5b50565b5f81519050612f7f81612f5b565b92915050565b5f60208284031215612f9a57612f99612506565b5b5f612fa784828501612f71565b91505092915050565b7f4e487b71000000000000000000000000000000000000000000000000000000005f52602260045260245ffd5b5f6002820490506001821680612ff457607f821691505b60208210810361300757613006612fb0565b5b50919050565b7f496e76616c6964206f7261636c650000000000000000000000000000000000005f82015250565b5f613041600e83612619565b915061304c8261300d565b602082019050919050565b5f6020820190508181035f83015261306e81613035565b9050919050565b7f496e76616c696420616d6f756e747300000000000000000000000000000000005f82015250565b5f6130a9600f83612619565b91506130b482613075565b602082019050919050565b5f6020820190508181035f8301526130d68161309d565b9050919050565b7f496e76616c696420726563697069656e740000000000000000000000000000005f82015250565b5f613111601183612619565b915061311c826130dd565b602082019050919050565b5f6020820190508181035f83015261313e81613105565b9050919050565b7f496e73756666696369656e7420696e697469616c206c697175696469747900005f82015250565b5f613179601e83612619565b915061318482613145565b602082019050919050565b5f6020820190508181035f8301526131a68161316d565b9050919050565b5f6131b78261250e565b91506131c28361250e565b92508282039050818111156131da576131d9612e69565b5b92915050565b5f6131ea8261250e565b91506131f58361250e565b925082820190508082111561320d5761320c612e69565b5b92915050565b5f6060820190506132265f83018661280b565b613233602083018561280b565b61324060408301846125d9565b949350505050565b7f556e617574686f72697a6564204149206f7261636c65000000000000000000005f82015250565b5f61327c601683612619565b915061328782613248565b602082019050919050565b5f6020820190508181035f8301526132a981613270565b9050919050565b7f526562616c616e636520746f6f206672657175656e74000000000000000000005f82015250565b5f6132e4601683612619565b91506132ef826132b0565b602082019050919050565b5f6020820190508181035f830152613311816132d8565b9050919050565b6133218161285e565b811461332b575f5ffd5b50565b5f8135905061333c81613318565b92915050565b5f6020828403121561335757613356612506565b5b5f6133648482850161332e565b91505092915050565b5f8160e81b9050919050565b5f6133838261336d565b9050919050565b61339b6133968261285e565b613379565b82525050565b5f819050919050565b6133bb6133b68261250e565b6133a1565b82525050565b5f6133cc828761338a565b6003820191506133dc828661338a565b6003820191506133ec82856133aa565b6020820191506133fc82846133aa565b60208201915081905095945050505050565b7f5265717565737420616c726561647920657865637574656400000000000000005f82015250565b5f613442601883612619565b915061344d8261340e565b602082019050919050565b5f6020820190508181035f83015261346f81613436565b9050919050565b7f52657175657374206578706972656400000000000000000000000000000000005f82015250565b5f6134aa600f83612619565b91506134b582613476565b602082019050919050565b5f6020820190508181035f8301526134d78161349e565b9050919050565b5f6080820190506134f15f830187612b97565b6134fe6020830186612b97565b61350b6040830185612b97565b6135186060830184612b97565b95945050505050565b5f8151905061352f81612517565b92915050565b5f6020828403121561354a57613549612506565b5b5f61355784828501613521565b91505092915050565b5f6060820190506135735f83018661280b565b61358060208301856125d9565b61358d60408301846125d9565b94935050505056fea2646970667358221220b33d14ef8fe0f47193a5d5bafbe3993ce7aa8f6060efeb074028947eb3d5801264736f6c634300081e0033a26469706673582212202e0c8215d6cc9f950463601bdfe7ea15042562dea2d726a7cceb6e1139f7bbaa64736f6c634300081e0033","linkReferences":{}},"methodIdentifiers":{"SEI_CHAIN_ID()":"c7f07447","allVaults(uint256)":"9094a91e","allVaultsLength()":"4cd18577","createVault((string,string,address,address,uint24,address))":"46ebfa80","creationFee()":"dce0b4e4","defaultAIOracle()":"b8aa85ea","getVault(bytes32)":"b7c61f06","isVault(address)":"652b9b41","owner()":"8da5cb5b","renounceOwnership()":"715018a6","setCreationFee(uint256)":"b7d86225","setDefaultAIOracle(address)":"a5bbf9c9","transferOwnership(address)":"f2fde38b","withdrawFees()":"476343ee"},"id":42}