{"abi":[{"type":"constructor","inputs":[{"name":"name","type":"string","internalType":"string"},{"name":"symbol","type":"string","internalType":"string"},{"name":"_token0","type":"address","internalType":"address"},{"name":"_token1","type":"address","internalType":"address"},{"name":"_poolFee","type":"uint24","internalType":"uint24"},{"name":"_aiOracle","type":"address","internalType":"address"},{"name":"initialOwner","type":"address","internalType":"address"}],"stateMutability":"nonpayable"},{"type":"function","name":"FEE_PRECISION","inputs":[],"outputs":[{"name":"","type":"uint256","internalType":"uint256"}],"stateMutability":"view"},{"type":"function","name":"MANAGEMENT_FEE","inputs":[],"outputs":[{"name":"","type":"uint256","internalType":"uint256"}],"stateMutability":"view"},{"type":"function","name":"MIN_REBALANCE_INTERVAL","inputs":[],"outputs":[{"name":"","type":"uint256","internalType":"uint256"}],"stateMutability":"view"},{"type":"function","name":"PERFORMANCE_FEE","inputs":[],"outputs":[{"name":"","type":"uint256","internalType":"uint256"}],"stateMutability":"view"},{"type":"function","name":"SEI_CHAIN_ID","inputs":[],"outputs":[{"name":"","type":"uint256","internalType":"uint256"}],"stateMutability":"view"},{"type":"function","name":"aiOracle","inputs":[],"outputs":[{"name":"","type":"address","internalType":"address"}],"stateMutability":"view"},{"type":"function","name":"allowance","inputs":[{"name":"owner","type":"address","internalType":"address"},{"name":"spender","type":"address","internalType":"address"}],"outputs":[{"name":"","type":"uint256","internalType":"uint256"}],"stateMutability":"view"},{"type":"function","name":"approve","inputs":[{"name":"spender","type":"address","internalType":"address"},{"name":"value","type":"uint256","internalType":"uint256"}],"outputs":[{"name":"","type":"bool","internalType":"bool"}],"stateMutability":"nonpayable"},{"type":"function","name":"balanceOf","inputs":[{"name":"account","type":"address","internalType":"address"}],"outputs":[{"name":"","type":"uint256","internalType":"uint256"}],"stateMutability":"view"},{"type":"function","name":"currentPosition","inputs":[],"outputs":[{"name":"tickLower","type":"int24","internalType":"int24"},{"name":"tickUpper","type":"int24","internalType":"int24"},{"name":"liquidity","type":"uint128","internalType":"uint128"},{"name":"tokensOwed0","type":"uint256","internalType":"uint256"},{"name":"tokensOwed1","type":"uint256","internalType":"uint256"},{"name":"feeGrowthInside0LastX128","type":"uint256","internalType":"uint256"},{"name":"feeGrowthInside1LastX128","type":"uint256","internalType":"uint256"}],"stateMutability":"view"},{"type":"function","name":"decimals","inputs":[],"outputs":[{"name":"","type":"uint8","internalType":"uint8"}],"stateMutability":"view"},{"type":"function","name":"deposit","inputs":[{"name":"amount0","type":"uint256","internalType":"uint256"},{"name":"amount1","type":"uint256","internalType":"uint256"},{"name":"recipient","type":"address","internalType":"address"}],"outputs":[{"name":"shares","type":"uint256","internalType":"uint256"}],"stateMutability":"nonpayable"},{"type":"function","name":"emergencyPause","inputs":[],"outputs":[],"stateMutability":"nonpayable"},{"type":"function","name":"emergencyPaused","inputs":[],"outputs":[{"name":"","type":"bool","internalType":"bool"}],"stateMutability":"view"},{"type":"function","name":"executedAIRequests","inputs":[{"name":"","type":"bytes32","internalType":"bytes32"}],"outputs":[{"name":"","type":"bool","internalType":"bool"}],"stateMutability":"view"},{"type":"function","name":"getCurrentPosition","inputs":[],"outputs":[{"name":"","type":"tuple","internalType":"struct IStrategyVault.Position","components":[{"name":"tickLower","type":"int24","internalType":"int24"},{"name":"tickUpper","type":"int24","internalType":"int24"},{"name":"liquidity","type":"uint128","internalType":"uint128"},{"name":"tokensOwed0","type":"uint256","internalType":"uint256"},{"name":"tokensOwed1","type":"uint256","internalType":"uint256"},{"name":"feeGrowthInside0LastX128","type":"uint256","internalType":"uint256"},{"name":"feeGrowthInside1LastX128","type":"uint256","internalType":"uint256"}]}],"stateMutability":"view"},{"type":"function","name":"getVaultInfo","inputs":[],"outputs":[{"name":"","type":"tuple","internalType":"struct IStrategyVault.VaultInfo","components":[{"name":"name","type":"string","internalType":"string"},{"name":"strategy","type":"string","internalType":"string"},{"name":"token0","type":"address","internalType":"address"},{"name":"token1","type":"address","internalType":"address"},{"name":"poolFee","type":"uint24","internalType":"uint24"},{"name":"totalSupply","type":"uint256","internalType":"uint256"},{"name":"totalValueLocked","type":"uint256","internalType":"uint256"},{"name":"isActive","type":"bool","internalType":"bool"}]}],"stateMutability":"view"},{"type":"function","name":"lastRebalance","inputs":[],"outputs":[{"name":"","type":"uint256","internalType":"uint256"}],"stateMutability":"view"},{"type":"function","name":"name","inputs":[],"outputs":[{"name":"","type":"string","internalType":"string"}],"stateMutability":"view"},{"type":"function","name":"owner","inputs":[],"outputs":[{"name":"","type":"address","internalType":"address"}],"stateMutability":"view"},{"type":"function","name":"rebalance","inputs":[{"name":"params","type":"tuple","internalType":"struct IStrategyVault.AIRebalanceParams","components":[{"name":"newTickLower","type":"int24","internalType":"int24"},{"name":"newTickUpper","type":"int24","internalType":"int24"},{"name":"minAmount0","type":"uint256","internalType":"uint256"},{"name":"minAmount1","type":"uint256","internalType":"uint256"},{"name":"deadline","type":"uint256","internalType":"uint256"},{"name":"aiSignature","type":"bytes","internalType":"bytes"}]}],"outputs":[],"stateMutability":"nonpayable"},{"type":"function","name":"renounceOwnership","inputs":[],"outputs":[],"stateMutability":"nonpayable"},{"type":"function","name":"resume","inputs":[],"outputs":[],"stateMutability":"nonpayable"},{"type":"function","name":"symbol","inputs":[],"outputs":[{"name":"","type":"string","internalType":"string"}],"stateMutability":"view"},{"type":"function","name":"totalSupply","inputs":[],"outputs":[{"name":"","type":"uint256","internalType":"uint256"}],"stateMutability":"view"},{"type":"function","name":"transfer","inputs":[{"name":"to","type":"address","internalType":"address"},{"name":"value","type":"uint256","internalType":"uint256"}],"outputs":[{"name":"","type":"bool","internalType":"bool"}],"stateMutability":"nonpayable"},{"type":"function","name":"transferFrom","inputs":[{"name":"from","type":"address","internalType":"address"},{"name":"to","type":"address","internalType":"address"},{"name":"value","type":"uint256","internalType":"uint256"}],"outputs":[{"name":"","type":"bool","internalType":"bool"}],"stateMutability":"nonpayable"},{"type":"function","name":"transferOwnership","inputs":[{"name":"newOwner","type":"address","internalType":"address"}],"outputs":[],"stateMutability":"nonpayable"},{"type":"function","name":"updateAIOracle","inputs":[{"name":"newOracle","type":"address","internalType":"address"}],"outputs":[],"stateMutability":"nonpayable"},{"type":"function","name":"vaultInfo","inputs":[],"outputs":[{"name":"name","type":"string","internalType":"string"},{"name":"strategy","type":"string","internalType":"string"},{"name":"token0","type":"address","internalType":"address"},{"name":"token1","type":"address","internalType":"address"},{"name":"poolFee","type":"uint24","internalType":"uint24"},{"name":"totalSupply","type":"uint256","internalType":"uint256"},{"name":"totalValueLocked","type":"uint256","internalType":"uint256"},{"name":"isActive","type":"bool","internalType":"bool"}],"stateMutability":"view"},{"type":"function","name":"withdraw","inputs":[{"name":"shares","type":"uint256","internalType":"uint256"},{"name":"recipient","type":"address","internalType":"address"}],"outputs":[{"name":"amount0","type":"uint256","internalType":"uint256"},{"name":"amount1","type":"uint256","internalType":"uint256"}],"stateMutability":"nonpayable"},{"type":"event","name":"AIRebalanceExecuted","inputs":[{"name":"aiRequestId","type":"bytes32","indexed":true,"internalType":"bytes32"},{"name":"gasUsed","type":"uint256","indexed":false,"internalType":"uint256"}],"anonymous":false},{"type":"event","name":"Approval","inputs":[{"name":"owner","type":"address","indexed":true,"internalType":"address"},{"name":"spender","type":"address","indexed":true,"internalType":"address"},{"name":"value","type":"uint256","indexed":false,"internalType":"uint256"}],"anonymous":false},{"type":"event","name":"OwnershipTransferred","inputs":[{"name":"previousOwner","type":"address","indexed":true,"internalType":"address"},{"name":"newOwner","type":"address","indexed":true,"internalType":"address"}],"anonymous":false},{"type":"event","name":"PositionRebalanced","inputs":[{"name":"oldTickLower","type":"int24","indexed":false,"internalType":"int24"},{"name":"oldTickUpper","type":"int24","indexed":false,"internalType":"int24"},{"name":"newTickLower","type":"int24","indexed":false,"internalType":"int24"},{"name":"newTickUpper","type":"int24","indexed":false,"internalType":"int24"}],"anonymous":false},{"type":"event","name":"Transfer","inputs":[{"name":"from","type":"address","indexed":true,"internalType":"address"},{"name":"to","type":"address","indexed":true,"internalType":"address"},{"name":"value","type":"uint256","indexed":false,"internalType":"uint256"}],"anonymous":false},{"type":"event","name":"VaultCreated","inputs":[{"name":"vault","type":"address","indexed":true,"internalType":"address"},{"name":"name","type":"string","indexed":false,"internalType":"string"},{"name":"token0","type":"address","indexed":false,"internalType":"address"},{"name":"token1","type":"address","indexed":false,"internalType":"address"}],"anonymous":false},{"type":"error","name":"ERC20InsufficientAllowance","inputs":[{"name":"spender","type":"address","internalType":"address"},{"name":"allowance","type":"uint256","internalType":"uint256"},{"name":"needed","type":"uint256","internalType":"uint256"}]},{"type":"error","name":"ERC20InsufficientBalance","inputs":[{"name":"sender","type":"address","internalType":"address"},{"name":"balance","type":"uint256","internalType":"uint256"},{"name":"needed","type":"uint256","internalType":"uint256"}]},{"type":"error","name":"ERC20InvalidApprover","inputs":[{"name":"approver","type":"address","internalType":"address"}]},{"type":"error","name":"ERC20InvalidReceiver","inputs":[{"name":"receiver","type":"address","internalType":"address"}]},{"type":"error","name":"ERC20InvalidSender","inputs":[{"name":"sender","type":"address","internalType":"address"}]},{"type":"error","name":"ERC20InvalidSpender","inputs":[{"name":"spender","type":"address","internalType":"address"}]},{"type":"error","name":"OwnableInvalidOwner","inputs":[{"name":"owner","type":"address","internalType":"address"}]},{"type":"error","name":"OwnableUnauthorizedAccount","inputs":[{"name":"account","type":"address","internalType":"address"}]},{"type":"error","name":"ReentrancyGuardReentrantCall","inputs":[]}],"bytecode":{"object":"0x60806040525f60155f6101000a81548160ff02191690831515021790555034801562000029575f80fd5b50604051620041b4380380620041b483398181016040528101906200004f91906200068e565b8087878160039081620000639190620009b1565b508060049081620000759190620009b1565b5050505f73ffffffffffffffffffffffffffffffffffffffff168173ffffffffffffffffffffffffffffffffffffffff1603620000eb575f6040517f1e4fbdf7000000000000000000000000000000000000000000000000000000008152600401620000e2919062000aa6565b60405180910390fd5b620000fc81620003a860201b60201c565b506001600681905550620ae3f346146200014d576040517f08c379a0000000000000000000000000000000000000000000000000000000008152600401620001449062000b1f565b60405180910390fd5b6040518061010001604052808881526020016040518060400160405280601481526020017f41495f44594e414d49435f4c495155494449545900000000000000000000000081525081526020018673ffffffffffffffffffffffffffffffffffffffff1681526020018573ffffffffffffffffffffffffffffffffffffffff1681526020018462ffffff1681526020015f81526020015f81526020016001151581525060075f820151815f019081620002079190620009b1565b5060208201518160010190816200021f9190620009b1565b506040820151816002015f6101000a81548173ffffffffffffffffffffffffffffffffffffffff021916908373ffffffffffffffffffffffffffffffffffffffff1602179055506060820151816003015f6101000a81548173ffffffffffffffffffffffffffffffffffffffff021916908373ffffffffffffffffffffffffffffffffffffffff16021790555060808201518160030160146101000a81548162ffffff021916908362ffffff16021790555060a0820151816004015560c0820151816005015560e0820151816006015f6101000a81548160ff0219169083151502179055509050508160135f6101000a81548173ffffffffffffffffffffffffffffffffffffffff021916908373ffffffffffffffffffffffffffffffffffffffff1602179055503073ffffffffffffffffffffffffffffffffffffffff167fa8ca87c5f5e04d4b4644da1612143a77fef7e3e6bfcae78c91c102763f9110fe888787604051620003939392919062000b7f565b60405180910390a25050505050505062000bc1565b5f60055f9054906101000a900473ffffffffffffffffffffffffffffffffffffffff1690508160055f6101000a81548173ffffffffffffffffffffffffffffffffffffffff021916908373ffffffffffffffffffffffffffffffffffffffff1602179055508173ffffffffffffffffffffffffffffffffffffffff168173ffffffffffffffffffffffffffffffffffffffff167f8be0079c531659141344cd1fd0a4f28419497f9722a3daafe3b4186f6b6457e060405160405180910390a35050565b5f604051905090565b5f80fd5b5f80fd5b5f80fd5b5f80fd5b5f601f19601f8301169050919050565b7f4e487b71000000000000000000000000000000000000000000000000000000005f52604160045260245ffd5b620004cc8262000484565b810181811067ffffffffffffffff82111715620004ee57620004ed62000494565b5b80604052505050565b5f620005026200046b565b9050620005108282620004c1565b919050565b5f67ffffffffffffffff82111562000532576200053162000494565b5b6200053d8262000484565b9050602081019050919050565b5f5b83811015620005695780820151818401526020810190506200054c565b5f8484015250505050565b5f6200058a620005848462000515565b620004f7565b905082815260208101848484011115620005a957620005a862000480565b5b620005b68482856200054a565b509392505050565b5f82601f830112620005d557620005d46200047c565b5b8151620005e784826020860162000574565b91505092915050565b5f73ffffffffffffffffffffffffffffffffffffffff82169050919050565b5f6200061b82620005f0565b9050919050565b6200062d816200060f565b811462000638575f80fd5b50565b5f815190506200064b8162000622565b92915050565b5f62ffffff82169050919050565b6200066a8162000651565b811462000675575f80fd5b50565b5f8151905062000688816200065f565b92915050565b5f805f805f805f60e0888a031215620006ac57620006ab62000474565b5b5f88015167ffffffffffffffff811115620006cc57620006cb62000478565b5b620006da8a828b01620005be565b975050602088015167ffffffffffffffff811115620006fe57620006fd62000478565b5b6200070c8a828b01620005be565b96505060406200071f8a828b016200063b565b9550506060620007328a828b016200063b565b9450506080620007458a828b0162000678565b93505060a0620007588a828b016200063b565b92505060c06200076b8a828b016200063b565b91505092959891949750929550565b5f81519050919050565b7f4e487b71000000000000000000000000000000000000000000000000000000005f52602260045260245ffd5b5f6002820490506001821680620007c957607f821691505b602082108103620007df57620007de62000784565b5b50919050565b5f819050815f5260205f209050919050565b5f6020601f8301049050919050565b5f82821b905092915050565b5f60088302620008437fffffffffffffffffffffffffffffffffffffffffffffffffffffffffffffffff8262000806565b6200084f868362000806565b95508019841693508086168417925050509392505050565b5f819050919050565b5f819050919050565b5f62000899620008936200088d8462000867565b62000870565b62000867565b9050919050565b5f819050919050565b620008b48362000879565b620008cc620008c382620008a0565b84845462000812565b825550505050565b5f90565b620008e2620008d4565b620008ef818484620008a9565b505050565b5b8181101562000916576200090a5f82620008d8565b600181019050620008f5565b5050565b601f82111562000965576200092f81620007e5565b6200093a84620007f7565b810160208510156200094a578190505b620009626200095985620007f7565b830182620008f4565b50505b505050565b5f82821c905092915050565b5f620009875f19846008026200096a565b1980831691505092915050565b5f620009a1838362000976565b9150826002028217905092915050565b620009bc826200077a565b67ffffffffffffffff811115620009d857620009d762000494565b5b620009e48254620007b1565b620009f18282856200091a565b5f60209050601f83116001811462000a27575f841562000a12578287015190505b62000a1e858262000994565b86555062000a8d565b601f19841662000a3786620007e5565b5f5b8281101562000a605784890151825560018201915060208501945060208101905062000a39565b8683101562000a80578489015162000a7c601f89168262000976565b8355505b6001600288020188555050505b505050505050565b62000aa0816200060f565b82525050565b5f60208201905062000abb5f83018462000a95565b92915050565b5f82825260208201905092915050565b7f496e76616c696420636861696e000000000000000000000000000000000000005f82015250565b5f62000b07600d8362000ac1565b915062000b148262000ad1565b602082019050919050565b5f6020820190508181035f83015262000b388162000af9565b9050919050565b5f62000b4b826200077a565b62000b57818562000ac1565b935062000b698185602086016200054a565b62000b748162000484565b840191505092915050565b5f6060820190508181035f83015262000b99818662000b3f565b905062000baa602083018562000a95565b62000bb9604083018462000a95565b949350505050565b6135e58062000bcf5f395ff3fe608060405234801561000f575f80fd5b50600436106101e2575f3560e01c806351858e271161010d578063a9059cbb116100a0578063e63a391f1161006f578063e63a391f14610570578063e93f56651461058e578063f2fde38b146105ac578063fa95e4da146105c8576101e2565b8063a9059cbb146104ce578063c7f07447146104fe578063d534d6361461051c578063dd62ed3e14610540576101e2565b80637f98aa71116100dc5780637f98aa71146104445780638da5cb5b146104625780638dbdbe6d1461048057806395d89b41146104b0576101e2565b806351858e27146103e25780635f1554e3146103ec57806370a082311461040a578063715018a61461043a576101e2565b806323b872dd11610185578063350e422111610154578063350e4221146103655780633f2df4ad14610383578063418f35cc1461039f578063501ec738146103bd576101e2565b806323b872dd146102db57806327c830a91461030b578063313ce5671461032957806331b221cd14610347576101e2565b8063095ea7b3116101c1578063095ea7b31461023f578063106b9ca11461026f57806318160ddd1461028d578063205134ce146102ab576101e2565b8062f714ce146101e6578063046f7da21461021757806306fdde0314610221575b5f80fd5b61020060048036038101906101fb919061259b565b6105e4565b60405161020e9291906125e8565b60405180910390f35b61021f6108e8565b005b61022961090b565b6040516102369190612699565b60405180910390f35b610259600480360381019061025491906126b9565b61099b565b6040516102669190612711565b60405180910390f35b6102776109bd565b604051610284919061272a565b60405180910390f35b6102956109c3565b6040516102a2919061272a565b60405180910390f35b6102c560048036038101906102c09190612776565b6109cc565b6040516102d29190612711565b60405180910390f35b6102f560048036038101906102f091906127a1565b6109e9565b6040516103029190612711565b60405180910390f35b610313610a17565b6040516103209190612711565b60405180910390f35b610331610a29565b60405161033e919061280c565b60405180910390f35b61034f610a31565b60405161035c9190612834565b60405180910390f35b61036d610a56565b60405161037a919061272a565b60405180910390f35b61039d6004803603810190610398919061284d565b610a5c565b005b6103a7610b15565b6040516103b49190612958565b60405180910390f35b6103c5610bd7565b6040516103d998979695949392919061298e565b60405180910390f35b6103ea610d71565b005b6103f4610d95565b604051610401919061272a565b60405180910390f35b610424600480360381019061041f919061284d565b610d9a565b604051610431919061272a565b60405180910390f35b610442610ddf565b005b61044c610df2565b6040516104599190612b41565b60405180910390f35b61046a611027565b6040516104779190612834565b60405180910390f35b61049a60048036038101906104959190612b61565b61104f565b6040516104a7919061272a565b60405180910390f35b6104b861142e565b6040516104c59190612699565b60405180910390f35b6104e860048036038101906104e391906126b9565b6114be565b6040516104f59190612711565b60405180910390f35b6105066114e0565b604051610513919061272a565b60405180910390f35b6105246114e7565b6040516105379796959493929190612bcf565b60405180910390f35b61055a60048036038101906105559190612c3c565b611549565b604051610567919061272a565b60405180910390f35b6105786115cb565b604051610585919061272a565b60405180910390f35b6105966115d1565b6040516105a3919061272a565b60405180910390f35b6105c660048036038101906105c1919061284d565b6115d7565b005b6105e260048036038101906105dd9190612c9c565b61165b565b005b5f806105ee6119e8565b620ae3f34614610633576040517f08c379a000000000000000000000000000000000000000000000000000000000815260040161062a90612d2d565b60405180910390fd5b60155f9054906101000a900460ff1615610682576040517f08c379a000000000000000000000000000000000000000000000000000000000815260040161067990612d95565b60405180910390fd5b5f84116106c4576040517f08c379a00000000000000000000000000000000000000000000000000000000081526004016106bb90612dfd565b60405180910390fd5b6106cd33610d9a565b84111561070f576040517f08c379a000000000000000000000000000000000000000000000000000000000815260040161070690612e65565b60405180910390fd5b5f6107186109c3565b905080610723611a2e565b8661072e9190612eb0565b6107389190612f1e565b925080610743611ad0565b8661074e9190612eb0565b6107589190612f1e565b91506107643386611b72565b5f83111561080d5760076002015f9054906101000a900473ffffffffffffffffffffffffffffffffffffffff1673ffffffffffffffffffffffffffffffffffffffff1663a9059cbb85856040518363ffffffff1660e01b81526004016107cb929190612f4e565b6020604051808303815f875af11580156107e7573d5f803e3d5ffd5b505050506040513d601f19601f8201168201806040525081019061080b9190612f9f565b505b5f8211156108b65760076003015f9054906101000a900473ffffffffffffffffffffffffffffffffffffffff1673ffffffffffffffffffffffffffffffffffffffff1663a9059cbb85846040518363ffffffff1660e01b8152600401610874929190612f4e565b6020604051808303815f875af1158015610890573d5f803e3d5ffd5b505050506040513d601f19601f820116820180604052508101906108b49190612f9f565b505b6108be6109c3565b6007600401819055506108cf611bf1565b600760050181905550506108e1611c11565b9250929050565b6108f0611c1b565b5f60155f6101000a81548160ff021916908315150217905550565b60606003805461091a90612ff7565b80601f016020809104026020016040519081016040528092919081815260200182805461094690612ff7565b80156109915780601f1061096857610100808354040283529160200191610991565b820191905f5260205f20905b81548152906001019060200180831161097457829003601f168201915b5050505050905090565b5f806109a5611ca2565b90506109b2818585611ca9565b600191505092915050565b60165481565b5f600254905090565b6014602052805f5260405f205f915054906101000a900460ff1681565b5f806109f3611ca2565b9050610a00858285611cbb565b610a0b858585611d4e565b60019150509392505050565b60155f9054906101000a900460ff1681565b5f6012905090565b60135f9054906101000a900473ffffffffffffffffffffffffffffffffffffffff1681565b610e1081565b610a64611c1b565b5f73ffffffffffffffffffffffffffffffffffffffff168173ffffffffffffffffffffffffffffffffffffffff1603610ad2576040517f08c379a0000000000000000000000000000000000000000000000000000000008152600401610ac990613071565b60405180910390fd5b8060135f6101000a81548173ffffffffffffffffffffffffffffffffffffffff021916908373ffffffffffffffffffffffffffffffffffffffff16021790555050565b610b1d612446565b600e6040518060e00160405290815f82015f9054906101000a900460020b60020b60020b81526020015f820160039054906101000a900460020b60020b60020b81526020015f820160069054906101000a90046fffffffffffffffffffffffffffffffff166fffffffffffffffffffffffffffffffff166fffffffffffffffffffffffffffffffff168152602001600182015481526020016002820154815260200160038201548152602001600482015481525050905090565b6007805f018054610be790612ff7565b80601f0160208091040260200160405190810160405280929190818152602001828054610c1390612ff7565b8015610c5e5780601f10610c3557610100808354040283529160200191610c5e565b820191905f5260205f20905b815481529060010190602001808311610c4157829003601f168201915b505050505090806001018054610c7390612ff7565b80601f0160208091040260200160405190810160405280929190818152602001828054610c9f90612ff7565b8015610cea5780601f10610cc157610100808354040283529160200191610cea565b820191905f5260205f20905b815481529060010190602001808311610ccd57829003601f168201915b505050505090806002015f9054906101000a900473ffffffffffffffffffffffffffffffffffffffff1690806003015f9054906101000a900473ffffffffffffffffffffffffffffffffffffffff16908060030160149054906101000a900462ffffff1690806004015490806005015490806006015f9054906101000a900460ff16905088565b610d79611c1b565b600160155f6101000a81548160ff021916908315150217905550565b606481565b5f805f8373ffffffffffffffffffffffffffffffffffffffff1673ffffffffffffffffffffffffffffffffffffffff1681526020019081526020015f20549050919050565b610de7611c1b565b610df05f611e3e565b565b610dfa612494565b6007604051806101000160405290815f82018054610e1790612ff7565b80601f0160208091040260200160405190810160405280929190818152602001828054610e4390612ff7565b8015610e8e5780601f10610e6557610100808354040283529160200191610e8e565b820191905f5260205f20905b815481529060010190602001808311610e7157829003601f168201915b50505050508152602001600182018054610ea790612ff7565b80601f0160208091040260200160405190810160405280929190818152602001828054610ed390612ff7565b8015610f1e5780601f10610ef557610100808354040283529160200191610f1e565b820191905f5260205f20905b815481529060010190602001808311610f0157829003601f168201915b50505050508152602001600282015f9054906101000a900473ffffffffffffffffffffffffffffffffffffffff1673ffffffffffffffffffffffffffffffffffffffff1673ffffffffffffffffffffffffffffffffffffffff168152602001600382015f9054906101000a900473ffffffffffffffffffffffffffffffffffffffff1673ffffffffffffffffffffffffffffffffffffffff1673ffffffffffffffffffffffffffffffffffffffff1681526020016003820160149054906101000a900462ffffff1662ffffff1662ffffff1681526020016004820154815260200160058201548152602001600682015f9054906101000a900460ff161515151581525050905090565b5f60055f9054906101000a900473ffffffffffffffffffffffffffffffffffffffff16905090565b5f6110586119e8565b620ae3f3461461109d576040517f08c379a000000000000000000000000000000000000000000000000000000000815260040161109490612d2d565b60405180910390fd5b60155f9054906101000a900460ff16156110ec576040517f08c379a00000000000000000000000000000000000000000000000000000000081526004016110e390612d95565b60405180910390fd5b5f8411806110f957505f83115b611138576040517f08c379a000000000000000000000000000000000000000000000000000000000815260040161112f906130d9565b60405180910390fd5b5f73ffffffffffffffffffffffffffffffffffffffff168273ffffffffffffffffffffffffffffffffffffffff16036111a6576040517f08c379a000000000000000000000000000000000000000000000000000000000815260040161119d90613141565b60405180910390fd5b5f6111af611bf1565b90505f6111ba6109c3565b90505f8103611232576111d785876111d29190612eb0565b611f01565b92506103e8831161121d576040517f08c379a0000000000000000000000000000000000000000000000000000000008152600401611214906131a9565b60405180910390fd5b6103e88361122b91906131c7565b925061129b565b5f61123b611a2e565b83886112479190612eb0565b6112519190612f1e565b90505f61125c611ad0565b84886112689190612eb0565b6112729190612f1e565b90508383828461128291906131fa565b61128c9190612eb0565b6112969190612f1e565b945050505b5f8611156113465760076002015f9054906101000a900473ffffffffffffffffffffffffffffffffffffffff1673ffffffffffffffffffffffffffffffffffffffff166323b872dd3330896040518463ffffffff1660e01b81526004016113049392919061322d565b6020604051808303815f875af1158015611320573d5f803e3d5ffd5b505050506040513d601f19601f820116820180604052508101906113449190612f9f565b505b5f8511156113f15760076003015f9054906101000a900473ffffffffffffffffffffffffffffffffffffffff1673ffffffffffffffffffffffffffffffffffffffff166323b872dd3330886040518463ffffffff1660e01b81526004016113af9392919061322d565b6020604051808303815f875af11580156113cb573d5f803e3d5ffd5b505050506040513d601f19601f820116820180604052508101906113ef9190612f9f565b505b6113fb8484611f72565b6114036109c3565b600760040181905550611414611bf1565b6007600501819055505050611427611c11565b9392505050565b60606004805461143d90612ff7565b80601f016020809104026020016040519081016040528092919081815260200182805461146990612ff7565b80156114b45780601f1061148b576101008083540402835291602001916114b4565b820191905f5260205f20905b81548152906001019060200180831161149757829003601f168201915b5050505050905090565b5f806114c8611ca2565b90506114d5818585611d4e565b600191505092915050565b620ae3f381565b600e805f015f9054906101000a900460020b90805f0160039054906101000a900460020b90805f0160069054906101000a90046fffffffffffffffffffffffffffffffff16908060010154908060020154908060030154908060040154905087565b5f60015f8473ffffffffffffffffffffffffffffffffffffffff1673ffffffffffffffffffffffffffffffffffffffff1681526020019081526020015f205f8373ffffffffffffffffffffffffffffffffffffffff1673ffffffffffffffffffffffffffffffffffffffff1681526020019081526020015f2054905092915050565b61271081565b6103e881565b6115df611c1b565b5f73ffffffffffffffffffffffffffffffffffffffff168173ffffffffffffffffffffffffffffffffffffffff160361164f575f6040517f1e4fbdf70000000000000000000000000000000000000000000000000000000081526004016116469190612834565b60405180910390fd5b61165881611e3e565b50565b60135f9054906101000a900473ffffffffffffffffffffffffffffffffffffffff1673ffffffffffffffffffffffffffffffffffffffff163373ffffffffffffffffffffffffffffffffffffffff16146116ea576040517f08c379a00000000000000000000000000000000000000000000000000000000081526004016116e1906132ac565b60405180910390fd5b6116f26119e8565b620ae3f34614611737576040517f08c379a000000000000000000000000000000000000000000000000000000000815260040161172e90612d2d565b60405180910390fd5b60155f9054906101000a900460ff1615611786576040517f08c379a000000000000000000000000000000000000000000000000000000000815260040161177d90612d95565b60405180910390fd5b5f60165414806117a55750610e106016546117a191906131fa565b4210155b6117e4576040517f08c379a00000000000000000000000000000000000000000000000000000000081526004016117db90613314565b60405180910390fd5b5f815f0160208101906117f7919061335c565b82602001602081019061180a919061335c565b83608001354260405160200161182394939291906133db565b60405160208183030381529060405280519060200120905060145f8281526020019081526020015f205f9054906101000a900460ff1615611899576040517f08c379a000000000000000000000000000000000000000000000000000000000815260040161189090613472565b60405180910390fd5b81608001354211156118e0576040517f08c379a00000000000000000000000000000000000000000000000000000000081526004016118d7906134da565b60405180910390fd5b600160145f8381526020019081526020015f205f6101000a81548160ff0219169083151502179055505f600e5f015f9054906101000a900460020b90505f600e5f0160039054906101000a900460020b905061193b84611ff1565b426016819055507f6833c06a8e15ec6c550b15e0d1903b2d3215e6c3f47be904e88d58472d56122b8282865f016020810190611977919061335c565b87602001602081019061198a919061335c565b60405161199a94939291906134f8565b60405180910390a1827fe419c54eef9bf2fbd3d740a2e91b28b93330120c37e79c4e088f87e14a815d535a6040516119d2919061272a565b60405180910390a25050506119e5611c11565b50565b600260065403611a24576040517f3ee5aeb500000000000000000000000000000000000000000000000000000000815260040160405180910390fd5b6002600681905550565b5f60076002015f9054906101000a900473ffffffffffffffffffffffffffffffffffffffff1673ffffffffffffffffffffffffffffffffffffffff166370a08231306040518263ffffffff1660e01b8152600401611a8c9190612834565b602060405180830381865afa158015611aa7573d5f803e3d5ffd5b505050506040513d601f19601f82011682018060405250810190611acb919061354f565b905090565b5f60076003015f9054906101000a900473ffffffffffffffffffffffffffffffffffffffff1673ffffffffffffffffffffffffffffffffffffffff166370a08231306040518263ffffffff1660e01b8152600401611b2e9190612834565b602060405180830381865afa158015611b49573d5f803e3d5ffd5b505050506040513d601f19601f82011682018060405250810190611b6d919061354f565b905090565b5f73ffffffffffffffffffffffffffffffffffffffff168273ffffffffffffffffffffffffffffffffffffffff1603611be2575f6040517f96c6fd1e000000000000000000000000000000000000000000000000000000008152600401611bd99190612834565b60405180910390fd5b611bed825f8361205e565b5050565b5f611bfa611ad0565b611c02611a2e565b611c0c91906131fa565b905090565b6001600681905550565b611c23611ca2565b73ffffffffffffffffffffffffffffffffffffffff16611c41611027565b73ffffffffffffffffffffffffffffffffffffffff1614611ca057611c64611ca2565b6040517f118cdaa7000000000000000000000000000000000000000000000000000000008152600401611c979190612834565b60405180910390fd5b565b5f33905090565b611cb68383836001612277565b505050565b5f611cc68484611549565b90507fffffffffffffffffffffffffffffffffffffffffffffffffffffffffffffffff811015611d485781811015611d39578281836040517ffb8f41b2000000000000000000000000000000000000000000000000000000008152600401611d309392919061357a565b60405180910390fd5b611d4784848484035f612277565b5b50505050565b5f73ffffffffffffffffffffffffffffffffffffffff168373ffffffffffffffffffffffffffffffffffffffff1603611dbe575f6040517f96c6fd1e000000000000000000000000000000000000000000000000000000008152600401611db59190612834565b60405180910390fd5b5f73ffffffffffffffffffffffffffffffffffffffff168273ffffffffffffffffffffffffffffffffffffffff1603611e2e575f6040517fec442f05000000000000000000000000000000000000000000000000000000008152600401611e259190612834565b60405180910390fd5b611e3983838361205e565b505050565b5f60055f9054906101000a900473ffffffffffffffffffffffffffffffffffffffff1690508160055f6101000a81548173ffffffffffffffffffffffffffffffffffffffff021916908373ffffffffffffffffffffffffffffffffffffffff1602179055508173ffffffffffffffffffffffffffffffffffffffff168173ffffffffffffffffffffffffffffffffffffffff167f8be0079c531659141344cd1fd0a4f28419497f9722a3daafe3b4186f6b6457e060405160405180910390a35050565b5f808203611f11575f9050611f6d565b5f6002600184611f2191906131fa565b611f2b9190612f1e565b90505f8390505b80821015611f67578190506002828386611f4c9190612f1e565b611f5691906131fa565b611f609190612f1e565b9150611f32565b80925050505b919050565b5f73ffffffffffffffffffffffffffffffffffffffff168273ffffffffffffffffffffffffffffffffffffffff1603611fe2575f6040517fec442f05000000000000000000000000000000000000000000000000000000008152600401611fd99190612834565b60405180910390fd5b611fed5f838361205e565b5050565b805f016020810190612003919061335c565b600e5f015f6101000a81548162ffffff021916908360020b62ffffff160217905550806020016020810190612038919061335c565b600e5f0160036101000a81548162ffffff021916908360020b62ffffff16021790555050565b5f73ffffffffffffffffffffffffffffffffffffffff168373ffffffffffffffffffffffffffffffffffffffff16036120ae578060025f8282546120a291906131fa565b9250508190555061217c565b5f805f8573ffffffffffffffffffffffffffffffffffffffff1673ffffffffffffffffffffffffffffffffffffffff1681526020019081526020015f2054905081811015612137578381836040517fe450d38c00000000000000000000000000000000000000000000000000000000815260040161212e9392919061357a565b60405180910390fd5b8181035f808673ffffffffffffffffffffffffffffffffffffffff1673ffffffffffffffffffffffffffffffffffffffff1681526020019081526020015f2081905550505b5f73ffffffffffffffffffffffffffffffffffffffff168273ffffffffffffffffffffffffffffffffffffffff16036121c3578060025f828254039250508190555061220d565b805f808473ffffffffffffffffffffffffffffffffffffffff1673ffffffffffffffffffffffffffffffffffffffff1681526020019081526020015f205f82825401925050819055505b8173ffffffffffffffffffffffffffffffffffffffff168373ffffffffffffffffffffffffffffffffffffffff167fddf252ad1be2c89b69c2b068fc378daa952ba7f163c4a11628f55a4df523b3ef8360405161226a919061272a565b60405180910390a3505050565b5f73ffffffffffffffffffffffffffffffffffffffff168473ffffffffffffffffffffffffffffffffffffffff16036122e7575f6040517fe602df050000000000000000000000000000000000000000000000000000000081526004016122de9190612834565b60405180910390fd5b5f73ffffffffffffffffffffffffffffffffffffffff168373ffffffffffffffffffffffffffffffffffffffff1603612357575f6040517f94280d6200000000000000000000000000000000000000000000000000000000815260040161234e9190612834565b60405180910390fd5b8160015f8673ffffffffffffffffffffffffffffffffffffffff1673ffffffffffffffffffffffffffffffffffffffff1681526020019081526020015f205f8573ffffffffffffffffffffffffffffffffffffffff1673ffffffffffffffffffffffffffffffffffffffff1681526020019081526020015f20819055508015612440578273ffffffffffffffffffffffffffffffffffffffff168473ffffffffffffffffffffffffffffffffffffffff167f8c5be1e5ebec7d5bd14f71427d1e84f3dd0314c0f7b2291e5b200ac8c7c3b92584604051612437919061272a565b60405180910390a35b50505050565b6040518060e001604052805f60020b81526020015f60020b81526020015f6fffffffffffffffffffffffffffffffff1681526020015f81526020015f81526020015f81526020015f81525090565b60405180610100016040528060608152602001606081526020015f73ffffffffffffffffffffffffffffffffffffffff1681526020015f73ffffffffffffffffffffffffffffffffffffffff1681526020015f62ffffff1681526020015f81526020015f81526020015f151581525090565b5f80fd5b5f80fd5b5f819050919050565b6125208161250e565b811461252a575f80fd5b50565b5f8135905061253b81612517565b92915050565b5f73ffffffffffffffffffffffffffffffffffffffff82169050919050565b5f61256a82612541565b9050919050565b61257a81612560565b8114612584575f80fd5b50565b5f8135905061259581612571565b92915050565b5f80604083850312156125b1576125b0612506565b5b5f6125be8582860161252d565b92505060206125cf85828601612587565b9150509250929050565b6125e28161250e565b82525050565b5f6040820190506125fb5f8301856125d9565b61260860208301846125d9565b9392505050565b5f81519050919050565b5f82825260208201905092915050565b5f5b8381101561264657808201518184015260208101905061262b565b5f8484015250505050565b5f601f19601f8301169050919050565b5f61266b8261260f565b6126758185612619565b9350612685818560208601612629565b61268e81612651565b840191505092915050565b5f6020820190508181035f8301526126b18184612661565b905092915050565b5f80604083850312156126cf576126ce612506565b5b5f6126dc85828601612587565b92505060206126ed8582860161252d565b9150509250929050565b5f8115159050919050565b61270b816126f7565b82525050565b5f6020820190506127245f830184612702565b92915050565b5f60208201905061273d5f8301846125d9565b92915050565b5f819050919050565b61275581612743565b811461275f575f80fd5b50565b5f813590506127708161274c565b92915050565b5f6020828403121561278b5761278a612506565b5b5f61279884828501612762565b91505092915050565b5f805f606084860312156127b8576127b7612506565b5b5f6127c586828701612587565b93505060206127d686828701612587565b92505060406127e78682870161252d565b9150509250925092565b5f60ff82169050919050565b612806816127f1565b82525050565b5f60208201905061281f5f8301846127fd565b92915050565b61282e81612560565b82525050565b5f6020820190506128475f830184612825565b92915050565b5f6020828403121561286257612861612506565b5b5f61286f84828501612587565b91505092915050565b5f8160020b9050919050565b61288d81612878565b82525050565b5f6fffffffffffffffffffffffffffffffff82169050919050565b6128b781612893565b82525050565b6128c68161250e565b82525050565b60e082015f8201516128e05f850182612884565b5060208201516128f36020850182612884565b50604082015161290660408501826128ae565b50606082015161291960608501826128bd565b50608082015161292c60808501826128bd565b5060a082015161293f60a08501826128bd565b5060c082015161295260c08501826128bd565b50505050565b5f60e08201905061296b5f8301846128cc565b92915050565b5f62ffffff82169050919050565b61298881612971565b82525050565b5f610100820190508181035f8301526129a7818b612661565b905081810360208301526129bb818a612661565b90506129ca6040830189612825565b6129d76060830188612825565b6129e4608083018761297f565b6129f160a08301866125d9565b6129fe60c08301856125d9565b612a0b60e0830184612702565b9998505050505050505050565b5f82825260208201905092915050565b5f612a328261260f565b612a3c8185612a18565b9350612a4c818560208601612629565b612a5581612651565b840191505092915050565b612a6981612560565b82525050565b612a7881612971565b82525050565b612a87816126f7565b82525050565b5f61010083015f8301518482035f860152612aa88282612a28565b91505060208301518482036020860152612ac28282612a28565b9150506040830151612ad76040860182612a60565b506060830151612aea6060860182612a60565b506080830151612afd6080860182612a6f565b5060a0830151612b1060a08601826128bd565b5060c0830151612b2360c08601826128bd565b5060e0830151612b3660e0860182612a7e565b508091505092915050565b5f6020820190508181035f830152612b598184612a8d565b905092915050565b5f805f60608486031215612b7857612b77612506565b5b5f612b858682870161252d565b9350506020612b968682870161252d565b9250506040612ba786828701612587565b9150509250925092565b612bba81612878565b82525050565b612bc981612893565b82525050565b5f60e082019050612be25f83018a612bb1565b612bef6020830189612bb1565b612bfc6040830188612bc0565b612c0960608301876125d9565b612c1660808301866125d9565b612c2360a08301856125d9565b612c3060c08301846125d9565b98975050505050505050565b5f8060408385031215612c5257612c51612506565b5b5f612c5f85828601612587565b9250506020612c7085828601612587565b9150509250929050565b5f80fd5b5f60c08284031215612c9357612c92612c7a565b5b81905092915050565b5f60208284031215612cb157612cb0612506565b5b5f82013567ffffffffffffffff811115612cce57612ccd61250a565b5b612cda84828501612c7e565b91505092915050565b7f496e76616c696420636861696e000000000000000000000000000000000000005f82015250565b5f612d17600d83612619565b9150612d2282612ce3565b602082019050919050565b5f6020820190508181035f830152612d4481612d0b565b9050919050565b7f5661756c742070617573656400000000000000000000000000000000000000005f82015250565b5f612d7f600c83612619565b9150612d8a82612d4b565b602082019050919050565b5f6020820190508181035f830152612dac81612d73565b9050919050565b7f496e76616c6964207368617265730000000000000000000000000000000000005f82015250565b5f612de7600e83612619565b9150612df282612db3565b602082019050919050565b5f6020820190508181035f830152612e1481612ddb565b9050919050565b7f496e73756666696369656e7420736861726573000000000000000000000000005f82015250565b5f612e4f601383612619565b9150612e5a82612e1b565b602082019050919050565b5f6020820190508181035f830152612e7c81612e43565b9050919050565b7f4e487b71000000000000000000000000000000000000000000000000000000005f52601160045260245ffd5b5f612eba8261250e565b9150612ec58361250e565b9250828202612ed38161250e565b91508282048414831517612eea57612ee9612e83565b5b5092915050565b7f4e487b71000000000000000000000000000000000000000000000000000000005f52601260045260245ffd5b5f612f288261250e565b9150612f338361250e565b925082612f4357612f42612ef1565b5b828204905092915050565b5f604082019050612f615f830185612825565b612f6e60208301846125d9565b9392505050565b612f7e816126f7565b8114612f88575f80fd5b50565b5f81519050612f9981612f75565b92915050565b5f60208284031215612fb457612fb3612506565b5b5f612fc184828501612f8b565b91505092915050565b7f4e487b71000000000000000000000000000000000000000000000000000000005f52602260045260245ffd5b5f600282049050600182168061300e57607f821691505b60208210810361302157613020612fca565b5b50919050565b7f496e76616c6964206f7261636c650000000000000000000000000000000000005f82015250565b5f61305b600e83612619565b915061306682613027565b602082019050919050565b5f6020820190508181035f8301526130888161304f565b9050919050565b7f496e76616c696420616d6f756e747300000000000000000000000000000000005f82015250565b5f6130c3600f83612619565b91506130ce8261308f565b602082019050919050565b5f6020820190508181035f8301526130f0816130b7565b9050919050565b7f496e76616c696420726563697069656e740000000000000000000000000000005f82015250565b5f61312b601183612619565b9150613136826130f7565b602082019050919050565b5f6020820190508181035f8301526131588161311f565b9050919050565b7f496e73756666696369656e7420696e697469616c206c697175696469747900005f82015250565b5f613193601e83612619565b915061319e8261315f565b602082019050919050565b5f6020820190508181035f8301526131c081613187565b9050919050565b5f6131d18261250e565b91506131dc8361250e565b92508282039050818111156131f4576131f3612e83565b5b92915050565b5f6132048261250e565b915061320f8361250e565b925082820190508082111561322757613226612e83565b5b92915050565b5f6060820190506132405f830186612825565b61324d6020830185612825565b61325a60408301846125d9565b949350505050565b7f556e617574686f72697a6564204149206f7261636c65000000000000000000005f82015250565b5f613296601683612619565b91506132a182613262565b602082019050919050565b5f6020820190508181035f8301526132c38161328a565b9050919050565b7f526562616c616e636520746f6f206672657175656e74000000000000000000005f82015250565b5f6132fe601683612619565b9150613309826132ca565b602082019050919050565b5f6020820190508181035f83015261332b816132f2565b9050919050565b61333b81612878565b8114613345575f80fd5b50565b5f8135905061335681613332565b92915050565b5f6020828403121561337157613370612506565b5b5f61337e84828501613348565b91505092915050565b5f8160e81b9050919050565b5f61339d82613387565b9050919050565b6133b56133b082612878565b613393565b82525050565b5f819050919050565b6133d56133d08261250e565b6133bb565b82525050565b5f6133e682876133a4565b6003820191506133f682866133a4565b60038201915061340682856133c4565b60208201915061341682846133c4565b60208201915081905095945050505050565b7f5265717565737420616c726561647920657865637574656400000000000000005f82015250565b5f61345c601883612619565b915061346782613428565b602082019050919050565b5f6020820190508181035f83015261348981613450565b9050919050565b7f52657175657374206578706972656400000000000000000000000000000000005f82015250565b5f6134c4600f83612619565b91506134cf82613490565b602082019050919050565b5f6020820190508181035f8301526134f1816134b8565b9050919050565b5f60808201905061350b5f830187612bb1565b6135186020830186612bb1565b6135256040830185612bb1565b6135326060830184612bb1565b95945050505050565b5f8151905061354981612517565b92915050565b5f6020828403121561356457613563612506565b5b5f6135718482850161353b565b91505092915050565b5f60608201905061358d5f830186612825565b61359a60208301856125d9565b6135a760408301846125d9565b94935050505056fea264697066735822122094e06c11e26d6fcbc06486fef49b04ed9bd4e87a4e78fb6bb0da4c85cc7b12bc64736f6c63430008140033","linkReferences":{}},"methodIdentifiers":{"FEE_PRECISION()":"e63a391f","MANAGEMENT_FEE()":"5f1554e3","MIN_REBALANCE_INTERVAL()":"350e4221","PERFORMANCE_FEE()":"e93f5665","SEI_CHAIN_ID()":"c7f07447","aiOracle()":"31b221cd","allowance(address,address)":"dd62ed3e","approve(address,uint256)":"095ea7b3","balanceOf(address)":"70a08231","currentPosition()":"d534d636","decimals()":"313ce567","deposit(uint256,uint256,address)":"8dbdbe6d","emergencyPause()":"51858e27","emergencyPaused()":"27c830a9","executedAIRequests(bytes32)":"205134ce","getCurrentPosition()":"418f35cc","getVaultInfo()":"7f98aa71","lastRebalance()":"106b9ca1","name()":"06fdde03","owner()":"8da5cb5b","rebalance((int24,int24,uint256,uint256,uint256,bytes))":"fa95e4da","renounceOwnership()":"715018a6","resume()":"046f7da2","symbol()":"95d89b41","totalSupply()":"18160ddd","transfer(address,uint256)":"a9059cbb","transferFrom(address,address,uint256)":"23b872dd","transferOwnership(address)":"f2fde38b","updateAIOracle(address)":"3f2df4ad","vaultInfo()":"501ec738","withdraw(uint256,address)":"00f714ce"},"id":37}